{"contracts/payment/ChaosKingdomResourcesClaim.sol":{"ChaosKingdomResourcesClaim":{"abi":[{"inputs":[{"internalType":"contract IERC20","name":"feeContract","type":"address"},{"internalType":"contract IERC1155Mintable","name":"rewardContract","type":"address"},{"internalType":"contract IForwarderRegistry","name":"forwarderRegistry","type":"address"}],"stateMutability":"nonpayable","type":"constructor"},{"inputs":[{"internalType":"address","name":"recipient","type":"address"},{"internalType":"uint256[]","name":"ids","type":"uint256[]"},{"internalType":"uint256[]","name":"values","type":"uint256[]"},{"internalType":"uint256","name":"fee","type":"uint256"},{"internalType":"bytes32","name":"epochId","type":"bytes32"}],"name":"AlreadyClaimed","type":"error"},{"inputs":[{"internalType":"address","name":"sender","type":"address"},{"internalType":"address","name":"expectedContract","type":"address"}],"name":"FeeContractMismatch","type":"error"},{"inputs":[],"name":"IllegalInterfaceId","type":"error"},{"inputs":[{"internalType":"bytes32","name":"merkleRoot","type":"bytes32"}],"name":"InvalidMerkleRoot","type":"error"},{"inputs":[{"internalType":"address","name":"recipient","type":"address"},{"internalType":"uint256[]","name":"ids","type":"uint256[]"},{"internalType":"uint256[]","name":"values","type":"uint256[]"},{"internalType":"uint256","name":"fee","type":"uint256"},{"internalType":"bytes32","name":"epochId","type":"bytes32"}],"name":"InvalidProof","type":"error"},{"inputs":[{"internalType":"bytes32","name":"merkleRoot","type":"bytes32"}],"name":"MerkleRootAlreadyExists","type":"error"},{"inputs":[{"internalType":"address","name":"account","type":"address"}],"name":"NotContractOwner","type":"error"},{"anonymous":false,"inputs":[{"indexed":true,"internalType":"bytes32","name":"root","type":"bytes32"}],"name":"MerkleRootAdded","type":"event"},{"anonymous":false,"inputs":[{"indexed":true,"internalType":"bytes32","name":"root","type":"bytes32"}],"name":"MerkleRootDeprecated","type":"event"},{"anonymous":false,"inputs":[{"indexed":true,"internalType":"address","name":"previousOwner","type":"address"},{"indexed":true,"internalType":"address","name":"newOwner","type":"address"}],"name":"OwnershipTransferred","type":"event"},{"anonymous":false,"inputs":[{"indexed":true,"internalType":"bytes32","name":"root","type":"bytes32"},{"indexed":true,"internalType":"bytes32","name":"epochId","type":"bytes32"},{"indexed":false,"internalType":"uint256","name":"fee","type":"uint256"},{"indexed":true,"internalType":"address","name":"recipient","type":"address"},{"indexed":false,"internalType":"uint256[]","name":"ids","type":"uint256[]"},{"indexed":false,"internalType":"uint256[]","name":"values","type":"uint256[]"}],"name":"PayoutClaimed","type":"event"},{"inputs":[],"name":"FEE_CONTRACT","outputs":[{"internalType":"contract IERC20","name":"","type":"address"}],"stateMutability":"view","type":"function"},{"inputs":[],"name":"REWARD_CONTRACT","outputs":[{"internalType":"contract IERC1155Mintable","name":"","type":"address"}],"stateMutability":"view","type":"function"},{"inputs":[{"internalType":"bytes32","name":"merkleRoot","type":"bytes32"}],"name":"addMerkleRoot","outputs":[],"stateMutability":"nonpayable","type":"function"},{"inputs":[{"internalType":"address","name":"recipient","type":"address"},{"internalType":"bytes32","name":"merkleRoot","type":"bytes32"},{"internalType":"bytes32","name":"epochId","type":"bytes32"},{"internalType":"bytes32[]","name":"proof","type":"bytes32[]"},{"internalType":"uint256[]","name":"_ids","type":"uint256[]"},{"internalType":"uint256[]","name":"_values","type":"uint256[]"},{"internalType":"uint256","name":"fee","type":"uint256"}],"name":"claim","outputs":[],"stateMutability":"nonpayable","type":"function"},{"inputs":[{"internalType":"bytes32","name":"","type":"bytes32"}],"name":"claimed","outputs":[{"internalType":"bool","name":"","type":"bool"}],"stateMutability":"view","type":"function"},{"inputs":[{"internalType":"bytes32","name":"merkleRoot","type":"bytes32"}],"name":"deprecateMerkleRoot","outputs":[],"stateMutability":"nonpayable","type":"function"},{"inputs":[],"name":"forwarderRegistry","outputs":[{"internalType":"contract IForwarderRegistry","name":"","type":"address"}],"stateMutability":"view","type":"function"},{"inputs":[{"internalType":"address","name":"forwarder","type":"address"}],"name":"isTrustedForwarder","outputs":[{"internalType":"bool","name":"","type":"bool"}],"stateMutability":"view","type":"function"},{"inputs":[{"internalType":"address","name":"operator","type":"address"},{"internalType":"address","name":"from","type":"address"},{"internalType":"uint256","name":"value","type":"uint256"},{"internalType":"bytes","name":"data","type":"bytes"}],"name":"onERC20Received","outputs":[{"internalType":"bytes4","name":"magicValue","type":"bytes4"}],"stateMutability":"nonpayable","type":"function"},{"inputs":[],"name":"owner","outputs":[{"internalType":"address","name":"","type":"address"}],"stateMutability":"view","type":"function"},{"inputs":[{"internalType":"bytes32","name":"","type":"bytes32"}],"name":"roots","outputs":[{"internalType":"bool","name":"","type":"bool"}],"stateMutability":"view","type":"function"},{"inputs":[{"internalType":"bytes4","name":"interfaceId","type":"bytes4"}],"name":"supportsInterface","outputs":[{"internalType":"bool","name":"","type":"bool"}],"stateMutability":"view","type":"function"},{"inputs":[{"internalType":"address","name":"newOwner","type":"address"}],"name":"transferOwnership","outputs":[],"stateMutability":"nonpayable","type":"function"}],"devdoc":{"errors":{"NotContractOwner(address)":[{"params":{"account":"The account that was checked."}}]},"events":{"OwnershipTransferred(address,address)":{"params":{"newOwner":"the new contract owner.","previousOwner":"the previous contract owner."}}},"kind":"dev","methods":{"isTrustedForwarder(address)":{"params":{"forwarder":"The forwarder to check."},"returns":{"_0":"True if `forwarder` is trusted, false if not."}},"onERC20Received(address,address,uint256,bytes)":{"details":"Note: this function is called by an {ERC20SafeTransfer} contract after a safe transfer.","params":{"data":"Optional additional data with no specified format.","from":"The previous tokens owner.","operator":"The initiator of the safe transfer.","value":"The amount of tokens transferred."},"returns":{"magicValue":"`bytes4(keccak256(\"onERC20Received(address,address,uint256,bytes)\"))` (`0x4fc35859`) to accept, any other value to refuse."}},"owner()":{"returns":{"_0":"The address of the contract owner."}},"supportsInterface(bytes4)":{"details":"Note: This function call must use less than 30 000 gas.","params":{"interfaceId":"the interface identifier to test."},"returns":{"_0":"True if the interface is supported, false if `interfaceId` is `0xffffffff` or if the interface is not supported."}},"transferOwnership(address)":{"details":"Reverts if the sender is not the contract owner.Emits an {OwnershipTransferred} event if `newOwner` is different from the current contract owner.","params":{"newOwner":"The address of the new contract owner. Using the zero address means renouncing ownership."}}},"version":1},"evm":{"bytecode":{"linkReferences":{},"object":"60e06040523480156200001157600080fd5b5060405162001659380380620016598339810160408190526200003491620001dd565b8080336200004d81620000466200008e565b90620000c4565b506200006e634fc3585960e01b60016200006662000137565b919062000167565b6001600160a01b0390811660805293841660c05250501660a05262000253565b600080620000be60017fc9ed16f33ab3a66c84bfd83099ccb2a8845871e2e1c1928f63797152f0fd54cd62000231565b92915050565b6001600160a01b038116156200011b5781546001600160a01b0319166001600160a01b03821690811783556040516000907f8be0079c531659141344cd1fd0a4f28419497f9722a3daafe3b4186f6b6457e0908290a35b620001336307f5828d60e41b60016200006662000137565b5050565b600080620000be60017fca9d3e17f264b0f3984e2634e94adb37fa3e6a8103f06aeae6fa59e21c769f5e62000231565b600160e01b6001600160e01b031983160162000196576040516372c683bb60e01b815260040160405180910390fd5b6001600160e01b03199190911660009081526020929092526040909120805460ff1916911515919091179055565b6001600160a01b0381168114620001da57600080fd5b50565b600080600060608486031215620001f357600080fd5b83516200020081620001c4565b60208501519093506200021381620001c4565b60408501519092506200022681620001c4565b809150509250925092565b81810381811115620000be57634e487b7160e01b600052601160045260246000fd5b60805160a05160c0516113a5620002b4600039600081816101110152818161046f015281816104ed01526105f30152600081816101ab01526109be01526000818161015a0152818161022101528181610c1c0152610ca401526113a56000f3fe608060405234801561001057600080fd5b50600436106100df5760003560e01c80634fc358591161008c578063ae6dead711610066578063ae6dead714610266578063cc3c0f0614610289578063d7f176e0146102ac578063f2fde38b146102bf57600080fd5b80634fc35859146101cd578063572b6c05146102115780638da5cb5b1461025e57600080fd5b80633323c807116100bd5780633323c8071461017e5780633572aa8d146101935780633a5af339146101a657600080fd5b806301ffc9a7146100e45780631352acac1461010c5780632b4c9f1614610158575b600080fd5b6100f76100f2366004610dab565b6102d2565b60405190151581526020015b60405180910390f35b6101337f000000000000000000000000000000000000000000000000000000000000000081565b60405173ffffffffffffffffffffffffffffffffffffffff9091168152602001610103565b7f0000000000000000000000000000000000000000000000000000000000000000610133565b61019161018c366004610ded565b6102ec565b005b6101916101a1366004610ded565b6103b7565b6101337f000000000000000000000000000000000000000000000000000000000000000081565b6101e06101db366004610e2f565b61046b565b6040517fffffffff000000000000000000000000000000000000000000000000000000009091168152602001610103565b6100f761021f366004610eca565b7f000000000000000000000000000000000000000000000000000000000000000073ffffffffffffffffffffffffffffffffffffffff90811691161490565b610133610575565b6100f7610274366004610ded565b60006020819052908152604090205460ff1681565b6100f7610297366004610ded565b60016020526000908152604090205460ff1681565b6101916102ba366004610ff6565b6105a1565b6101916102cd366004610eca565b610679565b60006102e6826102e0610697565b906106c5565b92915050565b6103056102f761079f565b6102ff6107a9565b906107d7565b60008181526020819052604090205460ff1615610356576040517f5d35de37000000000000000000000000000000000000000000000000000000008152600481018290526024015b60405180910390fd5b60008181526020819052604080822080547fffffffffffffffffffffffffffffffffffffffffffffffffffffffffffffff001660011790555182917fbdd203dd78bf49cf79e4db0ecdf7d27adc380fb1f33beef2667a50db9d2a0e0491a250565b6103c26102f761079f565b60008181526020819052604090205460ff1661040d576040517f6d8257430000000000000000000000000000000000000000000000000000000081526004810182905260240161034d565b60008181526020819052604080822080547fffffffffffffffffffffffffffffffffffffffffffffffffffffffffffffff001690555182917f578eab65d47cffa57066b105301289ff86bfdc0adc2a701c3356d2a6eb6a612391a250565b60007f000000000000000000000000000000000000000000000000000000000000000073ffffffffffffffffffffffffffffffffffffffff16331461051a576040517f6c50e90500000000000000000000000000000000000000000000000000000000815233600482015273ffffffffffffffffffffffffffffffffffffffff7f000000000000000000000000000000000000000000000000000000000000000016602482015260440161034d565b60008080808061052c878901896110ac565b945094509450945094506105458a86868686868f610846565b507f4fc35859000000000000000000000000000000000000000000000000000000009a9950505050505050505050565b600061059c6105826107a9565b5473ffffffffffffffffffffffffffffffffffffffff1690565b905090565b6040517f23b872dd00000000000000000000000000000000000000000000000000000000815273ffffffffffffffffffffffffffffffffffffffff8881166004830152306024830152604482018390527f000000000000000000000000000000000000000000000000000000000000000016906323b872dd906064016020604051808303816000875af115801561063c573d6000803e3d6000fd5b505050506040513d601f19601f820116820180604052508101906106609190611148565b5061067087878787878787610846565b50505050505050565b61069461068461079f565b8261068d6107a9565b9190610ac4565b50565b6000806102e660017fca9d3e17f264b0f3984e2634e94adb37fa3e6a8103f06aeae6fa59e21c769f5e61116a565b60007c01000000000000000000000000000000000000000000000000000000007fffffffff00000000000000000000000000000000000000000000000000000000831601610715575060006102e6565b7ffe003659000000000000000000000000000000000000000000000000000000007fffffffff00000000000000000000000000000000000000000000000000000000831601610766575060016102e6565b507fffffffff00000000000000000000000000000000000000000000000000000000166000908152602091909152604090205460ff1690565b600061059c610bd9565b6000806102e660017fc9ed16f33ab3a66c84bfd83099ccb2a8845871e2e1c1928f63797152f0fd54cd61116a565b815473ffffffffffffffffffffffffffffffffffffffff828116911614610842576040517f2ef4875e00000000000000000000000000000000000000000000000000000000815273ffffffffffffffffffffffffffffffffffffffff8216600482015260240161034d565b5050565b60008681526020819052604090205460ff16610891576040517f6d8257430000000000000000000000000000000000000000000000000000000081526004810187905260240161034d565b600087848484896040516020016108ac9594939291906111d7565b604080517fffffffffffffffffffffffffffffffffffffffffffffffffffffffffffffffe081840301815291815281516020928301206000818152600190935291205490915060ff16156109365787848484896040517ff048f37a00000000000000000000000000000000000000000000000000000000815260040161034d959493929190611258565b610941858883610d20565b6109815787848484896040517fdbf2ac7c00000000000000000000000000000000000000000000000000000000815260040161034d959493929190611258565b6040517f0d6a5bbb00000000000000000000000000000000000000000000000000000000815273ffffffffffffffffffffffffffffffffffffffff7f00000000000000000000000000000000000000000000000000000000000000001690630d6a5bbb906109f7908b90889088906004016112ae565b600060405180830381600087803b158015610a1157600080fd5b505af1158015610a25573d6000803e3d6000fd5b50505060008281526001602081905260409182902080547fffffffffffffffffffffffffffffffffffffffffffffffffffffffffffffff001690911790555173ffffffffffffffffffffffffffffffffffffffff8a169150879089907fbf561a0ae8123352abf33f8f113e6b265c2e7fe7ba9b4d450750454bcbb7233a90610ab29087908a908a9061130b565b60405180910390a45050505050505050565b825473ffffffffffffffffffffffffffffffffffffffff9081169083168114610b31576040517f2ef4875e00000000000000000000000000000000000000000000000000000000815273ffffffffffffffffffffffffffffffffffffffff8416600482015260240161034d565b8173ffffffffffffffffffffffffffffffffffffffff168173ffffffffffffffffffffffffffffffffffffffff1614610bd35783547fffffffffffffffffffffffff00000000000000000000000000000000000000001673ffffffffffffffffffffffffffffffffffffffff8381169182178655604051908316907f8be0079c531659141344cd1fd0a4f28419497f9722a3daafe3b4186f6b6457e090600090a35b50505050565b600033321480610be95750601836105b15610bf357503390565b7fffffffffffffffffffffffffffffffffffffffffffffffffffffffffffffffec36013560601c7f000000000000000000000000000000000000000000000000000000000000000073ffffffffffffffffffffffffffffffffffffffff16331480610d0f57506040517f8929a8ca00000000000000000000000000000000000000000000000000000000815273ffffffffffffffffffffffffffffffffffffffff82811660048301523360248301527f00000000000000000000000000000000000000000000000000000000000000001690638929a8ca90604401602060405180830381865afa158015610ceb573d6000803e3d6000fd5b505050506040513d601f19601f82011682018060405250810190610d0f9190611148565b15610d1957919050565b3391505090565b600082610d2d8584610d36565b14949350505050565b600081815b8451811015610d7157610d6782868381518110610d5a57610d5a611340565b6020026020010151610d79565b9150600101610d3b565b509392505050565b6000818310610d95576000828152602084905260409020610da4565b60008381526020839052604090205b9392505050565b600060208284031215610dbd57600080fd5b81357fffffffff0000000000000000000000000000000000000000000000000000000081168114610da457600080fd5b600060208284031215610dff57600080fd5b5035919050565b803573ffffffffffffffffffffffffffffffffffffffff81168114610e2a57600080fd5b919050565b600080600080600060808688031215610e4757600080fd5b610e5086610e06565b9450610e5e60208701610e06565b935060408601359250606086013567ffffffffffffffff80821115610e8257600080fd5b818801915088601f830112610e9657600080fd5b813581811115610ea557600080fd5b896020828501011115610eb757600080fd5b9699959850939650602001949392505050565b600060208284031215610edc57600080fd5b610da482610e06565b7f4e487b7100000000000000000000000000000000000000000000000000000000600052604160045260246000fd5b604051601f82017fffffffffffffffffffffffffffffffffffffffffffffffffffffffffffffffe016810167ffffffffffffffff81118282101715610f5b57610f5b610ee5565b604052919050565b600067ffffffffffffffff821115610f7d57610f7d610ee5565b5060051b60200190565b600082601f830112610f9857600080fd5b81356020610fad610fa883610f63565b610f14565b8083825260208201915060208460051b870101935086841115610fcf57600080fd5b602086015b84811015610feb5780358352918301918301610fd4565b509695505050505050565b600080600080600080600060e0888a03121561101157600080fd5b61101a88610e06565b96506020880135955060408801359450606088013567ffffffffffffffff8082111561104557600080fd5b6110518b838c01610f87565b955060808a013591508082111561106757600080fd5b6110738b838c01610f87565b945060a08a013591508082111561108957600080fd5b506110968a828b01610f87565b92505060c0880135905092959891949750929550565b600080600080600060a086880312156110c457600080fd5b8535945060208601359350604086013567ffffffffffffffff808211156110ea57600080fd5b6110f689838a01610f87565b9450606088013591508082111561110c57600080fd5b61111889838a01610f87565b9350608088013591508082111561112e57600080fd5b5061113b88828901610f87565b9150509295509295909350565b60006020828403121561115a57600080fd5b81518015158114610da457600080fd5b818103818111156102e6577f4e487b7100000000000000000000000000000000000000000000000000000000600052601160045260246000fd5b60008151602080840160005b838110156111cc578151875295820195908201906001016111b0565b509495945050505050565b7fffffffffffffffffffffffffffffffffffffffff0000000000000000000000008660601b168152600061121761121160148401886111a4565b866111a4565b938452505060208201526040019392505050565b8051808352602092830192600091908084018383156111cc578151875295820195908201906001016111b0565b73ffffffffffffffffffffffffffffffffffffffff8616815260a06020820152600061128760a083018761122b565b8281036040840152611299818761122b565b60608401959095525050608001529392505050565b73ffffffffffffffffffffffffffffffffffffffff841681526080602082015260006112dd608083018561122b565b82810360408401526112ef818561122b565b8381036060909401939093525050600081526020019392505050565b838152606060208201526000611324606083018561122b565b8281036040840152611336818561122b565b9695505050505050565b7f4e487b7100000000000000000000000000000000000000000000000000000000600052603260045260246000fdfea26469706673582212207430410a321557a5974031e5fdd9418b535051500f7c51469fe1abdd0ffc089c64736f6c63430008160033","opcodes":"PUSH1 0xE0 PUSH1 0x40 MSTORE CALLVALUE DUP1 ISZERO PUSH3 0x11 JUMPI PUSH1 0x0 DUP1 REVERT JUMPDEST POP PUSH1 0x40 MLOAD PUSH3 0x1659 CODESIZE SUB DUP1 PUSH3 0x1659 DUP4 CODECOPY DUP2 ADD PUSH1 0x40 DUP2 SWAP1 MSTORE PUSH3 0x34 SWAP2 PUSH3 0x1DD JUMP JUMPDEST DUP1 DUP1 CALLER PUSH3 0x4D DUP2 PUSH3 0x46 PUSH3 0x8E JUMP JUMPDEST SWAP1 PUSH3 0xC4 JUMP JUMPDEST POP PUSH3 0x6E PUSH4 0x4FC35859 PUSH1 0xE0 SHL PUSH1 0x1 PUSH3 0x66 PUSH3 0x137 JUMP JUMPDEST SWAP2 SWAP1 PUSH3 0x167 JUMP JUMPDEST PUSH1 0x1 PUSH1 0x1 PUSH1 0xA0 SHL SUB SWAP1 DUP2 AND PUSH1 0x80 MSTORE SWAP4 DUP5 AND PUSH1 0xC0 MSTORE POP POP AND PUSH1 0xA0 MSTORE PUSH3 0x253 JUMP JUMPDEST PUSH1 0x0 DUP1 PUSH3 0xBE PUSH1 0x1 PUSH32 0xC9ED16F33AB3A66C84BFD83099CCB2A8845871E2E1C1928F63797152F0FD54CD PUSH3 0x231 JUMP JUMPDEST SWAP3 SWAP2 POP POP JUMP JUMPDEST PUSH1 0x1 PUSH1 0x1 PUSH1 0xA0 SHL SUB DUP2 AND ISZERO PUSH3 0x11B JUMPI DUP2 SLOAD PUSH1 0x1 PUSH1 0x1 PUSH1 0xA0 SHL SUB NOT AND PUSH1 0x1 PUSH1 0x1 PUSH1 0xA0 SHL SUB DUP3 AND SWAP1 DUP2 OR DUP4 SSTORE PUSH1 0x40 MLOAD PUSH1 0x0 SWAP1 PUSH32 0x8BE0079C531659141344CD1FD0A4F28419497F9722A3DAAFE3B4186F6B6457E0 SWAP1 DUP3 SWAP1 LOG3 JUMPDEST PUSH3 0x133 PUSH4 0x7F5828D PUSH1 0xE4 SHL PUSH1 0x1 PUSH3 0x66 PUSH3 0x137 JUMP JUMPDEST POP POP JUMP JUMPDEST PUSH1 0x0 DUP1 PUSH3 0xBE PUSH1 0x1 PUSH32 0xCA9D3E17F264B0F3984E2634E94ADB37FA3E6A8103F06AEAE6FA59E21C769F5E PUSH3 0x231 JUMP JUMPDEST PUSH1 0x1 PUSH1 0xE0 SHL PUSH1 0x1 PUSH1 0x1 PUSH1 0xE0 SHL SUB NOT DUP4 AND ADD PUSH3 0x196 JUMPI PUSH1 0x40 MLOAD PUSH4 0x72C683BB PUSH1 0xE0 SHL DUP2 MSTORE PUSH1 0x4 ADD PUSH1 0x40 MLOAD DUP1 SWAP2 SUB SWAP1 REVERT JUMPDEST PUSH1 0x1 PUSH1 0x1 PUSH1 0xE0 SHL SUB NOT SWAP2 SWAP1 SWAP2 AND PUSH1 0x0 SWAP1 DUP2 MSTORE PUSH1 0x20 SWAP3 SWAP1 SWAP3 MSTORE PUSH1 0x40 SWAP1 SWAP2 KECCAK256 DUP1 SLOAD PUSH1 0xFF NOT AND SWAP2 ISZERO ISZERO SWAP2 SWAP1 SWAP2 OR SWAP1 SSTORE JUMP JUMPDEST PUSH1 0x1 PUSH1 0x1 PUSH1 0xA0 SHL SUB DUP2 AND DUP2 EQ PUSH3 0x1DA JUMPI PUSH1 0x0 DUP1 REVERT JUMPDEST POP JUMP JUMPDEST PUSH1 0x0 DUP1 PUSH1 0x0 PUSH1 0x60 DUP5 DUP7 SUB SLT ISZERO PUSH3 0x1F3 JUMPI PUSH1 0x0 DUP1 REVERT JUMPDEST DUP4 MLOAD PUSH3 0x200 DUP2 PUSH3 0x1C4 JUMP JUMPDEST PUSH1 0x20 DUP6 ADD MLOAD SWAP1 SWAP4 POP PUSH3 0x213 DUP2 PUSH3 0x1C4 JUMP JUMPDEST PUSH1 0x40 DUP6 ADD MLOAD SWAP1 SWAP3 POP PUSH3 0x226 DUP2 PUSH3 0x1C4 JUMP JUMPDEST DUP1 SWAP2 POP POP SWAP3 POP SWAP3 POP SWAP3 JUMP JUMPDEST DUP2 DUP2 SUB DUP2 DUP2 GT ISZERO PUSH3 0xBE JUMPI PUSH4 0x4E487B71 PUSH1 0xE0 SHL PUSH1 0x0 MSTORE PUSH1 0x11 PUSH1 0x4 MSTORE PUSH1 0x24 PUSH1 0x0 REVERT JUMPDEST PUSH1 0x80 MLOAD PUSH1 0xA0 MLOAD PUSH1 0xC0 MLOAD PUSH2 0x13A5 PUSH3 0x2B4 PUSH1 0x0 CODECOPY PUSH1 0x0 DUP2 DUP2 PUSH2 0x111 ADD MSTORE DUP2 DUP2 PUSH2 0x46F ADD MSTORE DUP2 DUP2 PUSH2 0x4ED ADD MSTORE PUSH2 0x5F3 ADD MSTORE PUSH1 0x0 DUP2 DUP2 PUSH2 0x1AB ADD MSTORE PUSH2 0x9BE ADD MSTORE PUSH1 0x0 DUP2 DUP2 PUSH2 0x15A ADD MSTORE DUP2 DUP2 PUSH2 0x221 ADD MSTORE DUP2 DUP2 PUSH2 0xC1C ADD MSTORE PUSH2 0xCA4 ADD MSTORE PUSH2 0x13A5 PUSH1 0x0 RETURN INVALID PUSH1 0x80 PUSH1 0x40 MSTORE CALLVALUE DUP1 ISZERO PUSH2 0x10 JUMPI PUSH1 0x0 DUP1 REVERT JUMPDEST POP PUSH1 0x4 CALLDATASIZE LT PUSH2 0xDF JUMPI PUSH1 0x0 CALLDATALOAD PUSH1 0xE0 SHR DUP1 PUSH4 0x4FC35859 GT PUSH2 0x8C JUMPI DUP1 PUSH4 0xAE6DEAD7 GT PUSH2 0x66 JUMPI DUP1 PUSH4 0xAE6DEAD7 EQ PUSH2 0x266 JUMPI DUP1 PUSH4 0xCC3C0F06 EQ PUSH2 0x289 JUMPI DUP1 PUSH4 0xD7F176E0 EQ PUSH2 0x2AC JUMPI DUP1 PUSH4 0xF2FDE38B EQ PUSH2 0x2BF JUMPI PUSH1 0x0 DUP1 REVERT JUMPDEST DUP1 PUSH4 0x4FC35859 EQ PUSH2 0x1CD JUMPI DUP1 PUSH4 0x572B6C05 EQ PUSH2 0x211 JUMPI DUP1 PUSH4 0x8DA5CB5B EQ PUSH2 0x25E JUMPI PUSH1 0x0 DUP1 REVERT JUMPDEST DUP1 PUSH4 0x3323C807 GT PUSH2 0xBD JUMPI DUP1 PUSH4 0x3323C807 EQ PUSH2 0x17E JUMPI DUP1 PUSH4 0x3572AA8D EQ PUSH2 0x193 JUMPI DUP1 PUSH4 0x3A5AF339 EQ PUSH2 0x1A6 JUMPI PUSH1 0x0 DUP1 REVERT JUMPDEST DUP1 PUSH4 0x1FFC9A7 EQ PUSH2 0xE4 JUMPI DUP1 PUSH4 0x1352ACAC EQ PUSH2 0x10C JUMPI DUP1 PUSH4 0x2B4C9F16 EQ PUSH2 0x158 JUMPI JUMPDEST PUSH1 0x0 DUP1 REVERT JUMPDEST PUSH2 0xF7 PUSH2 0xF2 CALLDATASIZE PUSH1 0x4 PUSH2 0xDAB JUMP JUMPDEST PUSH2 0x2D2 JUMP JUMPDEST PUSH1 0x40 MLOAD SWAP1 ISZERO ISZERO DUP2 MSTORE PUSH1 0x20 ADD JUMPDEST PUSH1 0x40 MLOAD DUP1 SWAP2 SUB SWAP1 RETURN JUMPDEST PUSH2 0x133 PUSH32 0x0 DUP2 JUMP JUMPDEST PUSH1 0x40 MLOAD PUSH20 0xFFFFFFFFFFFFFFFFFFFFFFFFFFFFFFFFFFFFFFFF SWAP1 SWAP2 AND DUP2 MSTORE PUSH1 0x20 ADD PUSH2 0x103 JUMP JUMPDEST PUSH32 0x0 PUSH2 0x133 JUMP JUMPDEST PUSH2 0x191 PUSH2 0x18C CALLDATASIZE PUSH1 0x4 PUSH2 0xDED JUMP JUMPDEST PUSH2 0x2EC JUMP JUMPDEST STOP JUMPDEST PUSH2 0x191 PUSH2 0x1A1 CALLDATASIZE PUSH1 0x4 PUSH2 0xDED JUMP JUMPDEST PUSH2 0x3B7 JUMP JUMPDEST PUSH2 0x133 PUSH32 0x0 DUP2 JUMP JUMPDEST PUSH2 0x1E0 PUSH2 0x1DB CALLDATASIZE PUSH1 0x4 PUSH2 0xE2F JUMP JUMPDEST PUSH2 0x46B JUMP JUMPDEST PUSH1 0x40 MLOAD PUSH32 0xFFFFFFFF00000000000000000000000000000000000000000000000000000000 SWAP1 SWAP2 AND DUP2 MSTORE PUSH1 0x20 ADD PUSH2 0x103 JUMP JUMPDEST PUSH2 0xF7 PUSH2 0x21F CALLDATASIZE PUSH1 0x4 PUSH2 0xECA JUMP JUMPDEST PUSH32 0x0 PUSH20 0xFFFFFFFFFFFFFFFFFFFFFFFFFFFFFFFFFFFFFFFF SWAP1 DUP2 AND SWAP2 AND EQ SWAP1 JUMP JUMPDEST PUSH2 0x133 PUSH2 0x575 JUMP JUMPDEST PUSH2 0xF7 PUSH2 0x274 CALLDATASIZE PUSH1 0x4 PUSH2 0xDED JUMP JUMPDEST PUSH1 0x0 PUSH1 0x20 DUP2 SWAP1 MSTORE SWAP1 DUP2 MSTORE PUSH1 0x40 SWAP1 KECCAK256 SLOAD PUSH1 0xFF AND DUP2 JUMP JUMPDEST PUSH2 0xF7 PUSH2 0x297 CALLDATASIZE PUSH1 0x4 PUSH2 0xDED JUMP JUMPDEST PUSH1 0x1 PUSH1 0x20 MSTORE PUSH1 0x0 SWAP1 DUP2 MSTORE PUSH1 0x40 SWAP1 KECCAK256 SLOAD PUSH1 0xFF AND DUP2 JUMP JUMPDEST PUSH2 0x191 PUSH2 0x2BA CALLDATASIZE PUSH1 0x4 PUSH2 0xFF6 JUMP JUMPDEST PUSH2 0x5A1 JUMP JUMPDEST PUSH2 0x191 PUSH2 0x2CD CALLDATASIZE PUSH1 0x4 PUSH2 0xECA JUMP JUMPDEST PUSH2 0x679 JUMP JUMPDEST PUSH1 0x0 PUSH2 0x2E6 DUP3 PUSH2 0x2E0 PUSH2 0x697 JUMP JUMPDEST SWAP1 PUSH2 0x6C5 JUMP JUMPDEST SWAP3 SWAP2 POP POP JUMP JUMPDEST PUSH2 0x305 PUSH2 0x2F7 PUSH2 0x79F JUMP JUMPDEST PUSH2 0x2FF PUSH2 0x7A9 JUMP JUMPDEST SWAP1 PUSH2 0x7D7 JUMP JUMPDEST PUSH1 0x0 DUP2 DUP2 MSTORE PUSH1 0x20 DUP2 SWAP1 MSTORE PUSH1 0x40 SWAP1 KECCAK256 SLOAD PUSH1 0xFF AND ISZERO PUSH2 0x356 JUMPI PUSH1 0x40 MLOAD PUSH32 0x5D35DE3700000000000000000000000000000000000000000000000000000000 DUP2 MSTORE PUSH1 0x4 DUP2 ADD DUP3 SWAP1 MSTORE PUSH1 0x24 ADD JUMPDEST PUSH1 0x40 MLOAD DUP1 SWAP2 SUB SWAP1 REVERT JUMPDEST PUSH1 0x0 DUP2 DUP2 MSTORE PUSH1 0x20 DUP2 SWAP1 MSTORE PUSH1 0x40 DUP1 DUP3 KECCAK256 DUP1 SLOAD PUSH32 0xFFFFFFFFFFFFFFFFFFFFFFFFFFFFFFFFFFFFFFFFFFFFFFFFFFFFFFFFFFFFFF00 AND PUSH1 0x1 OR SWAP1 SSTORE MLOAD DUP3 SWAP2 PUSH32 0xBDD203DD78BF49CF79E4DB0ECDF7D27ADC380FB1F33BEEF2667A50DB9D2A0E04 SWAP2 LOG2 POP JUMP JUMPDEST PUSH2 0x3C2 PUSH2 0x2F7 PUSH2 0x79F JUMP JUMPDEST PUSH1 0x0 DUP2 DUP2 MSTORE PUSH1 0x20 DUP2 SWAP1 MSTORE PUSH1 0x40 SWAP1 KECCAK256 SLOAD PUSH1 0xFF AND PUSH2 0x40D JUMPI PUSH1 0x40 MLOAD PUSH32 0x6D82574300000000000000000000000000000000000000000000000000000000 DUP2 MSTORE PUSH1 0x4 DUP2 ADD DUP3 SWAP1 MSTORE PUSH1 0x24 ADD PUSH2 0x34D JUMP JUMPDEST PUSH1 0x0 DUP2 DUP2 MSTORE PUSH1 0x20 DUP2 SWAP1 MSTORE PUSH1 0x40 DUP1 DUP3 KECCAK256 DUP1 SLOAD PUSH32 0xFFFFFFFFFFFFFFFFFFFFFFFFFFFFFFFFFFFFFFFFFFFFFFFFFFFFFFFFFFFFFF00 AND SWAP1 SSTORE MLOAD DUP3 SWAP2 PUSH32 0x578EAB65D47CFFA57066B105301289FF86BFDC0ADC2A701C3356D2A6EB6A6123 SWAP2 LOG2 POP JUMP JUMPDEST PUSH1 0x0 PUSH32 0x0 PUSH20 0xFFFFFFFFFFFFFFFFFFFFFFFFFFFFFFFFFFFFFFFF AND CALLER EQ PUSH2 0x51A JUMPI PUSH1 0x40 MLOAD PUSH32 0x6C50E90500000000000000000000000000000000000000000000000000000000 DUP2 MSTORE CALLER PUSH1 0x4 DUP3 ADD MSTORE PUSH20 0xFFFFFFFFFFFFFFFFFFFFFFFFFFFFFFFFFFFFFFFF PUSH32 0x0 AND PUSH1 0x24 DUP3 ADD MSTORE PUSH1 0x44 ADD PUSH2 0x34D JUMP JUMPDEST PUSH1 0x0 DUP1 DUP1 DUP1 DUP1 PUSH2 0x52C DUP8 DUP10 ADD DUP10 PUSH2 0x10AC JUMP JUMPDEST SWAP5 POP SWAP5 POP SWAP5 POP SWAP5 POP SWAP5 POP PUSH2 0x545 DUP11 DUP7 DUP7 DUP7 DUP7 DUP7 DUP16 PUSH2 0x846 JUMP JUMPDEST POP PUSH32 0x4FC3585900000000000000000000000000000000000000000000000000000000 SWAP11 SWAP10 POP POP POP POP POP POP POP POP POP POP JUMP JUMPDEST PUSH1 0x0 PUSH2 0x59C PUSH2 0x582 PUSH2 0x7A9 JUMP JUMPDEST SLOAD PUSH20 0xFFFFFFFFFFFFFFFFFFFFFFFFFFFFFFFFFFFFFFFF AND SWAP1 JUMP JUMPDEST SWAP1 POP SWAP1 JUMP JUMPDEST PUSH1 0x40 MLOAD PUSH32 0x23B872DD00000000000000000000000000000000000000000000000000000000 DUP2 MSTORE PUSH20 0xFFFFFFFFFFFFFFFFFFFFFFFFFFFFFFFFFFFFFFFF DUP9 DUP2 AND PUSH1 0x4 DUP4 ADD MSTORE ADDRESS PUSH1 0x24 DUP4 ADD MSTORE PUSH1 0x44 DUP3 ADD DUP4 SWAP1 MSTORE PUSH32 0x0 AND SWAP1 PUSH4 0x23B872DD SWAP1 PUSH1 0x64 ADD PUSH1 0x20 PUSH1 0x40 MLOAD DUP1 DUP4 SUB DUP2 PUSH1 0x0 DUP8 GAS CALL ISZERO DUP1 ISZERO PUSH2 0x63C JUMPI RETURNDATASIZE PUSH1 0x0 DUP1 RETURNDATACOPY RETURNDATASIZE PUSH1 0x0 REVERT JUMPDEST POP POP POP POP PUSH1 0x40 MLOAD RETURNDATASIZE PUSH1 0x1F NOT PUSH1 0x1F DUP3 ADD AND DUP3 ADD DUP1 PUSH1 0x40 MSTORE POP DUP2 ADD SWAP1 PUSH2 0x660 SWAP2 SWAP1 PUSH2 0x1148 JUMP JUMPDEST POP PUSH2 0x670 DUP8 DUP8 DUP8 DUP8 DUP8 DUP8 DUP8 PUSH2 0x846 JUMP JUMPDEST POP POP POP POP POP POP POP JUMP JUMPDEST PUSH2 0x694 PUSH2 0x684 PUSH2 0x79F JUMP JUMPDEST DUP3 PUSH2 0x68D PUSH2 0x7A9 JUMP JUMPDEST SWAP2 SWAP1 PUSH2 0xAC4 JUMP JUMPDEST POP JUMP JUMPDEST PUSH1 0x0 DUP1 PUSH2 0x2E6 PUSH1 0x1 PUSH32 0xCA9D3E17F264B0F3984E2634E94ADB37FA3E6A8103F06AEAE6FA59E21C769F5E PUSH2 0x116A JUMP JUMPDEST PUSH1 0x0 PUSH29 0x100000000000000000000000000000000000000000000000000000000 PUSH32 0xFFFFFFFF00000000000000000000000000000000000000000000000000000000 DUP4 AND ADD PUSH2 0x715 JUMPI POP PUSH1 0x0 PUSH2 0x2E6 JUMP JUMPDEST PUSH32 0xFE00365900000000000000000000000000000000000000000000000000000000 PUSH32 0xFFFFFFFF00000000000000000000000000000000000000000000000000000000 DUP4 AND ADD PUSH2 0x766 JUMPI POP PUSH1 0x1 PUSH2 0x2E6 JUMP JUMPDEST POP PUSH32 0xFFFFFFFF00000000000000000000000000000000000000000000000000000000 AND PUSH1 0x0 SWAP1 DUP2 MSTORE PUSH1 0x20 SWAP2 SWAP1 SWAP2 MSTORE PUSH1 0x40 SWAP1 KECCAK256 SLOAD PUSH1 0xFF AND SWAP1 JUMP JUMPDEST PUSH1 0x0 PUSH2 0x59C PUSH2 0xBD9 JUMP JUMPDEST PUSH1 0x0 DUP1 PUSH2 0x2E6 PUSH1 0x1 PUSH32 0xC9ED16F33AB3A66C84BFD83099CCB2A8845871E2E1C1928F63797152F0FD54CD PUSH2 0x116A JUMP JUMPDEST DUP2 SLOAD PUSH20 0xFFFFFFFFFFFFFFFFFFFFFFFFFFFFFFFFFFFFFFFF DUP3 DUP2 AND SWAP2 AND EQ PUSH2 0x842 JUMPI PUSH1 0x40 MLOAD PUSH32 0x2EF4875E00000000000000000000000000000000000000000000000000000000 DUP2 MSTORE PUSH20 0xFFFFFFFFFFFFFFFFFFFFFFFFFFFFFFFFFFFFFFFF DUP3 AND PUSH1 0x4 DUP3 ADD MSTORE PUSH1 0x24 ADD PUSH2 0x34D JUMP JUMPDEST POP POP JUMP JUMPDEST PUSH1 0x0 DUP7 DUP2 MSTORE PUSH1 0x20 DUP2 SWAP1 MSTORE PUSH1 0x40 SWAP1 KECCAK256 SLOAD PUSH1 0xFF AND PUSH2 0x891 JUMPI PUSH1 0x40 MLOAD PUSH32 0x6D82574300000000000000000000000000000000000000000000000000000000 DUP2 MSTORE PUSH1 0x4 DUP2 ADD DUP8 SWAP1 MSTORE PUSH1 0x24 ADD PUSH2 0x34D JUMP JUMPDEST PUSH1 0x0 DUP8 DUP5 DUP5 DUP5 DUP10 PUSH1 0x40 MLOAD PUSH1 0x20 ADD PUSH2 0x8AC SWAP6 SWAP5 SWAP4 SWAP3 SWAP2 SWAP1 PUSH2 0x11D7 JUMP JUMPDEST PUSH1 0x40 DUP1 MLOAD PUSH32 0xFFFFFFFFFFFFFFFFFFFFFFFFFFFFFFFFFFFFFFFFFFFFFFFFFFFFFFFFFFFFFFE0 DUP2 DUP5 SUB ADD DUP2 MSTORE SWAP2 DUP2 MSTORE DUP2 MLOAD PUSH1 0x20 SWAP3 DUP4 ADD KECCAK256 PUSH1 0x0 DUP2 DUP2 MSTORE PUSH1 0x1 SWAP1 SWAP4 MSTORE SWAP2 KECCAK256 SLOAD SWAP1 SWAP2 POP PUSH1 0xFF AND ISZERO PUSH2 0x936 JUMPI DUP8 DUP5 DUP5 DUP5 DUP10 PUSH1 0x40 MLOAD PUSH32 0xF048F37A00000000000000000000000000000000000000000000000000000000 DUP2 MSTORE PUSH1 0x4 ADD PUSH2 0x34D SWAP6 SWAP5 SWAP4 SWAP3 SWAP2 SWAP1 PUSH2 0x1258 JUMP JUMPDEST PUSH2 0x941 DUP6 DUP9 DUP4 PUSH2 0xD20 JUMP JUMPDEST PUSH2 0x981 JUMPI DUP8 DUP5 DUP5 DUP5 DUP10 PUSH1 0x40 MLOAD PUSH32 0xDBF2AC7C00000000000000000000000000000000000000000000000000000000 DUP2 MSTORE PUSH1 0x4 ADD PUSH2 0x34D SWAP6 SWAP5 SWAP4 SWAP3 SWAP2 SWAP1 PUSH2 0x1258 JUMP JUMPDEST PUSH1 0x40 MLOAD PUSH32 0xD6A5BBB00000000000000000000000000000000000000000000000000000000 DUP2 MSTORE PUSH20 0xFFFFFFFFFFFFFFFFFFFFFFFFFFFFFFFFFFFFFFFF PUSH32 0x0 AND SWAP1 PUSH4 0xD6A5BBB SWAP1 PUSH2 0x9F7 SWAP1 DUP12 SWAP1 DUP9 SWAP1 DUP9 SWAP1 PUSH1 0x4 ADD PUSH2 0x12AE JUMP JUMPDEST PUSH1 0x0 PUSH1 0x40 MLOAD DUP1 DUP4 SUB DUP2 PUSH1 0x0 DUP8 DUP1 EXTCODESIZE ISZERO DUP1 ISZERO PUSH2 0xA11 JUMPI PUSH1 0x0 DUP1 REVERT JUMPDEST POP GAS CALL ISZERO DUP1 ISZERO PUSH2 0xA25 JUMPI RETURNDATASIZE PUSH1 0x0 DUP1 RETURNDATACOPY RETURNDATASIZE PUSH1 0x0 REVERT JUMPDEST POP POP POP PUSH1 0x0 DUP3 DUP2 MSTORE PUSH1 0x1 PUSH1 0x20 DUP2 SWAP1 MSTORE PUSH1 0x40 SWAP2 DUP3 SWAP1 KECCAK256 DUP1 SLOAD PUSH32 0xFFFFFFFFFFFFFFFFFFFFFFFFFFFFFFFFFFFFFFFFFFFFFFFFFFFFFFFFFFFFFF00 AND SWAP1 SWAP2 OR SWAP1 SSTORE MLOAD PUSH20 0xFFFFFFFFFFFFFFFFFFFFFFFFFFFFFFFFFFFFFFFF DUP11 AND SWAP2 POP DUP8 SWAP1 DUP10 SWAP1 PUSH32 0xBF561A0AE8123352ABF33F8F113E6B265C2E7FE7BA9B4D450750454BCBB7233A SWAP1 PUSH2 0xAB2 SWAP1 DUP8 SWAP1 DUP11 SWAP1 DUP11 SWAP1 PUSH2 0x130B JUMP JUMPDEST PUSH1 0x40 MLOAD DUP1 SWAP2 SUB SWAP1 LOG4 POP POP POP POP POP POP POP POP JUMP JUMPDEST DUP3 SLOAD PUSH20 0xFFFFFFFFFFFFFFFFFFFFFFFFFFFFFFFFFFFFFFFF SWAP1 DUP2 AND SWAP1 DUP4 AND DUP2 EQ PUSH2 0xB31 JUMPI PUSH1 0x40 MLOAD PUSH32 0x2EF4875E00000000000000000000000000000000000000000000000000000000 DUP2 MSTORE PUSH20 0xFFFFFFFFFFFFFFFFFFFFFFFFFFFFFFFFFFFFFFFF DUP5 AND PUSH1 0x4 DUP3 ADD MSTORE PUSH1 0x24 ADD PUSH2 0x34D JUMP JUMPDEST DUP2 PUSH20 0xFFFFFFFFFFFFFFFFFFFFFFFFFFFFFFFFFFFFFFFF AND DUP2 PUSH20 0xFFFFFFFFFFFFFFFFFFFFFFFFFFFFFFFFFFFFFFFF AND EQ PUSH2 0xBD3 JUMPI DUP4 SLOAD PUSH32 0xFFFFFFFFFFFFFFFFFFFFFFFF0000000000000000000000000000000000000000 AND PUSH20 0xFFFFFFFFFFFFFFFFFFFFFFFFFFFFFFFFFFFFFFFF DUP4 DUP2 AND SWAP2 DUP3 OR DUP7 SSTORE PUSH1 0x40 MLOAD SWAP1 DUP4 AND SWAP1 PUSH32 0x8BE0079C531659141344CD1FD0A4F28419497F9722A3DAAFE3B4186F6B6457E0 SWAP1 PUSH1 0x0 SWAP1 LOG3 JUMPDEST POP POP POP POP JUMP JUMPDEST PUSH1 0x0 CALLER ORIGIN EQ DUP1 PUSH2 0xBE9 JUMPI POP PUSH1 0x18 CALLDATASIZE LT JUMPDEST ISZERO PUSH2 0xBF3 JUMPI POP CALLER SWAP1 JUMP JUMPDEST PUSH32 0xFFFFFFFFFFFFFFFFFFFFFFFFFFFFFFFFFFFFFFFFFFFFFFFFFFFFFFFFFFFFFFEC CALLDATASIZE ADD CALLDATALOAD PUSH1 0x60 SHR PUSH32 0x0 PUSH20 0xFFFFFFFFFFFFFFFFFFFFFFFFFFFFFFFFFFFFFFFF AND CALLER EQ DUP1 PUSH2 0xD0F JUMPI POP PUSH1 0x40 MLOAD PUSH32 0x8929A8CA00000000000000000000000000000000000000000000000000000000 DUP2 MSTORE PUSH20 0xFFFFFFFFFFFFFFFFFFFFFFFFFFFFFFFFFFFFFFFF DUP3 DUP2 AND PUSH1 0x4 DUP4 ADD MSTORE CALLER PUSH1 0x24 DUP4 ADD MSTORE PUSH32 0x0 AND SWAP1 PUSH4 0x8929A8CA SWAP1 PUSH1 0x44 ADD PUSH1 0x20 PUSH1 0x40 MLOAD DUP1 DUP4 SUB DUP2 DUP7 GAS STATICCALL ISZERO DUP1 ISZERO PUSH2 0xCEB JUMPI RETURNDATASIZE PUSH1 0x0 DUP1 RETURNDATACOPY RETURNDATASIZE PUSH1 0x0 REVERT JUMPDEST POP POP POP POP PUSH1 0x40 MLOAD RETURNDATASIZE PUSH1 0x1F NOT PUSH1 0x1F DUP3 ADD AND DUP3 ADD DUP1 PUSH1 0x40 MSTORE POP DUP2 ADD SWAP1 PUSH2 0xD0F SWAP2 SWAP1 PUSH2 0x1148 JUMP JUMPDEST ISZERO PUSH2 0xD19 JUMPI SWAP2 SWAP1 POP JUMP JUMPDEST CALLER SWAP2 POP POP SWAP1 JUMP JUMPDEST PUSH1 0x0 DUP3 PUSH2 0xD2D DUP6 DUP5 PUSH2 0xD36 JUMP JUMPDEST EQ SWAP5 SWAP4 POP POP POP POP JUMP JUMPDEST PUSH1 0x0 DUP2 DUP2 JUMPDEST DUP5 MLOAD DUP2 LT ISZERO PUSH2 0xD71 JUMPI PUSH2 0xD67 DUP3 DUP7 DUP4 DUP2 MLOAD DUP2 LT PUSH2 0xD5A JUMPI PUSH2 0xD5A PUSH2 0x1340 JUMP JUMPDEST PUSH1 0x20 MUL PUSH1 0x20 ADD ADD MLOAD PUSH2 0xD79 JUMP JUMPDEST SWAP2 POP PUSH1 0x1 ADD PUSH2 0xD3B JUMP JUMPDEST POP SWAP4 SWAP3 POP POP POP JUMP JUMPDEST PUSH1 0x0 DUP2 DUP4 LT PUSH2 0xD95 JUMPI PUSH1 0x0 DUP3 DUP2 MSTORE PUSH1 0x20 DUP5 SWAP1 MSTORE PUSH1 0x40 SWAP1 KECCAK256 PUSH2 0xDA4 JUMP JUMPDEST PUSH1 0x0 DUP4 DUP2 MSTORE PUSH1 0x20 DUP4 SWAP1 MSTORE PUSH1 0x40 SWAP1 KECCAK256 JUMPDEST SWAP4 SWAP3 POP POP POP JUMP JUMPDEST PUSH1 0x0 PUSH1 0x20 DUP3 DUP5 SUB SLT ISZERO PUSH2 0xDBD JUMPI PUSH1 0x0 DUP1 REVERT JUMPDEST DUP2 CALLDATALOAD PUSH32 0xFFFFFFFF00000000000000000000000000000000000000000000000000000000 DUP2 AND DUP2 EQ PUSH2 0xDA4 JUMPI PUSH1 0x0 DUP1 REVERT JUMPDEST PUSH1 0x0 PUSH1 0x20 DUP3 DUP5 SUB SLT ISZERO PUSH2 0xDFF JUMPI PUSH1 0x0 DUP1 REVERT JUMPDEST POP CALLDATALOAD SWAP2 SWAP1 POP JUMP JUMPDEST DUP1 CALLDATALOAD PUSH20 0xFFFFFFFFFFFFFFFFFFFFFFFFFFFFFFFFFFFFFFFF DUP2 AND DUP2 EQ PUSH2 0xE2A JUMPI PUSH1 0x0 DUP1 REVERT JUMPDEST SWAP2 SWAP1 POP JUMP JUMPDEST PUSH1 0x0 DUP1 PUSH1 0x0 DUP1 PUSH1 0x0 PUSH1 0x80 DUP7 DUP9 SUB SLT ISZERO PUSH2 0xE47 JUMPI PUSH1 0x0 DUP1 REVERT JUMPDEST PUSH2 0xE50 DUP7 PUSH2 0xE06 JUMP JUMPDEST SWAP5 POP PUSH2 0xE5E PUSH1 0x20 DUP8 ADD PUSH2 0xE06 JUMP JUMPDEST SWAP4 POP PUSH1 0x40 DUP7 ADD CALLDATALOAD SWAP3 POP PUSH1 0x60 DUP7 ADD CALLDATALOAD PUSH8 0xFFFFFFFFFFFFFFFF DUP1 DUP3 GT ISZERO PUSH2 0xE82 JUMPI PUSH1 0x0 DUP1 REVERT JUMPDEST DUP2 DUP9 ADD SWAP2 POP DUP9 PUSH1 0x1F DUP4 ADD SLT PUSH2 0xE96 JUMPI PUSH1 0x0 DUP1 REVERT JUMPDEST DUP2 CALLDATALOAD DUP2 DUP2 GT ISZERO PUSH2 0xEA5 JUMPI PUSH1 0x0 DUP1 REVERT JUMPDEST DUP10 PUSH1 0x20 DUP3 DUP6 ADD ADD GT ISZERO PUSH2 0xEB7 JUMPI PUSH1 0x0 DUP1 REVERT JUMPDEST SWAP7 SWAP10 SWAP6 SWAP9 POP SWAP4 SWAP7 POP PUSH1 0x20 ADD SWAP5 SWAP4 SWAP3 POP POP POP JUMP JUMPDEST PUSH1 0x0 PUSH1 0x20 DUP3 DUP5 SUB SLT ISZERO PUSH2 0xEDC JUMPI PUSH1 0x0 DUP1 REVERT JUMPDEST PUSH2 0xDA4 DUP3 PUSH2 0xE06 JUMP JUMPDEST PUSH32 0x4E487B7100000000000000000000000000000000000000000000000000000000 PUSH1 0x0 MSTORE PUSH1 0x41 PUSH1 0x4 MSTORE PUSH1 0x24 PUSH1 0x0 REVERT JUMPDEST PUSH1 0x40 MLOAD PUSH1 0x1F DUP3 ADD PUSH32 0xFFFFFFFFFFFFFFFFFFFFFFFFFFFFFFFFFFFFFFFFFFFFFFFFFFFFFFFFFFFFFFE0 AND DUP2 ADD PUSH8 0xFFFFFFFFFFFFFFFF DUP2 GT DUP3 DUP3 LT OR ISZERO PUSH2 0xF5B JUMPI PUSH2 0xF5B PUSH2 0xEE5 JUMP JUMPDEST PUSH1 0x40 MSTORE SWAP2 SWAP1 POP JUMP JUMPDEST PUSH1 0x0 PUSH8 0xFFFFFFFFFFFFFFFF DUP3 GT ISZERO PUSH2 0xF7D JUMPI PUSH2 0xF7D PUSH2 0xEE5 JUMP JUMPDEST POP PUSH1 0x5 SHL PUSH1 0x20 ADD SWAP1 JUMP JUMPDEST PUSH1 0x0 DUP3 PUSH1 0x1F DUP4 ADD SLT PUSH2 0xF98 JUMPI PUSH1 0x0 DUP1 REVERT JUMPDEST DUP2 CALLDATALOAD PUSH1 0x20 PUSH2 0xFAD PUSH2 0xFA8 DUP4 PUSH2 0xF63 JUMP JUMPDEST PUSH2 0xF14 JUMP JUMPDEST DUP1 DUP4 DUP3 MSTORE PUSH1 0x20 DUP3 ADD SWAP2 POP PUSH1 0x20 DUP5 PUSH1 0x5 SHL DUP8 ADD ADD SWAP4 POP DUP7 DUP5 GT ISZERO PUSH2 0xFCF JUMPI PUSH1 0x0 DUP1 REVERT JUMPDEST PUSH1 0x20 DUP7 ADD JUMPDEST DUP5 DUP2 LT ISZERO PUSH2 0xFEB JUMPI DUP1 CALLDATALOAD DUP4 MSTORE SWAP2 DUP4 ADD SWAP2 DUP4 ADD PUSH2 0xFD4 JUMP JUMPDEST POP SWAP7 SWAP6 POP POP POP POP POP POP JUMP JUMPDEST PUSH1 0x0 DUP1 PUSH1 0x0 DUP1 PUSH1 0x0 DUP1 PUSH1 0x0 PUSH1 0xE0 DUP9 DUP11 SUB SLT ISZERO PUSH2 0x1011 JUMPI PUSH1 0x0 DUP1 REVERT JUMPDEST PUSH2 0x101A DUP9 PUSH2 0xE06 JUMP JUMPDEST SWAP7 POP PUSH1 0x20 DUP9 ADD CALLDATALOAD SWAP6 POP PUSH1 0x40 DUP9 ADD CALLDATALOAD SWAP5 POP PUSH1 0x60 DUP9 ADD CALLDATALOAD PUSH8 0xFFFFFFFFFFFFFFFF DUP1 DUP3 GT ISZERO PUSH2 0x1045 JUMPI PUSH1 0x0 DUP1 REVERT JUMPDEST PUSH2 0x1051 DUP12 DUP4 DUP13 ADD PUSH2 0xF87 JUMP JUMPDEST SWAP6 POP PUSH1 0x80 DUP11 ADD CALLDATALOAD SWAP2 POP DUP1 DUP3 GT ISZERO PUSH2 0x1067 JUMPI PUSH1 0x0 DUP1 REVERT JUMPDEST PUSH2 0x1073 DUP12 DUP4 DUP13 ADD PUSH2 0xF87 JUMP JUMPDEST SWAP5 POP PUSH1 0xA0 DUP11 ADD CALLDATALOAD SWAP2 POP DUP1 DUP3 GT ISZERO PUSH2 0x1089 JUMPI PUSH1 0x0 DUP1 REVERT JUMPDEST POP PUSH2 0x1096 DUP11 DUP3 DUP12 ADD PUSH2 0xF87 JUMP JUMPDEST SWAP3 POP POP PUSH1 0xC0 DUP9 ADD CALLDATALOAD SWAP1 POP SWAP3 SWAP6 SWAP9 SWAP2 SWAP5 SWAP8 POP SWAP3 SWAP6 POP JUMP JUMPDEST PUSH1 0x0 DUP1 PUSH1 0x0 DUP1 PUSH1 0x0 PUSH1 0xA0 DUP7 DUP9 SUB SLT ISZERO PUSH2 0x10C4 JUMPI PUSH1 0x0 DUP1 REVERT JUMPDEST DUP6 CALLDATALOAD SWAP5 POP PUSH1 0x20 DUP7 ADD CALLDATALOAD SWAP4 POP PUSH1 0x40 DUP7 ADD CALLDATALOAD PUSH8 0xFFFFFFFFFFFFFFFF DUP1 DUP3 GT ISZERO PUSH2 0x10EA JUMPI PUSH1 0x0 DUP1 REVERT JUMPDEST PUSH2 0x10F6 DUP10 DUP4 DUP11 ADD PUSH2 0xF87 JUMP JUMPDEST SWAP5 POP PUSH1 0x60 DUP9 ADD CALLDATALOAD SWAP2 POP DUP1 DUP3 GT ISZERO PUSH2 0x110C JUMPI PUSH1 0x0 DUP1 REVERT JUMPDEST PUSH2 0x1118 DUP10 DUP4 DUP11 ADD PUSH2 0xF87 JUMP JUMPDEST SWAP4 POP PUSH1 0x80 DUP9 ADD CALLDATALOAD SWAP2 POP DUP1 DUP3 GT ISZERO PUSH2 0x112E JUMPI PUSH1 0x0 DUP1 REVERT JUMPDEST POP PUSH2 0x113B DUP9 DUP3 DUP10 ADD PUSH2 0xF87 JUMP JUMPDEST SWAP2 POP POP SWAP3 SWAP6 POP SWAP3 SWAP6 SWAP1 SWAP4 POP JUMP JUMPDEST PUSH1 0x0 PUSH1 0x20 DUP3 DUP5 SUB SLT ISZERO PUSH2 0x115A JUMPI PUSH1 0x0 DUP1 REVERT JUMPDEST DUP2 MLOAD DUP1 ISZERO ISZERO DUP2 EQ PUSH2 0xDA4 JUMPI PUSH1 0x0 DUP1 REVERT JUMPDEST DUP2 DUP2 SUB DUP2 DUP2 GT ISZERO PUSH2 0x2E6 JUMPI PUSH32 0x4E487B7100000000000000000000000000000000000000000000000000000000 PUSH1 0x0 MSTORE PUSH1 0x11 PUSH1 0x4 MSTORE PUSH1 0x24 PUSH1 0x0 REVERT JUMPDEST PUSH1 0x0 DUP2 MLOAD PUSH1 0x20 DUP1 DUP5 ADD PUSH1 0x0 JUMPDEST DUP4 DUP2 LT ISZERO PUSH2 0x11CC JUMPI DUP2 MLOAD DUP8 MSTORE SWAP6 DUP3 ADD SWAP6 SWAP1 DUP3 ADD SWAP1 PUSH1 0x1 ADD PUSH2 0x11B0 JUMP JUMPDEST POP SWAP5 SWAP6 SWAP5 POP POP POP POP POP JUMP JUMPDEST PUSH32 0xFFFFFFFFFFFFFFFFFFFFFFFFFFFFFFFFFFFFFFFF000000000000000000000000 DUP7 PUSH1 0x60 SHL AND DUP2 MSTORE PUSH1 0x0 PUSH2 0x1217 PUSH2 0x1211 PUSH1 0x14 DUP5 ADD DUP9 PUSH2 0x11A4 JUMP JUMPDEST DUP7 PUSH2 0x11A4 JUMP JUMPDEST SWAP4 DUP5 MSTORE POP POP PUSH1 0x20 DUP3 ADD MSTORE PUSH1 0x40 ADD SWAP4 SWAP3 POP POP POP JUMP JUMPDEST DUP1 MLOAD DUP1 DUP4 MSTORE PUSH1 0x20 SWAP3 DUP4 ADD SWAP3 PUSH1 0x0 SWAP2 SWAP1 DUP1 DUP5 ADD DUP4 DUP4 ISZERO PUSH2 0x11CC JUMPI DUP2 MLOAD DUP8 MSTORE SWAP6 DUP3 ADD SWAP6 SWAP1 DUP3 ADD SWAP1 PUSH1 0x1 ADD PUSH2 0x11B0 JUMP JUMPDEST PUSH20 0xFFFFFFFFFFFFFFFFFFFFFFFFFFFFFFFFFFFFFFFF DUP7 AND DUP2 MSTORE PUSH1 0xA0 PUSH1 0x20 DUP3 ADD MSTORE PUSH1 0x0 PUSH2 0x1287 PUSH1 0xA0 DUP4 ADD DUP8 PUSH2 0x122B JUMP JUMPDEST DUP3 DUP2 SUB PUSH1 0x40 DUP5 ADD MSTORE PUSH2 0x1299 DUP2 DUP8 PUSH2 0x122B JUMP JUMPDEST PUSH1 0x60 DUP5 ADD SWAP6 SWAP1 SWAP6 MSTORE POP POP PUSH1 0x80 ADD MSTORE SWAP4 SWAP3 POP POP POP JUMP JUMPDEST PUSH20 0xFFFFFFFFFFFFFFFFFFFFFFFFFFFFFFFFFFFFFFFF DUP5 AND DUP2 MSTORE PUSH1 0x80 PUSH1 0x20 DUP3 ADD MSTORE PUSH1 0x0 PUSH2 0x12DD PUSH1 0x80 DUP4 ADD DUP6 PUSH2 0x122B JUMP JUMPDEST DUP3 DUP2 SUB PUSH1 0x40 DUP5 ADD MSTORE PUSH2 0x12EF DUP2 DUP6 PUSH2 0x122B JUMP JUMPDEST DUP4 DUP2 SUB PUSH1 0x60 SWAP1 SWAP5 ADD SWAP4 SWAP1 SWAP4 MSTORE POP POP PUSH1 0x0 DUP2 MSTORE PUSH1 0x20 ADD SWAP4 SWAP3 POP POP POP JUMP JUMPDEST DUP4 DUP2 MSTORE PUSH1 0x60 PUSH1 0x20 DUP3 ADD MSTORE PUSH1 0x0 PUSH2 0x1324 PUSH1 0x60 DUP4 ADD DUP6 PUSH2 0x122B JUMP JUMPDEST DUP3 DUP2 SUB PUSH1 0x40 DUP5 ADD MSTORE PUSH2 0x1336 DUP2 DUP6 PUSH2 0x122B JUMP JUMPDEST SWAP7 SWAP6 POP POP POP POP POP POP JUMP JUMPDEST PUSH32 0x4E487B7100000000000000000000000000000000000000000000000000000000 PUSH1 0x0 MSTORE PUSH1 0x32 PUSH1 0x4 MSTORE PUSH1 0x24 PUSH1 0x0 REVERT INVALID LOG2 PUSH5 0x6970667358 0x22 SLT KECCAK256 PUSH21 0x30410A321557A5974031E5FDD9418B535051500F7C MLOAD CHAINID SWAP16 0xE1 0xAB 0xDD 0xF 0xFC ADDMOD SWAP13 PUSH5 0x736F6C6343 STOP ADDMOD AND STOP CALLER "},"gasEstimates":{"creation":{"codeDepositCost":"1005800","executionCost":"infinite","totalCost":"infinite"},"external":{"FEE_CONTRACT()":"infinite","REWARD_CONTRACT()":"infinite","addMerkleRoot(bytes32)":"infinite","claim(address,bytes32,bytes32,bytes32[],uint256[],uint256[],uint256)":"infinite","claimed(bytes32)":"2483","deprecateMerkleRoot(bytes32)":"infinite","forwarderRegistry()":"infinite","isTrustedForwarder(address)":"infinite","onERC20Received(address,address,uint256,bytes)":"infinite","owner()":"infinite","roots(bytes32)":"2464","supportsInterface(bytes4)":"infinite","transferOwnership(address)":"infinite"},"internal":{"_claim(address,bytes32,bytes32,bytes32[] memory,uint256[] memory,uint256[] memory,uint256)":"infinite","_msgData()":"infinite","_msgSender()":"infinite"}},"methodIdentifiers":{"FEE_CONTRACT()":"1352acac","REWARD_CONTRACT()":"3a5af339","addMerkleRoot(bytes32)":"3323c807","claim(address,bytes32,bytes32,bytes32[],uint256[],uint256[],uint256)":"d7f176e0","claimed(bytes32)":"cc3c0f06","deprecateMerkleRoot(bytes32)":"3572aa8d","forwarderRegistry()":"2b4c9f16","isTrustedForwarder(address)":"572b6c05","onERC20Received(address,address,uint256,bytes)":"4fc35859","owner()":"8da5cb5b","roots(bytes32)":"ae6dead7","supportsInterface(bytes4)":"01ffc9a7","transferOwnership(address)":"f2fde38b"}},"storageLayout":{"storage":[{"astId":2027,"contract":"contracts/payment/ChaosKingdomResourcesClaim.sol:ChaosKingdomResourcesClaim","label":"roots","offset":0,"slot":"0","type":"t_mapping(t_bytes32,t_bool)"},{"astId":2031,"contract":"contracts/payment/ChaosKingdomResourcesClaim.sol:ChaosKingdomResourcesClaim","label":"claimed","offset":0,"slot":"1","type":"t_mapping(t_bytes32,t_bool)"}],"types":{"t_bool":{"encoding":"inplace","label":"bool","numberOfBytes":"1"},"t_bytes32":{"encoding":"inplace","label":"bytes32","numberOfBytes":"32"},"t_mapping(t_bytes32,t_bool)":{"encoding":"mapping","key":"t_bytes32","label":"mapping(bytes32 => bool)","numberOfBytes":"32","value":"t_bool"}}},"userdoc":{"errors":{"IllegalInterfaceId()":[{"notice":"Thrown when setting the illegal interfaceId 0xffffffff."}],"NotContractOwner(address)":[{"notice":"Thrown when an account is not the contract owner but is required to."}]},"events":{"OwnershipTransferred(address,address)":{"notice":"Emitted when the contract ownership changes."}},"kind":"user","methods":{"isTrustedForwarder(address)":{"notice":"Checks whether a forwarder is trusted."},"onERC20Received(address,address,uint256,bytes)":{"notice":"Handles the receipt of ERC20 tokens."},"owner()":{"notice":"Gets the address of the contract owner."},"supportsInterface(bytes4)":{"notice":"Returns whether this contract implements a given interface."},"transferOwnership(address)":{"notice":"Sets the address of the new contract owner."}},"version":1}}}}