{"contracts/payment/ChaosKingdomResourcesClaim.sol":{"ChaosKingdomResourcesClaim":{"abi":[{"inputs":[{"internalType":"contract IERC20SafeTransfers","name":"feeContract","type":"address"},{"internalType":"contract IERC1155Mintable","name":"rewardContract","type":"address"},{"internalType":"address payable","name":"payoutWallet","type":"address"}],"stateMutability":"nonpayable","type":"constructor"},{"inputs":[{"internalType":"address","name":"recipient","type":"address"},{"internalType":"uint256[]","name":"ids","type":"uint256[]"},{"internalType":"uint256[]","name":"values","type":"uint256[]"},{"internalType":"uint256","name":"fee","type":"uint256"},{"internalType":"bytes32","name":"epochId","type":"bytes32"}],"name":"AlreadyClaimed","type":"error"},{"inputs":[],"name":"IllegalInterfaceId","type":"error"},{"inputs":[],"name":"InconsistentArrayLengths","type":"error"},{"inputs":[{"internalType":"address","name":"receivedContract","type":"address"},{"internalType":"address","name":"expectedContract","type":"address"}],"name":"InvalidFeeContract","type":"error"},{"inputs":[{"internalType":"bytes32","name":"merkleRoot","type":"bytes32"}],"name":"InvalidMerkleRoot","type":"error"},{"inputs":[{"internalType":"address","name":"recipient","type":"address"},{"internalType":"uint256[]","name":"ids","type":"uint256[]"},{"internalType":"uint256[]","name":"values","type":"uint256[]"},{"internalType":"uint256","name":"fee","type":"uint256"},{"internalType":"bytes32","name":"epochId","type":"bytes32"}],"name":"InvalidProof","type":"error"},{"inputs":[{"internalType":"bytes32","name":"merkleRoot","type":"bytes32"}],"name":"MerkleRootAlreadyExists","type":"error"},{"inputs":[{"internalType":"address","name":"account","type":"address"}],"name":"NotContractOwner","type":"error"},{"inputs":[],"name":"ZeroAddressPayoutWallet","type":"error"},{"anonymous":false,"inputs":[{"indexed":true,"internalType":"bytes32","name":"root","type":"bytes32"}],"name":"MerkleRootAdded","type":"event"},{"anonymous":false,"inputs":[{"indexed":true,"internalType":"bytes32","name":"root","type":"bytes32"}],"name":"MerkleRootDeprecated","type":"event"},{"anonymous":false,"inputs":[{"indexed":true,"internalType":"address","name":"previousOwner","type":"address"},{"indexed":true,"internalType":"address","name":"newOwner","type":"address"}],"name":"OwnershipTransferred","type":"event"},{"anonymous":false,"inputs":[{"indexed":true,"internalType":"bytes32","name":"root","type":"bytes32"},{"indexed":true,"internalType":"bytes32","name":"epochId","type":"bytes32"},{"indexed":false,"internalType":"uint256","name":"fee","type":"uint256"},{"indexed":true,"internalType":"address","name":"recipient","type":"address"},{"indexed":false,"internalType":"uint256[]","name":"ids","type":"uint256[]"},{"indexed":false,"internalType":"uint256[]","name":"values","type":"uint256[]"}],"name":"PayoutClaimed","type":"event"},{"anonymous":false,"inputs":[{"indexed":false,"internalType":"address","name":"payoutWallet","type":"address"}],"name":"PayoutWalletSet","type":"event"},{"inputs":[],"name":"FEE_CONTRACT","outputs":[{"internalType":"contract IERC20SafeTransfers","name":"","type":"address"}],"stateMutability":"view","type":"function"},{"inputs":[],"name":"REWARD_CONTRACT","outputs":[{"internalType":"contract IERC1155Mintable","name":"","type":"address"}],"stateMutability":"view","type":"function"},{"inputs":[{"internalType":"bytes32","name":"merkleRoot","type":"bytes32"}],"name":"addMerkleRoot","outputs":[],"stateMutability":"nonpayable","type":"function"},{"inputs":[{"internalType":"bytes32","name":"","type":"bytes32"}],"name":"claimed","outputs":[{"internalType":"bool","name":"","type":"bool"}],"stateMutability":"view","type":"function"},{"inputs":[{"internalType":"bytes32","name":"merkleRoot","type":"bytes32"}],"name":"deprecateMerkleRoot","outputs":[],"stateMutability":"nonpayable","type":"function"},{"inputs":[{"internalType":"address","name":"","type":"address"},{"internalType":"address","name":"","type":"address"},{"internalType":"uint256","name":"value","type":"uint256"},{"internalType":"bytes","name":"data","type":"bytes"}],"name":"onERC20Received","outputs":[{"internalType":"bytes4","name":"magicValue","type":"bytes4"}],"stateMutability":"nonpayable","type":"function"},{"inputs":[],"name":"owner","outputs":[{"internalType":"address","name":"","type":"address"}],"stateMutability":"view","type":"function"},{"inputs":[],"name":"payoutWallet","outputs":[{"internalType":"address payable","name":"wallet","type":"address"}],"stateMutability":"view","type":"function"},{"inputs":[{"internalType":"address[]","name":"accounts","type":"address[]"},{"internalType":"contract IERC20[]","name":"tokens","type":"address[]"},{"internalType":"uint256[]","name":"amounts","type":"uint256[]"}],"name":"recoverERC20s","outputs":[],"stateMutability":"nonpayable","type":"function"},{"inputs":[{"internalType":"address[]","name":"accounts","type":"address[]"},{"internalType":"contract IERC721[]","name":"contracts","type":"address[]"},{"internalType":"uint256[]","name":"tokenIds","type":"uint256[]"}],"name":"recoverERC721s","outputs":[],"stateMutability":"nonpayable","type":"function"},{"inputs":[{"internalType":"address payable[]","name":"accounts","type":"address[]"},{"internalType":"uint256[]","name":"amounts","type":"uint256[]"}],"name":"recoverETH","outputs":[],"stateMutability":"nonpayable","type":"function"},{"inputs":[{"internalType":"bytes32","name":"","type":"bytes32"}],"name":"roots","outputs":[{"internalType":"bool","name":"","type":"bool"}],"stateMutability":"view","type":"function"},{"inputs":[{"internalType":"address payable","name":"newPayoutWallet","type":"address"}],"name":"setPayoutWallet","outputs":[],"stateMutability":"nonpayable","type":"function"},{"inputs":[{"internalType":"bytes4","name":"interfaceId","type":"bytes4"}],"name":"supportsInterface","outputs":[{"internalType":"bool","name":"","type":"bool"}],"stateMutability":"view","type":"function"},{"inputs":[{"internalType":"address","name":"newOwner","type":"address"}],"name":"transferOwnership","outputs":[],"stateMutability":"nonpayable","type":"function"}],"devdoc":{"errors":{"NotContractOwner(address)":[{"params":{"account":"The account that was checked."}}]},"events":{"OwnershipTransferred(address,address)":{"params":{"newOwner":"the new contract owner.","previousOwner":"the previous contract owner."}},"PayoutWalletSet(address)":{"params":{"payoutWallet":"the new payout wallet address."}}},"kind":"dev","methods":{"owner()":{"returns":{"_0":"The address of the contract owner."}},"payoutWallet()":{"returns":{"wallet":"The payout wallet."}},"recoverERC20s(address[],address[],uint256[])":{"details":"Warning: this function should be overriden for contracts which are supposed to hold ERC20 tokens  so that the extraction is limited to only amounts sent accidentally.Reverts with {NotContractOwner} if the sender is not the contract owner.Reverts with {InconsistentArrayLengths} if `accounts`, `tokens` and `amounts` do not have the same length.Reverts if one of the ERC20 transfers fails for any reason.","params":{"accounts":"the list of accounts to transfer the tokens to.","amounts":"the list of token amounts to transfer.","tokens":"the list of ERC20 token addresses."}},"recoverERC721s(address[],address[],uint256[])":{"details":"Warning: this function should be overriden for contracts which are supposed to hold ERC721 tokens  so that the extraction is limited to only tokens sent accidentally.Reverts with {NotContractOwner} if the sender is not the contract owner.Reverts with {InconsistentArrayLengths} if `accounts`, `contracts` and `amounts` do not have the same length.Reverts if one of the ERC721 transfers fails for any reason.","params":{"accounts":"the list of accounts to transfer the tokens to.","contracts":"the list of ERC721 contract addresses.","tokenIds":"the list of token ids to transfer."}},"recoverETH(address[],uint256[])":{"details":"Note: While contracts can generally prevent accidental ETH transfer by implementating a reverting  `receive()` function, this can still be bypassed in a `selfdestruct(address)` scenario.Warning: this function should be overriden for contracts which are supposed to hold ETH tokens  so that the extraction is limited to only amounts sent accidentally.Reverts with {NotContractOwner} if the sender is not the contract owner.Reverts with {InconsistentArrayLengths} `accounts` and `amounts` do not have the same length.Reverts if one of the ETH transfers fails for any reason.","params":{"accounts":"the list of accounts to transfer the tokens to.","amounts":"the list of token amounts to transfer."}},"setPayoutWallet(address)":{"details":"Reverts with {NotContractOwner} if the sender is not the contract owner.Reverts with {ZeroAddressPayoutWallet} if `newPayoutWallet` is the zero address.Emits a {PayoutWalletSet} event.","params":{"newPayoutWallet":"The payout wallet."}},"supportsInterface(bytes4)":{"details":"Note: This function call must use less than 30 000 gas.","params":{"interfaceId":"the interface identifier to test."},"returns":{"_0":"True if the interface is supported, false if `interfaceId` is `0xffffffff` or if the interface is not supported."}},"transferOwnership(address)":{"details":"Reverts if the sender is not the contract owner.Emits an {OwnershipTransferred} event if `newOwner` is different from the current contract owner.","params":{"newOwner":"The address of the new contract owner. Using the zero address means renouncing ownership."}}},"version":1},"evm":{"bytecode":{"linkReferences":{},"object":"60c06040523480156200001157600080fd5b506040516200205a3803806200205a83398101604081905262000034916200029c565b80336200004c81620000456200009d565b90620000d3565b506200006d634fc3585960e01b60016200006562000146565b919062000176565b62000083816200007c620001d3565b9062000203565b50506001600160a01b0391821660a0521660805262000312565b600080620000cd60017fc9ed16f33ab3a66c84bfd83099ccb2a8845871e2e1c1928f63797152f0fd54cd620002f0565b92915050565b6001600160a01b038116156200012a5781546001600160a01b0319166001600160a01b03821690811783556040516000907f8be0079c531659141344cd1fd0a4f28419497f9722a3daafe3b4186f6b6457e0908290a35b620001426307f5828d60e41b60016200006562000146565b5050565b600080620000cd60017fca9d3e17f264b0f3984e2634e94adb37fa3e6a8103f06aeae6fa59e21c769f5e620002f0565b600160e01b6001600160e01b0319831601620001a5576040516372c683bb60e01b815260040160405180910390fd5b6001600160e01b03199190911660009081526020929092526040909120805460ff1916911515919091179055565b600080620000cd60017f4fb5f8cdfbce77f22b0931a39e9f476a60a0f66524b2f379e96485471eb700ae620002f0565b6200014282826001600160a01b03811662000231576040516340b539cf60e01b815260040160405180910390fd5b81546001600160a01b0319166001600160a01b03821690811783556040519081527fdd880d24a789958a6398c99c2e54ce31bc10a638cbc42f7dd34285479ae0f8559060200160405180910390a15050565b6001600160a01b03811681146200029957600080fd5b50565b600080600060608486031215620002b257600080fd5b8351620002bf8162000283565b6020850151909350620002d28162000283565b6040850151909250620002e58162000283565b809150509250925092565b81810381811115620000cd57634e487b7160e01b600052601160045260246000fd5b60805160a051611d0662000354600039600081816101270152818161044b015281816104c901526106d801526000818161019b01526107be0152611d066000f3fe608060405234801561001057600080fd5b50600436106100f55760003560e01c806373c8a95811610097578063c3666c3611610066578063c3666c361461025a578063cc3c0f061461026d578063f2fde38b14610290578063f7ba94bd146102a357600080fd5b806373c8a958146102145780638488bb4e146102275780638da5cb5b1461022f578063ae6dead71461023757600080fd5b80633572aa8d116100d35780633572aa8d146101835780633a5af339146101965780634fc35859146101bd5780636b8f9c431461020157600080fd5b806301ffc9a7146100fa5780631352acac146101225780633323c8071461016e575b600080fd5b61010d610108366004611569565b6102b6565b60405190151581526020015b60405180910390f35b6101497f000000000000000000000000000000000000000000000000000000000000000081565b60405173ffffffffffffffffffffffffffffffffffffffff9091168152602001610119565b61018161017c3660046115ab565b6102d0565b005b6101816101913660046115ab565b610395565b6101497f000000000000000000000000000000000000000000000000000000000000000081565b6101d06101cb3660046115e6565b610447565b6040517fffffffff000000000000000000000000000000000000000000000000000000009091168152602001610119565b61018161020f366004611695565b6108b0565b6101816102223660046116fe565b6108ce565b6101496109c2565b6101496109d4565b61010d6102453660046115ab565b60006020819052908152604090205460ff1681565b6101816102683660046116fe565b6109e1565b61010d61027b3660046115ab565b60016020526000908152604090205460ff1681565b61018161029e366004611695565b610b57565b6101816102b1366004611798565b610b6b565b60006102ca826102c4610c28565b90610c56565b92915050565b6102e3335b6102dd610d30565b90610d5e565b60008181526020819052604090205460ff1615610334576040517f5d35de37000000000000000000000000000000000000000000000000000000008152600481018290526024015b60405180910390fd5b60008181526020819052604080822080547fffffffffffffffffffffffffffffffffffffffffffffffffffffffffffffff001660011790555182917fbdd203dd78bf49cf79e4db0ecdf7d27adc380fb1f33beef2667a50db9d2a0e0491a250565b61039e336102d5565b60008181526020819052604090205460ff166103e9576040517f6d8257430000000000000000000000000000000000000000000000000000000081526004810182905260240161032b565b60008181526020819052604080822080547fffffffffffffffffffffffffffffffffffffffffffffffffffffffffffffff001690555182917f578eab65d47cffa57066b105301289ff86bfdc0adc2a701c3356d2a6eb6a612391a250565b60007f000000000000000000000000000000000000000000000000000000000000000073ffffffffffffffffffffffffffffffffffffffff1633146104f6576040517f01db090900000000000000000000000000000000000000000000000000000000815233600482015273ffffffffffffffffffffffffffffffffffffffff7f000000000000000000000000000000000000000000000000000000000000000016602482015260440161032b565b60008080808080610509888a018a611915565b600086815260208190526040902054959b5093995091975095509350915060ff16610563576040517f6d8257430000000000000000000000000000000000000000000000000000000081526004810187905260240161032b565b60008383838d8960405160200161057e959493929190611a4b565b604080517fffffffffffffffffffffffffffffffffffffffffffffffffffffffffffffffe0818403018152919052805160209091012090506105c1858883610dcd565b610601578383838d896040517fdbf2ac7c00000000000000000000000000000000000000000000000000000000815260040161032b959493929190611acc565b60008181526001602052604090205460ff1615610654578383838d896040517ff048f37a00000000000000000000000000000000000000000000000000000000815260040161032b959493929190611acc565b600061067b610661610de3565b5473ffffffffffffffffffffffffffffffffffffffff1690565b6040517feb79554900000000000000000000000000000000000000000000000000000000815273ffffffffffffffffffffffffffffffffffffffff8281166004830152602482018f905260606044830152600060648301529192507f00000000000000000000000000000000000000000000000000000000000000009091169063eb795549906084016020604051808303816000875af1158015610723573d6000803e3d6000fd5b505050506040513d601f19601f820116820180604052508101906107479190611b22565b5060008281526001602081905260409182902080547fffffffffffffffffffffffffffffffffffffffffffffffffffffffffffffff00169091179055517f0d6a5bbb00000000000000000000000000000000000000000000000000000000815273ffffffffffffffffffffffffffffffffffffffff7f00000000000000000000000000000000000000000000000000000000000000001690630d6a5bbb906107f790889088908890600401611b44565b600060405180830381600087803b15801561081157600080fd5b505af1158015610825573d6000803e3d6000fd5b505050508473ffffffffffffffffffffffffffffffffffffffff1687897fbf561a0ae8123352abf33f8f113e6b265c2e7fe7ba9b4d450750454bcbb7233a8f888860405161087593929190611ba1565b60405180910390a4507f4fc35859000000000000000000000000000000000000000000000000000000009d9c50505050505050505050505050565b6108b9336102d5565b6108cb816108c5610de3565b90610e11565b50565b6108d7336102d5565b8483811415806108e75750808214155b1561091e576040517f6582533600000000000000000000000000000000000000000000000000000000815260040160405180910390fd5b60005b818110156109b8576109b088888381811061093e5761093e611bd6565b90506020020160208101906109539190611695565b85858481811061096557610965611bd6565b9050602002013588888581811061097e5761097e611bd6565b90506020020160208101906109939190611695565b73ffffffffffffffffffffffffffffffffffffffff169190610ed5565b600101610921565b5050505050505050565b60006109cf610661610de3565b905090565b60006109cf610661610d30565b6109ea336102d5565b8483811415806109fa5750808214155b15610a31576040517f6582533600000000000000000000000000000000000000000000000000000000815260040160405180910390fd5b60005b818110156109b857858582818110610a4e57610a4e611bd6565b9050602002016020810190610a639190611695565b73ffffffffffffffffffffffffffffffffffffffff166323b872dd308a8a85818110610a9157610a91611bd6565b9050602002016020810190610aa69190611695565b878786818110610ab857610ab8611bd6565b6040517fffffffff0000000000000000000000000000000000000000000000000000000060e088901b16815273ffffffffffffffffffffffffffffffffffffffff958616600482015294909316602485015250602090910201356044820152606401600060405180830381600087803b158015610b3457600080fd5b505af1158015610b48573d6000803e3d6000fd5b50505050806001019050610a34565b6108cb3382610b64610d30565b9190610f67565b610b74336102d5565b82818114610bae576040517f6582533600000000000000000000000000000000000000000000000000000000815260040160405180910390fd5b60005b81811015610c2057610c18848483818110610bce57610bce611bd6565b90506020020135878784818110610be757610be7611bd6565b9050602002016020810190610bfc9190611695565b73ffffffffffffffffffffffffffffffffffffffff169061107c565b600101610bb1565b505050505050565b6000806102ca60017fca9d3e17f264b0f3984e2634e94adb37fa3e6a8103f06aeae6fa59e21c769f5e611c05565b60007c01000000000000000000000000000000000000000000000000000000007fffffffff00000000000000000000000000000000000000000000000000000000831601610ca6575060006102ca565b7ffe003659000000000000000000000000000000000000000000000000000000007fffffffff00000000000000000000000000000000000000000000000000000000831601610cf7575060016102ca565b507fffffffff00000000000000000000000000000000000000000000000000000000166000908152602091909152604090205460ff1690565b6000806102ca60017fc9ed16f33ab3a66c84bfd83099ccb2a8845871e2e1c1928f63797152f0fd54cd611c05565b815473ffffffffffffffffffffffffffffffffffffffff828116911614610dc9576040517f2ef4875e00000000000000000000000000000000000000000000000000000000815273ffffffffffffffffffffffffffffffffffffffff8216600482015260240161032b565b5050565b600082610dda85846111d6565b14949350505050565b6000806102ca60017f4fb5f8cdfbce77f22b0931a39e9f476a60a0f66524b2f379e96485471eb700ae611c05565b73ffffffffffffffffffffffffffffffffffffffff8116610e5e576040517f40b539cf00000000000000000000000000000000000000000000000000000000815260040160405180910390fd5b81547fffffffffffffffffffffffff00000000000000000000000000000000000000001673ffffffffffffffffffffffffffffffffffffffff821690811783556040519081527fdd880d24a789958a6398c99c2e54ce31bc10a638cbc42f7dd34285479ae0f8559060200160405180910390a15050565b6040805173ffffffffffffffffffffffffffffffffffffffff8416602482015260448082018490528251808303909101815260649091019091526020810180517bffffffffffffffffffffffffffffffffffffffffffffffffffffffff167fa9059cbb00000000000000000000000000000000000000000000000000000000179052610f62908490611219565b505050565b825473ffffffffffffffffffffffffffffffffffffffff9081169083168114610fd4576040517f2ef4875e00000000000000000000000000000000000000000000000000000000815273ffffffffffffffffffffffffffffffffffffffff8416600482015260240161032b565b8173ffffffffffffffffffffffffffffffffffffffff168173ffffffffffffffffffffffffffffffffffffffff16146110765783547fffffffffffffffffffffffff00000000000000000000000000000000000000001673ffffffffffffffffffffffffffffffffffffffff8381169182178655604051908316907f8be0079c531659141344cd1fd0a4f28419497f9722a3daafe3b4186f6b6457e090600090a35b50505050565b804710156110e6576040517f08c379a000000000000000000000000000000000000000000000000000000000815260206004820152601d60248201527f416464726573733a20696e73756666696369656e742062616c616e6365000000604482015260640161032b565b60008273ffffffffffffffffffffffffffffffffffffffff168260405160006040518083038185875af1925050503d8060008114611140576040519150601f19603f3d011682016040523d82523d6000602084013e611145565b606091505b5050905080610f62576040517f08c379a000000000000000000000000000000000000000000000000000000000815260206004820152603a60248201527f416464726573733a20756e61626c6520746f2073656e642076616c75652c207260448201527f6563697069656e74206d61792068617665207265766572746564000000000000606482015260840161032b565b600081815b845181101561121157611207828683815181106111fa576111fa611bd6565b6020026020010151611328565b91506001016111db565b509392505050565b600061127b826040518060400160405280602081526020017f5361666545524332303a206c6f772d6c6576656c2063616c6c206661696c65648152508573ffffffffffffffffffffffffffffffffffffffff1661135a9092919063ffffffff16565b905080516000148061129c57508080602001905181019061129c9190611b22565b610f62576040517f08c379a000000000000000000000000000000000000000000000000000000000815260206004820152602a60248201527f5361666545524332303a204552433230206f7065726174696f6e20646964206e60448201527f6f74207375636365656400000000000000000000000000000000000000000000606482015260840161032b565b6000818310611344576000828152602084905260409020611353565b60008381526020839052604090205b9392505050565b60606113698484600085611371565b949350505050565b606082471015611403576040517f08c379a000000000000000000000000000000000000000000000000000000000815260206004820152602660248201527f416464726573733a20696e73756666696369656e742062616c616e636520666f60448201527f722063616c6c0000000000000000000000000000000000000000000000000000606482015260840161032b565b6000808673ffffffffffffffffffffffffffffffffffffffff16858760405161142c9190611c63565b60006040518083038185875af1925050503d8060008114611469576040519150601f19603f3d011682016040523d82523d6000602084013e61146e565b606091505b509150915061147f8783838761148a565b979650505050505050565b606083156115205782516000036115195773ffffffffffffffffffffffffffffffffffffffff85163b611519576040517f08c379a000000000000000000000000000000000000000000000000000000000815260206004820152601d60248201527f416464726573733a2063616c6c20746f206e6f6e2d636f6e7472616374000000604482015260640161032b565b5081611369565b61136983838151156115355781518083602001fd5b806040517f08c379a000000000000000000000000000000000000000000000000000000000815260040161032b9190611c7f565b60006020828403121561157b57600080fd5b81357fffffffff000000000000000000000000000000000000000000000000000000008116811461135357600080fd5b6000602082840312156115bd57600080fd5b5035919050565b73ffffffffffffffffffffffffffffffffffffffff811681146108cb57600080fd5b6000806000806000608086880312156115fe57600080fd5b8535611609816115c4565b94506020860135611619816115c4565b935060408601359250606086013567ffffffffffffffff8082111561163d57600080fd5b818801915088601f83011261165157600080fd5b81358181111561166057600080fd5b89602082850101111561167257600080fd5b9699959850939650602001949392505050565b8035611690816115c4565b919050565b6000602082840312156116a757600080fd5b8135611353816115c4565b60008083601f8401126116c457600080fd5b50813567ffffffffffffffff8111156116dc57600080fd5b6020830191508360208260051b85010111156116f757600080fd5b9250929050565b6000806000806000806060878903121561171757600080fd5b863567ffffffffffffffff8082111561172f57600080fd5b61173b8a838b016116b2565b9098509650602089013591508082111561175457600080fd5b6117608a838b016116b2565b9096509450604089013591508082111561177957600080fd5b5061178689828a016116b2565b979a9699509497509295939492505050565b600080600080604085870312156117ae57600080fd5b843567ffffffffffffffff808211156117c657600080fd5b6117d2888389016116b2565b909650945060208701359150808211156117eb57600080fd5b506117f8878288016116b2565b95989497509550505050565b7f4e487b7100000000000000000000000000000000000000000000000000000000600052604160045260246000fd5b604051601f82017fffffffffffffffffffffffffffffffffffffffffffffffffffffffffffffffe016810167ffffffffffffffff8111828210171561187a5761187a611804565b604052919050565b600067ffffffffffffffff82111561189c5761189c611804565b5060051b60200190565b600082601f8301126118b757600080fd5b813560206118cc6118c783611882565b611833565b8083825260208201915060208460051b8701019350868411156118ee57600080fd5b602086015b8481101561190a57803583529183019183016118f3565b509695505050505050565b60008060008060008060c0878903121561192e57600080fd5b863595506020808801359550604088013567ffffffffffffffff8082111561195557600080fd5b818a0191508a601f83011261196957600080fd5b81356119776118c782611882565b81815260059190911b8301840190848101908d83111561199657600080fd5b938501935b828510156119b45784358252938501939085019061199b565b98506119c591505060608b01611685565b955060808a01359250808311156119db57600080fd5b6119e78b848c016118a6565b945060a08a01359250808311156119fd57600080fd5b5050611a0b89828a016118a6565b9150509295509295509295565b60008151602080840160005b83811015611a4057815187529582019590820190600101611a24565b509495945050505050565b7fffffffffffffffffffffffffffffffffffffffff0000000000000000000000008660601b1681526000611a8b611a856014840188611a18565b86611a18565b938452505060208201526040019392505050565b805180835260209283019260009190808401838315611a4057815187529582019590820190600101611a24565b73ffffffffffffffffffffffffffffffffffffffff8616815260a060208201526000611afb60a0830187611a9f565b8281036040840152611b0d8187611a9f565b60608401959095525050608001529392505050565b600060208284031215611b3457600080fd5b8151801515811461135357600080fd5b73ffffffffffffffffffffffffffffffffffffffff84168152608060208201526000611b736080830185611a9f565b8281036040840152611b858185611a9f565b8381036060909401939093525050600081526020019392505050565b838152606060208201526000611bba6060830185611a9f565b8281036040840152611bcc8185611a9f565b9695505050505050565b7f4e487b7100000000000000000000000000000000000000000000000000000000600052603260045260246000fd5b818103818111156102ca577f4e487b7100000000000000000000000000000000000000000000000000000000600052601160045260246000fd5b60005b83811015611c5a578181015183820152602001611c42565b50506000910152565b60008251611c75818460208701611c3f565b9190910192915050565b6020815260008251806020840152611c9e816040850160208701611c3f565b601f017fffffffffffffffffffffffffffffffffffffffffffffffffffffffffffffffe016919091016040019291505056fea2646970667358221220d4a604ba2f0ae8ee109caeaf7edbe78b377cd20857f27e00a5d78ff712b35c1e64736f6c63430008160033","opcodes":"PUSH1 0xC0 PUSH1 0x40 MSTORE CALLVALUE DUP1 ISZERO PUSH3 0x11 JUMPI PUSH1 0x0 DUP1 REVERT JUMPDEST POP PUSH1 0x40 MLOAD PUSH3 0x205A CODESIZE SUB DUP1 PUSH3 0x205A DUP4 CODECOPY DUP2 ADD PUSH1 0x40 DUP2 SWAP1 MSTORE PUSH3 0x34 SWAP2 PUSH3 0x29C JUMP JUMPDEST DUP1 CALLER PUSH3 0x4C DUP2 PUSH3 0x45 PUSH3 0x9D JUMP JUMPDEST SWAP1 PUSH3 0xD3 JUMP JUMPDEST POP PUSH3 0x6D PUSH4 0x4FC35859 PUSH1 0xE0 SHL PUSH1 0x1 PUSH3 0x65 PUSH3 0x146 JUMP JUMPDEST SWAP2 SWAP1 PUSH3 0x176 JUMP JUMPDEST PUSH3 0x83 DUP2 PUSH3 0x7C PUSH3 0x1D3 JUMP JUMPDEST SWAP1 PUSH3 0x203 JUMP JUMPDEST POP POP PUSH1 0x1 PUSH1 0x1 PUSH1 0xA0 SHL SUB SWAP2 DUP3 AND PUSH1 0xA0 MSTORE AND PUSH1 0x80 MSTORE PUSH3 0x312 JUMP JUMPDEST PUSH1 0x0 DUP1 PUSH3 0xCD PUSH1 0x1 PUSH32 0xC9ED16F33AB3A66C84BFD83099CCB2A8845871E2E1C1928F63797152F0FD54CD PUSH3 0x2F0 JUMP JUMPDEST SWAP3 SWAP2 POP POP JUMP JUMPDEST PUSH1 0x1 PUSH1 0x1 PUSH1 0xA0 SHL SUB DUP2 AND ISZERO PUSH3 0x12A JUMPI DUP2 SLOAD PUSH1 0x1 PUSH1 0x1 PUSH1 0xA0 SHL SUB NOT AND PUSH1 0x1 PUSH1 0x1 PUSH1 0xA0 SHL SUB DUP3 AND SWAP1 DUP2 OR DUP4 SSTORE PUSH1 0x40 MLOAD PUSH1 0x0 SWAP1 PUSH32 0x8BE0079C531659141344CD1FD0A4F28419497F9722A3DAAFE3B4186F6B6457E0 SWAP1 DUP3 SWAP1 LOG3 JUMPDEST PUSH3 0x142 PUSH4 0x7F5828D PUSH1 0xE4 SHL PUSH1 0x1 PUSH3 0x65 PUSH3 0x146 JUMP JUMPDEST POP POP JUMP JUMPDEST PUSH1 0x0 DUP1 PUSH3 0xCD PUSH1 0x1 PUSH32 0xCA9D3E17F264B0F3984E2634E94ADB37FA3E6A8103F06AEAE6FA59E21C769F5E PUSH3 0x2F0 JUMP JUMPDEST PUSH1 0x1 PUSH1 0xE0 SHL PUSH1 0x1 PUSH1 0x1 PUSH1 0xE0 SHL SUB NOT DUP4 AND ADD PUSH3 0x1A5 JUMPI PUSH1 0x40 MLOAD PUSH4 0x72C683BB PUSH1 0xE0 SHL DUP2 MSTORE PUSH1 0x4 ADD PUSH1 0x40 MLOAD DUP1 SWAP2 SUB SWAP1 REVERT JUMPDEST PUSH1 0x1 PUSH1 0x1 PUSH1 0xE0 SHL SUB NOT SWAP2 SWAP1 SWAP2 AND PUSH1 0x0 SWAP1 DUP2 MSTORE PUSH1 0x20 SWAP3 SWAP1 SWAP3 MSTORE PUSH1 0x40 SWAP1 SWAP2 KECCAK256 DUP1 SLOAD PUSH1 0xFF NOT AND SWAP2 ISZERO ISZERO SWAP2 SWAP1 SWAP2 OR SWAP1 SSTORE JUMP JUMPDEST PUSH1 0x0 DUP1 PUSH3 0xCD PUSH1 0x1 PUSH32 0x4FB5F8CDFBCE77F22B0931A39E9F476A60A0F66524B2F379E96485471EB700AE PUSH3 0x2F0 JUMP JUMPDEST PUSH3 0x142 DUP3 DUP3 PUSH1 0x1 PUSH1 0x1 PUSH1 0xA0 SHL SUB DUP2 AND PUSH3 0x231 JUMPI PUSH1 0x40 MLOAD PUSH4 0x40B539CF PUSH1 0xE0 SHL DUP2 MSTORE PUSH1 0x4 ADD PUSH1 0x40 MLOAD DUP1 SWAP2 SUB SWAP1 REVERT JUMPDEST DUP2 SLOAD PUSH1 0x1 PUSH1 0x1 PUSH1 0xA0 SHL SUB NOT AND PUSH1 0x1 PUSH1 0x1 PUSH1 0xA0 SHL SUB DUP3 AND SWAP1 DUP2 OR DUP4 SSTORE PUSH1 0x40 MLOAD SWAP1 DUP2 MSTORE PUSH32 0xDD880D24A789958A6398C99C2E54CE31BC10A638CBC42F7DD34285479AE0F855 SWAP1 PUSH1 0x20 ADD PUSH1 0x40 MLOAD DUP1 SWAP2 SUB SWAP1 LOG1 POP POP JUMP JUMPDEST PUSH1 0x1 PUSH1 0x1 PUSH1 0xA0 SHL SUB DUP2 AND DUP2 EQ PUSH3 0x299 JUMPI PUSH1 0x0 DUP1 REVERT JUMPDEST POP JUMP JUMPDEST PUSH1 0x0 DUP1 PUSH1 0x0 PUSH1 0x60 DUP5 DUP7 SUB SLT ISZERO PUSH3 0x2B2 JUMPI PUSH1 0x0 DUP1 REVERT JUMPDEST DUP4 MLOAD PUSH3 0x2BF DUP2 PUSH3 0x283 JUMP JUMPDEST PUSH1 0x20 DUP6 ADD MLOAD SWAP1 SWAP4 POP PUSH3 0x2D2 DUP2 PUSH3 0x283 JUMP JUMPDEST PUSH1 0x40 DUP6 ADD MLOAD SWAP1 SWAP3 POP PUSH3 0x2E5 DUP2 PUSH3 0x283 JUMP JUMPDEST DUP1 SWAP2 POP POP SWAP3 POP SWAP3 POP SWAP3 JUMP JUMPDEST DUP2 DUP2 SUB DUP2 DUP2 GT ISZERO PUSH3 0xCD JUMPI PUSH4 0x4E487B71 PUSH1 0xE0 SHL PUSH1 0x0 MSTORE PUSH1 0x11 PUSH1 0x4 MSTORE PUSH1 0x24 PUSH1 0x0 REVERT JUMPDEST PUSH1 0x80 MLOAD PUSH1 0xA0 MLOAD PUSH2 0x1D06 PUSH3 0x354 PUSH1 0x0 CODECOPY PUSH1 0x0 DUP2 DUP2 PUSH2 0x127 ADD MSTORE DUP2 DUP2 PUSH2 0x44B ADD MSTORE DUP2 DUP2 PUSH2 0x4C9 ADD MSTORE PUSH2 0x6D8 ADD MSTORE PUSH1 0x0 DUP2 DUP2 PUSH2 0x19B ADD MSTORE PUSH2 0x7BE ADD MSTORE PUSH2 0x1D06 PUSH1 0x0 RETURN INVALID PUSH1 0x80 PUSH1 0x40 MSTORE CALLVALUE DUP1 ISZERO PUSH2 0x10 JUMPI PUSH1 0x0 DUP1 REVERT JUMPDEST POP PUSH1 0x4 CALLDATASIZE LT PUSH2 0xF5 JUMPI PUSH1 0x0 CALLDATALOAD PUSH1 0xE0 SHR DUP1 PUSH4 0x73C8A958 GT PUSH2 0x97 JUMPI DUP1 PUSH4 0xC3666C36 GT PUSH2 0x66 JUMPI DUP1 PUSH4 0xC3666C36 EQ PUSH2 0x25A JUMPI DUP1 PUSH4 0xCC3C0F06 EQ PUSH2 0x26D JUMPI DUP1 PUSH4 0xF2FDE38B EQ PUSH2 0x290 JUMPI DUP1 PUSH4 0xF7BA94BD EQ PUSH2 0x2A3 JUMPI PUSH1 0x0 DUP1 REVERT JUMPDEST DUP1 PUSH4 0x73C8A958 EQ PUSH2 0x214 JUMPI DUP1 PUSH4 0x8488BB4E EQ PUSH2 0x227 JUMPI DUP1 PUSH4 0x8DA5CB5B EQ PUSH2 0x22F JUMPI DUP1 PUSH4 0xAE6DEAD7 EQ PUSH2 0x237 JUMPI PUSH1 0x0 DUP1 REVERT JUMPDEST DUP1 PUSH4 0x3572AA8D GT PUSH2 0xD3 JUMPI DUP1 PUSH4 0x3572AA8D EQ PUSH2 0x183 JUMPI DUP1 PUSH4 0x3A5AF339 EQ PUSH2 0x196 JUMPI DUP1 PUSH4 0x4FC35859 EQ PUSH2 0x1BD JUMPI DUP1 PUSH4 0x6B8F9C43 EQ PUSH2 0x201 JUMPI PUSH1 0x0 DUP1 REVERT JUMPDEST DUP1 PUSH4 0x1FFC9A7 EQ PUSH2 0xFA JUMPI DUP1 PUSH4 0x1352ACAC EQ PUSH2 0x122 JUMPI DUP1 PUSH4 0x3323C807 EQ PUSH2 0x16E JUMPI JUMPDEST PUSH1 0x0 DUP1 REVERT JUMPDEST PUSH2 0x10D PUSH2 0x108 CALLDATASIZE PUSH1 0x4 PUSH2 0x1569 JUMP JUMPDEST PUSH2 0x2B6 JUMP JUMPDEST PUSH1 0x40 MLOAD SWAP1 ISZERO ISZERO DUP2 MSTORE PUSH1 0x20 ADD JUMPDEST PUSH1 0x40 MLOAD DUP1 SWAP2 SUB SWAP1 RETURN JUMPDEST PUSH2 0x149 PUSH32 0x0 DUP2 JUMP JUMPDEST PUSH1 0x40 MLOAD PUSH20 0xFFFFFFFFFFFFFFFFFFFFFFFFFFFFFFFFFFFFFFFF SWAP1 SWAP2 AND DUP2 MSTORE PUSH1 0x20 ADD PUSH2 0x119 JUMP JUMPDEST PUSH2 0x181 PUSH2 0x17C CALLDATASIZE PUSH1 0x4 PUSH2 0x15AB JUMP JUMPDEST PUSH2 0x2D0 JUMP JUMPDEST STOP JUMPDEST PUSH2 0x181 PUSH2 0x191 CALLDATASIZE PUSH1 0x4 PUSH2 0x15AB JUMP JUMPDEST PUSH2 0x395 JUMP JUMPDEST PUSH2 0x149 PUSH32 0x0 DUP2 JUMP JUMPDEST PUSH2 0x1D0 PUSH2 0x1CB CALLDATASIZE PUSH1 0x4 PUSH2 0x15E6 JUMP JUMPDEST PUSH2 0x447 JUMP JUMPDEST PUSH1 0x40 MLOAD PUSH32 0xFFFFFFFF00000000000000000000000000000000000000000000000000000000 SWAP1 SWAP2 AND DUP2 MSTORE PUSH1 0x20 ADD PUSH2 0x119 JUMP JUMPDEST PUSH2 0x181 PUSH2 0x20F CALLDATASIZE PUSH1 0x4 PUSH2 0x1695 JUMP JUMPDEST PUSH2 0x8B0 JUMP JUMPDEST PUSH2 0x181 PUSH2 0x222 CALLDATASIZE PUSH1 0x4 PUSH2 0x16FE JUMP JUMPDEST PUSH2 0x8CE JUMP JUMPDEST PUSH2 0x149 PUSH2 0x9C2 JUMP JUMPDEST PUSH2 0x149 PUSH2 0x9D4 JUMP JUMPDEST PUSH2 0x10D PUSH2 0x245 CALLDATASIZE PUSH1 0x4 PUSH2 0x15AB JUMP JUMPDEST PUSH1 0x0 PUSH1 0x20 DUP2 SWAP1 MSTORE SWAP1 DUP2 MSTORE PUSH1 0x40 SWAP1 KECCAK256 SLOAD PUSH1 0xFF AND DUP2 JUMP JUMPDEST PUSH2 0x181 PUSH2 0x268 CALLDATASIZE PUSH1 0x4 PUSH2 0x16FE JUMP JUMPDEST PUSH2 0x9E1 JUMP JUMPDEST PUSH2 0x10D PUSH2 0x27B CALLDATASIZE PUSH1 0x4 PUSH2 0x15AB JUMP JUMPDEST PUSH1 0x1 PUSH1 0x20 MSTORE PUSH1 0x0 SWAP1 DUP2 MSTORE PUSH1 0x40 SWAP1 KECCAK256 SLOAD PUSH1 0xFF AND DUP2 JUMP JUMPDEST PUSH2 0x181 PUSH2 0x29E CALLDATASIZE PUSH1 0x4 PUSH2 0x1695 JUMP JUMPDEST PUSH2 0xB57 JUMP JUMPDEST PUSH2 0x181 PUSH2 0x2B1 CALLDATASIZE PUSH1 0x4 PUSH2 0x1798 JUMP JUMPDEST PUSH2 0xB6B JUMP JUMPDEST PUSH1 0x0 PUSH2 0x2CA DUP3 PUSH2 0x2C4 PUSH2 0xC28 JUMP JUMPDEST SWAP1 PUSH2 0xC56 JUMP JUMPDEST SWAP3 SWAP2 POP POP JUMP JUMPDEST PUSH2 0x2E3 CALLER JUMPDEST PUSH2 0x2DD PUSH2 0xD30 JUMP JUMPDEST SWAP1 PUSH2 0xD5E JUMP JUMPDEST PUSH1 0x0 DUP2 DUP2 MSTORE PUSH1 0x20 DUP2 SWAP1 MSTORE PUSH1 0x40 SWAP1 KECCAK256 SLOAD PUSH1 0xFF AND ISZERO PUSH2 0x334 JUMPI PUSH1 0x40 MLOAD PUSH32 0x5D35DE3700000000000000000000000000000000000000000000000000000000 DUP2 MSTORE PUSH1 0x4 DUP2 ADD DUP3 SWAP1 MSTORE PUSH1 0x24 ADD JUMPDEST PUSH1 0x40 MLOAD DUP1 SWAP2 SUB SWAP1 REVERT JUMPDEST PUSH1 0x0 DUP2 DUP2 MSTORE PUSH1 0x20 DUP2 SWAP1 MSTORE PUSH1 0x40 DUP1 DUP3 KECCAK256 DUP1 SLOAD PUSH32 0xFFFFFFFFFFFFFFFFFFFFFFFFFFFFFFFFFFFFFFFFFFFFFFFFFFFFFFFFFFFFFF00 AND PUSH1 0x1 OR SWAP1 SSTORE MLOAD DUP3 SWAP2 PUSH32 0xBDD203DD78BF49CF79E4DB0ECDF7D27ADC380FB1F33BEEF2667A50DB9D2A0E04 SWAP2 LOG2 POP JUMP JUMPDEST PUSH2 0x39E CALLER PUSH2 0x2D5 JUMP JUMPDEST PUSH1 0x0 DUP2 DUP2 MSTORE PUSH1 0x20 DUP2 SWAP1 MSTORE PUSH1 0x40 SWAP1 KECCAK256 SLOAD PUSH1 0xFF AND PUSH2 0x3E9 JUMPI PUSH1 0x40 MLOAD PUSH32 0x6D82574300000000000000000000000000000000000000000000000000000000 DUP2 MSTORE PUSH1 0x4 DUP2 ADD DUP3 SWAP1 MSTORE PUSH1 0x24 ADD PUSH2 0x32B JUMP JUMPDEST PUSH1 0x0 DUP2 DUP2 MSTORE PUSH1 0x20 DUP2 SWAP1 MSTORE PUSH1 0x40 DUP1 DUP3 KECCAK256 DUP1 SLOAD PUSH32 0xFFFFFFFFFFFFFFFFFFFFFFFFFFFFFFFFFFFFFFFFFFFFFFFFFFFFFFFFFFFFFF00 AND SWAP1 SSTORE MLOAD DUP3 SWAP2 PUSH32 0x578EAB65D47CFFA57066B105301289FF86BFDC0ADC2A701C3356D2A6EB6A6123 SWAP2 LOG2 POP JUMP JUMPDEST PUSH1 0x0 PUSH32 0x0 PUSH20 0xFFFFFFFFFFFFFFFFFFFFFFFFFFFFFFFFFFFFFFFF AND CALLER EQ PUSH2 0x4F6 JUMPI PUSH1 0x40 MLOAD PUSH32 0x1DB090900000000000000000000000000000000000000000000000000000000 DUP2 MSTORE CALLER PUSH1 0x4 DUP3 ADD MSTORE PUSH20 0xFFFFFFFFFFFFFFFFFFFFFFFFFFFFFFFFFFFFFFFF PUSH32 0x0 AND PUSH1 0x24 DUP3 ADD MSTORE PUSH1 0x44 ADD PUSH2 0x32B JUMP JUMPDEST PUSH1 0x0 DUP1 DUP1 DUP1 DUP1 DUP1 PUSH2 0x509 DUP9 DUP11 ADD DUP11 PUSH2 0x1915 JUMP JUMPDEST PUSH1 0x0 DUP7 DUP2 MSTORE PUSH1 0x20 DUP2 SWAP1 MSTORE PUSH1 0x40 SWAP1 KECCAK256 SLOAD SWAP6 SWAP12 POP SWAP4 SWAP10 POP SWAP2 SWAP8 POP SWAP6 POP SWAP4 POP SWAP2 POP PUSH1 0xFF AND PUSH2 0x563 JUMPI PUSH1 0x40 MLOAD PUSH32 0x6D82574300000000000000000000000000000000000000000000000000000000 DUP2 MSTORE PUSH1 0x4 DUP2 ADD DUP8 SWAP1 MSTORE PUSH1 0x24 ADD PUSH2 0x32B JUMP JUMPDEST PUSH1 0x0 DUP4 DUP4 DUP4 DUP14 DUP10 PUSH1 0x40 MLOAD PUSH1 0x20 ADD PUSH2 0x57E SWAP6 SWAP5 SWAP4 SWAP3 SWAP2 SWAP1 PUSH2 0x1A4B JUMP JUMPDEST PUSH1 0x40 DUP1 MLOAD PUSH32 0xFFFFFFFFFFFFFFFFFFFFFFFFFFFFFFFFFFFFFFFFFFFFFFFFFFFFFFFFFFFFFFE0 DUP2 DUP5 SUB ADD DUP2 MSTORE SWAP2 SWAP1 MSTORE DUP1 MLOAD PUSH1 0x20 SWAP1 SWAP2 ADD KECCAK256 SWAP1 POP PUSH2 0x5C1 DUP6 DUP9 DUP4 PUSH2 0xDCD JUMP JUMPDEST PUSH2 0x601 JUMPI DUP4 DUP4 DUP4 DUP14 DUP10 PUSH1 0x40 MLOAD PUSH32 0xDBF2AC7C00000000000000000000000000000000000000000000000000000000 DUP2 MSTORE PUSH1 0x4 ADD PUSH2 0x32B SWAP6 SWAP5 SWAP4 SWAP3 SWAP2 SWAP1 PUSH2 0x1ACC JUMP JUMPDEST PUSH1 0x0 DUP2 DUP2 MSTORE PUSH1 0x1 PUSH1 0x20 MSTORE PUSH1 0x40 SWAP1 KECCAK256 SLOAD PUSH1 0xFF AND ISZERO PUSH2 0x654 JUMPI DUP4 DUP4 DUP4 DUP14 DUP10 PUSH1 0x40 MLOAD PUSH32 0xF048F37A00000000000000000000000000000000000000000000000000000000 DUP2 MSTORE PUSH1 0x4 ADD PUSH2 0x32B SWAP6 SWAP5 SWAP4 SWAP3 SWAP2 SWAP1 PUSH2 0x1ACC JUMP JUMPDEST PUSH1 0x0 PUSH2 0x67B PUSH2 0x661 PUSH2 0xDE3 JUMP JUMPDEST SLOAD PUSH20 0xFFFFFFFFFFFFFFFFFFFFFFFFFFFFFFFFFFFFFFFF AND SWAP1 JUMP JUMPDEST PUSH1 0x40 MLOAD PUSH32 0xEB79554900000000000000000000000000000000000000000000000000000000 DUP2 MSTORE PUSH20 0xFFFFFFFFFFFFFFFFFFFFFFFFFFFFFFFFFFFFFFFF DUP3 DUP2 AND PUSH1 0x4 DUP4 ADD MSTORE PUSH1 0x24 DUP3 ADD DUP16 SWAP1 MSTORE PUSH1 0x60 PUSH1 0x44 DUP4 ADD MSTORE PUSH1 0x0 PUSH1 0x64 DUP4 ADD MSTORE SWAP2 SWAP3 POP PUSH32 0x0 SWAP1 SWAP2 AND SWAP1 PUSH4 0xEB795549 SWAP1 PUSH1 0x84 ADD PUSH1 0x20 PUSH1 0x40 MLOAD DUP1 DUP4 SUB DUP2 PUSH1 0x0 DUP8 GAS CALL ISZERO DUP1 ISZERO PUSH2 0x723 JUMPI RETURNDATASIZE PUSH1 0x0 DUP1 RETURNDATACOPY RETURNDATASIZE PUSH1 0x0 REVERT JUMPDEST POP POP POP POP PUSH1 0x40 MLOAD RETURNDATASIZE PUSH1 0x1F NOT PUSH1 0x1F DUP3 ADD AND DUP3 ADD DUP1 PUSH1 0x40 MSTORE POP DUP2 ADD SWAP1 PUSH2 0x747 SWAP2 SWAP1 PUSH2 0x1B22 JUMP JUMPDEST POP PUSH1 0x0 DUP3 DUP2 MSTORE PUSH1 0x1 PUSH1 0x20 DUP2 SWAP1 MSTORE PUSH1 0x40 SWAP2 DUP3 SWAP1 KECCAK256 DUP1 SLOAD PUSH32 0xFFFFFFFFFFFFFFFFFFFFFFFFFFFFFFFFFFFFFFFFFFFFFFFFFFFFFFFFFFFFFF00 AND SWAP1 SWAP2 OR SWAP1 SSTORE MLOAD PUSH32 0xD6A5BBB00000000000000000000000000000000000000000000000000000000 DUP2 MSTORE PUSH20 0xFFFFFFFFFFFFFFFFFFFFFFFFFFFFFFFFFFFFFFFF PUSH32 0x0 AND SWAP1 PUSH4 0xD6A5BBB SWAP1 PUSH2 0x7F7 SWAP1 DUP9 SWAP1 DUP9 SWAP1 DUP9 SWAP1 PUSH1 0x4 ADD PUSH2 0x1B44 JUMP JUMPDEST PUSH1 0x0 PUSH1 0x40 MLOAD DUP1 DUP4 SUB DUP2 PUSH1 0x0 DUP8 DUP1 EXTCODESIZE ISZERO DUP1 ISZERO PUSH2 0x811 JUMPI PUSH1 0x0 DUP1 REVERT JUMPDEST POP GAS CALL ISZERO DUP1 ISZERO PUSH2 0x825 JUMPI RETURNDATASIZE PUSH1 0x0 DUP1 RETURNDATACOPY RETURNDATASIZE PUSH1 0x0 REVERT JUMPDEST POP POP POP POP DUP5 PUSH20 0xFFFFFFFFFFFFFFFFFFFFFFFFFFFFFFFFFFFFFFFF AND DUP8 DUP10 PUSH32 0xBF561A0AE8123352ABF33F8F113E6B265C2E7FE7BA9B4D450750454BCBB7233A DUP16 DUP9 DUP9 PUSH1 0x40 MLOAD PUSH2 0x875 SWAP4 SWAP3 SWAP2 SWAP1 PUSH2 0x1BA1 JUMP JUMPDEST PUSH1 0x40 MLOAD DUP1 SWAP2 SUB SWAP1 LOG4 POP PUSH32 0x4FC3585900000000000000000000000000000000000000000000000000000000 SWAP14 SWAP13 POP POP POP POP POP POP POP POP POP POP POP POP POP JUMP JUMPDEST PUSH2 0x8B9 CALLER PUSH2 0x2D5 JUMP JUMPDEST PUSH2 0x8CB DUP2 PUSH2 0x8C5 PUSH2 0xDE3 JUMP JUMPDEST SWAP1 PUSH2 0xE11 JUMP JUMPDEST POP JUMP JUMPDEST PUSH2 0x8D7 CALLER PUSH2 0x2D5 JUMP JUMPDEST DUP5 DUP4 DUP2 EQ ISZERO DUP1 PUSH2 0x8E7 JUMPI POP DUP1 DUP3 EQ ISZERO JUMPDEST ISZERO PUSH2 0x91E JUMPI PUSH1 0x40 MLOAD PUSH32 0x6582533600000000000000000000000000000000000000000000000000000000 DUP2 MSTORE PUSH1 0x4 ADD PUSH1 0x40 MLOAD DUP1 SWAP2 SUB SWAP1 REVERT JUMPDEST PUSH1 0x0 JUMPDEST DUP2 DUP2 LT ISZERO PUSH2 0x9B8 JUMPI PUSH2 0x9B0 DUP9 DUP9 DUP4 DUP2 DUP2 LT PUSH2 0x93E JUMPI PUSH2 0x93E PUSH2 0x1BD6 JUMP JUMPDEST SWAP1 POP PUSH1 0x20 MUL ADD PUSH1 0x20 DUP2 ADD SWAP1 PUSH2 0x953 SWAP2 SWAP1 PUSH2 0x1695 JUMP JUMPDEST DUP6 DUP6 DUP5 DUP2 DUP2 LT PUSH2 0x965 JUMPI PUSH2 0x965 PUSH2 0x1BD6 JUMP JUMPDEST SWAP1 POP PUSH1 0x20 MUL ADD CALLDATALOAD DUP9 DUP9 DUP6 DUP2 DUP2 LT PUSH2 0x97E JUMPI PUSH2 0x97E PUSH2 0x1BD6 JUMP JUMPDEST SWAP1 POP PUSH1 0x20 MUL ADD PUSH1 0x20 DUP2 ADD SWAP1 PUSH2 0x993 SWAP2 SWAP1 PUSH2 0x1695 JUMP JUMPDEST PUSH20 0xFFFFFFFFFFFFFFFFFFFFFFFFFFFFFFFFFFFFFFFF AND SWAP2 SWAP1 PUSH2 0xED5 JUMP JUMPDEST PUSH1 0x1 ADD PUSH2 0x921 JUMP JUMPDEST POP POP POP POP POP POP POP POP JUMP JUMPDEST PUSH1 0x0 PUSH2 0x9CF PUSH2 0x661 PUSH2 0xDE3 JUMP JUMPDEST SWAP1 POP SWAP1 JUMP JUMPDEST PUSH1 0x0 PUSH2 0x9CF PUSH2 0x661 PUSH2 0xD30 JUMP JUMPDEST PUSH2 0x9EA CALLER PUSH2 0x2D5 JUMP JUMPDEST DUP5 DUP4 DUP2 EQ ISZERO DUP1 PUSH2 0x9FA JUMPI POP DUP1 DUP3 EQ ISZERO JUMPDEST ISZERO PUSH2 0xA31 JUMPI PUSH1 0x40 MLOAD PUSH32 0x6582533600000000000000000000000000000000000000000000000000000000 DUP2 MSTORE PUSH1 0x4 ADD PUSH1 0x40 MLOAD DUP1 SWAP2 SUB SWAP1 REVERT JUMPDEST PUSH1 0x0 JUMPDEST DUP2 DUP2 LT ISZERO PUSH2 0x9B8 JUMPI DUP6 DUP6 DUP3 DUP2 DUP2 LT PUSH2 0xA4E JUMPI PUSH2 0xA4E PUSH2 0x1BD6 JUMP JUMPDEST SWAP1 POP PUSH1 0x20 MUL ADD PUSH1 0x20 DUP2 ADD SWAP1 PUSH2 0xA63 SWAP2 SWAP1 PUSH2 0x1695 JUMP JUMPDEST PUSH20 0xFFFFFFFFFFFFFFFFFFFFFFFFFFFFFFFFFFFFFFFF AND PUSH4 0x23B872DD ADDRESS DUP11 DUP11 DUP6 DUP2 DUP2 LT PUSH2 0xA91 JUMPI PUSH2 0xA91 PUSH2 0x1BD6 JUMP JUMPDEST SWAP1 POP PUSH1 0x20 MUL ADD PUSH1 0x20 DUP2 ADD SWAP1 PUSH2 0xAA6 SWAP2 SWAP1 PUSH2 0x1695 JUMP JUMPDEST DUP8 DUP8 DUP7 DUP2 DUP2 LT PUSH2 0xAB8 JUMPI PUSH2 0xAB8 PUSH2 0x1BD6 JUMP JUMPDEST PUSH1 0x40 MLOAD PUSH32 0xFFFFFFFF00000000000000000000000000000000000000000000000000000000 PUSH1 0xE0 DUP9 SWAP1 SHL AND DUP2 MSTORE PUSH20 0xFFFFFFFFFFFFFFFFFFFFFFFFFFFFFFFFFFFFFFFF SWAP6 DUP7 AND PUSH1 0x4 DUP3 ADD MSTORE SWAP5 SWAP1 SWAP4 AND PUSH1 0x24 DUP6 ADD MSTORE POP PUSH1 0x20 SWAP1 SWAP2 MUL ADD CALLDATALOAD PUSH1 0x44 DUP3 ADD MSTORE PUSH1 0x64 ADD PUSH1 0x0 PUSH1 0x40 MLOAD DUP1 DUP4 SUB DUP2 PUSH1 0x0 DUP8 DUP1 EXTCODESIZE ISZERO DUP1 ISZERO PUSH2 0xB34 JUMPI PUSH1 0x0 DUP1 REVERT JUMPDEST POP GAS CALL ISZERO DUP1 ISZERO PUSH2 0xB48 JUMPI RETURNDATASIZE PUSH1 0x0 DUP1 RETURNDATACOPY RETURNDATASIZE PUSH1 0x0 REVERT JUMPDEST POP POP POP POP DUP1 PUSH1 0x1 ADD SWAP1 POP PUSH2 0xA34 JUMP JUMPDEST PUSH2 0x8CB CALLER DUP3 PUSH2 0xB64 PUSH2 0xD30 JUMP JUMPDEST SWAP2 SWAP1 PUSH2 0xF67 JUMP JUMPDEST PUSH2 0xB74 CALLER PUSH2 0x2D5 JUMP JUMPDEST DUP3 DUP2 DUP2 EQ PUSH2 0xBAE JUMPI PUSH1 0x40 MLOAD PUSH32 0x6582533600000000000000000000000000000000000000000000000000000000 DUP2 MSTORE PUSH1 0x4 ADD PUSH1 0x40 MLOAD DUP1 SWAP2 SUB SWAP1 REVERT JUMPDEST PUSH1 0x0 JUMPDEST DUP2 DUP2 LT ISZERO PUSH2 0xC20 JUMPI PUSH2 0xC18 DUP5 DUP5 DUP4 DUP2 DUP2 LT PUSH2 0xBCE JUMPI PUSH2 0xBCE PUSH2 0x1BD6 JUMP JUMPDEST SWAP1 POP PUSH1 0x20 MUL ADD CALLDATALOAD DUP8 DUP8 DUP5 DUP2 DUP2 LT PUSH2 0xBE7 JUMPI PUSH2 0xBE7 PUSH2 0x1BD6 JUMP JUMPDEST SWAP1 POP PUSH1 0x20 MUL ADD PUSH1 0x20 DUP2 ADD SWAP1 PUSH2 0xBFC SWAP2 SWAP1 PUSH2 0x1695 JUMP JUMPDEST PUSH20 0xFFFFFFFFFFFFFFFFFFFFFFFFFFFFFFFFFFFFFFFF AND SWAP1 PUSH2 0x107C JUMP JUMPDEST PUSH1 0x1 ADD PUSH2 0xBB1 JUMP JUMPDEST POP POP POP POP POP POP JUMP JUMPDEST PUSH1 0x0 DUP1 PUSH2 0x2CA PUSH1 0x1 PUSH32 0xCA9D3E17F264B0F3984E2634E94ADB37FA3E6A8103F06AEAE6FA59E21C769F5E PUSH2 0x1C05 JUMP JUMPDEST PUSH1 0x0 PUSH29 0x100000000000000000000000000000000000000000000000000000000 PUSH32 0xFFFFFFFF00000000000000000000000000000000000000000000000000000000 DUP4 AND ADD PUSH2 0xCA6 JUMPI POP PUSH1 0x0 PUSH2 0x2CA JUMP JUMPDEST PUSH32 0xFE00365900000000000000000000000000000000000000000000000000000000 PUSH32 0xFFFFFFFF00000000000000000000000000000000000000000000000000000000 DUP4 AND ADD PUSH2 0xCF7 JUMPI POP PUSH1 0x1 PUSH2 0x2CA JUMP JUMPDEST POP PUSH32 0xFFFFFFFF00000000000000000000000000000000000000000000000000000000 AND PUSH1 0x0 SWAP1 DUP2 MSTORE PUSH1 0x20 SWAP2 SWAP1 SWAP2 MSTORE PUSH1 0x40 SWAP1 KECCAK256 SLOAD PUSH1 0xFF AND SWAP1 JUMP JUMPDEST PUSH1 0x0 DUP1 PUSH2 0x2CA PUSH1 0x1 PUSH32 0xC9ED16F33AB3A66C84BFD83099CCB2A8845871E2E1C1928F63797152F0FD54CD PUSH2 0x1C05 JUMP JUMPDEST DUP2 SLOAD PUSH20 0xFFFFFFFFFFFFFFFFFFFFFFFFFFFFFFFFFFFFFFFF DUP3 DUP2 AND SWAP2 AND EQ PUSH2 0xDC9 JUMPI PUSH1 0x40 MLOAD PUSH32 0x2EF4875E00000000000000000000000000000000000000000000000000000000 DUP2 MSTORE PUSH20 0xFFFFFFFFFFFFFFFFFFFFFFFFFFFFFFFFFFFFFFFF DUP3 AND PUSH1 0x4 DUP3 ADD MSTORE PUSH1 0x24 ADD PUSH2 0x32B JUMP JUMPDEST POP POP JUMP JUMPDEST PUSH1 0x0 DUP3 PUSH2 0xDDA DUP6 DUP5 PUSH2 0x11D6 JUMP JUMPDEST EQ SWAP5 SWAP4 POP POP POP POP JUMP JUMPDEST PUSH1 0x0 DUP1 PUSH2 0x2CA PUSH1 0x1 PUSH32 0x4FB5F8CDFBCE77F22B0931A39E9F476A60A0F66524B2F379E96485471EB700AE PUSH2 0x1C05 JUMP JUMPDEST PUSH20 0xFFFFFFFFFFFFFFFFFFFFFFFFFFFFFFFFFFFFFFFF DUP2 AND PUSH2 0xE5E JUMPI PUSH1 0x40 MLOAD PUSH32 0x40B539CF00000000000000000000000000000000000000000000000000000000 DUP2 MSTORE PUSH1 0x4 ADD PUSH1 0x40 MLOAD DUP1 SWAP2 SUB SWAP1 REVERT JUMPDEST DUP2 SLOAD PUSH32 0xFFFFFFFFFFFFFFFFFFFFFFFF0000000000000000000000000000000000000000 AND PUSH20 0xFFFFFFFFFFFFFFFFFFFFFFFFFFFFFFFFFFFFFFFF DUP3 AND SWAP1 DUP2 OR DUP4 SSTORE PUSH1 0x40 MLOAD SWAP1 DUP2 MSTORE PUSH32 0xDD880D24A789958A6398C99C2E54CE31BC10A638CBC42F7DD34285479AE0F855 SWAP1 PUSH1 0x20 ADD PUSH1 0x40 MLOAD DUP1 SWAP2 SUB SWAP1 LOG1 POP POP JUMP JUMPDEST PUSH1 0x40 DUP1 MLOAD PUSH20 0xFFFFFFFFFFFFFFFFFFFFFFFFFFFFFFFFFFFFFFFF DUP5 AND PUSH1 0x24 DUP3 ADD MSTORE PUSH1 0x44 DUP1 DUP3 ADD DUP5 SWAP1 MSTORE DUP3 MLOAD DUP1 DUP4 SUB SWAP1 SWAP2 ADD DUP2 MSTORE PUSH1 0x64 SWAP1 SWAP2 ADD SWAP1 SWAP2 MSTORE PUSH1 0x20 DUP2 ADD DUP1 MLOAD PUSH28 0xFFFFFFFFFFFFFFFFFFFFFFFFFFFFFFFFFFFFFFFFFFFFFFFFFFFFFFFF AND PUSH32 0xA9059CBB00000000000000000000000000000000000000000000000000000000 OR SWAP1 MSTORE PUSH2 0xF62 SWAP1 DUP5 SWAP1 PUSH2 0x1219 JUMP JUMPDEST POP POP POP JUMP JUMPDEST DUP3 SLOAD PUSH20 0xFFFFFFFFFFFFFFFFFFFFFFFFFFFFFFFFFFFFFFFF SWAP1 DUP2 AND SWAP1 DUP4 AND DUP2 EQ PUSH2 0xFD4 JUMPI PUSH1 0x40 MLOAD PUSH32 0x2EF4875E00000000000000000000000000000000000000000000000000000000 DUP2 MSTORE PUSH20 0xFFFFFFFFFFFFFFFFFFFFFFFFFFFFFFFFFFFFFFFF DUP5 AND PUSH1 0x4 DUP3 ADD MSTORE PUSH1 0x24 ADD PUSH2 0x32B JUMP JUMPDEST DUP2 PUSH20 0xFFFFFFFFFFFFFFFFFFFFFFFFFFFFFFFFFFFFFFFF AND DUP2 PUSH20 0xFFFFFFFFFFFFFFFFFFFFFFFFFFFFFFFFFFFFFFFF AND EQ PUSH2 0x1076 JUMPI DUP4 SLOAD PUSH32 0xFFFFFFFFFFFFFFFFFFFFFFFF0000000000000000000000000000000000000000 AND PUSH20 0xFFFFFFFFFFFFFFFFFFFFFFFFFFFFFFFFFFFFFFFF DUP4 DUP2 AND SWAP2 DUP3 OR DUP7 SSTORE PUSH1 0x40 MLOAD SWAP1 DUP4 AND SWAP1 PUSH32 0x8BE0079C531659141344CD1FD0A4F28419497F9722A3DAAFE3B4186F6B6457E0 SWAP1 PUSH1 0x0 SWAP1 LOG3 JUMPDEST POP POP POP POP JUMP JUMPDEST DUP1 SELFBALANCE LT ISZERO PUSH2 0x10E6 JUMPI PUSH1 0x40 MLOAD PUSH32 0x8C379A000000000000000000000000000000000000000000000000000000000 DUP2 MSTORE PUSH1 0x20 PUSH1 0x4 DUP3 ADD MSTORE PUSH1 0x1D PUSH1 0x24 DUP3 ADD MSTORE PUSH32 0x416464726573733A20696E73756666696369656E742062616C616E6365000000 PUSH1 0x44 DUP3 ADD MSTORE PUSH1 0x64 ADD PUSH2 0x32B JUMP JUMPDEST PUSH1 0x0 DUP3 PUSH20 0xFFFFFFFFFFFFFFFFFFFFFFFFFFFFFFFFFFFFFFFF AND DUP3 PUSH1 0x40 MLOAD PUSH1 0x0 PUSH1 0x40 MLOAD DUP1 DUP4 SUB DUP2 DUP6 DUP8 GAS CALL SWAP3 POP POP POP RETURNDATASIZE DUP1 PUSH1 0x0 DUP2 EQ PUSH2 0x1140 JUMPI PUSH1 0x40 MLOAD SWAP2 POP PUSH1 0x1F NOT PUSH1 0x3F RETURNDATASIZE ADD AND DUP3 ADD PUSH1 0x40 MSTORE RETURNDATASIZE DUP3 MSTORE RETURNDATASIZE PUSH1 0x0 PUSH1 0x20 DUP5 ADD RETURNDATACOPY PUSH2 0x1145 JUMP JUMPDEST PUSH1 0x60 SWAP2 POP JUMPDEST POP POP SWAP1 POP DUP1 PUSH2 0xF62 JUMPI PUSH1 0x40 MLOAD PUSH32 0x8C379A000000000000000000000000000000000000000000000000000000000 DUP2 MSTORE PUSH1 0x20 PUSH1 0x4 DUP3 ADD MSTORE PUSH1 0x3A PUSH1 0x24 DUP3 ADD MSTORE PUSH32 0x416464726573733A20756E61626C6520746F2073656E642076616C75652C2072 PUSH1 0x44 DUP3 ADD MSTORE PUSH32 0x6563697069656E74206D61792068617665207265766572746564000000000000 PUSH1 0x64 DUP3 ADD MSTORE PUSH1 0x84 ADD PUSH2 0x32B JUMP JUMPDEST PUSH1 0x0 DUP2 DUP2 JUMPDEST DUP5 MLOAD DUP2 LT ISZERO PUSH2 0x1211 JUMPI PUSH2 0x1207 DUP3 DUP7 DUP4 DUP2 MLOAD DUP2 LT PUSH2 0x11FA JUMPI PUSH2 0x11FA PUSH2 0x1BD6 JUMP JUMPDEST PUSH1 0x20 MUL PUSH1 0x20 ADD ADD MLOAD PUSH2 0x1328 JUMP JUMPDEST SWAP2 POP PUSH1 0x1 ADD PUSH2 0x11DB JUMP JUMPDEST POP SWAP4 SWAP3 POP POP POP JUMP JUMPDEST PUSH1 0x0 PUSH2 0x127B DUP3 PUSH1 0x40 MLOAD DUP1 PUSH1 0x40 ADD PUSH1 0x40 MSTORE DUP1 PUSH1 0x20 DUP2 MSTORE PUSH1 0x20 ADD PUSH32 0x5361666545524332303A206C6F772D6C6576656C2063616C6C206661696C6564 DUP2 MSTORE POP DUP6 PUSH20 0xFFFFFFFFFFFFFFFFFFFFFFFFFFFFFFFFFFFFFFFF AND PUSH2 0x135A SWAP1 SWAP3 SWAP2 SWAP1 PUSH4 0xFFFFFFFF AND JUMP JUMPDEST SWAP1 POP DUP1 MLOAD PUSH1 0x0 EQ DUP1 PUSH2 0x129C JUMPI POP DUP1 DUP1 PUSH1 0x20 ADD SWAP1 MLOAD DUP2 ADD SWAP1 PUSH2 0x129C SWAP2 SWAP1 PUSH2 0x1B22 JUMP JUMPDEST PUSH2 0xF62 JUMPI PUSH1 0x40 MLOAD PUSH32 0x8C379A000000000000000000000000000000000000000000000000000000000 DUP2 MSTORE PUSH1 0x20 PUSH1 0x4 DUP3 ADD MSTORE PUSH1 0x2A PUSH1 0x24 DUP3 ADD MSTORE PUSH32 0x5361666545524332303A204552433230206F7065726174696F6E20646964206E PUSH1 0x44 DUP3 ADD MSTORE PUSH32 0x6F74207375636365656400000000000000000000000000000000000000000000 PUSH1 0x64 DUP3 ADD MSTORE PUSH1 0x84 ADD PUSH2 0x32B JUMP JUMPDEST PUSH1 0x0 DUP2 DUP4 LT PUSH2 0x1344 JUMPI PUSH1 0x0 DUP3 DUP2 MSTORE PUSH1 0x20 DUP5 SWAP1 MSTORE PUSH1 0x40 SWAP1 KECCAK256 PUSH2 0x1353 JUMP JUMPDEST PUSH1 0x0 DUP4 DUP2 MSTORE PUSH1 0x20 DUP4 SWAP1 MSTORE PUSH1 0x40 SWAP1 KECCAK256 JUMPDEST SWAP4 SWAP3 POP POP POP JUMP JUMPDEST PUSH1 0x60 PUSH2 0x1369 DUP5 DUP5 PUSH1 0x0 DUP6 PUSH2 0x1371 JUMP JUMPDEST SWAP5 SWAP4 POP POP POP POP JUMP JUMPDEST PUSH1 0x60 DUP3 SELFBALANCE LT ISZERO PUSH2 0x1403 JUMPI PUSH1 0x40 MLOAD PUSH32 0x8C379A000000000000000000000000000000000000000000000000000000000 DUP2 MSTORE PUSH1 0x20 PUSH1 0x4 DUP3 ADD MSTORE PUSH1 0x26 PUSH1 0x24 DUP3 ADD MSTORE PUSH32 0x416464726573733A20696E73756666696369656E742062616C616E636520666F PUSH1 0x44 DUP3 ADD MSTORE PUSH32 0x722063616C6C0000000000000000000000000000000000000000000000000000 PUSH1 0x64 DUP3 ADD MSTORE PUSH1 0x84 ADD PUSH2 0x32B JUMP JUMPDEST PUSH1 0x0 DUP1 DUP7 PUSH20 0xFFFFFFFFFFFFFFFFFFFFFFFFFFFFFFFFFFFFFFFF AND DUP6 DUP8 PUSH1 0x40 MLOAD PUSH2 0x142C SWAP2 SWAP1 PUSH2 0x1C63 JUMP JUMPDEST PUSH1 0x0 PUSH1 0x40 MLOAD DUP1 DUP4 SUB DUP2 DUP6 DUP8 GAS CALL SWAP3 POP POP POP RETURNDATASIZE DUP1 PUSH1 0x0 DUP2 EQ PUSH2 0x1469 JUMPI PUSH1 0x40 MLOAD SWAP2 POP PUSH1 0x1F NOT PUSH1 0x3F RETURNDATASIZE ADD AND DUP3 ADD PUSH1 0x40 MSTORE RETURNDATASIZE DUP3 MSTORE RETURNDATASIZE PUSH1 0x0 PUSH1 0x20 DUP5 ADD RETURNDATACOPY PUSH2 0x146E JUMP JUMPDEST PUSH1 0x60 SWAP2 POP JUMPDEST POP SWAP2 POP SWAP2 POP PUSH2 0x147F DUP8 DUP4 DUP4 DUP8 PUSH2 0x148A JUMP JUMPDEST SWAP8 SWAP7 POP POP POP POP POP POP POP JUMP JUMPDEST PUSH1 0x60 DUP4 ISZERO PUSH2 0x1520 JUMPI DUP3 MLOAD PUSH1 0x0 SUB PUSH2 0x1519 JUMPI PUSH20 0xFFFFFFFFFFFFFFFFFFFFFFFFFFFFFFFFFFFFFFFF DUP6 AND EXTCODESIZE PUSH2 0x1519 JUMPI PUSH1 0x40 MLOAD PUSH32 0x8C379A000000000000000000000000000000000000000000000000000000000 DUP2 MSTORE PUSH1 0x20 PUSH1 0x4 DUP3 ADD MSTORE PUSH1 0x1D PUSH1 0x24 DUP3 ADD MSTORE PUSH32 0x416464726573733A2063616C6C20746F206E6F6E2D636F6E7472616374000000 PUSH1 0x44 DUP3 ADD MSTORE PUSH1 0x64 ADD PUSH2 0x32B JUMP JUMPDEST POP DUP2 PUSH2 0x1369 JUMP JUMPDEST PUSH2 0x1369 DUP4 DUP4 DUP2 MLOAD ISZERO PUSH2 0x1535 JUMPI DUP2 MLOAD DUP1 DUP4 PUSH1 0x20 ADD REVERT JUMPDEST DUP1 PUSH1 0x40 MLOAD PUSH32 0x8C379A000000000000000000000000000000000000000000000000000000000 DUP2 MSTORE PUSH1 0x4 ADD PUSH2 0x32B SWAP2 SWAP1 PUSH2 0x1C7F JUMP JUMPDEST PUSH1 0x0 PUSH1 0x20 DUP3 DUP5 SUB SLT ISZERO PUSH2 0x157B JUMPI PUSH1 0x0 DUP1 REVERT JUMPDEST DUP2 CALLDATALOAD PUSH32 0xFFFFFFFF00000000000000000000000000000000000000000000000000000000 DUP2 AND DUP2 EQ PUSH2 0x1353 JUMPI PUSH1 0x0 DUP1 REVERT JUMPDEST PUSH1 0x0 PUSH1 0x20 DUP3 DUP5 SUB SLT ISZERO PUSH2 0x15BD JUMPI PUSH1 0x0 DUP1 REVERT JUMPDEST POP CALLDATALOAD SWAP2 SWAP1 POP JUMP JUMPDEST PUSH20 0xFFFFFFFFFFFFFFFFFFFFFFFFFFFFFFFFFFFFFFFF DUP2 AND DUP2 EQ PUSH2 0x8CB JUMPI PUSH1 0x0 DUP1 REVERT JUMPDEST PUSH1 0x0 DUP1 PUSH1 0x0 DUP1 PUSH1 0x0 PUSH1 0x80 DUP7 DUP9 SUB SLT ISZERO PUSH2 0x15FE JUMPI PUSH1 0x0 DUP1 REVERT JUMPDEST DUP6 CALLDATALOAD PUSH2 0x1609 DUP2 PUSH2 0x15C4 JUMP JUMPDEST SWAP5 POP PUSH1 0x20 DUP7 ADD CALLDATALOAD PUSH2 0x1619 DUP2 PUSH2 0x15C4 JUMP JUMPDEST SWAP4 POP PUSH1 0x40 DUP7 ADD CALLDATALOAD SWAP3 POP PUSH1 0x60 DUP7 ADD CALLDATALOAD PUSH8 0xFFFFFFFFFFFFFFFF DUP1 DUP3 GT ISZERO PUSH2 0x163D JUMPI PUSH1 0x0 DUP1 REVERT JUMPDEST DUP2 DUP9 ADD SWAP2 POP DUP9 PUSH1 0x1F DUP4 ADD SLT PUSH2 0x1651 JUMPI PUSH1 0x0 DUP1 REVERT JUMPDEST DUP2 CALLDATALOAD DUP2 DUP2 GT ISZERO PUSH2 0x1660 JUMPI PUSH1 0x0 DUP1 REVERT JUMPDEST DUP10 PUSH1 0x20 DUP3 DUP6 ADD ADD GT ISZERO PUSH2 0x1672 JUMPI PUSH1 0x0 DUP1 REVERT JUMPDEST SWAP7 SWAP10 SWAP6 SWAP9 POP SWAP4 SWAP7 POP PUSH1 0x20 ADD SWAP5 SWAP4 SWAP3 POP POP POP JUMP JUMPDEST DUP1 CALLDATALOAD PUSH2 0x1690 DUP2 PUSH2 0x15C4 JUMP JUMPDEST SWAP2 SWAP1 POP JUMP JUMPDEST PUSH1 0x0 PUSH1 0x20 DUP3 DUP5 SUB SLT ISZERO PUSH2 0x16A7 JUMPI PUSH1 0x0 DUP1 REVERT JUMPDEST DUP2 CALLDATALOAD PUSH2 0x1353 DUP2 PUSH2 0x15C4 JUMP JUMPDEST PUSH1 0x0 DUP1 DUP4 PUSH1 0x1F DUP5 ADD SLT PUSH2 0x16C4 JUMPI PUSH1 0x0 DUP1 REVERT JUMPDEST POP DUP2 CALLDATALOAD PUSH8 0xFFFFFFFFFFFFFFFF DUP2 GT ISZERO PUSH2 0x16DC JUMPI PUSH1 0x0 DUP1 REVERT JUMPDEST PUSH1 0x20 DUP4 ADD SWAP2 POP DUP4 PUSH1 0x20 DUP3 PUSH1 0x5 SHL DUP6 ADD ADD GT ISZERO PUSH2 0x16F7 JUMPI PUSH1 0x0 DUP1 REVERT JUMPDEST SWAP3 POP SWAP3 SWAP1 POP JUMP JUMPDEST PUSH1 0x0 DUP1 PUSH1 0x0 DUP1 PUSH1 0x0 DUP1 PUSH1 0x60 DUP8 DUP10 SUB SLT ISZERO PUSH2 0x1717 JUMPI PUSH1 0x0 DUP1 REVERT JUMPDEST DUP7 CALLDATALOAD PUSH8 0xFFFFFFFFFFFFFFFF DUP1 DUP3 GT ISZERO PUSH2 0x172F JUMPI PUSH1 0x0 DUP1 REVERT JUMPDEST PUSH2 0x173B DUP11 DUP4 DUP12 ADD PUSH2 0x16B2 JUMP JUMPDEST SWAP1 SWAP9 POP SWAP7 POP PUSH1 0x20 DUP10 ADD CALLDATALOAD SWAP2 POP DUP1 DUP3 GT ISZERO PUSH2 0x1754 JUMPI PUSH1 0x0 DUP1 REVERT JUMPDEST PUSH2 0x1760 DUP11 DUP4 DUP12 ADD PUSH2 0x16B2 JUMP JUMPDEST SWAP1 SWAP7 POP SWAP5 POP PUSH1 0x40 DUP10 ADD CALLDATALOAD SWAP2 POP DUP1 DUP3 GT ISZERO PUSH2 0x1779 JUMPI PUSH1 0x0 DUP1 REVERT JUMPDEST POP PUSH2 0x1786 DUP10 DUP3 DUP11 ADD PUSH2 0x16B2 JUMP JUMPDEST SWAP8 SWAP11 SWAP7 SWAP10 POP SWAP5 SWAP8 POP SWAP3 SWAP6 SWAP4 SWAP5 SWAP3 POP POP POP JUMP JUMPDEST PUSH1 0x0 DUP1 PUSH1 0x0 DUP1 PUSH1 0x40 DUP6 DUP8 SUB SLT ISZERO PUSH2 0x17AE JUMPI PUSH1 0x0 DUP1 REVERT JUMPDEST DUP5 CALLDATALOAD PUSH8 0xFFFFFFFFFFFFFFFF DUP1 DUP3 GT ISZERO PUSH2 0x17C6 JUMPI PUSH1 0x0 DUP1 REVERT JUMPDEST PUSH2 0x17D2 DUP9 DUP4 DUP10 ADD PUSH2 0x16B2 JUMP JUMPDEST SWAP1 SWAP7 POP SWAP5 POP PUSH1 0x20 DUP8 ADD CALLDATALOAD SWAP2 POP DUP1 DUP3 GT ISZERO PUSH2 0x17EB JUMPI PUSH1 0x0 DUP1 REVERT JUMPDEST POP PUSH2 0x17F8 DUP8 DUP3 DUP9 ADD PUSH2 0x16B2 JUMP JUMPDEST SWAP6 SWAP9 SWAP5 SWAP8 POP SWAP6 POP POP POP POP JUMP JUMPDEST PUSH32 0x4E487B7100000000000000000000000000000000000000000000000000000000 PUSH1 0x0 MSTORE PUSH1 0x41 PUSH1 0x4 MSTORE PUSH1 0x24 PUSH1 0x0 REVERT JUMPDEST PUSH1 0x40 MLOAD PUSH1 0x1F DUP3 ADD PUSH32 0xFFFFFFFFFFFFFFFFFFFFFFFFFFFFFFFFFFFFFFFFFFFFFFFFFFFFFFFFFFFFFFE0 AND DUP2 ADD PUSH8 0xFFFFFFFFFFFFFFFF DUP2 GT DUP3 DUP3 LT OR ISZERO PUSH2 0x187A JUMPI PUSH2 0x187A PUSH2 0x1804 JUMP JUMPDEST PUSH1 0x40 MSTORE SWAP2 SWAP1 POP JUMP JUMPDEST PUSH1 0x0 PUSH8 0xFFFFFFFFFFFFFFFF DUP3 GT ISZERO PUSH2 0x189C JUMPI PUSH2 0x189C PUSH2 0x1804 JUMP JUMPDEST POP PUSH1 0x5 SHL PUSH1 0x20 ADD SWAP1 JUMP JUMPDEST PUSH1 0x0 DUP3 PUSH1 0x1F DUP4 ADD SLT PUSH2 0x18B7 JUMPI PUSH1 0x0 DUP1 REVERT JUMPDEST DUP2 CALLDATALOAD PUSH1 0x20 PUSH2 0x18CC PUSH2 0x18C7 DUP4 PUSH2 0x1882 JUMP JUMPDEST PUSH2 0x1833 JUMP JUMPDEST DUP1 DUP4 DUP3 MSTORE PUSH1 0x20 DUP3 ADD SWAP2 POP PUSH1 0x20 DUP5 PUSH1 0x5 SHL DUP8 ADD ADD SWAP4 POP DUP7 DUP5 GT ISZERO PUSH2 0x18EE JUMPI PUSH1 0x0 DUP1 REVERT JUMPDEST PUSH1 0x20 DUP7 ADD JUMPDEST DUP5 DUP2 LT ISZERO PUSH2 0x190A JUMPI DUP1 CALLDATALOAD DUP4 MSTORE SWAP2 DUP4 ADD SWAP2 DUP4 ADD PUSH2 0x18F3 JUMP JUMPDEST POP SWAP7 SWAP6 POP POP POP POP POP POP JUMP JUMPDEST PUSH1 0x0 DUP1 PUSH1 0x0 DUP1 PUSH1 0x0 DUP1 PUSH1 0xC0 DUP8 DUP10 SUB SLT ISZERO PUSH2 0x192E JUMPI PUSH1 0x0 DUP1 REVERT JUMPDEST DUP7 CALLDATALOAD SWAP6 POP PUSH1 0x20 DUP1 DUP9 ADD CALLDATALOAD SWAP6 POP PUSH1 0x40 DUP9 ADD CALLDATALOAD PUSH8 0xFFFFFFFFFFFFFFFF DUP1 DUP3 GT ISZERO PUSH2 0x1955 JUMPI PUSH1 0x0 DUP1 REVERT JUMPDEST DUP2 DUP11 ADD SWAP2 POP DUP11 PUSH1 0x1F DUP4 ADD SLT PUSH2 0x1969 JUMPI PUSH1 0x0 DUP1 REVERT JUMPDEST DUP2 CALLDATALOAD PUSH2 0x1977 PUSH2 0x18C7 DUP3 PUSH2 0x1882 JUMP JUMPDEST DUP2 DUP2 MSTORE PUSH1 0x5 SWAP2 SWAP1 SWAP2 SHL DUP4 ADD DUP5 ADD SWAP1 DUP5 DUP2 ADD SWAP1 DUP14 DUP4 GT ISZERO PUSH2 0x1996 JUMPI PUSH1 0x0 DUP1 REVERT JUMPDEST SWAP4 DUP6 ADD SWAP4 JUMPDEST DUP3 DUP6 LT ISZERO PUSH2 0x19B4 JUMPI DUP5 CALLDATALOAD DUP3 MSTORE SWAP4 DUP6 ADD SWAP4 SWAP1 DUP6 ADD SWAP1 PUSH2 0x199B JUMP JUMPDEST SWAP9 POP PUSH2 0x19C5 SWAP2 POP POP PUSH1 0x60 DUP12 ADD PUSH2 0x1685 JUMP JUMPDEST SWAP6 POP PUSH1 0x80 DUP11 ADD CALLDATALOAD SWAP3 POP DUP1 DUP4 GT ISZERO PUSH2 0x19DB JUMPI PUSH1 0x0 DUP1 REVERT JUMPDEST PUSH2 0x19E7 DUP12 DUP5 DUP13 ADD PUSH2 0x18A6 JUMP JUMPDEST SWAP5 POP PUSH1 0xA0 DUP11 ADD CALLDATALOAD SWAP3 POP DUP1 DUP4 GT ISZERO PUSH2 0x19FD JUMPI PUSH1 0x0 DUP1 REVERT JUMPDEST POP POP PUSH2 0x1A0B DUP10 DUP3 DUP11 ADD PUSH2 0x18A6 JUMP JUMPDEST SWAP2 POP POP SWAP3 SWAP6 POP SWAP3 SWAP6 POP SWAP3 SWAP6 JUMP JUMPDEST PUSH1 0x0 DUP2 MLOAD PUSH1 0x20 DUP1 DUP5 ADD PUSH1 0x0 JUMPDEST DUP4 DUP2 LT ISZERO PUSH2 0x1A40 JUMPI DUP2 MLOAD DUP8 MSTORE SWAP6 DUP3 ADD SWAP6 SWAP1 DUP3 ADD SWAP1 PUSH1 0x1 ADD PUSH2 0x1A24 JUMP JUMPDEST POP SWAP5 SWAP6 SWAP5 POP POP POP POP POP JUMP JUMPDEST PUSH32 0xFFFFFFFFFFFFFFFFFFFFFFFFFFFFFFFFFFFFFFFF000000000000000000000000 DUP7 PUSH1 0x60 SHL AND DUP2 MSTORE PUSH1 0x0 PUSH2 0x1A8B PUSH2 0x1A85 PUSH1 0x14 DUP5 ADD DUP9 PUSH2 0x1A18 JUMP JUMPDEST DUP7 PUSH2 0x1A18 JUMP JUMPDEST SWAP4 DUP5 MSTORE POP POP PUSH1 0x20 DUP3 ADD MSTORE PUSH1 0x40 ADD SWAP4 SWAP3 POP POP POP JUMP JUMPDEST DUP1 MLOAD DUP1 DUP4 MSTORE PUSH1 0x20 SWAP3 DUP4 ADD SWAP3 PUSH1 0x0 SWAP2 SWAP1 DUP1 DUP5 ADD DUP4 DUP4 ISZERO PUSH2 0x1A40 JUMPI DUP2 MLOAD DUP8 MSTORE SWAP6 DUP3 ADD SWAP6 SWAP1 DUP3 ADD SWAP1 PUSH1 0x1 ADD PUSH2 0x1A24 JUMP JUMPDEST PUSH20 0xFFFFFFFFFFFFFFFFFFFFFFFFFFFFFFFFFFFFFFFF DUP7 AND DUP2 MSTORE PUSH1 0xA0 PUSH1 0x20 DUP3 ADD MSTORE PUSH1 0x0 PUSH2 0x1AFB PUSH1 0xA0 DUP4 ADD DUP8 PUSH2 0x1A9F JUMP JUMPDEST DUP3 DUP2 SUB PUSH1 0x40 DUP5 ADD MSTORE PUSH2 0x1B0D DUP2 DUP8 PUSH2 0x1A9F JUMP JUMPDEST PUSH1 0x60 DUP5 ADD SWAP6 SWAP1 SWAP6 MSTORE POP POP PUSH1 0x80 ADD MSTORE SWAP4 SWAP3 POP POP POP JUMP JUMPDEST PUSH1 0x0 PUSH1 0x20 DUP3 DUP5 SUB SLT ISZERO PUSH2 0x1B34 JUMPI PUSH1 0x0 DUP1 REVERT JUMPDEST DUP2 MLOAD DUP1 ISZERO ISZERO DUP2 EQ PUSH2 0x1353 JUMPI PUSH1 0x0 DUP1 REVERT JUMPDEST PUSH20 0xFFFFFFFFFFFFFFFFFFFFFFFFFFFFFFFFFFFFFFFF DUP5 AND DUP2 MSTORE PUSH1 0x80 PUSH1 0x20 DUP3 ADD MSTORE PUSH1 0x0 PUSH2 0x1B73 PUSH1 0x80 DUP4 ADD DUP6 PUSH2 0x1A9F JUMP JUMPDEST DUP3 DUP2 SUB PUSH1 0x40 DUP5 ADD MSTORE PUSH2 0x1B85 DUP2 DUP6 PUSH2 0x1A9F JUMP JUMPDEST DUP4 DUP2 SUB PUSH1 0x60 SWAP1 SWAP5 ADD SWAP4 SWAP1 SWAP4 MSTORE POP POP PUSH1 0x0 DUP2 MSTORE PUSH1 0x20 ADD SWAP4 SWAP3 POP POP POP JUMP JUMPDEST DUP4 DUP2 MSTORE PUSH1 0x60 PUSH1 0x20 DUP3 ADD MSTORE PUSH1 0x0 PUSH2 0x1BBA PUSH1 0x60 DUP4 ADD DUP6 PUSH2 0x1A9F JUMP JUMPDEST DUP3 DUP2 SUB PUSH1 0x40 DUP5 ADD MSTORE PUSH2 0x1BCC DUP2 DUP6 PUSH2 0x1A9F JUMP JUMPDEST SWAP7 SWAP6 POP POP POP POP POP POP JUMP JUMPDEST PUSH32 0x4E487B7100000000000000000000000000000000000000000000000000000000 PUSH1 0x0 MSTORE PUSH1 0x32 PUSH1 0x4 MSTORE PUSH1 0x24 PUSH1 0x0 REVERT JUMPDEST DUP2 DUP2 SUB DUP2 DUP2 GT ISZERO PUSH2 0x2CA JUMPI PUSH32 0x4E487B7100000000000000000000000000000000000000000000000000000000 PUSH1 0x0 MSTORE PUSH1 0x11 PUSH1 0x4 MSTORE PUSH1 0x24 PUSH1 0x0 REVERT JUMPDEST PUSH1 0x0 JUMPDEST DUP4 DUP2 LT ISZERO PUSH2 0x1C5A JUMPI DUP2 DUP2 ADD MLOAD DUP4 DUP3 ADD MSTORE PUSH1 0x20 ADD PUSH2 0x1C42 JUMP JUMPDEST POP POP PUSH1 0x0 SWAP2 ADD MSTORE JUMP JUMPDEST PUSH1 0x0 DUP3 MLOAD PUSH2 0x1C75 DUP2 DUP5 PUSH1 0x20 DUP8 ADD PUSH2 0x1C3F JUMP JUMPDEST SWAP2 SWAP1 SWAP2 ADD SWAP3 SWAP2 POP POP JUMP JUMPDEST PUSH1 0x20 DUP2 MSTORE PUSH1 0x0 DUP3 MLOAD DUP1 PUSH1 0x20 DUP5 ADD MSTORE PUSH2 0x1C9E DUP2 PUSH1 0x40 DUP6 ADD PUSH1 0x20 DUP8 ADD PUSH2 0x1C3F JUMP JUMPDEST PUSH1 0x1F ADD PUSH32 0xFFFFFFFFFFFFFFFFFFFFFFFFFFFFFFFFFFFFFFFFFFFFFFFFFFFFFFFFFFFFFFE0 AND SWAP2 SWAP1 SWAP2 ADD PUSH1 0x40 ADD SWAP3 SWAP2 POP POP JUMP INVALID LOG2 PUSH5 0x6970667358 0x22 SLT KECCAK256 0xD4 0xA6 DIV 0xBA 0x2F EXP 0xE8 0xEE LT SWAP13 0xAE 0xAF PUSH31 0xDBE78B377CD20857F27E00A5D78FF712B35C1E64736F6C6343000816003300 "},"gasEstimates":{"creation":{"codeDepositCost":"1486000","executionCost":"infinite","totalCost":"infinite"},"external":{"FEE_CONTRACT()":"infinite","REWARD_CONTRACT()":"infinite","addMerkleRoot(bytes32)":"infinite","claimed(bytes32)":"2483","deprecateMerkleRoot(bytes32)":"infinite","onERC20Received(address,address,uint256,bytes)":"infinite","owner()":"infinite","payoutWallet()":"infinite","recoverERC20s(address[],address[],uint256[])":"infinite","recoverERC721s(address[],address[],uint256[])":"infinite","recoverETH(address[],uint256[])":"infinite","roots(bytes32)":"2531","setPayoutWallet(address)":"infinite","supportsInterface(bytes4)":"infinite","transferOwnership(address)":"infinite"}},"methodIdentifiers":{"FEE_CONTRACT()":"1352acac","REWARD_CONTRACT()":"3a5af339","addMerkleRoot(bytes32)":"3323c807","claimed(bytes32)":"cc3c0f06","deprecateMerkleRoot(bytes32)":"3572aa8d","onERC20Received(address,address,uint256,bytes)":"4fc35859","owner()":"8da5cb5b","payoutWallet()":"8488bb4e","recoverERC20s(address[],address[],uint256[])":"73c8a958","recoverERC721s(address[],address[],uint256[])":"c3666c36","recoverETH(address[],uint256[])":"f7ba94bd","roots(bytes32)":"ae6dead7","setPayoutWallet(address)":"6b8f9c43","supportsInterface(bytes4)":"01ffc9a7","transferOwnership(address)":"f2fde38b"}},"storageLayout":{"storage":[{"astId":2811,"contract":"contracts/payment/ChaosKingdomResourcesClaim.sol:ChaosKingdomResourcesClaim","label":"roots","offset":0,"slot":"0","type":"t_mapping(t_bytes32,t_bool)"},{"astId":2815,"contract":"contracts/payment/ChaosKingdomResourcesClaim.sol:ChaosKingdomResourcesClaim","label":"claimed","offset":0,"slot":"1","type":"t_mapping(t_bytes32,t_bool)"}],"types":{"t_bool":{"encoding":"inplace","label":"bool","numberOfBytes":"1"},"t_bytes32":{"encoding":"inplace","label":"bytes32","numberOfBytes":"32"},"t_mapping(t_bytes32,t_bool)":{"encoding":"mapping","key":"t_bytes32","label":"mapping(bytes32 => bool)","numberOfBytes":"32","value":"t_bool"}}},"userdoc":{"errors":{"IllegalInterfaceId()":[{"notice":"Thrown when setting the illegal interfaceId 0xffffffff."}],"InconsistentArrayLengths()":[{"notice":"Thrown when the multiple related arrays have different lengths."}],"NotContractOwner(address)":[{"notice":"Thrown when an account is not the contract owner but is required to."}],"ZeroAddressPayoutWallet()":[{"notice":"Thrown when setting the zero address as the payout wallet."}]},"events":{"OwnershipTransferred(address,address)":{"notice":"Emitted when the contract ownership changes."},"PayoutWalletSet(address)":{"notice":"Emitted when the payout wallet address changes."}},"kind":"user","methods":{"owner()":{"notice":"Gets the address of the contract owner."},"payoutWallet()":{"notice":"Gets the payout wallet."},"recoverERC20s(address[],address[],uint256[])":{"notice":"Extract ERC20 tokens which were accidentally sent to the contract to a list of accounts."},"recoverERC721s(address[],address[],uint256[])":{"notice":"Extract ERC721 tokens which were accidentally sent to the contract to a list of accounts."},"recoverETH(address[],uint256[])":{"notice":"Extract ETH tokens which were accidentally sent to the contract to a list of accounts."},"setPayoutWallet(address)":{"notice":"Sets the payout wallet."},"supportsInterface(bytes4)":{"notice":"Returns whether this contract implements a given interface."},"transferOwnership(address)":{"notice":"Sets the address of the new contract owner."}},"version":1}}}}