{
  "_format": "hh-sol-artifact-1",
  "contractName": "ChaosKingdomResourcesClaimMock",
  "sourceName": "contracts/mocks/ChaosKingdomResourcesClaimMock.sol",
  "abi": [
    {
      "inputs": [
        {
          "internalType": "contract IERC20",
          "name": "feeContract_",
          "type": "address"
        },
        {
          "internalType": "contract IERC1155Mintable",
          "name": "rewardContract_",
          "type": "address"
        },
        {
          "internalType": "contract IForwarderRegistry",
          "name": "forwarderRegistry",
          "type": "address"
        }
      ],
      "stateMutability": "nonpayable",
      "type": "constructor"
    },
    {
      "inputs": [
        {
          "internalType": "address",
          "name": "recipient",
          "type": "address"
        },
        {
          "internalType": "uint256[]",
          "name": "ids",
          "type": "uint256[]"
        },
        {
          "internalType": "uint256[]",
          "name": "values",
          "type": "uint256[]"
        },
        {
          "internalType": "uint256",
          "name": "fee",
          "type": "uint256"
        },
        {
          "internalType": "bytes32",
          "name": "epochId",
          "type": "bytes32"
        }
      ],
      "name": "AlreadyClaimed",
      "type": "error"
    },
    {
      "inputs": [
        {
          "internalType": "address",
          "name": "sender",
          "type": "address"
        },
        {
          "internalType": "address",
          "name": "expectedContract",
          "type": "address"
        }
      ],
      "name": "FeeContractMismatch",
      "type": "error"
    },
    {
      "inputs": [],
      "name": "IllegalInterfaceId",
      "type": "error"
    },
    {
      "inputs": [
        {
          "internalType": "address",
          "name": "newContract",
          "type": "address"
        }
      ],
      "name": "InvalidFeeContractAddress",
      "type": "error"
    },
    {
      "inputs": [
        {
          "internalType": "address",
          "name": "recipient",
          "type": "address"
        },
        {
          "internalType": "uint256[]",
          "name": "ids",
          "type": "uint256[]"
        },
        {
          "internalType": "uint256[]",
          "name": "values",
          "type": "uint256[]"
        },
        {
          "internalType": "uint256",
          "name": "fee",
          "type": "uint256"
        },
        {
          "internalType": "bytes32",
          "name": "epochId",
          "type": "bytes32"
        }
      ],
      "name": "InvalidProof",
      "type": "error"
    },
    {
      "inputs": [
        {
          "internalType": "bytes32",
          "name": "merkleRoot",
          "type": "bytes32"
        }
      ],
      "name": "MerkleRootAlreadyExists",
      "type": "error"
    },
    {
      "inputs": [
        {
          "internalType": "bytes32",
          "name": "merkleRoot",
          "type": "bytes32"
        }
      ],
      "name": "MerkleRootDoesNotExist",
      "type": "error"
    },
    {
      "inputs": [
        {
          "internalType": "address",
          "name": "account",
          "type": "address"
        }
      ],
      "name": "NotContractOwner",
      "type": "error"
    },
    {
      "anonymous": false,
      "inputs": [
        {
          "indexed": false,
          "internalType": "address",
          "name": "newContract",
          "type": "address"
        }
      ],
      "name": "FeeContractSet",
      "type": "event"
    },
    {
      "anonymous": false,
      "inputs": [
        {
          "indexed": false,
          "internalType": "bytes32",
          "name": "root",
          "type": "bytes32"
        }
      ],
      "name": "MerkleRootAdded",
      "type": "event"
    },
    {
      "anonymous": false,
      "inputs": [
        {
          "indexed": false,
          "internalType": "bytes32",
          "name": "root",
          "type": "bytes32"
        }
      ],
      "name": "MerkleRootDeprecated",
      "type": "event"
    },
    {
      "anonymous": false,
      "inputs": [
        {
          "indexed": true,
          "internalType": "address",
          "name": "previousOwner",
          "type": "address"
        },
        {
          "indexed": true,
          "internalType": "address",
          "name": "newOwner",
          "type": "address"
        }
      ],
      "name": "OwnershipTransferred",
      "type": "event"
    },
    {
      "anonymous": false,
      "inputs": [
        {
          "indexed": true,
          "internalType": "bytes32",
          "name": "root",
          "type": "bytes32"
        },
        {
          "indexed": false,
          "internalType": "bytes32",
          "name": "epochId",
          "type": "bytes32"
        },
        {
          "indexed": false,
          "internalType": "uint256",
          "name": "fee",
          "type": "uint256"
        },
        {
          "indexed": true,
          "internalType": "address",
          "name": "recipient",
          "type": "address"
        },
        {
          "indexed": false,
          "internalType": "uint256[]",
          "name": "ids",
          "type": "uint256[]"
        },
        {
          "indexed": false,
          "internalType": "uint256[]",
          "name": "values",
          "type": "uint256[]"
        }
      ],
      "name": "PayoutClaimed",
      "type": "event"
    },
    {
      "inputs": [],
      "name": "REWARD_CONTRACT",
      "outputs": [
        {
          "internalType": "contract IERC1155Mintable",
          "name": "",
          "type": "address"
        }
      ],
      "stateMutability": "view",
      "type": "function"
    },
    {
      "inputs": [],
      "name": "__msgData",
      "outputs": [
        {
          "internalType": "bytes",
          "name": "",
          "type": "bytes"
        }
      ],
      "stateMutability": "view",
      "type": "function"
    },
    {
      "inputs": [
        {
          "internalType": "bytes32",
          "name": "merkleRoot",
          "type": "bytes32"
        }
      ],
      "name": "addMerkleRoot",
      "outputs": [],
      "stateMutability": "nonpayable",
      "type": "function"
    },
    {
      "inputs": [
        {
          "internalType": "bytes32",
          "name": "",
          "type": "bytes32"
        }
      ],
      "name": "claimed",
      "outputs": [
        {
          "internalType": "bool",
          "name": "",
          "type": "bool"
        }
      ],
      "stateMutability": "view",
      "type": "function"
    },
    {
      "inputs": [
        {
          "internalType": "bytes32",
          "name": "merkleRoot",
          "type": "bytes32"
        }
      ],
      "name": "deprecateMerkleRoot",
      "outputs": [],
      "stateMutability": "nonpayable",
      "type": "function"
    },
    {
      "inputs": [],
      "name": "feeContract",
      "outputs": [
        {
          "internalType": "contract IERC20",
          "name": "",
          "type": "address"
        }
      ],
      "stateMutability": "view",
      "type": "function"
    },
    {
      "inputs": [],
      "name": "forwarderRegistry",
      "outputs": [
        {
          "internalType": "contract IForwarderRegistry",
          "name": "",
          "type": "address"
        }
      ],
      "stateMutability": "view",
      "type": "function"
    },
    {
      "inputs": [
        {
          "internalType": "address",
          "name": "forwarder",
          "type": "address"
        }
      ],
      "name": "isTrustedForwarder",
      "outputs": [
        {
          "internalType": "bool",
          "name": "",
          "type": "bool"
        }
      ],
      "stateMutability": "view",
      "type": "function"
    },
    {
      "inputs": [
        {
          "internalType": "address",
          "name": "operator",
          "type": "address"
        },
        {
          "internalType": "address",
          "name": "from",
          "type": "address"
        },
        {
          "internalType": "uint256",
          "name": "value",
          "type": "uint256"
        },
        {
          "internalType": "bytes",
          "name": "data",
          "type": "bytes"
        }
      ],
      "name": "onERC20Received",
      "outputs": [
        {
          "internalType": "bytes4",
          "name": "magicValue",
          "type": "bytes4"
        }
      ],
      "stateMutability": "nonpayable",
      "type": "function"
    },
    {
      "inputs": [],
      "name": "owner",
      "outputs": [
        {
          "internalType": "address",
          "name": "",
          "type": "address"
        }
      ],
      "stateMutability": "view",
      "type": "function"
    },
    {
      "inputs": [
        {
          "internalType": "bytes32",
          "name": "",
          "type": "bytes32"
        }
      ],
      "name": "roots",
      "outputs": [
        {
          "internalType": "bool",
          "name": "",
          "type": "bool"
        }
      ],
      "stateMutability": "view",
      "type": "function"
    },
    {
      "inputs": [
        {
          "internalType": "address",
          "name": "newContract",
          "type": "address"
        }
      ],
      "name": "setFeeContract",
      "outputs": [],
      "stateMutability": "nonpayable",
      "type": "function"
    },
    {
      "inputs": [
        {
          "internalType": "bytes4",
          "name": "interfaceId",
          "type": "bytes4"
        }
      ],
      "name": "supportsInterface",
      "outputs": [
        {
          "internalType": "bool",
          "name": "",
          "type": "bool"
        }
      ],
      "stateMutability": "view",
      "type": "function"
    },
    {
      "inputs": [
        {
          "internalType": "address",
          "name": "newOwner",
          "type": "address"
        }
      ],
      "name": "transferOwnership",
      "outputs": [],
      "stateMutability": "nonpayable",
      "type": "function"
    }
  ],
  "bytecode": "0x60c06040523480156200001157600080fd5b506040516200182b3803806200182b8339810160408190526200003491620001f6565b828282808033620000508162000049620000a7565b90620000dd565b5062000071634fc3585960e01b60016200006962000150565b919062000180565b6001600160a01b03908116608052600280546001600160a01b0319169582169590951790945550501660a052506200026c915050565b600080620000d760017fc9ed16f33ab3a66c84bfd83099ccb2a8845871e2e1c1928f63797152f0fd54cd6200024a565b92915050565b6001600160a01b03811615620001345781546001600160a01b0319166001600160a01b03821690811783556040516000907f8be0079c531659141344cd1fd0a4f28419497f9722a3daafe3b4186f6b6457e0908290a35b6200014c6307f5828d60e41b60016200006962000150565b5050565b600080620000d760017fca9d3e17f264b0f3984e2634e94adb37fa3e6a8103f06aeae6fa59e21c769f5e6200024a565b600160e01b6001600160e01b0319831601620001af576040516372c683bb60e01b815260040160405180910390fd5b6001600160e01b03199190911660009081526020929092526040909120805460ff1916911515919091179055565b6001600160a01b0381168114620001f357600080fd5b50565b6000806000606084860312156200020c57600080fd5b83516200021981620001dd565b60208501519093506200022c81620001dd565b60408501519092506200023f81620001dd565b809150509250925092565b81810381811115620000d757634e487b7160e01b600052601160045260246000fd5b60805160a05161156f620002bc600039600081816101c5015261083201526000818161015e0152818161024e01528181610c3601528181610c7401528181610dac0152610e34015261156f6000f3fe608060405234801561001057600080fd5b50600436106100ea5760003560e01c806342dbe1681161008c5780638da5cb5b116100665780638da5cb5b1461028b578063ae6dead714610293578063cc3c0f06146102b6578063f2fde38b146102d957600080fd5b806342dbe168146101e75780634fc35859146101fa578063572b6c051461023e57600080fd5b806331e66e1e116100c857806331e66e1e146101825780633323c807146101985780633572aa8d146101ad5780633a5af339146101c057600080fd5b806301ffc9a7146100ef57806306e29712146101175780632b4c9f161461015c575b600080fd5b6101026100fd366004610f56565b6102ec565b60405190151581526020015b60405180910390f35b6002546101379073ffffffffffffffffffffffffffffffffffffffff1681565b60405173ffffffffffffffffffffffffffffffffffffffff909116815260200161010e565b7f0000000000000000000000000000000000000000000000000000000000000000610137565b61018a610306565b60405161010e929190610f98565b6101ab6101a6366004610fe5565b610319565b005b6101ab6101bb366004610fe5565b6103f7565b6101377f000000000000000000000000000000000000000000000000000000000000000081565b6101ab6101f5366004611027565b6104b0565b61020d610208366004611042565b610593565b6040517fffffffff00000000000000000000000000000000000000000000000000000000909116815260200161010e565b61010261024c366004611027565b7f000000000000000000000000000000000000000000000000000000000000000073ffffffffffffffffffffffffffffffffffffffff90811691161490565b6101376108d0565b6101026102a1366004610fe5565b60006020819052908152604090205460ff1681565b6101026102c4366004610fe5565b60016020526000908152604090205460ff1681565b6101ab6102e7366004611027565b6108fc565b6000610300826102fa61091a565b90610948565b92915050565b366000610311610a22565b915091509091565b610332610324610a2d565b61032c610a37565b90610a65565b60008181526020819052604090205460ff1615610383576040517f5d35de37000000000000000000000000000000000000000000000000000000008152600481018290526024015b60405180910390fd5b6000818152602081905260409081902080547fffffffffffffffffffffffffffffffffffffffffffffffffffffffffffffff00166001179055517fbdd203dd78bf49cf79e4db0ecdf7d27adc380fb1f33beef2667a50db9d2a0e04906103ec9083815260200190565b60405180910390a150565b610402610324610a2d565b60008181526020819052604090205460ff1661044d576040517fc9c3405a0000000000000000000000000000000000000000000000000000000081526004810182905260240161037a565b6000818152602081815260409182902080547fffffffffffffffffffffffffffffffffffffffffffffffffffffffffffffff0016905590518281527f578eab65d47cffa57066b105301289ff86bfdc0adc2a701c3356d2a6eb6a612391016103ec565b6104bb610324610a2d565b73ffffffffffffffffffffffffffffffffffffffff8116610520576040517f2d9d9af200000000000000000000000000000000000000000000000000000000815273ffffffffffffffffffffffffffffffffffffffff8216600482015260240161037a565b600280547fffffffffffffffffffffffff00000000000000000000000000000000000000001673ffffffffffffffffffffffffffffffffffffffff83169081179091556040519081527ffbadb20c894e457e9f0deb54afeb0b69be2843d7d04f5e5b2b4cccb6dd173067906020016103ec565b60025460009073ffffffffffffffffffffffffffffffffffffffff163314610609576002546040517f6c50e90500000000000000000000000000000000000000000000000000000000815233600482015273ffffffffffffffffffffffffffffffffffffffff909116602482015260440161037a565b8360008080808061061c888a018a6111ee565b6000858152602081905260409020549499509297509095509350915060ff16610674576040517fc9c3405a0000000000000000000000000000000000000000000000000000000081526004810186905260240161037a565b60008b8383898860405160200161068f959493929190611314565b604080517fffffffffffffffffffffffffffffffffffffffffffffffffffffffffffffffe081840301815291815281516020928301206000818152600190935291205490915060ff1615610719578b838389886040517ff048f37a00000000000000000000000000000000000000000000000000000000815260040161037a959493929190611395565b610724848783610ad4565b610764578b838389886040517fdbf2ac7c00000000000000000000000000000000000000000000000000000000815260040161037a959493929190611395565b60008181526001602081905260409182902080547fffffffffffffffffffffffffffffffffffffffffffffffffffffffffffffff001690911790555173ffffffffffffffffffffffffffffffffffffffff8d169087907fbf561a0ae8123352abf33f8f113e6b265c2e7fe7ba9b4d450750454bcbb7233a906107ed9089908c90899089906113eb565b60405180910390a36040517f0d6a5bbb00000000000000000000000000000000000000000000000000000000815273ffffffffffffffffffffffffffffffffffffffff7f00000000000000000000000000000000000000000000000000000000000000001690630d6a5bbb9061086b908f9087908790600401611427565b600060405180830381600087803b15801561088557600080fd5b505af1158015610899573d6000803e3d6000fd5b507f4fc35859000000000000000000000000000000000000000000000000000000009a505050505050505050505095945050505050565b60006108f76108dd610a37565b5473ffffffffffffffffffffffffffffffffffffffff1690565b905090565b610917610907610a2d565b82610910610a37565b9190610aea565b50565b60008061030060017fca9d3e17f264b0f3984e2634e94adb37fa3e6a8103f06aeae6fa59e21c769f5e611484565b60007c01000000000000000000000000000000000000000000000000000000007fffffffff0000000000000000000000000000000000000000000000000000000083160161099857506000610300565b7ffe003659000000000000000000000000000000000000000000000000000000007fffffffff000000000000000000000000000000000000000000000000000000008316016109e957506001610300565b507fffffffff00000000000000000000000000000000000000000000000000000000166000908152602091909152604090205460ff1690565b366000610311610bff565b60006108f7610d69565b60008061030060017fc9ed16f33ab3a66c84bfd83099ccb2a8845871e2e1c1928f63797152f0fd54cd611484565b815473ffffffffffffffffffffffffffffffffffffffff828116911614610ad0576040517f2ef4875e00000000000000000000000000000000000000000000000000000000815273ffffffffffffffffffffffffffffffffffffffff8216600482015260240161037a565b5050565b600082610ae18584610eb0565b14949350505050565b825473ffffffffffffffffffffffffffffffffffffffff9081169083168114610b57576040517f2ef4875e00000000000000000000000000000000000000000000000000000000815273ffffffffffffffffffffffffffffffffffffffff8416600482015260240161037a565b8173ffffffffffffffffffffffffffffffffffffffff168173ffffffffffffffffffffffffffffffffffffffff1614610bf95783547fffffffffffffffffffffffff00000000000000000000000000000000000000001673ffffffffffffffffffffffffffffffffffffffff8381169182178655604051908316907f8be0079c531659141344cd1fd0a4f28419497f9722a3daafe3b4186f6b6457e090600090a35b50505050565b36600033321480610c105750601836105b15610c1e5750600091369150565b3373ffffffffffffffffffffffffffffffffffffffff7f0000000000000000000000000000000000000000000000000000000000000000161480610d53575073ffffffffffffffffffffffffffffffffffffffff7f000000000000000000000000000000000000000000000000000000000000000016638929a8ca367fffffffffffffffffffffffffffffffffffffffffffffffffffffffffffffffec013560601c6040517fffffffff0000000000000000000000000000000000000000000000000000000060e084901b16815273ffffffffffffffffffffffffffffffffffffffff9091166004820152336024820152604401602060405180830381865afa158015610d2f573d6000803e3d6000fd5b505050506040513d601f19601f82011682018060405250810190610d5391906114be565b15610d6057610311610ef3565b50600091369150565b600033321480610d795750601836105b15610d8357503390565b7fffffffffffffffffffffffffffffffffffffffffffffffffffffffffffffffec36013560601c7f000000000000000000000000000000000000000000000000000000000000000073ffffffffffffffffffffffffffffffffffffffff16331480610e9f57506040517f8929a8ca00000000000000000000000000000000000000000000000000000000815273ffffffffffffffffffffffffffffffffffffffff82811660048301523360248301527f00000000000000000000000000000000000000000000000000000000000000001690638929a8ca90604401602060405180830381865afa158015610e7b573d6000803e3d6000fd5b505050506040513d601f19601f82011682018060405250810190610e9f91906114be565b15610ea957919050565b3391505090565b600081815b8451811015610eeb57610ee182868381518110610ed457610ed46114e0565b6020026020010151610f24565b9150600101610eb5565b509392505050565b3660006103117fffffffffffffffffffffffffffffffffffffffffffffffffffffffffffffffec830182848161150f565b6000818310610f40576000828152602084905260409020610f4f565b60008381526020839052604090205b9392505050565b600060208284031215610f6857600080fd5b81357fffffffff0000000000000000000000000000000000000000000000000000000081168114610f4f57600080fd5b60208152816020820152818360408301376000818301604090810191909152601f9092017fffffffffffffffffffffffffffffffffffffffffffffffffffffffffffffffe0160101919050565b600060208284031215610ff757600080fd5b5035919050565b803573ffffffffffffffffffffffffffffffffffffffff8116811461102257600080fd5b919050565b60006020828403121561103957600080fd5b610f4f82610ffe565b60008060008060006080868803121561105a57600080fd5b61106386610ffe565b945061107160208701610ffe565b935060408601359250606086013567ffffffffffffffff8082111561109557600080fd5b818801915088601f8301126110a957600080fd5b8135818111156110b857600080fd5b8960208285010111156110ca57600080fd5b9699959850939650602001949392505050565b7f4e487b7100000000000000000000000000000000000000000000000000000000600052604160045260246000fd5b604051601f82017fffffffffffffffffffffffffffffffffffffffffffffffffffffffffffffffe016810167ffffffffffffffff81118282101715611153576111536110dd565b604052919050565b600067ffffffffffffffff821115611175576111756110dd565b5060051b60200190565b600082601f83011261119057600080fd5b813560206111a56111a08361115b565b61110c565b8083825260208201915060208460051b8701019350868411156111c757600080fd5b602086015b848110156111e357803583529183019183016111cc565b509695505050505050565b600080600080600060a0868803121561120657600080fd5b853594506020808701359450604087013567ffffffffffffffff8082111561122d57600080fd5b818901915089601f83011261124157600080fd5b813561124f6111a08261115b565b81815260059190911b8301840190848101908c83111561126e57600080fd5b938501935b8285101561128c57843582529385019390850190611273565b9750505060608901359250808311156112a457600080fd5b6112b08a848b0161117f565b945060808901359250808311156112c657600080fd5b50506112d48882890161117f565b9150509295509295909350565b60008151602080840160005b83811015611309578151875295820195908201906001016112ed565b509495945050505050565b7fffffffffffffffffffffffffffffffffffffffff0000000000000000000000008660601b168152600061135461134e60148401886112e1565b866112e1565b938452505060208201526040019392505050565b805180835260209283019260009190808401838315611309578151875295820195908201906001016112ed565b73ffffffffffffffffffffffffffffffffffffffff8616815260a0602082015260006113c460a0830187611368565b82810360408401526113d68187611368565b60608401959095525050608001529392505050565b84815283602082015260806040820152600061140a6080830185611368565b828103606084015261141c8185611368565b979650505050505050565b73ffffffffffffffffffffffffffffffffffffffff841681526080602082015260006114566080830185611368565b82810360408401526114688185611368565b8381036060909401939093525050600081526020019392505050565b81810381811115610300577f4e487b7100000000000000000000000000000000000000000000000000000000600052601160045260246000fd5b6000602082840312156114d057600080fd5b81518015158114610f4f57600080fd5b7f4e487b7100000000000000000000000000000000000000000000000000000000600052603260045260246000fd5b6000808585111561151f57600080fd5b8386111561152c57600080fd5b505082019391909203915056fea2646970667358221220569d4e50bc0f08490d2524678b8155691841b739fb763e4f898bcab7e51c263364736f6c63430008160033",
  "linkReferences": {},
  "deployedLinkReferences": {}
}