{
  "_format": "hh-sol-artifact-1",
  "contractName": "ChaosKingdomResourcesClaimMock",
  "sourceName": "contracts/mocks/ChaosKingdomResourcesClaimMock.sol",
  "abi": [
    {
      "inputs": [
        {
          "internalType": "contract IERC20",
          "name": "feeContract_",
          "type": "address"
        },
        {
          "internalType": "contract IERC1155Mintable",
          "name": "rewardContract_",
          "type": "address"
        },
        {
          "internalType": "contract IForwarderRegistry",
          "name": "forwarderRegistry",
          "type": "address"
        }
      ],
      "stateMutability": "nonpayable",
      "type": "constructor"
    },
    {
      "inputs": [
        {
          "internalType": "address",
          "name": "recipient",
          "type": "address"
        },
        {
          "internalType": "uint256[]",
          "name": "ids",
          "type": "uint256[]"
        },
        {
          "internalType": "uint256[]",
          "name": "values",
          "type": "uint256[]"
        },
        {
          "internalType": "uint256",
          "name": "fee",
          "type": "uint256"
        },
        {
          "internalType": "bytes32",
          "name": "epochId",
          "type": "bytes32"
        }
      ],
      "name": "AlreadyClaimed",
      "type": "error"
    },
    {
      "inputs": [
        {
          "internalType": "address",
          "name": "sender",
          "type": "address"
        },
        {
          "internalType": "address",
          "name": "expectedContract",
          "type": "address"
        }
      ],
      "name": "FeeContractMismatch",
      "type": "error"
    },
    {
      "inputs": [],
      "name": "IllegalInterfaceId",
      "type": "error"
    },
    {
      "inputs": [
        {
          "internalType": "address",
          "name": "recipient",
          "type": "address"
        },
        {
          "internalType": "uint256[]",
          "name": "ids",
          "type": "uint256[]"
        },
        {
          "internalType": "uint256[]",
          "name": "values",
          "type": "uint256[]"
        },
        {
          "internalType": "uint256",
          "name": "fee",
          "type": "uint256"
        },
        {
          "internalType": "bytes32",
          "name": "epochId",
          "type": "bytes32"
        }
      ],
      "name": "InvalidProof",
      "type": "error"
    },
    {
      "inputs": [
        {
          "internalType": "bytes32",
          "name": "merkleRoot",
          "type": "bytes32"
        }
      ],
      "name": "MerkleRootAlreadyExists",
      "type": "error"
    },
    {
      "inputs": [
        {
          "internalType": "bytes32",
          "name": "merkleRoot",
          "type": "bytes32"
        }
      ],
      "name": "MerkleRootDoesNotExist",
      "type": "error"
    },
    {
      "inputs": [
        {
          "internalType": "address",
          "name": "account",
          "type": "address"
        }
      ],
      "name": "NotContractOwner",
      "type": "error"
    },
    {
      "anonymous": false,
      "inputs": [
        {
          "indexed": false,
          "internalType": "bytes32",
          "name": "root",
          "type": "bytes32"
        }
      ],
      "name": "MerkleRootAdded",
      "type": "event"
    },
    {
      "anonymous": false,
      "inputs": [
        {
          "indexed": false,
          "internalType": "bytes32",
          "name": "root",
          "type": "bytes32"
        }
      ],
      "name": "MerkleRootDeprecated",
      "type": "event"
    },
    {
      "anonymous": false,
      "inputs": [
        {
          "indexed": true,
          "internalType": "address",
          "name": "previousOwner",
          "type": "address"
        },
        {
          "indexed": true,
          "internalType": "address",
          "name": "newOwner",
          "type": "address"
        }
      ],
      "name": "OwnershipTransferred",
      "type": "event"
    },
    {
      "anonymous": false,
      "inputs": [
        {
          "indexed": true,
          "internalType": "bytes32",
          "name": "root",
          "type": "bytes32"
        },
        {
          "indexed": false,
          "internalType": "bytes32",
          "name": "epochId",
          "type": "bytes32"
        },
        {
          "indexed": false,
          "internalType": "uint256",
          "name": "fee",
          "type": "uint256"
        },
        {
          "indexed": true,
          "internalType": "address",
          "name": "recipient",
          "type": "address"
        },
        {
          "indexed": false,
          "internalType": "uint256[]",
          "name": "ids",
          "type": "uint256[]"
        },
        {
          "indexed": false,
          "internalType": "uint256[]",
          "name": "values",
          "type": "uint256[]"
        }
      ],
      "name": "PayoutClaimed",
      "type": "event"
    },
    {
      "inputs": [],
      "name": "FEE_CONTRACT",
      "outputs": [
        {
          "internalType": "contract IERC20",
          "name": "",
          "type": "address"
        }
      ],
      "stateMutability": "view",
      "type": "function"
    },
    {
      "inputs": [],
      "name": "REWARD_CONTRACT",
      "outputs": [
        {
          "internalType": "contract IERC1155Mintable",
          "name": "",
          "type": "address"
        }
      ],
      "stateMutability": "view",
      "type": "function"
    },
    {
      "inputs": [],
      "name": "__msgData",
      "outputs": [
        {
          "internalType": "bytes",
          "name": "",
          "type": "bytes"
        }
      ],
      "stateMutability": "view",
      "type": "function"
    },
    {
      "inputs": [
        {
          "internalType": "bytes32",
          "name": "merkleRoot",
          "type": "bytes32"
        }
      ],
      "name": "addMerkleRoot",
      "outputs": [],
      "stateMutability": "nonpayable",
      "type": "function"
    },
    {
      "inputs": [
        {
          "internalType": "address",
          "name": "recipient",
          "type": "address"
        },
        {
          "internalType": "bytes",
          "name": "claimData",
          "type": "bytes"
        },
        {
          "internalType": "uint256",
          "name": "fee",
          "type": "uint256"
        }
      ],
      "name": "claim",
      "outputs": [],
      "stateMutability": "nonpayable",
      "type": "function"
    },
    {
      "inputs": [
        {
          "internalType": "bytes32",
          "name": "",
          "type": "bytes32"
        }
      ],
      "name": "claimed",
      "outputs": [
        {
          "internalType": "bool",
          "name": "",
          "type": "bool"
        }
      ],
      "stateMutability": "view",
      "type": "function"
    },
    {
      "inputs": [
        {
          "internalType": "bytes32",
          "name": "merkleRoot",
          "type": "bytes32"
        }
      ],
      "name": "deprecateMerkleRoot",
      "outputs": [],
      "stateMutability": "nonpayable",
      "type": "function"
    },
    {
      "inputs": [],
      "name": "forwarderRegistry",
      "outputs": [
        {
          "internalType": "contract IForwarderRegistry",
          "name": "",
          "type": "address"
        }
      ],
      "stateMutability": "view",
      "type": "function"
    },
    {
      "inputs": [
        {
          "internalType": "address",
          "name": "forwarder",
          "type": "address"
        }
      ],
      "name": "isTrustedForwarder",
      "outputs": [
        {
          "internalType": "bool",
          "name": "",
          "type": "bool"
        }
      ],
      "stateMutability": "view",
      "type": "function"
    },
    {
      "inputs": [
        {
          "internalType": "address",
          "name": "operator",
          "type": "address"
        },
        {
          "internalType": "address",
          "name": "from",
          "type": "address"
        },
        {
          "internalType": "uint256",
          "name": "value",
          "type": "uint256"
        },
        {
          "internalType": "bytes",
          "name": "data",
          "type": "bytes"
        }
      ],
      "name": "onERC20Received",
      "outputs": [
        {
          "internalType": "bytes4",
          "name": "magicValue",
          "type": "bytes4"
        }
      ],
      "stateMutability": "nonpayable",
      "type": "function"
    },
    {
      "inputs": [],
      "name": "owner",
      "outputs": [
        {
          "internalType": "address",
          "name": "",
          "type": "address"
        }
      ],
      "stateMutability": "view",
      "type": "function"
    },
    {
      "inputs": [
        {
          "internalType": "bytes32",
          "name": "",
          "type": "bytes32"
        }
      ],
      "name": "roots",
      "outputs": [
        {
          "internalType": "bool",
          "name": "",
          "type": "bool"
        }
      ],
      "stateMutability": "view",
      "type": "function"
    },
    {
      "inputs": [
        {
          "internalType": "bytes4",
          "name": "interfaceId",
          "type": "bytes4"
        }
      ],
      "name": "supportsInterface",
      "outputs": [
        {
          "internalType": "bool",
          "name": "",
          "type": "bool"
        }
      ],
      "stateMutability": "view",
      "type": "function"
    },
    {
      "inputs": [
        {
          "internalType": "address",
          "name": "newOwner",
          "type": "address"
        }
      ],
      "name": "transferOwnership",
      "outputs": [],
      "stateMutability": "nonpayable",
      "type": "function"
    }
  ],
  "bytecode": "0x60e06040523480156200001157600080fd5b50604051620019be380380620019be8339810160408190526200003491620001e4565b82828280803362000050816200004962000095565b90620000cb565b5062000071634fc3585960e01b6001620000696200013e565b91906200016e565b6001600160a01b0390811660805293841660c05250501660a052506200025a915050565b600080620000c560017fc9ed16f33ab3a66c84bfd83099ccb2a8845871e2e1c1928f63797152f0fd54cd62000238565b92915050565b6001600160a01b03811615620001225781546001600160a01b0319166001600160a01b03821690811783556040516000907f8be0079c531659141344cd1fd0a4f28419497f9722a3daafe3b4186f6b6457e0908290a35b6200013a6307f5828d60e41b6001620000696200013e565b5050565b600080620000c560017fca9d3e17f264b0f3984e2634e94adb37fa3e6a8103f06aeae6fa59e21c769f5e62000238565b600160e01b6001600160e01b03198316016200019d576040516372c683bb60e01b815260040160405180910390fd5b6001600160e01b03199190911660009081526020929092526040909120805460ff1916911515919091179055565b6001600160a01b0381168114620001e157600080fd5b50565b600080600060608486031215620001fa57600080fd5b83516200020781620001cb565b60208501519093506200021a81620001cb565b60408501519092506200022d81620001cb565b809150509250925092565b81810381811115620000c557634e487b7160e01b600052601160045260246000fd5b60805160a05160c0516116ee620002d06000396000818161011c015281816104bb0152818161053901526106b80152600081816101cc015281816105b801526107650152600081816101650152818161024201528181610d2701528181610d6501528181610e9d0152610f2501526116ee6000f3fe608060405234801561001057600080fd5b50600436106100ea5760003560e01c80634fc358591161008c5780638da5cb5b116100665780638da5cb5b14610292578063ae6dead71461029a578063cc3c0f06146102bd578063f2fde38b146102e057600080fd5b80634fc35859146101ee578063572b6c05146102325780638bd8d0a91461027f57600080fd5b806331e66e1e116100c857806331e66e1e146101895780633323c8071461019f5780633572aa8d146101b45780633a5af339146101c757600080fd5b806301ffc9a7146100ef5780631352acac146101175780632b4c9f1614610163575b600080fd5b6101026100fd36600461105d565b6102f3565b60405190151581526020015b60405180910390f35b61013e7f000000000000000000000000000000000000000000000000000000000000000081565b60405173ffffffffffffffffffffffffffffffffffffffff909116815260200161010e565b7f000000000000000000000000000000000000000000000000000000000000000061013e565b61019161030d565b60405161010e92919061109f565b6101b26101ad3660046110ec565b610320565b005b6101b26101c23660046110ec565b6103fe565b61013e7f000000000000000000000000000000000000000000000000000000000000000081565b6102016101fc366004611177565b6104b7565b6040517fffffffff00000000000000000000000000000000000000000000000000000000909116815260200161010e565b6101026102403660046111e6565b7f000000000000000000000000000000000000000000000000000000000000000073ffffffffffffffffffffffffffffffffffffffff90811691161490565b6101b261028d366004611201565b610651565b61013e6107d8565b6101026102a83660046110ec565b60006020819052908152604090205460ff1681565b6101026102cb3660046110ec565b60016020526000908152604090205460ff1681565b6101b26102ee3660046111e6565b610804565b600061030782610301610822565b90610850565b92915050565b36600061031861092a565b915091509091565b61033961032b610935565b61033361093f565b9061096d565b60008181526020819052604090205460ff161561038a576040517f5d35de37000000000000000000000000000000000000000000000000000000008152600481018290526024015b60405180910390fd5b6000818152602081905260409081902080547fffffffffffffffffffffffffffffffffffffffffffffffffffffffffffffff00166001179055517fbdd203dd78bf49cf79e4db0ecdf7d27adc380fb1f33beef2667a50db9d2a0e04906103f39083815260200190565b60405180910390a150565b61040961032b610935565b60008181526020819052604090205460ff16610454576040517fc9c3405a00000000000000000000000000000000000000000000000000000000815260048101829052602401610381565b6000818152602081815260409182902080547fffffffffffffffffffffffffffffffffffffffffffffffffffffffffffffff0016905590518281527f578eab65d47cffa57066b105301289ff86bfdc0adc2a701c3356d2a6eb6a612391016103f3565b60007f000000000000000000000000000000000000000000000000000000000000000073ffffffffffffffffffffffffffffffffffffffff163314610566576040517f6c50e90500000000000000000000000000000000000000000000000000000000815233600482015273ffffffffffffffffffffffffffffffffffffffff7f0000000000000000000000000000000000000000000000000000000000000000166024820152604401610381565b83600080610576888787866109dc565b6040517f0d6a5bbb000000000000000000000000000000000000000000000000000000008152919350915073ffffffffffffffffffffffffffffffffffffffff7f00000000000000000000000000000000000000000000000000000000000000001690630d6a5bbb906105f1908b9086908690600401611297565b600060405180830381600087803b15801561060b57600080fd5b505af115801561061f573d6000803e3d6000fd5b507f4fc35859000000000000000000000000000000000000000000000000000000009c9b505050505050505050505050565b600080610660868686866109dc565b6040517f23b872dd00000000000000000000000000000000000000000000000000000000815273ffffffffffffffffffffffffffffffffffffffff8981166004830152306024830152604482018790529294509092507f0000000000000000000000000000000000000000000000000000000000000000909116906323b872dd906064016020604051808303816000875af1158015610703573d6000803e3d6000fd5b505050506040513d601f19601f8201168201806040525081019061072791906112f4565b506040517f0d6a5bbb00000000000000000000000000000000000000000000000000000000815273ffffffffffffffffffffffffffffffffffffffff7f00000000000000000000000000000000000000000000000000000000000000001690630d6a5bbb9061079e90899086908690600401611297565b600060405180830381600087803b1580156107b857600080fd5b505af11580156107cc573d6000803e3d6000fd5b50505050505050505050565b60006107ff6107e561093f565b5473ffffffffffffffffffffffffffffffffffffffff1690565b905090565b61081f61080f610935565b8261081861093f565b9190610bdb565b50565b60008061030760017fca9d3e17f264b0f3984e2634e94adb37fa3e6a8103f06aeae6fa59e21c769f5e611316565b60007c01000000000000000000000000000000000000000000000000000000007fffffffff000000000000000000000000000000000000000000000000000000008316016108a057506000610307565b7ffe003659000000000000000000000000000000000000000000000000000000007fffffffff000000000000000000000000000000000000000000000000000000008316016108f157506001610307565b507fffffffff00000000000000000000000000000000000000000000000000000000166000908152602091909152604090205460ff1690565b366000610318610cf0565b60006107ff610e5a565b60008061030760017fc9ed16f33ab3a66c84bfd83099ccb2a8845871e2e1c1928f63797152f0fd54cd611316565b815473ffffffffffffffffffffffffffffffffffffffff8281169116146109d8576040517f2ef4875e00000000000000000000000000000000000000000000000000000000815273ffffffffffffffffffffffffffffffffffffffff82166004820152602401610381565b5050565b6060806000808080806109f1898b018b611461565b6000858152602081905260409020549499509297509095509350915060ff16610a49576040517fc9c3405a00000000000000000000000000000000000000000000000000000000815260048101869052602401610381565b60008b83838b88604051602001610a64959493929190611579565b604080517fffffffffffffffffffffffffffffffffffffffffffffffffffffffffffffffe081840301815291815281516020928301206000818152600190935291205490915060ff1615610aee578b83838b886040517ff048f37a0000000000000000000000000000000000000000000000000000000081526004016103819594939291906115cd565b610af9848783610fa1565b610b39578b83838b886040517fdbf2ac7c0000000000000000000000000000000000000000000000000000000081526004016103819594939291906115cd565b60008181526001602081905260409182902080547fffffffffffffffffffffffffffffffffffffffffffffffffffffffffffffff001690911790555173ffffffffffffffffffffffffffffffffffffffff8d169087907fbf561a0ae8123352abf33f8f113e6b265c2e7fe7ba9b4d450750454bcbb7233a90610bc29089908e9089908990611623565b60405180910390a350909a909950975050505050505050565b825473ffffffffffffffffffffffffffffffffffffffff9081169083168114610c48576040517f2ef4875e00000000000000000000000000000000000000000000000000000000815273ffffffffffffffffffffffffffffffffffffffff84166004820152602401610381565b8173ffffffffffffffffffffffffffffffffffffffff168173ffffffffffffffffffffffffffffffffffffffff1614610cea5783547fffffffffffffffffffffffff00000000000000000000000000000000000000001673ffffffffffffffffffffffffffffffffffffffff8381169182178655604051908316907f8be0079c531659141344cd1fd0a4f28419497f9722a3daafe3b4186f6b6457e090600090a35b50505050565b36600033321480610d015750601836105b15610d0f5750600091369150565b3373ffffffffffffffffffffffffffffffffffffffff7f0000000000000000000000000000000000000000000000000000000000000000161480610e44575073ffffffffffffffffffffffffffffffffffffffff7f000000000000000000000000000000000000000000000000000000000000000016638929a8ca367fffffffffffffffffffffffffffffffffffffffffffffffffffffffffffffffec013560601c6040517fffffffff0000000000000000000000000000000000000000000000000000000060e084901b16815273ffffffffffffffffffffffffffffffffffffffff9091166004820152336024820152604401602060405180830381865afa158015610e20573d6000803e3d6000fd5b505050506040513d601f19601f82011682018060405250810190610e4491906112f4565b15610e5157610318610fb7565b50600091369150565b600033321480610e6a5750601836105b15610e7457503390565b7fffffffffffffffffffffffffffffffffffffffffffffffffffffffffffffffec36013560601c7f000000000000000000000000000000000000000000000000000000000000000073ffffffffffffffffffffffffffffffffffffffff16331480610f9057506040517f8929a8ca00000000000000000000000000000000000000000000000000000000815273ffffffffffffffffffffffffffffffffffffffff82811660048301523360248301527f00000000000000000000000000000000000000000000000000000000000000001690638929a8ca90604401602060405180830381865afa158015610f6c573d6000803e3d6000fd5b505050506040513d601f19601f82011682018060405250810190610f9091906112f4565b15610f9a57919050565b3391505090565b600082610fae8584610fe8565b14949350505050565b3660006103187fffffffffffffffffffffffffffffffffffffffffffffffffffffffffffffffec830182848161165f565b600081815b8451811015611023576110198286838151811061100c5761100c611689565b602002602001015161102b565b9150600101610fed565b509392505050565b6000818310611047576000828152602084905260409020611056565b60008381526020839052604090205b9392505050565b60006020828403121561106f57600080fd5b81357fffffffff000000000000000000000000000000000000000000000000000000008116811461105657600080fd5b60208152816020820152818360408301376000818301604090810191909152601f9092017fffffffffffffffffffffffffffffffffffffffffffffffffffffffffffffffe0160101919050565b6000602082840312156110fe57600080fd5b5035919050565b803573ffffffffffffffffffffffffffffffffffffffff8116811461112957600080fd5b919050565b60008083601f84011261114057600080fd5b50813567ffffffffffffffff81111561115857600080fd5b60208301915083602082850101111561117057600080fd5b9250929050565b60008060008060006080868803121561118f57600080fd5b61119886611105565b94506111a660208701611105565b935060408601359250606086013567ffffffffffffffff8111156111c957600080fd5b6111d58882890161112e565b969995985093965092949392505050565b6000602082840312156111f857600080fd5b61105682611105565b6000806000806060858703121561121757600080fd5b61122085611105565b9350602085013567ffffffffffffffff81111561123c57600080fd5b6112488782880161112e565b9598909750949560400135949350505050565b60008151808452602080850194506020840160005b8381101561128c57815187529582019590820190600101611270565b509495945050505050565b73ffffffffffffffffffffffffffffffffffffffff841681526080602082015260006112c6608083018561125b565b82810360408401526112d8818561125b565b8381036060909401939093525050600081526020019392505050565b60006020828403121561130657600080fd5b8151801515811461105657600080fd5b81810381811115610307577f4e487b7100000000000000000000000000000000000000000000000000000000600052601160045260246000fd5b7f4e487b7100000000000000000000000000000000000000000000000000000000600052604160045260246000fd5b604051601f82017fffffffffffffffffffffffffffffffffffffffffffffffffffffffffffffffe016810167ffffffffffffffff811182821017156113c6576113c6611350565b604052919050565b600067ffffffffffffffff8211156113e8576113e8611350565b5060051b60200190565b600082601f83011261140357600080fd5b81356020611418611413836113ce565b61137f565b8083825260208201915060208460051b87010193508684111561143a57600080fd5b602086015b84811015611456578035835291830191830161143f565b509695505050505050565b600080600080600060a0868803121561147957600080fd5b853594506020808701359450604087013567ffffffffffffffff808211156114a057600080fd5b818901915089601f8301126114b457600080fd5b81356114c2611413826113ce565b81815260059190911b8301840190848101908c8311156114e157600080fd5b938501935b828510156114ff578435825293850193908501906114e6565b97505050606089013592508083111561151757600080fd5b6115238a848b016113f2565b9450608089013592508083111561153957600080fd5b5050611547888289016113f2565b9150509295509295909350565b8051600090602080840183831561128c57815187529582019590820190600101611270565b7fffffffffffffffffffffffffffffffffffffffff0000000000000000000000008660601b16815260006115b96115b36014840188611554565b86611554565b938452505060208201526040019392505050565b73ffffffffffffffffffffffffffffffffffffffff8616815260a0602082015260006115fc60a083018761125b565b828103604084015261160e818761125b565b60608401959095525050608001529392505050565b848152836020820152608060408201526000611642608083018561125b565b8281036060840152611654818561125b565b979650505050505050565b6000808585111561166f57600080fd5b8386111561167c57600080fd5b5050820193919092039150565b7f4e487b7100000000000000000000000000000000000000000000000000000000600052603260045260246000fdfea2646970667358221220f04e11bca287fcdc6bd9d3ce0cfa37b12985866442e27f5b460b7f42b2a6093064736f6c63430008160033",
  "linkReferences": {},
  "deployedLinkReferences": {}
}