{
  "_format": "hh-sol-artifact-1",
  "contractName": "ChaosKingdomResourcesClaimMock",
  "sourceName": "contracts/mocks/ChaosKingdomResourcesClaimMock.sol",
  "abi": [
    {
      "inputs": [
        {
          "internalType": "contract IERC20SafeTransfers",
          "name": "feeContract_",
          "type": "address"
        },
        {
          "internalType": "contract IERC1155Mintable",
          "name": "rewardContract_",
          "type": "address"
        },
        {
          "internalType": "contract IForwarderRegistry",
          "name": "forwarderRegistry",
          "type": "address"
        }
      ],
      "stateMutability": "nonpayable",
      "type": "constructor"
    },
    {
      "inputs": [
        {
          "internalType": "address",
          "name": "recipient",
          "type": "address"
        },
        {
          "internalType": "uint256[]",
          "name": "ids",
          "type": "uint256[]"
        },
        {
          "internalType": "uint256[]",
          "name": "values",
          "type": "uint256[]"
        },
        {
          "internalType": "uint256",
          "name": "fee",
          "type": "uint256"
        },
        {
          "internalType": "bytes32",
          "name": "epochId",
          "type": "bytes32"
        }
      ],
      "name": "AlreadyClaimed",
      "type": "error"
    },
    {
      "inputs": [
        {
          "internalType": "address",
          "name": "receivedContract",
          "type": "address"
        },
        {
          "internalType": "address",
          "name": "expectedContract",
          "type": "address"
        }
      ],
      "name": "FeeContractMismatch",
      "type": "error"
    },
    {
      "inputs": [],
      "name": "IllegalInterfaceId",
      "type": "error"
    },
    {
      "inputs": [
        {
          "internalType": "bytes32",
          "name": "merkleRoot",
          "type": "bytes32"
        }
      ],
      "name": "InvalidMerkleRoot",
      "type": "error"
    },
    {
      "inputs": [
        {
          "internalType": "address",
          "name": "recipient",
          "type": "address"
        },
        {
          "internalType": "uint256[]",
          "name": "ids",
          "type": "uint256[]"
        },
        {
          "internalType": "uint256[]",
          "name": "values",
          "type": "uint256[]"
        },
        {
          "internalType": "uint256",
          "name": "fee",
          "type": "uint256"
        },
        {
          "internalType": "bytes32",
          "name": "epochId",
          "type": "bytes32"
        }
      ],
      "name": "InvalidProof",
      "type": "error"
    },
    {
      "inputs": [
        {
          "internalType": "bytes32",
          "name": "merkleRoot",
          "type": "bytes32"
        }
      ],
      "name": "MerkleRootAlreadyExists",
      "type": "error"
    },
    {
      "inputs": [
        {
          "internalType": "address",
          "name": "account",
          "type": "address"
        }
      ],
      "name": "NotContractOwner",
      "type": "error"
    },
    {
      "anonymous": false,
      "inputs": [
        {
          "indexed": true,
          "internalType": "bytes32",
          "name": "root",
          "type": "bytes32"
        }
      ],
      "name": "MerkleRootAdded",
      "type": "event"
    },
    {
      "anonymous": false,
      "inputs": [
        {
          "indexed": true,
          "internalType": "bytes32",
          "name": "root",
          "type": "bytes32"
        }
      ],
      "name": "MerkleRootDeprecated",
      "type": "event"
    },
    {
      "anonymous": false,
      "inputs": [
        {
          "indexed": true,
          "internalType": "address",
          "name": "previousOwner",
          "type": "address"
        },
        {
          "indexed": true,
          "internalType": "address",
          "name": "newOwner",
          "type": "address"
        }
      ],
      "name": "OwnershipTransferred",
      "type": "event"
    },
    {
      "anonymous": false,
      "inputs": [
        {
          "indexed": true,
          "internalType": "bytes32",
          "name": "root",
          "type": "bytes32"
        },
        {
          "indexed": true,
          "internalType": "bytes32",
          "name": "epochId",
          "type": "bytes32"
        },
        {
          "indexed": false,
          "internalType": "uint256",
          "name": "fee",
          "type": "uint256"
        },
        {
          "indexed": true,
          "internalType": "address",
          "name": "recipient",
          "type": "address"
        },
        {
          "indexed": false,
          "internalType": "uint256[]",
          "name": "ids",
          "type": "uint256[]"
        },
        {
          "indexed": false,
          "internalType": "uint256[]",
          "name": "values",
          "type": "uint256[]"
        }
      ],
      "name": "PayoutClaimed",
      "type": "event"
    },
    {
      "inputs": [],
      "name": "FEE_CONTRACT",
      "outputs": [
        {
          "internalType": "contract IERC20SafeTransfers",
          "name": "",
          "type": "address"
        }
      ],
      "stateMutability": "view",
      "type": "function"
    },
    {
      "inputs": [],
      "name": "REWARD_CONTRACT",
      "outputs": [
        {
          "internalType": "contract IERC1155Mintable",
          "name": "",
          "type": "address"
        }
      ],
      "stateMutability": "view",
      "type": "function"
    },
    {
      "inputs": [],
      "name": "__msgData",
      "outputs": [
        {
          "internalType": "bytes",
          "name": "",
          "type": "bytes"
        }
      ],
      "stateMutability": "view",
      "type": "function"
    },
    {
      "inputs": [
        {
          "internalType": "bytes32",
          "name": "merkleRoot",
          "type": "bytes32"
        }
      ],
      "name": "addMerkleRoot",
      "outputs": [],
      "stateMutability": "nonpayable",
      "type": "function"
    },
    {
      "inputs": [
        {
          "internalType": "address",
          "name": "recipient",
          "type": "address"
        },
        {
          "internalType": "bytes32",
          "name": "merkleRoot",
          "type": "bytes32"
        },
        {
          "internalType": "bytes32",
          "name": "epochId",
          "type": "bytes32"
        },
        {
          "internalType": "bytes32[]",
          "name": "proof",
          "type": "bytes32[]"
        },
        {
          "internalType": "uint256[]",
          "name": "ids",
          "type": "uint256[]"
        },
        {
          "internalType": "uint256[]",
          "name": "values",
          "type": "uint256[]"
        },
        {
          "internalType": "uint256",
          "name": "fee",
          "type": "uint256"
        }
      ],
      "name": "claim",
      "outputs": [],
      "stateMutability": "nonpayable",
      "type": "function"
    },
    {
      "inputs": [
        {
          "internalType": "bytes32",
          "name": "",
          "type": "bytes32"
        }
      ],
      "name": "claimed",
      "outputs": [
        {
          "internalType": "bool",
          "name": "",
          "type": "bool"
        }
      ],
      "stateMutability": "view",
      "type": "function"
    },
    {
      "inputs": [
        {
          "internalType": "bytes32",
          "name": "merkleRoot",
          "type": "bytes32"
        }
      ],
      "name": "deprecateMerkleRoot",
      "outputs": [],
      "stateMutability": "nonpayable",
      "type": "function"
    },
    {
      "inputs": [],
      "name": "forwarderRegistry",
      "outputs": [
        {
          "internalType": "contract IForwarderRegistry",
          "name": "",
          "type": "address"
        }
      ],
      "stateMutability": "view",
      "type": "function"
    },
    {
      "inputs": [
        {
          "internalType": "address",
          "name": "forwarder",
          "type": "address"
        }
      ],
      "name": "isTrustedForwarder",
      "outputs": [
        {
          "internalType": "bool",
          "name": "",
          "type": "bool"
        }
      ],
      "stateMutability": "view",
      "type": "function"
    },
    {
      "inputs": [
        {
          "internalType": "address",
          "name": "operator",
          "type": "address"
        },
        {
          "internalType": "address",
          "name": "from",
          "type": "address"
        },
        {
          "internalType": "uint256",
          "name": "value",
          "type": "uint256"
        },
        {
          "internalType": "bytes",
          "name": "data",
          "type": "bytes"
        }
      ],
      "name": "onERC20Received",
      "outputs": [
        {
          "internalType": "bytes4",
          "name": "magicValue",
          "type": "bytes4"
        }
      ],
      "stateMutability": "nonpayable",
      "type": "function"
    },
    {
      "inputs": [],
      "name": "owner",
      "outputs": [
        {
          "internalType": "address",
          "name": "",
          "type": "address"
        }
      ],
      "stateMutability": "view",
      "type": "function"
    },
    {
      "inputs": [
        {
          "internalType": "bytes32",
          "name": "",
          "type": "bytes32"
        }
      ],
      "name": "roots",
      "outputs": [
        {
          "internalType": "bool",
          "name": "",
          "type": "bool"
        }
      ],
      "stateMutability": "view",
      "type": "function"
    },
    {
      "inputs": [
        {
          "internalType": "bytes4",
          "name": "interfaceId",
          "type": "bytes4"
        }
      ],
      "name": "supportsInterface",
      "outputs": [
        {
          "internalType": "bool",
          "name": "",
          "type": "bool"
        }
      ],
      "stateMutability": "view",
      "type": "function"
    },
    {
      "inputs": [
        {
          "internalType": "address",
          "name": "newOwner",
          "type": "address"
        }
      ],
      "name": "transferOwnership",
      "outputs": [],
      "stateMutability": "nonpayable",
      "type": "function"
    }
  ],
  "bytecode": "0x60e06040523480156200001157600080fd5b5060405162001ae138038062001ae18339810160408190526200003491620001e4565b82828280803362000050816200004962000095565b90620000cb565b5062000071634fc3585960e01b6001620000696200013e565b91906200016e565b6001600160a01b0390811660805293841660c05250501660a052506200025a915050565b600080620000c560017fc9ed16f33ab3a66c84bfd83099ccb2a8845871e2e1c1928f63797152f0fd54cd62000238565b92915050565b6001600160a01b03811615620001225781546001600160a01b0319166001600160a01b03821690811783556040516000907f8be0079c531659141344cd1fd0a4f28419497f9722a3daafe3b4186f6b6457e0908290a35b6200013a6307f5828d60e41b6001620000696200013e565b5050565b600080620000c560017fca9d3e17f264b0f3984e2634e94adb37fa3e6a8103f06aeae6fa59e21c769f5e62000238565b600160e01b6001600160e01b03198316016200019d576040516372c683bb60e01b815260040160405180910390fd5b6001600160e01b03199190911660009081526020929092526040909120805460ff1916911515919091179055565b6001600160a01b0381168114620001e157600080fd5b50565b600080600060608486031215620001fa57600080fd5b83516200020781620001cb565b60208501519093506200021a81620001cb565b60408501519092506200022d81620001cb565b809150509250925092565b81810381811115620000c557634e487b7160e01b600052601160045260246000fd5b60805160a05160c051611818620002c96000396000818161011c015281816104a30152818161052101526108ca0152600081816101cc01526106e50152600081816101650152818161024201528181610c9001528181610cce01528181610e060152610e8e01526118186000f3fe608060405234801561001057600080fd5b50600436106100ea5760003560e01c80634fc358591161008c578063ae6dead711610066578063ae6dead714610287578063cc3c0f06146102aa578063d7f176e0146102cd578063f2fde38b146102e057600080fd5b80634fc35859146101ee578063572b6c05146102325780638da5cb5b1461027f57600080fd5b806331e66e1e116100c857806331e66e1e146101895780633323c8071461019f5780633572aa8d146101b45780633a5af339146101c757600080fd5b806301ffc9a7146100ef5780631352acac146101175780632b4c9f1614610163575b600080fd5b6101026100fd366004610fb0565b6102f3565b60405190151581526020015b60405180910390f35b61013e7f000000000000000000000000000000000000000000000000000000000000000081565b60405173ffffffffffffffffffffffffffffffffffffffff909116815260200161010e565b7f000000000000000000000000000000000000000000000000000000000000000061013e565b61019161030d565b60405161010e929190610ff2565b6101b26101ad36600461103f565b610320565b005b6101b26101c236600461103f565b6103eb565b61013e7f000000000000000000000000000000000000000000000000000000000000000081565b6102016101fc366004611081565b61049f565b6040517fffffffff00000000000000000000000000000000000000000000000000000000909116815260200161010e565b61010261024036600461111c565b7f000000000000000000000000000000000000000000000000000000000000000073ffffffffffffffffffffffffffffffffffffffff90811691161490565b61013e610812565b61010261029536600461103f565b60006020819052908152604090205460ff1681565b6101026102b836600461103f565b60016020526000908152604090205460ff1681565b6101b26102db366004611183565b61083e565b6101b26102ee36600461111c565b610956565b600061030782610301610974565b906109a2565b92915050565b366000610318610a7c565b915091509091565b61033961032b610a87565b610333610a91565b90610abf565b60008181526020819052604090205460ff161561038a576040517f5d35de37000000000000000000000000000000000000000000000000000000008152600481018290526024015b60405180910390fd5b60008181526020819052604080822080547fffffffffffffffffffffffffffffffffffffffffffffffffffffffffffffff001660011790555182917fbdd203dd78bf49cf79e4db0ecdf7d27adc380fb1f33beef2667a50db9d2a0e0491a250565b6103f661032b610a87565b60008181526020819052604090205460ff16610441576040517f6d82574300000000000000000000000000000000000000000000000000000000815260048101829052602401610381565b60008181526020819052604080822080547fffffffffffffffffffffffffffffffffffffffffffffffffffffffffffffff001690555182917f578eab65d47cffa57066b105301289ff86bfdc0adc2a701c3356d2a6eb6a612391a250565b60007f000000000000000000000000000000000000000000000000000000000000000073ffffffffffffffffffffffffffffffffffffffff16331461054e576040517f6c50e90500000000000000000000000000000000000000000000000000000000815233600482015273ffffffffffffffffffffffffffffffffffffffff7f0000000000000000000000000000000000000000000000000000000000000000166024820152604401610381565b6000808080806105608789018961135e565b6000858152602081905260409020549499509297509095509350915060ff166105b8576040517f6d82574300000000000000000000000000000000000000000000000000000000815260048101869052602401610381565b60008a83838c886040516020016105d3959493929190611484565b604080517fffffffffffffffffffffffffffffffffffffffffffffffffffffffffffffffe081840301815291815281516020928301206000818152600190935291205490915060ff161561065d578a83838c886040517ff048f37a000000000000000000000000000000000000000000000000000000008152600401610381959493929190611505565b610668848783610b2e565b6106a8578a83838c886040517fdbf2ac7c000000000000000000000000000000000000000000000000000000008152600401610381959493929190611505565b6040517f0d6a5bbb00000000000000000000000000000000000000000000000000000000815273ffffffffffffffffffffffffffffffffffffffff7f00000000000000000000000000000000000000000000000000000000000000001690630d6a5bbb9061071e908e908790879060040161155b565b600060405180830381600087803b15801561073857600080fd5b505af115801561074c573d6000803e3d6000fd5b50505060008281526001602081905260409182902080547fffffffffffffffffffffffffffffffffffffffffffffffffffffffffffffff001690911790555173ffffffffffffffffffffffffffffffffffffffff8d169150869088907fbf561a0ae8123352abf33f8f113e6b265c2e7fe7ba9b4d450750454bcbb7233a906107d9908f90899089906115b8565b60405180910390a4507f4fc35859000000000000000000000000000000000000000000000000000000009b9a5050505050505050505050565b600061083961081f610a91565b5473ffffffffffffffffffffffffffffffffffffffff1690565b905090565b6000898989898989898960405160200161085f989796959493929190611638565b604080517fffffffffffffffffffffffffffffffffffffffffffffffffffffffffffffffe0818403018152908290527fb88d4fde000000000000000000000000000000000000000000000000000000008252915073ffffffffffffffffffffffffffffffffffffffff7f0000000000000000000000000000000000000000000000000000000000000000169063b88d4fde90610905908e9030908790879060040161168f565b6020604051808303816000875af1158015610924573d6000803e3d6000fd5b505050506040513d601f19601f82011682018060405250810190610948919061172d565b505050505050505050505050565b610971610961610a87565b8261096a610a91565b9190610b44565b50565b60008061030760017fca9d3e17f264b0f3984e2634e94adb37fa3e6a8103f06aeae6fa59e21c769f5e61174f565b60007c01000000000000000000000000000000000000000000000000000000007fffffffff000000000000000000000000000000000000000000000000000000008316016109f257506000610307565b7ffe003659000000000000000000000000000000000000000000000000000000007fffffffff00000000000000000000000000000000000000000000000000000000831601610a4357506001610307565b507fffffffff00000000000000000000000000000000000000000000000000000000166000908152602091909152604090205460ff1690565b366000610318610c59565b6000610839610dc3565b60008061030760017fc9ed16f33ab3a66c84bfd83099ccb2a8845871e2e1c1928f63797152f0fd54cd61174f565b815473ffffffffffffffffffffffffffffffffffffffff828116911614610b2a576040517f2ef4875e00000000000000000000000000000000000000000000000000000000815273ffffffffffffffffffffffffffffffffffffffff82166004820152602401610381565b5050565b600082610b3b8584610f0a565b14949350505050565b825473ffffffffffffffffffffffffffffffffffffffff9081169083168114610bb1576040517f2ef4875e00000000000000000000000000000000000000000000000000000000815273ffffffffffffffffffffffffffffffffffffffff84166004820152602401610381565b8173ffffffffffffffffffffffffffffffffffffffff168173ffffffffffffffffffffffffffffffffffffffff1614610c535783547fffffffffffffffffffffffff00000000000000000000000000000000000000001673ffffffffffffffffffffffffffffffffffffffff8381169182178655604051908316907f8be0079c531659141344cd1fd0a4f28419497f9722a3daafe3b4186f6b6457e090600090a35b50505050565b36600033321480610c6a5750601836105b15610c785750600091369150565b3373ffffffffffffffffffffffffffffffffffffffff7f0000000000000000000000000000000000000000000000000000000000000000161480610dad575073ffffffffffffffffffffffffffffffffffffffff7f000000000000000000000000000000000000000000000000000000000000000016638929a8ca367fffffffffffffffffffffffffffffffffffffffffffffffffffffffffffffffec013560601c6040517fffffffff0000000000000000000000000000000000000000000000000000000060e084901b16815273ffffffffffffffffffffffffffffffffffffffff9091166004820152336024820152604401602060405180830381865afa158015610d89573d6000803e3d6000fd5b505050506040513d601f19601f82011682018060405250810190610dad919061172d565b15610dba57610318610f4d565b50600091369150565b600033321480610dd35750601836105b15610ddd57503390565b7fffffffffffffffffffffffffffffffffffffffffffffffffffffffffffffffec36013560601c7f000000000000000000000000000000000000000000000000000000000000000073ffffffffffffffffffffffffffffffffffffffff16331480610ef957506040517f8929a8ca00000000000000000000000000000000000000000000000000000000815273ffffffffffffffffffffffffffffffffffffffff82811660048301523360248301527f00000000000000000000000000000000000000000000000000000000000000001690638929a8ca90604401602060405180830381865afa158015610ed5573d6000803e3d6000fd5b505050506040513d601f19601f82011682018060405250810190610ef9919061172d565b15610f0357919050565b3391505090565b600081815b8451811015610f4557610f3b82868381518110610f2e57610f2e611789565b6020026020010151610f7e565b9150600101610f0f565b509392505050565b3660006103187fffffffffffffffffffffffffffffffffffffffffffffffffffffffffffffffec83018284816117b8565b6000818310610f9a576000828152602084905260409020610fa9565b60008381526020839052604090205b9392505050565b600060208284031215610fc257600080fd5b81357fffffffff0000000000000000000000000000000000000000000000000000000081168114610fa957600080fd5b60208152816020820152818360408301376000818301604090810191909152601f9092017fffffffffffffffffffffffffffffffffffffffffffffffffffffffffffffffe0160101919050565b60006020828403121561105157600080fd5b5035919050565b803573ffffffffffffffffffffffffffffffffffffffff8116811461107c57600080fd5b919050565b60008060008060006080868803121561109957600080fd5b6110a286611058565b94506110b060208701611058565b935060408601359250606086013567ffffffffffffffff808211156110d457600080fd5b818801915088601f8301126110e857600080fd5b8135818111156110f757600080fd5b89602082850101111561110957600080fd5b9699959850939650602001949392505050565b60006020828403121561112e57600080fd5b610fa982611058565b60008083601f84011261114957600080fd5b50813567ffffffffffffffff81111561116157600080fd5b6020830191508360208260051b850101111561117c57600080fd5b9250929050565b60008060008060008060008060008060e08b8d0312156111a257600080fd5b6111ab8b611058565b995060208b0135985060408b0135975060608b013567ffffffffffffffff808211156111d657600080fd5b6111e28e838f01611137565b909950975060808d01359150808211156111fb57600080fd5b6112078e838f01611137565b909750955060a08d013591508082111561122057600080fd5b5061122d8d828e01611137565b9150809450508092505060c08b013590509295989b9194979a5092959850565b7f4e487b7100000000000000000000000000000000000000000000000000000000600052604160045260246000fd5b604051601f82017fffffffffffffffffffffffffffffffffffffffffffffffffffffffffffffffe016810167ffffffffffffffff811182821017156112c3576112c361124d565b604052919050565b600067ffffffffffffffff8211156112e5576112e561124d565b5060051b60200190565b600082601f83011261130057600080fd5b81356020611315611310836112cb565b61127c565b8083825260208201915060208460051b87010193508684111561133757600080fd5b602086015b84811015611353578035835291830191830161133c565b509695505050505050565b600080600080600060a0868803121561137657600080fd5b853594506020808701359450604087013567ffffffffffffffff8082111561139d57600080fd5b818901915089601f8301126113b157600080fd5b81356113bf611310826112cb565b81815260059190911b8301840190848101908c8311156113de57600080fd5b938501935b828510156113fc578435825293850193908501906113e3565b97505050606089013592508083111561141457600080fd5b6114208a848b016112ef565b9450608089013592508083111561143657600080fd5b5050611444888289016112ef565b9150509295509295909350565b60008151602080840160005b838110156114795781518752958201959082019060010161145d565b509495945050505050565b7fffffffffffffffffffffffffffffffffffffffff0000000000000000000000008660601b16815260006114c46114be6014840188611451565b86611451565b938452505060208201526040019392505050565b8051808352602092830192600091908084018383156114795781518752958201959082019060010161145d565b73ffffffffffffffffffffffffffffffffffffffff8616815260a06020820152600061153460a08301876114d8565b828103604084015261154681876114d8565b60608401959095525050608001529392505050565b73ffffffffffffffffffffffffffffffffffffffff8416815260806020820152600061158a60808301856114d8565b828103604084015261159c81856114d8565b8381036060909401939093525050600081526020019392505050565b8381526060602082015260006115d160608301856114d8565b82810360408401526115e381856114d8565b9695505050505050565b81835260007f07ffffffffffffffffffffffffffffffffffffffffffffffffffffffffffffff83111561161f57600080fd5b8260051b80836020870137939093016020019392505050565b88815287602082015260a06040820152600061165860a08301888a6115ed565b828103606084015261166b8187896115ed565b905082810360808401526116808185876115ed565b9b9a5050505050505050505050565b600073ffffffffffffffffffffffffffffffffffffffff808716835260208187166020850152856040850152608060608501528451915081608085015260005b828110156116eb5785810182015185820160a0015281016116cf565b5050600060a0828501015260a07fffffffffffffffffffffffffffffffffffffffffffffffffffffffffffffffe0601f83011684010191505095945050505050565b60006020828403121561173f57600080fd5b81518015158114610fa957600080fd5b81810381811115610307577f4e487b7100000000000000000000000000000000000000000000000000000000600052601160045260246000fd5b7f4e487b7100000000000000000000000000000000000000000000000000000000600052603260045260246000fd5b600080858511156117c857600080fd5b838611156117d557600080fd5b505082019391909203915056fea264697066735822122053471b52820dd0876926daf65f5de5dba78faf58987bb0e93031c11ab60f46d264736f6c63430008160033",
  "linkReferences": {},
  "deployedLinkReferences": {}
}