{
  "_format": "hh-sol-artifact-1",
  "contractName": "ChaosKingdomResourcesClaimMock",
  "sourceName": "contracts/mocks/ChaosKingdomResourcesClaimMock.sol",
  "abi": [
    {
      "inputs": [
        {
          "internalType": "contract IERC20",
          "name": "feeContract_",
          "type": "address"
        },
        {
          "internalType": "contract IERC1155Mintable",
          "name": "rewardContract_",
          "type": "address"
        },
        {
          "internalType": "contract IForwarderRegistry",
          "name": "forwarderRegistry",
          "type": "address"
        }
      ],
      "stateMutability": "nonpayable",
      "type": "constructor"
    },
    {
      "inputs": [
        {
          "internalType": "address",
          "name": "recipient",
          "type": "address"
        },
        {
          "internalType": "uint256[]",
          "name": "ids",
          "type": "uint256[]"
        },
        {
          "internalType": "uint256[]",
          "name": "values",
          "type": "uint256[]"
        },
        {
          "internalType": "uint256",
          "name": "fee",
          "type": "uint256"
        },
        {
          "internalType": "bytes32",
          "name": "epochId",
          "type": "bytes32"
        }
      ],
      "name": "AlreadyClaimed",
      "type": "error"
    },
    {
      "inputs": [
        {
          "internalType": "address",
          "name": "sender",
          "type": "address"
        },
        {
          "internalType": "address",
          "name": "expectedContract",
          "type": "address"
        }
      ],
      "name": "FeeContractMismatch",
      "type": "error"
    },
    {
      "inputs": [],
      "name": "IllegalInterfaceId",
      "type": "error"
    },
    {
      "inputs": [
        {
          "internalType": "address",
          "name": "recipient",
          "type": "address"
        },
        {
          "internalType": "uint256[]",
          "name": "ids",
          "type": "uint256[]"
        },
        {
          "internalType": "uint256[]",
          "name": "values",
          "type": "uint256[]"
        },
        {
          "internalType": "uint256",
          "name": "fee",
          "type": "uint256"
        },
        {
          "internalType": "bytes32",
          "name": "epochId",
          "type": "bytes32"
        }
      ],
      "name": "InvalidProof",
      "type": "error"
    },
    {
      "inputs": [
        {
          "internalType": "bytes32",
          "name": "merkleRoot",
          "type": "bytes32"
        }
      ],
      "name": "MerkleRootAlreadyExists",
      "type": "error"
    },
    {
      "inputs": [
        {
          "internalType": "bytes32",
          "name": "merkleRoot",
          "type": "bytes32"
        }
      ],
      "name": "MerkleRootDoesNotExist",
      "type": "error"
    },
    {
      "inputs": [
        {
          "internalType": "address",
          "name": "account",
          "type": "address"
        }
      ],
      "name": "NotContractOwner",
      "type": "error"
    },
    {
      "anonymous": false,
      "inputs": [
        {
          "indexed": true,
          "internalType": "bytes32",
          "name": "root",
          "type": "bytes32"
        }
      ],
      "name": "MerkleRootAdded",
      "type": "event"
    },
    {
      "anonymous": false,
      "inputs": [
        {
          "indexed": false,
          "internalType": "bytes32",
          "name": "root",
          "type": "bytes32"
        }
      ],
      "name": "MerkleRootDeprecated",
      "type": "event"
    },
    {
      "anonymous": false,
      "inputs": [
        {
          "indexed": true,
          "internalType": "address",
          "name": "previousOwner",
          "type": "address"
        },
        {
          "indexed": true,
          "internalType": "address",
          "name": "newOwner",
          "type": "address"
        }
      ],
      "name": "OwnershipTransferred",
      "type": "event"
    },
    {
      "anonymous": false,
      "inputs": [
        {
          "indexed": true,
          "internalType": "bytes32",
          "name": "root",
          "type": "bytes32"
        },
        {
          "indexed": false,
          "internalType": "bytes32",
          "name": "epochId",
          "type": "bytes32"
        },
        {
          "indexed": false,
          "internalType": "uint256",
          "name": "fee",
          "type": "uint256"
        },
        {
          "indexed": true,
          "internalType": "address",
          "name": "recipient",
          "type": "address"
        },
        {
          "indexed": false,
          "internalType": "uint256[]",
          "name": "ids",
          "type": "uint256[]"
        },
        {
          "indexed": false,
          "internalType": "uint256[]",
          "name": "values",
          "type": "uint256[]"
        }
      ],
      "name": "PayoutClaimed",
      "type": "event"
    },
    {
      "inputs": [],
      "name": "FEE_CONTRACT",
      "outputs": [
        {
          "internalType": "contract IERC20",
          "name": "",
          "type": "address"
        }
      ],
      "stateMutability": "view",
      "type": "function"
    },
    {
      "inputs": [],
      "name": "REWARD_CONTRACT",
      "outputs": [
        {
          "internalType": "contract IERC1155Mintable",
          "name": "",
          "type": "address"
        }
      ],
      "stateMutability": "view",
      "type": "function"
    },
    {
      "inputs": [],
      "name": "__msgData",
      "outputs": [
        {
          "internalType": "bytes",
          "name": "",
          "type": "bytes"
        }
      ],
      "stateMutability": "view",
      "type": "function"
    },
    {
      "inputs": [
        {
          "internalType": "bytes32",
          "name": "merkleRoot",
          "type": "bytes32"
        }
      ],
      "name": "addMerkleRoot",
      "outputs": [],
      "stateMutability": "nonpayable",
      "type": "function"
    },
    {
      "inputs": [
        {
          "internalType": "address",
          "name": "recipient",
          "type": "address"
        },
        {
          "internalType": "bytes",
          "name": "claimData",
          "type": "bytes"
        },
        {
          "internalType": "uint256",
          "name": "fee",
          "type": "uint256"
        }
      ],
      "name": "claim",
      "outputs": [],
      "stateMutability": "nonpayable",
      "type": "function"
    },
    {
      "inputs": [
        {
          "internalType": "bytes32",
          "name": "",
          "type": "bytes32"
        }
      ],
      "name": "claimed",
      "outputs": [
        {
          "internalType": "bool",
          "name": "",
          "type": "bool"
        }
      ],
      "stateMutability": "view",
      "type": "function"
    },
    {
      "inputs": [
        {
          "internalType": "bytes32",
          "name": "merkleRoot",
          "type": "bytes32"
        }
      ],
      "name": "deprecateMerkleRoot",
      "outputs": [],
      "stateMutability": "nonpayable",
      "type": "function"
    },
    {
      "inputs": [],
      "name": "forwarderRegistry",
      "outputs": [
        {
          "internalType": "contract IForwarderRegistry",
          "name": "",
          "type": "address"
        }
      ],
      "stateMutability": "view",
      "type": "function"
    },
    {
      "inputs": [
        {
          "internalType": "address",
          "name": "forwarder",
          "type": "address"
        }
      ],
      "name": "isTrustedForwarder",
      "outputs": [
        {
          "internalType": "bool",
          "name": "",
          "type": "bool"
        }
      ],
      "stateMutability": "view",
      "type": "function"
    },
    {
      "inputs": [
        {
          "internalType": "address",
          "name": "operator",
          "type": "address"
        },
        {
          "internalType": "address",
          "name": "from",
          "type": "address"
        },
        {
          "internalType": "uint256",
          "name": "value",
          "type": "uint256"
        },
        {
          "internalType": "bytes",
          "name": "data",
          "type": "bytes"
        }
      ],
      "name": "onERC20Received",
      "outputs": [
        {
          "internalType": "bytes4",
          "name": "magicValue",
          "type": "bytes4"
        }
      ],
      "stateMutability": "nonpayable",
      "type": "function"
    },
    {
      "inputs": [],
      "name": "owner",
      "outputs": [
        {
          "internalType": "address",
          "name": "",
          "type": "address"
        }
      ],
      "stateMutability": "view",
      "type": "function"
    },
    {
      "inputs": [
        {
          "internalType": "bytes32",
          "name": "",
          "type": "bytes32"
        }
      ],
      "name": "roots",
      "outputs": [
        {
          "internalType": "bool",
          "name": "",
          "type": "bool"
        }
      ],
      "stateMutability": "view",
      "type": "function"
    },
    {
      "inputs": [
        {
          "internalType": "bytes4",
          "name": "interfaceId",
          "type": "bytes4"
        }
      ],
      "name": "supportsInterface",
      "outputs": [
        {
          "internalType": "bool",
          "name": "",
          "type": "bool"
        }
      ],
      "stateMutability": "view",
      "type": "function"
    },
    {
      "inputs": [
        {
          "internalType": "address",
          "name": "newOwner",
          "type": "address"
        }
      ],
      "name": "transferOwnership",
      "outputs": [],
      "stateMutability": "nonpayable",
      "type": "function"
    }
  ],
  "bytecode": "0x60e06040523480156200001157600080fd5b50604051620019b1380380620019b18339810160408190526200003491620001e4565b82828280803362000050816200004962000095565b90620000cb565b5062000071634fc3585960e01b6001620000696200013e565b91906200016e565b6001600160a01b0390811660805293841660c05250501660a052506200025a915050565b600080620000c560017fc9ed16f33ab3a66c84bfd83099ccb2a8845871e2e1c1928f63797152f0fd54cd62000238565b92915050565b6001600160a01b03811615620001225781546001600160a01b0319166001600160a01b03821690811783556040516000907f8be0079c531659141344cd1fd0a4f28419497f9722a3daafe3b4186f6b6457e0908290a35b6200013a6307f5828d60e41b6001620000696200013e565b5050565b600080620000c560017fca9d3e17f264b0f3984e2634e94adb37fa3e6a8103f06aeae6fa59e21c769f5e62000238565b600160e01b6001600160e01b03198316016200019d576040516372c683bb60e01b815260040160405180910390fd5b6001600160e01b03199190911660009081526020929092526040909120805460ff1916911515919091179055565b6001600160a01b0381168114620001e157600080fd5b50565b600080600060608486031215620001fa57600080fd5b83516200020781620001cb565b60208501519093506200021a81620001cb565b60408501519092506200022d81620001cb565b809150509250925092565b81810381811115620000c557634e487b7160e01b600052601160045260246000fd5b60805160a05160c0516116e1620002d06000396000818161011c015281816104ae0152818161052c01526106ab0152600081816101cc015281816105ab01526107580152600081816101650152818161024201528181610d1a01528181610d5801528181610e900152610f1801526116e16000f3fe608060405234801561001057600080fd5b50600436106100ea5760003560e01c80634fc358591161008c5780638da5cb5b116100665780638da5cb5b14610292578063ae6dead71461029a578063cc3c0f06146102bd578063f2fde38b146102e057600080fd5b80634fc35859146101ee578063572b6c05146102325780638bd8d0a91461027f57600080fd5b806331e66e1e116100c857806331e66e1e146101895780633323c8071461019f5780633572aa8d146101b45780633a5af339146101c757600080fd5b806301ffc9a7146100ef5780631352acac146101175780632b4c9f1614610163575b600080fd5b6101026100fd366004611050565b6102f3565b60405190151581526020015b60405180910390f35b61013e7f000000000000000000000000000000000000000000000000000000000000000081565b60405173ffffffffffffffffffffffffffffffffffffffff909116815260200161010e565b7f000000000000000000000000000000000000000000000000000000000000000061013e565b61019161030d565b60405161010e929190611092565b6101b26101ad3660046110df565b610320565b005b6101b26101c23660046110df565b6103eb565b61013e7f000000000000000000000000000000000000000000000000000000000000000081565b6102016101fc36600461116a565b6104aa565b6040517fffffffff00000000000000000000000000000000000000000000000000000000909116815260200161010e565b6101026102403660046111d9565b7f000000000000000000000000000000000000000000000000000000000000000073ffffffffffffffffffffffffffffffffffffffff90811691161490565b6101b261028d3660046111f4565b610644565b61013e6107cb565b6101026102a83660046110df565b60006020819052908152604090205460ff1681565b6101026102cb3660046110df565b60016020526000908152604090205460ff1681565b6101b26102ee3660046111d9565b6107f7565b600061030782610301610815565b90610843565b92915050565b36600061031861091d565b915091509091565b61033961032b610928565b610333610932565b90610960565b60008181526020819052604090205460ff161561038a576040517f5d35de37000000000000000000000000000000000000000000000000000000008152600481018290526024015b60405180910390fd5b60008181526020819052604080822080547fffffffffffffffffffffffffffffffffffffffffffffffffffffffffffffff001660011790555182917fbdd203dd78bf49cf79e4db0ecdf7d27adc380fb1f33beef2667a50db9d2a0e0491a250565b6103f661032b610928565b60008181526020819052604090205460ff16610441576040517fc9c3405a00000000000000000000000000000000000000000000000000000000815260048101829052602401610381565b6000818152602081815260409182902080547fffffffffffffffffffffffffffffffffffffffffffffffffffffffffffffff0016905590518281527f578eab65d47cffa57066b105301289ff86bfdc0adc2a701c3356d2a6eb6a6123910160405180910390a150565b60007f000000000000000000000000000000000000000000000000000000000000000073ffffffffffffffffffffffffffffffffffffffff163314610559576040517f6c50e90500000000000000000000000000000000000000000000000000000000815233600482015273ffffffffffffffffffffffffffffffffffffffff7f0000000000000000000000000000000000000000000000000000000000000000166024820152604401610381565b83600080610569888787866109cf565b6040517f0d6a5bbb000000000000000000000000000000000000000000000000000000008152919350915073ffffffffffffffffffffffffffffffffffffffff7f00000000000000000000000000000000000000000000000000000000000000001690630d6a5bbb906105e4908b908690869060040161128a565b600060405180830381600087803b1580156105fe57600080fd5b505af1158015610612573d6000803e3d6000fd5b507f4fc35859000000000000000000000000000000000000000000000000000000009c9b505050505050505050505050565b600080610653868686866109cf565b6040517f23b872dd00000000000000000000000000000000000000000000000000000000815273ffffffffffffffffffffffffffffffffffffffff8981166004830152306024830152604482018790529294509092507f0000000000000000000000000000000000000000000000000000000000000000909116906323b872dd906064016020604051808303816000875af11580156106f6573d6000803e3d6000fd5b505050506040513d601f19601f8201168201806040525081019061071a91906112e7565b506040517f0d6a5bbb00000000000000000000000000000000000000000000000000000000815273ffffffffffffffffffffffffffffffffffffffff7f00000000000000000000000000000000000000000000000000000000000000001690630d6a5bbb906107919089908690869060040161128a565b600060405180830381600087803b1580156107ab57600080fd5b505af11580156107bf573d6000803e3d6000fd5b50505050505050505050565b60006107f26107d8610932565b5473ffffffffffffffffffffffffffffffffffffffff1690565b905090565b610812610802610928565b8261080b610932565b9190610bce565b50565b60008061030760017fca9d3e17f264b0f3984e2634e94adb37fa3e6a8103f06aeae6fa59e21c769f5e611309565b60007c01000000000000000000000000000000000000000000000000000000007fffffffff0000000000000000000000000000000000000000000000000000000083160161089357506000610307565b7ffe003659000000000000000000000000000000000000000000000000000000007fffffffff000000000000000000000000000000000000000000000000000000008316016108e457506001610307565b507fffffffff00000000000000000000000000000000000000000000000000000000166000908152602091909152604090205460ff1690565b366000610318610ce3565b60006107f2610e4d565b60008061030760017fc9ed16f33ab3a66c84bfd83099ccb2a8845871e2e1c1928f63797152f0fd54cd611309565b815473ffffffffffffffffffffffffffffffffffffffff8281169116146109cb576040517f2ef4875e00000000000000000000000000000000000000000000000000000000815273ffffffffffffffffffffffffffffffffffffffff82166004820152602401610381565b5050565b6060806000808080806109e4898b018b611454565b6000858152602081905260409020549499509297509095509350915060ff16610a3c576040517fc9c3405a00000000000000000000000000000000000000000000000000000000815260048101869052602401610381565b60008b83838b88604051602001610a5795949392919061156c565b604080517fffffffffffffffffffffffffffffffffffffffffffffffffffffffffffffffe081840301815291815281516020928301206000818152600190935291205490915060ff1615610ae1578b83838b886040517ff048f37a0000000000000000000000000000000000000000000000000000000081526004016103819594939291906115c0565b610aec848783610f94565b610b2c578b83838b886040517fdbf2ac7c0000000000000000000000000000000000000000000000000000000081526004016103819594939291906115c0565b60008181526001602081905260409182902080547fffffffffffffffffffffffffffffffffffffffffffffffffffffffffffffff001690911790555173ffffffffffffffffffffffffffffffffffffffff8d169087907fbf561a0ae8123352abf33f8f113e6b265c2e7fe7ba9b4d450750454bcbb7233a90610bb59089908e9089908990611616565b60405180910390a350909a909950975050505050505050565b825473ffffffffffffffffffffffffffffffffffffffff9081169083168114610c3b576040517f2ef4875e00000000000000000000000000000000000000000000000000000000815273ffffffffffffffffffffffffffffffffffffffff84166004820152602401610381565b8173ffffffffffffffffffffffffffffffffffffffff168173ffffffffffffffffffffffffffffffffffffffff1614610cdd5783547fffffffffffffffffffffffff00000000000000000000000000000000000000001673ffffffffffffffffffffffffffffffffffffffff8381169182178655604051908316907f8be0079c531659141344cd1fd0a4f28419497f9722a3daafe3b4186f6b6457e090600090a35b50505050565b36600033321480610cf45750601836105b15610d025750600091369150565b3373ffffffffffffffffffffffffffffffffffffffff7f0000000000000000000000000000000000000000000000000000000000000000161480610e37575073ffffffffffffffffffffffffffffffffffffffff7f000000000000000000000000000000000000000000000000000000000000000016638929a8ca367fffffffffffffffffffffffffffffffffffffffffffffffffffffffffffffffec013560601c6040517fffffffff0000000000000000000000000000000000000000000000000000000060e084901b16815273ffffffffffffffffffffffffffffffffffffffff9091166004820152336024820152604401602060405180830381865afa158015610e13573d6000803e3d6000fd5b505050506040513d601f19601f82011682018060405250810190610e3791906112e7565b15610e4457610318610faa565b50600091369150565b600033321480610e5d5750601836105b15610e6757503390565b7fffffffffffffffffffffffffffffffffffffffffffffffffffffffffffffffec36013560601c7f000000000000000000000000000000000000000000000000000000000000000073ffffffffffffffffffffffffffffffffffffffff16331480610f8357506040517f8929a8ca00000000000000000000000000000000000000000000000000000000815273ffffffffffffffffffffffffffffffffffffffff82811660048301523360248301527f00000000000000000000000000000000000000000000000000000000000000001690638929a8ca90604401602060405180830381865afa158015610f5f573d6000803e3d6000fd5b505050506040513d601f19601f82011682018060405250810190610f8391906112e7565b15610f8d57919050565b3391505090565b600082610fa18584610fdb565b14949350505050565b3660006103187fffffffffffffffffffffffffffffffffffffffffffffffffffffffffffffffec8301828481611652565b600081815b84518110156110165761100c82868381518110610fff57610fff61167c565b602002602001015161101e565b9150600101610fe0565b509392505050565b600081831061103a576000828152602084905260409020611049565b60008381526020839052604090205b9392505050565b60006020828403121561106257600080fd5b81357fffffffff000000000000000000000000000000000000000000000000000000008116811461104957600080fd5b60208152816020820152818360408301376000818301604090810191909152601f9092017fffffffffffffffffffffffffffffffffffffffffffffffffffffffffffffffe0160101919050565b6000602082840312156110f157600080fd5b5035919050565b803573ffffffffffffffffffffffffffffffffffffffff8116811461111c57600080fd5b919050565b60008083601f84011261113357600080fd5b50813567ffffffffffffffff81111561114b57600080fd5b60208301915083602082850101111561116357600080fd5b9250929050565b60008060008060006080868803121561118257600080fd5b61118b866110f8565b9450611199602087016110f8565b935060408601359250606086013567ffffffffffffffff8111156111bc57600080fd5b6111c888828901611121565b969995985093965092949392505050565b6000602082840312156111eb57600080fd5b611049826110f8565b6000806000806060858703121561120a57600080fd5b611213856110f8565b9350602085013567ffffffffffffffff81111561122f57600080fd5b61123b87828801611121565b9598909750949560400135949350505050565b60008151808452602080850194506020840160005b8381101561127f57815187529582019590820190600101611263565b509495945050505050565b73ffffffffffffffffffffffffffffffffffffffff841681526080602082015260006112b9608083018561124e565b82810360408401526112cb818561124e565b8381036060909401939093525050600081526020019392505050565b6000602082840312156112f957600080fd5b8151801515811461104957600080fd5b81810381811115610307577f4e487b7100000000000000000000000000000000000000000000000000000000600052601160045260246000fd5b7f4e487b7100000000000000000000000000000000000000000000000000000000600052604160045260246000fd5b604051601f82017fffffffffffffffffffffffffffffffffffffffffffffffffffffffffffffffe016810167ffffffffffffffff811182821017156113b9576113b9611343565b604052919050565b600067ffffffffffffffff8211156113db576113db611343565b5060051b60200190565b600082601f8301126113f657600080fd5b8135602061140b611406836113c1565b611372565b8083825260208201915060208460051b87010193508684111561142d57600080fd5b602086015b848110156114495780358352918301918301611432565b509695505050505050565b600080600080600060a0868803121561146c57600080fd5b853594506020808701359450604087013567ffffffffffffffff8082111561149357600080fd5b818901915089601f8301126114a757600080fd5b81356114b5611406826113c1565b81815260059190911b8301840190848101908c8311156114d457600080fd5b938501935b828510156114f2578435825293850193908501906114d9565b97505050606089013592508083111561150a57600080fd5b6115168a848b016113e5565b9450608089013592508083111561152c57600080fd5b505061153a888289016113e5565b9150509295509295909350565b8051600090602080840183831561127f57815187529582019590820190600101611263565b7fffffffffffffffffffffffffffffffffffffffff0000000000000000000000008660601b16815260006115ac6115a66014840188611547565b86611547565b938452505060208201526040019392505050565b73ffffffffffffffffffffffffffffffffffffffff8616815260a0602082015260006115ef60a083018761124e565b8281036040840152611601818761124e565b60608401959095525050608001529392505050565b848152836020820152608060408201526000611635608083018561124e565b8281036060840152611647818561124e565b979650505050505050565b6000808585111561166257600080fd5b8386111561166f57600080fd5b5050820193919092039150565b7f4e487b7100000000000000000000000000000000000000000000000000000000600052603260045260246000fdfea2646970667358221220ecf7be40771f5e7d5ed0cf9966f7ebebf3179e1da1f4c294b803045e5514f2ed64736f6c63430008160033",
  "linkReferences": {},
  "deployedLinkReferences": {}
}