{
  "_format": "hh-sol-artifact-1",
  "contractName": "ChaosKingdomResourcesClaim",
  "sourceName": "contracts/payment/ChaosKingdomResourcesClaim.sol",
  "abi": [
    {
      "inputs": [
        {
          "internalType": "contract IERC20SafeTransfers",
          "name": "feeContract",
          "type": "address"
        },
        {
          "internalType": "contract IERC1155Mintable",
          "name": "rewardContract",
          "type": "address"
        }
      ],
      "stateMutability": "nonpayable",
      "type": "constructor"
    },
    {
      "inputs": [
        {
          "internalType": "address",
          "name": "recipient",
          "type": "address"
        },
        {
          "internalType": "uint256[]",
          "name": "ids",
          "type": "uint256[]"
        },
        {
          "internalType": "uint256[]",
          "name": "values",
          "type": "uint256[]"
        },
        {
          "internalType": "uint256",
          "name": "fee",
          "type": "uint256"
        },
        {
          "internalType": "bytes32",
          "name": "epochId",
          "type": "bytes32"
        }
      ],
      "name": "AlreadyClaimed",
      "type": "error"
    },
    {
      "inputs": [],
      "name": "IllegalInterfaceId",
      "type": "error"
    },
    {
      "inputs": [
        {
          "internalType": "address",
          "name": "receivedContract",
          "type": "address"
        },
        {
          "internalType": "address",
          "name": "expectedContract",
          "type": "address"
        }
      ],
      "name": "InvalidFeeContract",
      "type": "error"
    },
    {
      "inputs": [
        {
          "internalType": "bytes32",
          "name": "merkleRoot",
          "type": "bytes32"
        }
      ],
      "name": "InvalidMerkleRoot",
      "type": "error"
    },
    {
      "inputs": [
        {
          "internalType": "address",
          "name": "recipient",
          "type": "address"
        },
        {
          "internalType": "uint256[]",
          "name": "ids",
          "type": "uint256[]"
        },
        {
          "internalType": "uint256[]",
          "name": "values",
          "type": "uint256[]"
        },
        {
          "internalType": "uint256",
          "name": "fee",
          "type": "uint256"
        },
        {
          "internalType": "bytes32",
          "name": "epochId",
          "type": "bytes32"
        }
      ],
      "name": "InvalidProof",
      "type": "error"
    },
    {
      "inputs": [
        {
          "internalType": "bytes32",
          "name": "merkleRoot",
          "type": "bytes32"
        }
      ],
      "name": "MerkleRootAlreadyExists",
      "type": "error"
    },
    {
      "inputs": [
        {
          "internalType": "address",
          "name": "account",
          "type": "address"
        }
      ],
      "name": "NotContractOwner",
      "type": "error"
    },
    {
      "anonymous": false,
      "inputs": [
        {
          "indexed": true,
          "internalType": "bytes32",
          "name": "root",
          "type": "bytes32"
        }
      ],
      "name": "MerkleRootAdded",
      "type": "event"
    },
    {
      "anonymous": false,
      "inputs": [
        {
          "indexed": true,
          "internalType": "bytes32",
          "name": "root",
          "type": "bytes32"
        }
      ],
      "name": "MerkleRootDeprecated",
      "type": "event"
    },
    {
      "anonymous": false,
      "inputs": [
        {
          "indexed": true,
          "internalType": "address",
          "name": "previousOwner",
          "type": "address"
        },
        {
          "indexed": true,
          "internalType": "address",
          "name": "newOwner",
          "type": "address"
        }
      ],
      "name": "OwnershipTransferred",
      "type": "event"
    },
    {
      "anonymous": false,
      "inputs": [
        {
          "indexed": true,
          "internalType": "bytes32",
          "name": "root",
          "type": "bytes32"
        },
        {
          "indexed": true,
          "internalType": "bytes32",
          "name": "epochId",
          "type": "bytes32"
        },
        {
          "indexed": false,
          "internalType": "uint256",
          "name": "fee",
          "type": "uint256"
        },
        {
          "indexed": true,
          "internalType": "address",
          "name": "recipient",
          "type": "address"
        },
        {
          "indexed": false,
          "internalType": "uint256[]",
          "name": "ids",
          "type": "uint256[]"
        },
        {
          "indexed": false,
          "internalType": "uint256[]",
          "name": "values",
          "type": "uint256[]"
        }
      ],
      "name": "PayoutClaimed",
      "type": "event"
    },
    {
      "inputs": [],
      "name": "FEE_CONTRACT",
      "outputs": [
        {
          "internalType": "contract IERC20SafeTransfers",
          "name": "",
          "type": "address"
        }
      ],
      "stateMutability": "view",
      "type": "function"
    },
    {
      "inputs": [],
      "name": "REWARD_CONTRACT",
      "outputs": [
        {
          "internalType": "contract IERC1155Mintable",
          "name": "",
          "type": "address"
        }
      ],
      "stateMutability": "view",
      "type": "function"
    },
    {
      "inputs": [
        {
          "internalType": "bytes32",
          "name": "merkleRoot",
          "type": "bytes32"
        }
      ],
      "name": "addMerkleRoot",
      "outputs": [],
      "stateMutability": "nonpayable",
      "type": "function"
    },
    {
      "inputs": [
        {
          "internalType": "bytes32",
          "name": "",
          "type": "bytes32"
        }
      ],
      "name": "claimed",
      "outputs": [
        {
          "internalType": "bool",
          "name": "",
          "type": "bool"
        }
      ],
      "stateMutability": "view",
      "type": "function"
    },
    {
      "inputs": [
        {
          "internalType": "bytes32",
          "name": "merkleRoot",
          "type": "bytes32"
        }
      ],
      "name": "deprecateMerkleRoot",
      "outputs": [],
      "stateMutability": "nonpayable",
      "type": "function"
    },
    {
      "inputs": [
        {
          "internalType": "address",
          "name": "operator",
          "type": "address"
        },
        {
          "internalType": "address",
          "name": "from",
          "type": "address"
        },
        {
          "internalType": "uint256",
          "name": "value",
          "type": "uint256"
        },
        {
          "internalType": "bytes",
          "name": "data",
          "type": "bytes"
        }
      ],
      "name": "onERC20Received",
      "outputs": [
        {
          "internalType": "bytes4",
          "name": "magicValue",
          "type": "bytes4"
        }
      ],
      "stateMutability": "nonpayable",
      "type": "function"
    },
    {
      "inputs": [],
      "name": "owner",
      "outputs": [
        {
          "internalType": "address",
          "name": "",
          "type": "address"
        }
      ],
      "stateMutability": "view",
      "type": "function"
    },
    {
      "inputs": [
        {
          "internalType": "bytes32",
          "name": "",
          "type": "bytes32"
        }
      ],
      "name": "roots",
      "outputs": [
        {
          "internalType": "bool",
          "name": "",
          "type": "bool"
        }
      ],
      "stateMutability": "view",
      "type": "function"
    },
    {
      "inputs": [
        {
          "internalType": "bytes4",
          "name": "interfaceId",
          "type": "bytes4"
        }
      ],
      "name": "supportsInterface",
      "outputs": [
        {
          "internalType": "bool",
          "name": "",
          "type": "bool"
        }
      ],
      "stateMutability": "view",
      "type": "function"
    },
    {
      "inputs": [
        {
          "internalType": "address",
          "name": "newOwner",
          "type": "address"
        }
      ],
      "name": "transferOwnership",
      "outputs": [],
      "stateMutability": "nonpayable",
      "type": "function"
    }
  ],
  "bytecode": "0x60c06040523480156200001157600080fd5b506040516200129e3803806200129e8339810160408190526200003491620001d3565b336200004b816200004462000084565b90620000ba565b506200006c634fc3585960e01b6001620000646200012d565b91906200015d565b6001600160a01b0391821660a0521660805262000234565b600080620000b460017fc9ed16f33ab3a66c84bfd83099ccb2a8845871e2e1c1928f63797152f0fd54cd62000212565b92915050565b6001600160a01b03811615620001115781546001600160a01b0319166001600160a01b03821690811783556040516000907f8be0079c531659141344cd1fd0a4f28419497f9722a3daafe3b4186f6b6457e0908290a35b620001296307f5828d60e41b6001620000646200012d565b5050565b600080620000b460017fca9d3e17f264b0f3984e2634e94adb37fa3e6a8103f06aeae6fa59e21c769f5e62000212565b600160e01b6001600160e01b03198316016200018c576040516372c683bb60e01b815260040160405180910390fd5b6001600160e01b03199190911660009081526020929092526040909120805460ff1916911515919091179055565b6001600160a01b0381168114620001d057600080fd5b50565b60008060408385031215620001e757600080fd5b8251620001f481620001ba565b60208401519092506200020781620001ba565b809150509250929050565b81810381811115620000b457634e487b7160e01b600052601160045260246000fd5b60805160a0516110306200026e6000396000818160f0015281816103c0015261043e015260008181610164015261060201526110306000f3fe608060405234801561001057600080fd5b50600436106100be5760003560e01c80634fc3585911610076578063ae6dead71161005b578063ae6dead7146101d2578063cc3c0f06146101f5578063f2fde38b1461021857600080fd5b80634fc35859146101865780638da5cb5b146101ca57600080fd5b80633323c807116100a75780633323c807146101375780633572aa8d1461014c5780633a5af3391461015f57600080fd5b806301ffc9a7146100c35780631352acac146100eb575b600080fd5b6100d66100d1366004610ab7565b61022b565b60405190151581526020015b60405180910390f35b6101127f000000000000000000000000000000000000000000000000000000000000000081565b60405173ffffffffffffffffffffffffffffffffffffffff90911681526020016100e2565b61014a610145366004610af9565b610245565b005b61014a61015a366004610af9565b61030a565b6101127f000000000000000000000000000000000000000000000000000000000000000081565b610199610194366004610b3b565b6103bc565b6040517fffffffff0000000000000000000000000000000000000000000000000000000090911681526020016100e2565b61011261072f565b6100d66101e0366004610af9565b60006020819052908152604090205460ff1681565b6100d6610203366004610af9565b60016020526000908152604090205460ff1681565b61014a610226366004610bd6565b61075b565b600061023f82610239610772565b906107a0565b92915050565b610258335b61025261087a565b906108a8565b60008181526020819052604090205460ff16156102a9576040517f5d35de37000000000000000000000000000000000000000000000000000000008152600481018290526024015b60405180910390fd5b60008181526020819052604080822080547fffffffffffffffffffffffffffffffffffffffffffffffffffffffffffffff001660011790555182917fbdd203dd78bf49cf79e4db0ecdf7d27adc380fb1f33beef2667a50db9d2a0e0491a250565b6103133361024a565b60008181526020819052604090205460ff1661035e576040517f6d825743000000000000000000000000000000000000000000000000000000008152600481018290526024016102a0565b60008181526020819052604080822080547fffffffffffffffffffffffffffffffffffffffffffffffffffffffffffffff001690555182917f578eab65d47cffa57066b105301289ff86bfdc0adc2a701c3356d2a6eb6a612391a250565b60007f000000000000000000000000000000000000000000000000000000000000000073ffffffffffffffffffffffffffffffffffffffff16331461046b576040517f01db090900000000000000000000000000000000000000000000000000000000815233600482015273ffffffffffffffffffffffffffffffffffffffff7f00000000000000000000000000000000000000000000000000000000000000001660248201526044016102a0565b60008080808061047d87890189610d02565b6000858152602081905260409020549499509297509095509350915060ff166104d5576040517f6d825743000000000000000000000000000000000000000000000000000000008152600481018690526024016102a0565b60008a83838c886040516020016104f0959493929190610e28565b604080517fffffffffffffffffffffffffffffffffffffffffffffffffffffffffffffffe081840301815291815281516020928301206000818152600190935291205490915060ff161561057a578a83838c886040517ff048f37a0000000000000000000000000000000000000000000000000000000081526004016102a0959493929190610ea9565b610585848783610917565b6105c5578a83838c886040517fdbf2ac7c0000000000000000000000000000000000000000000000000000000081526004016102a0959493929190610ea9565b6040517f0d6a5bbb00000000000000000000000000000000000000000000000000000000815273ffffffffffffffffffffffffffffffffffffffff7f00000000000000000000000000000000000000000000000000000000000000001690630d6a5bbb9061063b908e9087908790600401610eff565b600060405180830381600087803b15801561065557600080fd5b505af1158015610669573d6000803e3d6000fd5b50505060008281526001602081905260409182902080547fffffffffffffffffffffffffffffffffffffffffffffffffffffffffffffff001690911790555173ffffffffffffffffffffffffffffffffffffffff8d169150869088907fbf561a0ae8123352abf33f8f113e6b265c2e7fe7ba9b4d450750454bcbb7233a906106f6908f9089908990610f5c565b60405180910390a4507f4fc35859000000000000000000000000000000000000000000000000000000009b9a5050505050505050505050565b600061075661073c61087a565b5473ffffffffffffffffffffffffffffffffffffffff1690565b905090565b61076f338261076861087a565b919061092d565b50565b60008061023f60017fca9d3e17f264b0f3984e2634e94adb37fa3e6a8103f06aeae6fa59e21c769f5e610f91565b60007c01000000000000000000000000000000000000000000000000000000007fffffffff000000000000000000000000000000000000000000000000000000008316016107f05750600061023f565b7ffe003659000000000000000000000000000000000000000000000000000000007fffffffff000000000000000000000000000000000000000000000000000000008316016108415750600161023f565b507fffffffff00000000000000000000000000000000000000000000000000000000166000908152602091909152604090205460ff1690565b60008061023f60017fc9ed16f33ab3a66c84bfd83099ccb2a8845871e2e1c1928f63797152f0fd54cd610f91565b815473ffffffffffffffffffffffffffffffffffffffff828116911614610913576040517f2ef4875e00000000000000000000000000000000000000000000000000000000815273ffffffffffffffffffffffffffffffffffffffff821660048201526024016102a0565b5050565b6000826109248584610a42565b14949350505050565b825473ffffffffffffffffffffffffffffffffffffffff908116908316811461099a576040517f2ef4875e00000000000000000000000000000000000000000000000000000000815273ffffffffffffffffffffffffffffffffffffffff841660048201526024016102a0565b8173ffffffffffffffffffffffffffffffffffffffff168173ffffffffffffffffffffffffffffffffffffffff1614610a3c5783547fffffffffffffffffffffffff00000000000000000000000000000000000000001673ffffffffffffffffffffffffffffffffffffffff8381169182178655604051908316907f8be0079c531659141344cd1fd0a4f28419497f9722a3daafe3b4186f6b6457e090600090a35b50505050565b600081815b8451811015610a7d57610a7382868381518110610a6657610a66610fcb565b6020026020010151610a85565b9150600101610a47565b509392505050565b6000818310610aa1576000828152602084905260409020610ab0565b60008381526020839052604090205b9392505050565b600060208284031215610ac957600080fd5b81357fffffffff0000000000000000000000000000000000000000000000000000000081168114610ab057600080fd5b600060208284031215610b0b57600080fd5b5035919050565b803573ffffffffffffffffffffffffffffffffffffffff81168114610b3657600080fd5b919050565b600080600080600060808688031215610b5357600080fd5b610b5c86610b12565b9450610b6a60208701610b12565b935060408601359250606086013567ffffffffffffffff80821115610b8e57600080fd5b818801915088601f830112610ba257600080fd5b813581811115610bb157600080fd5b896020828501011115610bc357600080fd5b9699959850939650602001949392505050565b600060208284031215610be857600080fd5b610ab082610b12565b7f4e487b7100000000000000000000000000000000000000000000000000000000600052604160045260246000fd5b604051601f82017fffffffffffffffffffffffffffffffffffffffffffffffffffffffffffffffe016810167ffffffffffffffff81118282101715610c6757610c67610bf1565b604052919050565b600067ffffffffffffffff821115610c8957610c89610bf1565b5060051b60200190565b600082601f830112610ca457600080fd5b81356020610cb9610cb483610c6f565b610c20565b8083825260208201915060208460051b870101935086841115610cdb57600080fd5b602086015b84811015610cf75780358352918301918301610ce0565b509695505050505050565b600080600080600060a08688031215610d1a57600080fd5b853594506020808701359450604087013567ffffffffffffffff80821115610d4157600080fd5b818901915089601f830112610d5557600080fd5b8135610d63610cb482610c6f565b81815260059190911b8301840190848101908c831115610d8257600080fd5b938501935b82851015610da057843582529385019390850190610d87565b975050506060890135925080831115610db857600080fd5b610dc48a848b01610c93565b94506080890135925080831115610dda57600080fd5b5050610de888828901610c93565b9150509295509295909350565b60008151602080840160005b83811015610e1d57815187529582019590820190600101610e01565b509495945050505050565b7fffffffffffffffffffffffffffffffffffffffff0000000000000000000000008660601b1681526000610e68610e626014840188610df5565b86610df5565b938452505060208201526040019392505050565b805180835260209283019260009190808401838315610e1d57815187529582019590820190600101610e01565b73ffffffffffffffffffffffffffffffffffffffff8616815260a060208201526000610ed860a0830187610e7c565b8281036040840152610eea8187610e7c565b60608401959095525050608001529392505050565b73ffffffffffffffffffffffffffffffffffffffff84168152608060208201526000610f2e6080830185610e7c565b8281036040840152610f408185610e7c565b8381036060909401939093525050600081526020019392505050565b838152606060208201526000610f756060830185610e7c565b8281036040840152610f878185610e7c565b9695505050505050565b8181038181111561023f577f4e487b7100000000000000000000000000000000000000000000000000000000600052601160045260246000fd5b7f4e487b7100000000000000000000000000000000000000000000000000000000600052603260045260246000fdfea26469706673582212207b5e7bfa1d0e1c9e9478887e27993b3c4c6fe2136f1e4826084faf355ad9b76e64736f6c63430008160033",
  "linkReferences": {},
  "deployedLinkReferences": {}
}