{
  "_format": "hh-sol-artifact-1",
  "contractName": "ChaosKingdomResourcesClaim",
  "sourceName": "contracts/payment/ChaosKingdomResourcesClaim.sol",
  "abi": [
    {
      "inputs": [
        {
          "internalType": "contract IERC20",
          "name": "feeContract_",
          "type": "address"
        },
        {
          "internalType": "contract IERC1155Mintable",
          "name": "rewardContract_",
          "type": "address"
        },
        {
          "internalType": "contract IForwarderRegistry",
          "name": "forwarderRegistry",
          "type": "address"
        }
      ],
      "stateMutability": "nonpayable",
      "type": "constructor"
    },
    {
      "inputs": [
        {
          "internalType": "address",
          "name": "recipient",
          "type": "address"
        },
        {
          "internalType": "uint256[]",
          "name": "ids",
          "type": "uint256[]"
        },
        {
          "internalType": "uint256[]",
          "name": "values",
          "type": "uint256[]"
        },
        {
          "internalType": "uint256",
          "name": "costs",
          "type": "uint256"
        },
        {
          "internalType": "uint256",
          "name": "epochId",
          "type": "uint256"
        }
      ],
      "name": "AlreadyClaimed",
      "type": "error"
    },
    {
      "inputs": [
        {
          "internalType": "address",
          "name": "sender",
          "type": "address"
        },
        {
          "internalType": "address",
          "name": "expectedContract",
          "type": "address"
        }
      ],
      "name": "FeeContractMismatch",
      "type": "error"
    },
    {
      "inputs": [],
      "name": "IllegalInterfaceId",
      "type": "error"
    },
    {
      "inputs": [
        {
          "internalType": "address",
          "name": "newContract",
          "type": "address"
        }
      ],
      "name": "InvalidFeeContractAddress",
      "type": "error"
    },
    {
      "inputs": [
        {
          "internalType": "address",
          "name": "recipient",
          "type": "address"
        },
        {
          "internalType": "uint256[]",
          "name": "ids",
          "type": "uint256[]"
        },
        {
          "internalType": "uint256[]",
          "name": "values",
          "type": "uint256[]"
        },
        {
          "internalType": "uint256",
          "name": "costs",
          "type": "uint256"
        },
        {
          "internalType": "uint256",
          "name": "epochId",
          "type": "uint256"
        }
      ],
      "name": "InvalidProof",
      "type": "error"
    },
    {
      "inputs": [
        {
          "internalType": "bytes32",
          "name": "merkleRoot",
          "type": "bytes32"
        }
      ],
      "name": "MerkleRootAlreadyExists",
      "type": "error"
    },
    {
      "inputs": [
        {
          "internalType": "bytes32",
          "name": "merkleRoot",
          "type": "bytes32"
        }
      ],
      "name": "MerkleRootDoesNotExist",
      "type": "error"
    },
    {
      "inputs": [
        {
          "internalType": "address",
          "name": "account",
          "type": "address"
        }
      ],
      "name": "NotContractOwner",
      "type": "error"
    },
    {
      "anonymous": false,
      "inputs": [
        {
          "indexed": false,
          "internalType": "address",
          "name": "newContract",
          "type": "address"
        }
      ],
      "name": "FeeContractSet",
      "type": "event"
    },
    {
      "anonymous": false,
      "inputs": [
        {
          "indexed": false,
          "internalType": "bytes32",
          "name": "root",
          "type": "bytes32"
        }
      ],
      "name": "MerkleRootAdded",
      "type": "event"
    },
    {
      "anonymous": false,
      "inputs": [
        {
          "indexed": false,
          "internalType": "bytes32",
          "name": "root",
          "type": "bytes32"
        }
      ],
      "name": "MerkleRootDeprecated",
      "type": "event"
    },
    {
      "anonymous": false,
      "inputs": [
        {
          "indexed": true,
          "internalType": "address",
          "name": "previousOwner",
          "type": "address"
        },
        {
          "indexed": true,
          "internalType": "address",
          "name": "newOwner",
          "type": "address"
        }
      ],
      "name": "OwnershipTransferred",
      "type": "event"
    },
    {
      "anonymous": false,
      "inputs": [
        {
          "indexed": true,
          "internalType": "bytes32",
          "name": "root",
          "type": "bytes32"
        },
        {
          "indexed": false,
          "internalType": "uint256",
          "name": "epochId",
          "type": "uint256"
        },
        {
          "indexed": false,
          "internalType": "uint256",
          "name": "costs",
          "type": "uint256"
        },
        {
          "indexed": true,
          "internalType": "address",
          "name": "recipient",
          "type": "address"
        },
        {
          "indexed": false,
          "internalType": "uint256[]",
          "name": "ids",
          "type": "uint256[]"
        },
        {
          "indexed": false,
          "internalType": "uint256[]",
          "name": "values",
          "type": "uint256[]"
        }
      ],
      "name": "PayoutClaimed",
      "type": "event"
    },
    {
      "inputs": [],
      "name": "REWARD_CONTRACT",
      "outputs": [
        {
          "internalType": "contract IERC1155Mintable",
          "name": "",
          "type": "address"
        }
      ],
      "stateMutability": "view",
      "type": "function"
    },
    {
      "inputs": [
        {
          "internalType": "bytes32",
          "name": "merkleRoot",
          "type": "bytes32"
        }
      ],
      "name": "addMerkleRoot",
      "outputs": [],
      "stateMutability": "nonpayable",
      "type": "function"
    },
    {
      "inputs": [
        {
          "internalType": "bytes32",
          "name": "",
          "type": "bytes32"
        }
      ],
      "name": "claimed",
      "outputs": [
        {
          "internalType": "bool",
          "name": "",
          "type": "bool"
        }
      ],
      "stateMutability": "view",
      "type": "function"
    },
    {
      "inputs": [
        {
          "internalType": "bytes32",
          "name": "merkleRoot",
          "type": "bytes32"
        }
      ],
      "name": "deprecateMerkleRoot",
      "outputs": [],
      "stateMutability": "nonpayable",
      "type": "function"
    },
    {
      "inputs": [],
      "name": "feeContract",
      "outputs": [
        {
          "internalType": "contract IERC20",
          "name": "",
          "type": "address"
        }
      ],
      "stateMutability": "view",
      "type": "function"
    },
    {
      "inputs": [],
      "name": "forwarderRegistry",
      "outputs": [
        {
          "internalType": "contract IForwarderRegistry",
          "name": "",
          "type": "address"
        }
      ],
      "stateMutability": "view",
      "type": "function"
    },
    {
      "inputs": [
        {
          "internalType": "address",
          "name": "forwarder",
          "type": "address"
        }
      ],
      "name": "isTrustedForwarder",
      "outputs": [
        {
          "internalType": "bool",
          "name": "",
          "type": "bool"
        }
      ],
      "stateMutability": "view",
      "type": "function"
    },
    {
      "inputs": [
        {
          "internalType": "address",
          "name": "operator",
          "type": "address"
        },
        {
          "internalType": "address",
          "name": "from",
          "type": "address"
        },
        {
          "internalType": "uint256",
          "name": "value",
          "type": "uint256"
        },
        {
          "internalType": "bytes",
          "name": "data",
          "type": "bytes"
        }
      ],
      "name": "onERC20Received",
      "outputs": [
        {
          "internalType": "bytes4",
          "name": "magicValue",
          "type": "bytes4"
        }
      ],
      "stateMutability": "nonpayable",
      "type": "function"
    },
    {
      "inputs": [],
      "name": "owner",
      "outputs": [
        {
          "internalType": "address",
          "name": "",
          "type": "address"
        }
      ],
      "stateMutability": "view",
      "type": "function"
    },
    {
      "inputs": [
        {
          "internalType": "bytes32",
          "name": "",
          "type": "bytes32"
        }
      ],
      "name": "roots",
      "outputs": [
        {
          "internalType": "bool",
          "name": "",
          "type": "bool"
        }
      ],
      "stateMutability": "view",
      "type": "function"
    },
    {
      "inputs": [
        {
          "internalType": "address",
          "name": "newContract",
          "type": "address"
        }
      ],
      "name": "setFeeContract",
      "outputs": [],
      "stateMutability": "nonpayable",
      "type": "function"
    },
    {
      "inputs": [
        {
          "internalType": "bytes4",
          "name": "interfaceId",
          "type": "bytes4"
        }
      ],
      "name": "supportsInterface",
      "outputs": [
        {
          "internalType": "bool",
          "name": "",
          "type": "bool"
        }
      ],
      "stateMutability": "view",
      "type": "function"
    },
    {
      "inputs": [
        {
          "internalType": "address",
          "name": "newOwner",
          "type": "address"
        }
      ],
      "name": "transferOwnership",
      "outputs": [],
      "stateMutability": "nonpayable",
      "type": "function"
    }
  ],
  "bytecode": "0x60c06040523480156200001157600080fd5b50604051620015cf380380620015cf8339810160408190526200003491620001ef565b8080336200004d8162000046620000a0565b90620000d6565b506200006e634fc3585960e01b60016200006662000149565b919062000179565b6001600160a01b03908116608052600280546001600160a01b0319169582169590951790945550501660a05262000265565b600080620000d060017fc9ed16f33ab3a66c84bfd83099ccb2a8845871e2e1c1928f63797152f0fd54cd62000243565b92915050565b6001600160a01b038116156200012d5781546001600160a01b0319166001600160a01b03821690811783556040516000907f8be0079c531659141344cd1fd0a4f28419497f9722a3daafe3b4186f6b6457e0908290a35b620001456307f5828d60e41b60016200006662000149565b5050565b600080620000d060017fca9d3e17f264b0f3984e2634e94adb37fa3e6a8103f06aeae6fa59e21c769f5e62000243565b600160e01b6001600160e01b0319831601620001a8576040516372c683bb60e01b815260040160405180910390fd5b6001600160e01b03199190911660009081526020929092526040909120805460ff1916911515919091179055565b6001600160a01b0381168114620001ec57600080fd5b50565b6000806000606084860312156200020557600080fd5b83516200021281620001d6565b60208501519093506200022581620001d6565b60408501519092506200023881620001d6565b809150509250925092565b81810381811115620000d057634e487b7160e01b600052601160045260246000fd5b60805160a051611328620002a7600039600081816101a401526108000152600081816101530152818161022d01528181610c050152610c8d01526113286000f3fe608060405234801561001057600080fd5b50600436106100df5760003560e01c806342dbe1681161008c5780638da5cb5b116100665780638da5cb5b1461026a578063ae6dead714610272578063cc3c0f0614610295578063f2fde38b146102b857600080fd5b806342dbe168146101c65780634fc35859146101d9578063572b6c051461021d57600080fd5b80633323c807116100bd5780633323c807146101775780633572aa8d1461018c5780633a5af3391461019f57600080fd5b806301ffc9a7146100e457806306e297121461010c5780632b4c9f1614610151575b600080fd5b6100f76100f2366004610d7e565b6102cb565b60405190151581526020015b60405180910390f35b60025461012c9073ffffffffffffffffffffffffffffffffffffffff1681565b60405173ffffffffffffffffffffffffffffffffffffffff9091168152602001610103565b7f000000000000000000000000000000000000000000000000000000000000000061012c565b61018a610185366004610dc0565b6102e5565b005b61018a61019a366004610dc0565b6103c3565b61012c7f000000000000000000000000000000000000000000000000000000000000000081565b61018a6101d4366004610e02565b61047c565b6101ec6101e7366004610e1d565b61055f565b6040517fffffffff000000000000000000000000000000000000000000000000000000009091168152602001610103565b6100f761022b366004610e02565b7f000000000000000000000000000000000000000000000000000000000000000073ffffffffffffffffffffffffffffffffffffffff90811691161490565b61012c61089e565b6100f7610280366004610dc0565b60006020819052908152604090205460ff1681565b6100f76102a3366004610dc0565b60016020526000908152604090205460ff1681565b61018a6102c6366004610e02565b6108ca565b60006102df826102d96108e8565b90610916565b92915050565b6102fe6102f06109f0565b6102f86109fa565b90610a28565b60008181526020819052604090205460ff161561034f576040517f5d35de37000000000000000000000000000000000000000000000000000000008152600481018290526024015b60405180910390fd5b6000818152602081905260409081902080547fffffffffffffffffffffffffffffffffffffffffffffffffffffffffffffff00166001179055517fbdd203dd78bf49cf79e4db0ecdf7d27adc380fb1f33beef2667a50db9d2a0e04906103b89083815260200190565b60405180910390a150565b6103ce6102f06109f0565b60008181526020819052604090205460ff16610419576040517fc9c3405a00000000000000000000000000000000000000000000000000000000815260048101829052602401610346565b6000818152602081815260409182902080547fffffffffffffffffffffffffffffffffffffffffffffffffffffffffffffff0016905590518281527f578eab65d47cffa57066b105301289ff86bfdc0adc2a701c3356d2a6eb6a612391016103b8565b6104876102f06109f0565b73ffffffffffffffffffffffffffffffffffffffff81166104ec576040517f2d9d9af200000000000000000000000000000000000000000000000000000000815273ffffffffffffffffffffffffffffffffffffffff82166004820152602401610346565b600280547fffffffffffffffffffffffff00000000000000000000000000000000000000001673ffffffffffffffffffffffffffffffffffffffff83169081179091556040519081527ffbadb20c894e457e9f0deb54afeb0b69be2843d7d04f5e5b2b4cccb6dd173067906020016103b8565b60025460009073ffffffffffffffffffffffffffffffffffffffff1633146105d5576002546040517f6c50e90500000000000000000000000000000000000000000000000000000000815233600482015273ffffffffffffffffffffffffffffffffffffffff9091166024820152604401610346565b600080808080806105e8888a018a610fc9565b600086815260208190526040902054959b5093995091975095509350915060ff16610642576040517fc9c3405a00000000000000000000000000000000000000000000000000000000815260048101879052602401610346565b60008b8383878960405160200161065d9594939291906110f7565b604080517fffffffffffffffffffffffffffffffffffffffffffffffffffffffffffffffe081840301815291815281516020928301206000818152600190935291205490915060ff16156106e7578b838387896040517fb6e9ac87000000000000000000000000000000000000000000000000000000008152600401610346959493929190611178565b6106f2848883610a97565b610732578b838387896040517f90e5f085000000000000000000000000000000000000000000000000000000008152600401610346959493929190611178565b60008181526001602081905260409182902080547fffffffffffffffffffffffffffffffffffffffffffffffffffffffffffffff001690911790555173ffffffffffffffffffffffffffffffffffffffff8d169088907f371031d5fd1f8c42372e3dda99ed6c7d71a0449ca3843aadd24a74f34d220eed906107bb908a908a90899089906111ce565b60405180910390a36040517f0d6a5bbb00000000000000000000000000000000000000000000000000000000815273ffffffffffffffffffffffffffffffffffffffff7f00000000000000000000000000000000000000000000000000000000000000001690630d6a5bbb90610839908f908790879060040161120a565b600060405180830381600087803b15801561085357600080fd5b505af1158015610867573d6000803e3d6000fd5b507f4fc35859000000000000000000000000000000000000000000000000000000009a505050505050505050505095945050505050565b60006108c56108ab6109fa565b5473ffffffffffffffffffffffffffffffffffffffff1690565b905090565b6108e56108d56109f0565b826108de6109fa565b9190610aad565b50565b6000806102df60017fca9d3e17f264b0f3984e2634e94adb37fa3e6a8103f06aeae6fa59e21c769f5e611267565b60007c01000000000000000000000000000000000000000000000000000000007fffffffff00000000000000000000000000000000000000000000000000000000831601610966575060006102df565b7ffe003659000000000000000000000000000000000000000000000000000000007fffffffff000000000000000000000000000000000000000000000000000000008316016109b7575060016102df565b507fffffffff00000000000000000000000000000000000000000000000000000000166000908152602091909152604090205460ff1690565b60006108c5610bc2565b6000806102df60017fc9ed16f33ab3a66c84bfd83099ccb2a8845871e2e1c1928f63797152f0fd54cd611267565b815473ffffffffffffffffffffffffffffffffffffffff828116911614610a93576040517f2ef4875e00000000000000000000000000000000000000000000000000000000815273ffffffffffffffffffffffffffffffffffffffff82166004820152602401610346565b5050565b600082610aa48584610d09565b14949350505050565b825473ffffffffffffffffffffffffffffffffffffffff9081169083168114610b1a576040517f2ef4875e00000000000000000000000000000000000000000000000000000000815273ffffffffffffffffffffffffffffffffffffffff84166004820152602401610346565b8173ffffffffffffffffffffffffffffffffffffffff168173ffffffffffffffffffffffffffffffffffffffff1614610bbc5783547fffffffffffffffffffffffff00000000000000000000000000000000000000001673ffffffffffffffffffffffffffffffffffffffff8381169182178655604051908316907f8be0079c531659141344cd1fd0a4f28419497f9722a3daafe3b4186f6b6457e090600090a35b50505050565b600033321480610bd25750601836105b15610bdc57503390565b7fffffffffffffffffffffffffffffffffffffffffffffffffffffffffffffffec36013560601c7f000000000000000000000000000000000000000000000000000000000000000073ffffffffffffffffffffffffffffffffffffffff16331480610cf857506040517f8929a8ca00000000000000000000000000000000000000000000000000000000815273ffffffffffffffffffffffffffffffffffffffff82811660048301523360248301527f00000000000000000000000000000000000000000000000000000000000000001690638929a8ca90604401602060405180830381865afa158015610cd4573d6000803e3d6000fd5b505050506040513d601f19601f82011682018060405250810190610cf891906112a1565b15610d0257919050565b3391505090565b600081815b8451811015610d4457610d3a82868381518110610d2d57610d2d6112c3565b6020026020010151610d4c565b9150600101610d0e565b509392505050565b6000818310610d68576000828152602084905260409020610d77565b60008381526020839052604090205b9392505050565b600060208284031215610d9057600080fd5b81357fffffffff0000000000000000000000000000000000000000000000000000000081168114610d7757600080fd5b600060208284031215610dd257600080fd5b5035919050565b803573ffffffffffffffffffffffffffffffffffffffff81168114610dfd57600080fd5b919050565b600060208284031215610e1457600080fd5b610d7782610dd9565b600080600080600060808688031215610e3557600080fd5b610e3e86610dd9565b9450610e4c60208701610dd9565b935060408601359250606086013567ffffffffffffffff80821115610e7057600080fd5b818801915088601f830112610e8457600080fd5b813581811115610e9357600080fd5b896020828501011115610ea557600080fd5b9699959850939650602001949392505050565b7f4e487b7100000000000000000000000000000000000000000000000000000000600052604160045260246000fd5b604051601f82017fffffffffffffffffffffffffffffffffffffffffffffffffffffffffffffffe016810167ffffffffffffffff81118282101715610f2e57610f2e610eb8565b604052919050565b600067ffffffffffffffff821115610f5057610f50610eb8565b5060051b60200190565b600082601f830112610f6b57600080fd5b81356020610f80610f7b83610f36565b610ee7565b8083825260208201915060208460051b870101935086841115610fa257600080fd5b602086015b84811015610fbe5780358352918301918301610fa7565b509695505050505050565b60008060008060008060c08789031215610fe257600080fd5b86359550602080880135955060408801359450606088013567ffffffffffffffff8082111561101057600080fd5b818a0191508a601f83011261102457600080fd5b8135611032610f7b82610f36565b81815260059190911b8301840190848101908d83111561105157600080fd5b938501935b8285101561106f57843582529385019390850190611056565b9750505060808a013592508083111561108757600080fd5b6110938b848c01610f5a565b945060a08a01359250808311156110a957600080fd5b50506110b789828a01610f5a565b9150509295509295509295565b60008151602080840160005b838110156110ec578151875295820195908201906001016110d0565b509495945050505050565b7fffffffffffffffffffffffffffffffffffffffff0000000000000000000000008660601b168152600061113761113160148401886110c4565b866110c4565b938452505060208201526040019392505050565b8051808352602092830192600091908084018383156110ec578151875295820195908201906001016110d0565b73ffffffffffffffffffffffffffffffffffffffff8616815260a0602082015260006111a760a083018761114b565b82810360408401526111b9818761114b565b60608401959095525050608001529392505050565b8481528360208201526080604082015260006111ed608083018561114b565b82810360608401526111ff818561114b565b979650505050505050565b73ffffffffffffffffffffffffffffffffffffffff84168152608060208201526000611239608083018561114b565b828103604084015261124b818561114b565b8381036060909401939093525050600081526020019392505050565b818103818111156102df577f4e487b7100000000000000000000000000000000000000000000000000000000600052601160045260246000fd5b6000602082840312156112b357600080fd5b81518015158114610d7757600080fd5b7f4e487b7100000000000000000000000000000000000000000000000000000000600052603260045260246000fdfea26469706673582212209c31395597eef8d8c1d12a8b7c52b3a132eeff42417e7d6b4a959c4bf7c791c464736f6c63430008160033",
  "linkReferences": {},
  "deployedLinkReferences": {}
}