{
  "_format": "hh-sol-artifact-1",
  "contractName": "ChaosKingdomResourcesClaim",
  "sourceName": "contracts/payment/ChaosKingdomResourcesClaim.sol",
  "abi": [
    {
      "inputs": [
        {
          "internalType": "contract IERC20SafeTransfers",
          "name": "feeContract",
          "type": "address"
        },
        {
          "internalType": "contract IERC1155Mintable",
          "name": "rewardContract",
          "type": "address"
        },
        {
          "internalType": "contract IForwarderRegistry",
          "name": "forwarderRegistry",
          "type": "address"
        }
      ],
      "stateMutability": "nonpayable",
      "type": "constructor"
    },
    {
      "inputs": [
        {
          "internalType": "address",
          "name": "recipient",
          "type": "address"
        },
        {
          "internalType": "uint256[]",
          "name": "ids",
          "type": "uint256[]"
        },
        {
          "internalType": "uint256[]",
          "name": "values",
          "type": "uint256[]"
        },
        {
          "internalType": "uint256",
          "name": "fee",
          "type": "uint256"
        },
        {
          "internalType": "bytes32",
          "name": "epochId",
          "type": "bytes32"
        }
      ],
      "name": "AlreadyClaimed",
      "type": "error"
    },
    {
      "inputs": [
        {
          "internalType": "address",
          "name": "receivedContract",
          "type": "address"
        },
        {
          "internalType": "address",
          "name": "expectedContract",
          "type": "address"
        }
      ],
      "name": "FeeContractMismatch",
      "type": "error"
    },
    {
      "inputs": [],
      "name": "IllegalInterfaceId",
      "type": "error"
    },
    {
      "inputs": [
        {
          "internalType": "bytes32",
          "name": "merkleRoot",
          "type": "bytes32"
        }
      ],
      "name": "InvalidMerkleRoot",
      "type": "error"
    },
    {
      "inputs": [
        {
          "internalType": "address",
          "name": "recipient",
          "type": "address"
        },
        {
          "internalType": "uint256[]",
          "name": "ids",
          "type": "uint256[]"
        },
        {
          "internalType": "uint256[]",
          "name": "values",
          "type": "uint256[]"
        },
        {
          "internalType": "uint256",
          "name": "fee",
          "type": "uint256"
        },
        {
          "internalType": "bytes32",
          "name": "epochId",
          "type": "bytes32"
        }
      ],
      "name": "InvalidProof",
      "type": "error"
    },
    {
      "inputs": [
        {
          "internalType": "bytes32",
          "name": "merkleRoot",
          "type": "bytes32"
        }
      ],
      "name": "MerkleRootAlreadyExists",
      "type": "error"
    },
    {
      "inputs": [
        {
          "internalType": "address",
          "name": "account",
          "type": "address"
        }
      ],
      "name": "NotContractOwner",
      "type": "error"
    },
    {
      "anonymous": false,
      "inputs": [
        {
          "indexed": true,
          "internalType": "bytes32",
          "name": "root",
          "type": "bytes32"
        }
      ],
      "name": "MerkleRootAdded",
      "type": "event"
    },
    {
      "anonymous": false,
      "inputs": [
        {
          "indexed": true,
          "internalType": "bytes32",
          "name": "root",
          "type": "bytes32"
        }
      ],
      "name": "MerkleRootDeprecated",
      "type": "event"
    },
    {
      "anonymous": false,
      "inputs": [
        {
          "indexed": true,
          "internalType": "address",
          "name": "previousOwner",
          "type": "address"
        },
        {
          "indexed": true,
          "internalType": "address",
          "name": "newOwner",
          "type": "address"
        }
      ],
      "name": "OwnershipTransferred",
      "type": "event"
    },
    {
      "anonymous": false,
      "inputs": [
        {
          "indexed": true,
          "internalType": "bytes32",
          "name": "root",
          "type": "bytes32"
        },
        {
          "indexed": true,
          "internalType": "bytes32",
          "name": "epochId",
          "type": "bytes32"
        },
        {
          "indexed": false,
          "internalType": "uint256",
          "name": "fee",
          "type": "uint256"
        },
        {
          "indexed": true,
          "internalType": "address",
          "name": "recipient",
          "type": "address"
        },
        {
          "indexed": false,
          "internalType": "uint256[]",
          "name": "ids",
          "type": "uint256[]"
        },
        {
          "indexed": false,
          "internalType": "uint256[]",
          "name": "values",
          "type": "uint256[]"
        }
      ],
      "name": "PayoutClaimed",
      "type": "event"
    },
    {
      "inputs": [],
      "name": "FEE_CONTRACT",
      "outputs": [
        {
          "internalType": "contract IERC20SafeTransfers",
          "name": "",
          "type": "address"
        }
      ],
      "stateMutability": "view",
      "type": "function"
    },
    {
      "inputs": [],
      "name": "REWARD_CONTRACT",
      "outputs": [
        {
          "internalType": "contract IERC1155Mintable",
          "name": "",
          "type": "address"
        }
      ],
      "stateMutability": "view",
      "type": "function"
    },
    {
      "inputs": [
        {
          "internalType": "bytes32",
          "name": "merkleRoot",
          "type": "bytes32"
        }
      ],
      "name": "addMerkleRoot",
      "outputs": [],
      "stateMutability": "nonpayable",
      "type": "function"
    },
    {
      "inputs": [
        {
          "internalType": "address",
          "name": "recipient",
          "type": "address"
        },
        {
          "internalType": "bytes32",
          "name": "merkleRoot",
          "type": "bytes32"
        },
        {
          "internalType": "bytes32",
          "name": "epochId",
          "type": "bytes32"
        },
        {
          "internalType": "bytes32[]",
          "name": "proof",
          "type": "bytes32[]"
        },
        {
          "internalType": "uint256[]",
          "name": "ids",
          "type": "uint256[]"
        },
        {
          "internalType": "uint256[]",
          "name": "values",
          "type": "uint256[]"
        },
        {
          "internalType": "uint256",
          "name": "fee",
          "type": "uint256"
        }
      ],
      "name": "claim",
      "outputs": [],
      "stateMutability": "nonpayable",
      "type": "function"
    },
    {
      "inputs": [
        {
          "internalType": "bytes32",
          "name": "",
          "type": "bytes32"
        }
      ],
      "name": "claimed",
      "outputs": [
        {
          "internalType": "bool",
          "name": "",
          "type": "bool"
        }
      ],
      "stateMutability": "view",
      "type": "function"
    },
    {
      "inputs": [
        {
          "internalType": "bytes32",
          "name": "merkleRoot",
          "type": "bytes32"
        }
      ],
      "name": "deprecateMerkleRoot",
      "outputs": [],
      "stateMutability": "nonpayable",
      "type": "function"
    },
    {
      "inputs": [],
      "name": "forwarderRegistry",
      "outputs": [
        {
          "internalType": "contract IForwarderRegistry",
          "name": "",
          "type": "address"
        }
      ],
      "stateMutability": "view",
      "type": "function"
    },
    {
      "inputs": [
        {
          "internalType": "address",
          "name": "forwarder",
          "type": "address"
        }
      ],
      "name": "isTrustedForwarder",
      "outputs": [
        {
          "internalType": "bool",
          "name": "",
          "type": "bool"
        }
      ],
      "stateMutability": "view",
      "type": "function"
    },
    {
      "inputs": [
        {
          "internalType": "address",
          "name": "operator",
          "type": "address"
        },
        {
          "internalType": "address",
          "name": "from",
          "type": "address"
        },
        {
          "internalType": "uint256",
          "name": "value",
          "type": "uint256"
        },
        {
          "internalType": "bytes",
          "name": "data",
          "type": "bytes"
        }
      ],
      "name": "onERC20Received",
      "outputs": [
        {
          "internalType": "bytes4",
          "name": "magicValue",
          "type": "bytes4"
        }
      ],
      "stateMutability": "nonpayable",
      "type": "function"
    },
    {
      "inputs": [],
      "name": "owner",
      "outputs": [
        {
          "internalType": "address",
          "name": "",
          "type": "address"
        }
      ],
      "stateMutability": "view",
      "type": "function"
    },
    {
      "inputs": [
        {
          "internalType": "bytes32",
          "name": "",
          "type": "bytes32"
        }
      ],
      "name": "roots",
      "outputs": [
        {
          "internalType": "bool",
          "name": "",
          "type": "bool"
        }
      ],
      "stateMutability": "view",
      "type": "function"
    },
    {
      "inputs": [
        {
          "internalType": "bytes4",
          "name": "interfaceId",
          "type": "bytes4"
        }
      ],
      "name": "supportsInterface",
      "outputs": [
        {
          "internalType": "bool",
          "name": "",
          "type": "bool"
        }
      ],
      "stateMutability": "view",
      "type": "function"
    },
    {
      "inputs": [
        {
          "internalType": "address",
          "name": "newOwner",
          "type": "address"
        }
      ],
      "name": "transferOwnership",
      "outputs": [],
      "stateMutability": "nonpayable",
      "type": "function"
    }
  ],
  "bytecode": "0x60e06040523480156200001157600080fd5b506040516200187b3803806200187b8339810160408190526200003491620001dd565b8080336200004d81620000466200008e565b90620000c4565b506200006e634fc3585960e01b60016200006662000137565b919062000167565b6001600160a01b0390811660805293841660c05250501660a05262000253565b600080620000be60017fc9ed16f33ab3a66c84bfd83099ccb2a8845871e2e1c1928f63797152f0fd54cd62000231565b92915050565b6001600160a01b038116156200011b5781546001600160a01b0319166001600160a01b03821690811783556040516000907f8be0079c531659141344cd1fd0a4f28419497f9722a3daafe3b4186f6b6457e0908290a35b620001336307f5828d60e41b60016200006662000137565b5050565b600080620000be60017fca9d3e17f264b0f3984e2634e94adb37fa3e6a8103f06aeae6fa59e21c769f5e62000231565b600160e01b6001600160e01b031983160162000196576040516372c683bb60e01b815260040160405180910390fd5b6001600160e01b03199190911660009081526020929092526040909120805460ff1916911515919091179055565b6001600160a01b0381168114620001da57600080fd5b50565b600080600060608486031215620001f357600080fd5b83516200020081620001c4565b60208501519093506200021381620001c4565b60408501519092506200022681620001c4565b809150509250925092565b81810381811115620000be57634e487b7160e01b600052601160045260246000fd5b60805160a05160c0516115c7620002b4600039600081816101110152818161046f015281816104ed01526108960152600081816101ab01526106b101526000818161015a0152818161022101528181610c5d0152610ce501526115c76000f3fe608060405234801561001057600080fd5b50600436106100df5760003560e01c80634fc358591161008c578063ae6dead711610066578063ae6dead714610266578063cc3c0f0614610289578063d7f176e0146102ac578063f2fde38b146102bf57600080fd5b80634fc35859146101cd578063572b6c05146102115780638da5cb5b1461025e57600080fd5b80633323c807116100bd5780633323c8071461017e5780633572aa8d146101935780633a5af339146101a657600080fd5b806301ffc9a7146100e45780631352acac1461010c5780632b4c9f1614610158575b600080fd5b6100f76100f2366004610dd6565b6102d2565b60405190151581526020015b60405180910390f35b6101337f000000000000000000000000000000000000000000000000000000000000000081565b60405173ffffffffffffffffffffffffffffffffffffffff9091168152602001610103565b7f0000000000000000000000000000000000000000000000000000000000000000610133565b61019161018c366004610e18565b6102ec565b005b6101916101a1366004610e18565b6103b7565b6101337f000000000000000000000000000000000000000000000000000000000000000081565b6101e06101db366004610e5a565b61046b565b6040517fffffffff000000000000000000000000000000000000000000000000000000009091168152602001610103565b6100f761021f366004610ef5565b7f000000000000000000000000000000000000000000000000000000000000000073ffffffffffffffffffffffffffffffffffffffff90811691161490565b6101336107de565b6100f7610274366004610e18565b60006020819052908152604090205460ff1681565b6100f7610297366004610e18565b60016020526000908152604090205460ff1681565b6101916102ba366004610f5c565b61080a565b6101916102cd366004610ef5565b610922565b60006102e6826102e0610940565b9061096e565b92915050565b6103056102f7610a48565b6102ff610a52565b90610a80565b60008181526020819052604090205460ff1615610356576040517f5d35de37000000000000000000000000000000000000000000000000000000008152600481018290526024015b60405180910390fd5b60008181526020819052604080822080547fffffffffffffffffffffffffffffffffffffffffffffffffffffffffffffff001660011790555182917fbdd203dd78bf49cf79e4db0ecdf7d27adc380fb1f33beef2667a50db9d2a0e0491a250565b6103c26102f7610a48565b60008181526020819052604090205460ff1661040d576040517f6d8257430000000000000000000000000000000000000000000000000000000081526004810182905260240161034d565b60008181526020819052604080822080547fffffffffffffffffffffffffffffffffffffffffffffffffffffffffffffff001690555182917f578eab65d47cffa57066b105301289ff86bfdc0adc2a701c3356d2a6eb6a612391a250565b60007f000000000000000000000000000000000000000000000000000000000000000073ffffffffffffffffffffffffffffffffffffffff16331461051a576040517f6c50e90500000000000000000000000000000000000000000000000000000000815233600482015273ffffffffffffffffffffffffffffffffffffffff7f000000000000000000000000000000000000000000000000000000000000000016602482015260440161034d565b60008080808061052c87890189611137565b6000858152602081905260409020549499509297509095509350915060ff16610584576040517f6d8257430000000000000000000000000000000000000000000000000000000081526004810186905260240161034d565b60008a83838c8860405160200161059f95949392919061125d565b604080517fffffffffffffffffffffffffffffffffffffffffffffffffffffffffffffffe081840301815291815281516020928301206000818152600190935291205490915060ff1615610629578a83838c886040517ff048f37a00000000000000000000000000000000000000000000000000000000815260040161034d9594939291906112de565b610634848783610aef565b610674578a83838c886040517fdbf2ac7c00000000000000000000000000000000000000000000000000000000815260040161034d9594939291906112de565b6040517f0d6a5bbb00000000000000000000000000000000000000000000000000000000815273ffffffffffffffffffffffffffffffffffffffff7f00000000000000000000000000000000000000000000000000000000000000001690630d6a5bbb906106ea908e9087908790600401611334565b600060405180830381600087803b15801561070457600080fd5b505af1158015610718573d6000803e3d6000fd5b50505060008281526001602081905260409182902080547fffffffffffffffffffffffffffffffffffffffffffffffffffffffffffffff001690911790555173ffffffffffffffffffffffffffffffffffffffff8d169150869088907fbf561a0ae8123352abf33f8f113e6b265c2e7fe7ba9b4d450750454bcbb7233a906107a5908f9089908990611391565b60405180910390a4507f4fc35859000000000000000000000000000000000000000000000000000000009b9a5050505050505050505050565b60006108056107eb610a52565b5473ffffffffffffffffffffffffffffffffffffffff1690565b905090565b6000898989898989898960405160200161082b989796959493929190611411565b604080517fffffffffffffffffffffffffffffffffffffffffffffffffffffffffffffffe0818403018152908290527fb88d4fde000000000000000000000000000000000000000000000000000000008252915073ffffffffffffffffffffffffffffffffffffffff7f0000000000000000000000000000000000000000000000000000000000000000169063b88d4fde906108d1908e90309087908790600401611468565b6020604051808303816000875af11580156108f0573d6000803e3d6000fd5b505050506040513d601f19601f820116820180604052508101906109149190611506565b505050505050505050505050565b61093d61092d610a48565b82610936610a52565b9190610b05565b50565b6000806102e660017fca9d3e17f264b0f3984e2634e94adb37fa3e6a8103f06aeae6fa59e21c769f5e611528565b60007c01000000000000000000000000000000000000000000000000000000007fffffffff000000000000000000000000000000000000000000000000000000008316016109be575060006102e6565b7ffe003659000000000000000000000000000000000000000000000000000000007fffffffff00000000000000000000000000000000000000000000000000000000831601610a0f575060016102e6565b507fffffffff00000000000000000000000000000000000000000000000000000000166000908152602091909152604090205460ff1690565b6000610805610c1a565b6000806102e660017fc9ed16f33ab3a66c84bfd83099ccb2a8845871e2e1c1928f63797152f0fd54cd611528565b815473ffffffffffffffffffffffffffffffffffffffff828116911614610aeb576040517f2ef4875e00000000000000000000000000000000000000000000000000000000815273ffffffffffffffffffffffffffffffffffffffff8216600482015260240161034d565b5050565b600082610afc8584610d61565b14949350505050565b825473ffffffffffffffffffffffffffffffffffffffff9081169083168114610b72576040517f2ef4875e00000000000000000000000000000000000000000000000000000000815273ffffffffffffffffffffffffffffffffffffffff8416600482015260240161034d565b8173ffffffffffffffffffffffffffffffffffffffff168173ffffffffffffffffffffffffffffffffffffffff1614610c145783547fffffffffffffffffffffffff00000000000000000000000000000000000000001673ffffffffffffffffffffffffffffffffffffffff8381169182178655604051908316907f8be0079c531659141344cd1fd0a4f28419497f9722a3daafe3b4186f6b6457e090600090a35b50505050565b600033321480610c2a5750601836105b15610c3457503390565b7fffffffffffffffffffffffffffffffffffffffffffffffffffffffffffffffec36013560601c7f000000000000000000000000000000000000000000000000000000000000000073ffffffffffffffffffffffffffffffffffffffff16331480610d5057506040517f8929a8ca00000000000000000000000000000000000000000000000000000000815273ffffffffffffffffffffffffffffffffffffffff82811660048301523360248301527f00000000000000000000000000000000000000000000000000000000000000001690638929a8ca90604401602060405180830381865afa158015610d2c573d6000803e3d6000fd5b505050506040513d601f19601f82011682018060405250810190610d509190611506565b15610d5a57919050565b3391505090565b600081815b8451811015610d9c57610d9282868381518110610d8557610d85611562565b6020026020010151610da4565b9150600101610d66565b509392505050565b6000818310610dc0576000828152602084905260409020610dcf565b60008381526020839052604090205b9392505050565b600060208284031215610de857600080fd5b81357fffffffff0000000000000000000000000000000000000000000000000000000081168114610dcf57600080fd5b600060208284031215610e2a57600080fd5b5035919050565b803573ffffffffffffffffffffffffffffffffffffffff81168114610e5557600080fd5b919050565b600080600080600060808688031215610e7257600080fd5b610e7b86610e31565b9450610e8960208701610e31565b935060408601359250606086013567ffffffffffffffff80821115610ead57600080fd5b818801915088601f830112610ec157600080fd5b813581811115610ed057600080fd5b896020828501011115610ee257600080fd5b9699959850939650602001949392505050565b600060208284031215610f0757600080fd5b610dcf82610e31565b60008083601f840112610f2257600080fd5b50813567ffffffffffffffff811115610f3a57600080fd5b6020830191508360208260051b8501011115610f5557600080fd5b9250929050565b60008060008060008060008060008060e08b8d031215610f7b57600080fd5b610f848b610e31565b995060208b0135985060408b0135975060608b013567ffffffffffffffff80821115610faf57600080fd5b610fbb8e838f01610f10565b909950975060808d0135915080821115610fd457600080fd5b610fe08e838f01610f10565b909750955060a08d0135915080821115610ff957600080fd5b506110068d828e01610f10565b9150809450508092505060c08b013590509295989b9194979a5092959850565b7f4e487b7100000000000000000000000000000000000000000000000000000000600052604160045260246000fd5b604051601f82017fffffffffffffffffffffffffffffffffffffffffffffffffffffffffffffffe016810167ffffffffffffffff8111828210171561109c5761109c611026565b604052919050565b600067ffffffffffffffff8211156110be576110be611026565b5060051b60200190565b600082601f8301126110d957600080fd5b813560206110ee6110e9836110a4565b611055565b8083825260208201915060208460051b87010193508684111561111057600080fd5b602086015b8481101561112c5780358352918301918301611115565b509695505050505050565b600080600080600060a0868803121561114f57600080fd5b853594506020808701359450604087013567ffffffffffffffff8082111561117657600080fd5b818901915089601f83011261118a57600080fd5b81356111986110e9826110a4565b81815260059190911b8301840190848101908c8311156111b757600080fd5b938501935b828510156111d5578435825293850193908501906111bc565b9750505060608901359250808311156111ed57600080fd5b6111f98a848b016110c8565b9450608089013592508083111561120f57600080fd5b505061121d888289016110c8565b9150509295509295909350565b60008151602080840160005b8381101561125257815187529582019590820190600101611236565b509495945050505050565b7fffffffffffffffffffffffffffffffffffffffff0000000000000000000000008660601b168152600061129d611297601484018861122a565b8661122a565b938452505060208201526040019392505050565b80518083526020928301926000919080840183831561125257815187529582019590820190600101611236565b73ffffffffffffffffffffffffffffffffffffffff8616815260a06020820152600061130d60a08301876112b1565b828103604084015261131f81876112b1565b60608401959095525050608001529392505050565b73ffffffffffffffffffffffffffffffffffffffff8416815260806020820152600061136360808301856112b1565b828103604084015261137581856112b1565b8381036060909401939093525050600081526020019392505050565b8381526060602082015260006113aa60608301856112b1565b82810360408401526113bc81856112b1565b9695505050505050565b81835260007f07ffffffffffffffffffffffffffffffffffffffffffffffffffffffffffffff8311156113f857600080fd5b8260051b80836020870137939093016020019392505050565b88815287602082015260a06040820152600061143160a08301888a6113c6565b82810360608401526114448187896113c6565b905082810360808401526114598185876113c6565b9b9a5050505050505050505050565b600073ffffffffffffffffffffffffffffffffffffffff808716835260208187166020850152856040850152608060608501528451915081608085015260005b828110156114c45785810182015185820160a0015281016114a8565b5050600060a0828501015260a07fffffffffffffffffffffffffffffffffffffffffffffffffffffffffffffffe0601f83011684010191505095945050505050565b60006020828403121561151857600080fd5b81518015158114610dcf57600080fd5b818103818111156102e6577f4e487b7100000000000000000000000000000000000000000000000000000000600052601160045260246000fd5b7f4e487b7100000000000000000000000000000000000000000000000000000000600052603260045260246000fdfea2646970667358221220694857ce467669380417f6d4f98992fb270b70d068ebec08679c8f5b06dc492064736f6c63430008160033",
  "linkReferences": {},
  "deployedLinkReferences": {}
}