{
  "_format": "hh-sol-artifact-1",
  "contractName": "ChaosKingdomResourcesClaim",
  "sourceName": "contracts/payment/ChaosKingdomResourcesClaim.sol",
  "abi": [
    {
      "inputs": [
        {
          "internalType": "contract IERC20",
          "name": "feeContract",
          "type": "address"
        },
        {
          "internalType": "contract IERC1155Mintable",
          "name": "rewardContract",
          "type": "address"
        },
        {
          "internalType": "contract IForwarderRegistry",
          "name": "forwarderRegistry",
          "type": "address"
        }
      ],
      "stateMutability": "nonpayable",
      "type": "constructor"
    },
    {
      "inputs": [
        {
          "internalType": "address",
          "name": "recipient",
          "type": "address"
        },
        {
          "internalType": "uint256[]",
          "name": "ids",
          "type": "uint256[]"
        },
        {
          "internalType": "uint256[]",
          "name": "values",
          "type": "uint256[]"
        },
        {
          "internalType": "uint256",
          "name": "fee",
          "type": "uint256"
        },
        {
          "internalType": "bytes32",
          "name": "epochId",
          "type": "bytes32"
        }
      ],
      "name": "AlreadyClaimed",
      "type": "error"
    },
    {
      "inputs": [
        {
          "internalType": "address",
          "name": "sender",
          "type": "address"
        },
        {
          "internalType": "address",
          "name": "expectedContract",
          "type": "address"
        }
      ],
      "name": "FeeContractMismatch",
      "type": "error"
    },
    {
      "inputs": [],
      "name": "IllegalInterfaceId",
      "type": "error"
    },
    {
      "inputs": [
        {
          "internalType": "bytes32",
          "name": "merkleRoot",
          "type": "bytes32"
        }
      ],
      "name": "InvalidMerkleRoot",
      "type": "error"
    },
    {
      "inputs": [
        {
          "internalType": "address",
          "name": "recipient",
          "type": "address"
        },
        {
          "internalType": "uint256[]",
          "name": "ids",
          "type": "uint256[]"
        },
        {
          "internalType": "uint256[]",
          "name": "values",
          "type": "uint256[]"
        },
        {
          "internalType": "uint256",
          "name": "fee",
          "type": "uint256"
        },
        {
          "internalType": "bytes32",
          "name": "epochId",
          "type": "bytes32"
        }
      ],
      "name": "InvalidProof",
      "type": "error"
    },
    {
      "inputs": [
        {
          "internalType": "bytes32",
          "name": "merkleRoot",
          "type": "bytes32"
        }
      ],
      "name": "MerkleRootAlreadyExists",
      "type": "error"
    },
    {
      "inputs": [
        {
          "internalType": "address",
          "name": "account",
          "type": "address"
        }
      ],
      "name": "NotContractOwner",
      "type": "error"
    },
    {
      "anonymous": false,
      "inputs": [
        {
          "indexed": true,
          "internalType": "bytes32",
          "name": "root",
          "type": "bytes32"
        }
      ],
      "name": "MerkleRootAdded",
      "type": "event"
    },
    {
      "anonymous": false,
      "inputs": [
        {
          "indexed": true,
          "internalType": "bytes32",
          "name": "root",
          "type": "bytes32"
        }
      ],
      "name": "MerkleRootDeprecated",
      "type": "event"
    },
    {
      "anonymous": false,
      "inputs": [
        {
          "indexed": true,
          "internalType": "address",
          "name": "previousOwner",
          "type": "address"
        },
        {
          "indexed": true,
          "internalType": "address",
          "name": "newOwner",
          "type": "address"
        }
      ],
      "name": "OwnershipTransferred",
      "type": "event"
    },
    {
      "anonymous": false,
      "inputs": [
        {
          "indexed": true,
          "internalType": "bytes32",
          "name": "root",
          "type": "bytes32"
        },
        {
          "indexed": true,
          "internalType": "bytes32",
          "name": "epochId",
          "type": "bytes32"
        },
        {
          "indexed": false,
          "internalType": "uint256",
          "name": "fee",
          "type": "uint256"
        },
        {
          "indexed": true,
          "internalType": "address",
          "name": "recipient",
          "type": "address"
        },
        {
          "indexed": false,
          "internalType": "uint256[]",
          "name": "ids",
          "type": "uint256[]"
        },
        {
          "indexed": false,
          "internalType": "uint256[]",
          "name": "values",
          "type": "uint256[]"
        }
      ],
      "name": "PayoutClaimed",
      "type": "event"
    },
    {
      "inputs": [],
      "name": "FEE_CONTRACT",
      "outputs": [
        {
          "internalType": "contract IERC20",
          "name": "",
          "type": "address"
        }
      ],
      "stateMutability": "view",
      "type": "function"
    },
    {
      "inputs": [],
      "name": "REWARD_CONTRACT",
      "outputs": [
        {
          "internalType": "contract IERC1155Mintable",
          "name": "",
          "type": "address"
        }
      ],
      "stateMutability": "view",
      "type": "function"
    },
    {
      "inputs": [
        {
          "internalType": "bytes32",
          "name": "merkleRoot",
          "type": "bytes32"
        }
      ],
      "name": "addMerkleRoot",
      "outputs": [],
      "stateMutability": "nonpayable",
      "type": "function"
    },
    {
      "inputs": [
        {
          "internalType": "address",
          "name": "recipient",
          "type": "address"
        },
        {
          "internalType": "bytes",
          "name": "claimData",
          "type": "bytes"
        },
        {
          "internalType": "uint256",
          "name": "fee",
          "type": "uint256"
        }
      ],
      "name": "claim",
      "outputs": [],
      "stateMutability": "nonpayable",
      "type": "function"
    },
    {
      "inputs": [
        {
          "internalType": "bytes32",
          "name": "",
          "type": "bytes32"
        }
      ],
      "name": "claimed",
      "outputs": [
        {
          "internalType": "bool",
          "name": "",
          "type": "bool"
        }
      ],
      "stateMutability": "view",
      "type": "function"
    },
    {
      "inputs": [
        {
          "internalType": "bytes32",
          "name": "merkleRoot",
          "type": "bytes32"
        }
      ],
      "name": "deprecateMerkleRoot",
      "outputs": [],
      "stateMutability": "nonpayable",
      "type": "function"
    },
    {
      "inputs": [],
      "name": "forwarderRegistry",
      "outputs": [
        {
          "internalType": "contract IForwarderRegistry",
          "name": "",
          "type": "address"
        }
      ],
      "stateMutability": "view",
      "type": "function"
    },
    {
      "inputs": [
        {
          "internalType": "address",
          "name": "forwarder",
          "type": "address"
        }
      ],
      "name": "isTrustedForwarder",
      "outputs": [
        {
          "internalType": "bool",
          "name": "",
          "type": "bool"
        }
      ],
      "stateMutability": "view",
      "type": "function"
    },
    {
      "inputs": [
        {
          "internalType": "address",
          "name": "operator",
          "type": "address"
        },
        {
          "internalType": "address",
          "name": "from",
          "type": "address"
        },
        {
          "internalType": "uint256",
          "name": "value",
          "type": "uint256"
        },
        {
          "internalType": "bytes",
          "name": "data",
          "type": "bytes"
        }
      ],
      "name": "onERC20Received",
      "outputs": [
        {
          "internalType": "bytes4",
          "name": "magicValue",
          "type": "bytes4"
        }
      ],
      "stateMutability": "nonpayable",
      "type": "function"
    },
    {
      "inputs": [],
      "name": "owner",
      "outputs": [
        {
          "internalType": "address",
          "name": "",
          "type": "address"
        }
      ],
      "stateMutability": "view",
      "type": "function"
    },
    {
      "inputs": [
        {
          "internalType": "bytes32",
          "name": "",
          "type": "bytes32"
        }
      ],
      "name": "roots",
      "outputs": [
        {
          "internalType": "bool",
          "name": "",
          "type": "bool"
        }
      ],
      "stateMutability": "view",
      "type": "function"
    },
    {
      "inputs": [
        {
          "internalType": "bytes4",
          "name": "interfaceId",
          "type": "bytes4"
        }
      ],
      "name": "supportsInterface",
      "outputs": [
        {
          "internalType": "bool",
          "name": "",
          "type": "bool"
        }
      ],
      "stateMutability": "view",
      "type": "function"
    },
    {
      "inputs": [
        {
          "internalType": "address",
          "name": "newOwner",
          "type": "address"
        }
      ],
      "name": "transferOwnership",
      "outputs": [],
      "stateMutability": "nonpayable",
      "type": "function"
    }
  ],
  "bytecode": "0x60e06040523480156200001157600080fd5b5060405162001739380380620017398339810160408190526200003491620001dd565b8080336200004d81620000466200008e565b90620000c4565b506200006e634fc3585960e01b60016200006662000137565b919062000167565b6001600160a01b0390811660805293841660c05250501660a05262000253565b600080620000be60017fc9ed16f33ab3a66c84bfd83099ccb2a8845871e2e1c1928f63797152f0fd54cd62000231565b92915050565b6001600160a01b038116156200011b5781546001600160a01b0319166001600160a01b03821690811783556040516000907f8be0079c531659141344cd1fd0a4f28419497f9722a3daafe3b4186f6b6457e0908290a35b620001336307f5828d60e41b60016200006662000137565b5050565b600080620000be60017fca9d3e17f264b0f3984e2634e94adb37fa3e6a8103f06aeae6fa59e21c769f5e62000231565b600160e01b6001600160e01b031983160162000196576040516372c683bb60e01b815260040160405180910390fd5b6001600160e01b03199190911660009081526020929092526040909120805460ff1916911515919091179055565b6001600160a01b0381168114620001da57600080fd5b50565b600080600060608486031215620001f357600080fd5b83516200020081620001c4565b60208501519093506200021381620001c4565b60408501519092506200022681620001c4565b809150509250925092565b81810381811115620000be57634e487b7160e01b600052601160045260246000fd5b60805160a05160c05161147e620002bb600039600081816101110152818161046f015281816104ed015261066c0152600081816101ab0152818161056c015261071901526000818161015a0152818161022101528181610cdc0152610d64015261147e6000f3fe608060405234801561001057600080fd5b50600436106100df5760003560e01c80634fc358591161008c5780638da5cb5b116100665780638da5cb5b14610271578063ae6dead714610279578063cc3c0f061461029c578063f2fde38b146102bf57600080fd5b80634fc35859146101cd578063572b6c05146102115780638bd8d0a91461025e57600080fd5b80633323c807116100bd5780633323c8071461017e5780633572aa8d146101935780633a5af339146101a657600080fd5b806301ffc9a7146100e45780631352acac1461010c5780632b4c9f1614610158575b600080fd5b6100f76100f2366004610e6b565b6102d2565b60405190151581526020015b60405180910390f35b6101337f000000000000000000000000000000000000000000000000000000000000000081565b60405173ffffffffffffffffffffffffffffffffffffffff9091168152602001610103565b7f0000000000000000000000000000000000000000000000000000000000000000610133565b61019161018c366004610ead565b6102ec565b005b6101916101a1366004610ead565b6103b7565b6101337f000000000000000000000000000000000000000000000000000000000000000081565b6101e06101db366004610f38565b61046b565b6040517fffffffff000000000000000000000000000000000000000000000000000000009091168152602001610103565b6100f761021f366004610fa7565b7f000000000000000000000000000000000000000000000000000000000000000073ffffffffffffffffffffffffffffffffffffffff90811691161490565b61019161026c366004610fc2565b610605565b61013361078c565b6100f7610287366004610ead565b60006020819052908152604090205460ff1681565b6100f76102aa366004610ead565b60016020526000908152604090205460ff1681565b6101916102cd366004610fa7565b6107b8565b60006102e6826102e06107d6565b90610804565b92915050565b6103056102f76108de565b6102ff6108e8565b90610916565b60008181526020819052604090205460ff1615610356576040517f5d35de37000000000000000000000000000000000000000000000000000000008152600481018290526024015b60405180910390fd5b60008181526020819052604080822080547fffffffffffffffffffffffffffffffffffffffffffffffffffffffffffffff001660011790555182917fbdd203dd78bf49cf79e4db0ecdf7d27adc380fb1f33beef2667a50db9d2a0e0491a250565b6103c26102f76108de565b60008181526020819052604090205460ff1661040d576040517f6d8257430000000000000000000000000000000000000000000000000000000081526004810182905260240161034d565b60008181526020819052604080822080547fffffffffffffffffffffffffffffffffffffffffffffffffffffffffffffff001690555182917f578eab65d47cffa57066b105301289ff86bfdc0adc2a701c3356d2a6eb6a612391a250565b60007f000000000000000000000000000000000000000000000000000000000000000073ffffffffffffffffffffffffffffffffffffffff16331461051a576040517f6c50e90500000000000000000000000000000000000000000000000000000000815233600482015273ffffffffffffffffffffffffffffffffffffffff7f000000000000000000000000000000000000000000000000000000000000000016602482015260440161034d565b8360008061052a88878786610985565b6040517f0d6a5bbb000000000000000000000000000000000000000000000000000000008152919350915073ffffffffffffffffffffffffffffffffffffffff7f00000000000000000000000000000000000000000000000000000000000000001690630d6a5bbb906105a5908b9086908690600401611058565b600060405180830381600087803b1580156105bf57600080fd5b505af11580156105d3573d6000803e3d6000fd5b507f4fc35859000000000000000000000000000000000000000000000000000000009c9b505050505050505050505050565b60008061061486868686610985565b6040517f23b872dd00000000000000000000000000000000000000000000000000000000815273ffffffffffffffffffffffffffffffffffffffff8981166004830152306024830152604482018790529294509092507f0000000000000000000000000000000000000000000000000000000000000000909116906323b872dd906064016020604051808303816000875af11580156106b7573d6000803e3d6000fd5b505050506040513d601f19601f820116820180604052508101906106db91906110b5565b506040517f0d6a5bbb00000000000000000000000000000000000000000000000000000000815273ffffffffffffffffffffffffffffffffffffffff7f00000000000000000000000000000000000000000000000000000000000000001690630d6a5bbb9061075290899086908690600401611058565b600060405180830381600087803b15801561076c57600080fd5b505af1158015610780573d6000803e3d6000fd5b50505050505050505050565b60006107b36107996108e8565b5473ffffffffffffffffffffffffffffffffffffffff1690565b905090565b6107d36107c36108de565b826107cc6108e8565b9190610b84565b50565b6000806102e660017fca9d3e17f264b0f3984e2634e94adb37fa3e6a8103f06aeae6fa59e21c769f5e6110d7565b60007c01000000000000000000000000000000000000000000000000000000007fffffffff00000000000000000000000000000000000000000000000000000000831601610854575060006102e6565b7ffe003659000000000000000000000000000000000000000000000000000000007fffffffff000000000000000000000000000000000000000000000000000000008316016108a5575060016102e6565b507fffffffff00000000000000000000000000000000000000000000000000000000166000908152602091909152604090205460ff1690565b60006107b3610c99565b6000806102e660017fc9ed16f33ab3a66c84bfd83099ccb2a8845871e2e1c1928f63797152f0fd54cd6110d7565b815473ffffffffffffffffffffffffffffffffffffffff828116911614610981576040517f2ef4875e00000000000000000000000000000000000000000000000000000000815273ffffffffffffffffffffffffffffffffffffffff8216600482015260240161034d565b5050565b60608060008080808061099a898b018b611222565b6000858152602081905260409020549499509297509095509350915060ff166109f2576040517f6d8257430000000000000000000000000000000000000000000000000000000081526004810186905260240161034d565b60008b83838b88604051602001610a0d95949392919061133a565b604080517fffffffffffffffffffffffffffffffffffffffffffffffffffffffffffffffe081840301815291815281516020928301206000818152600190935291205490915060ff1615610a97578b83838b886040517ff048f37a00000000000000000000000000000000000000000000000000000000815260040161034d95949392919061138e565b610aa2848783610de0565b610ae2578b83838b886040517fdbf2ac7c00000000000000000000000000000000000000000000000000000000815260040161034d95949392919061138e565b60008181526001602081905260409182902080547fffffffffffffffffffffffffffffffffffffffffffffffffffffffffffffff001690911790555173ffffffffffffffffffffffffffffffffffffffff8d1690869088907fbf561a0ae8123352abf33f8f113e6b265c2e7fe7ba9b4d450750454bcbb7233a90610b6b908e90899089906113e4565b60405180910390a450909a909950975050505050505050565b825473ffffffffffffffffffffffffffffffffffffffff9081169083168114610bf1576040517f2ef4875e00000000000000000000000000000000000000000000000000000000815273ffffffffffffffffffffffffffffffffffffffff8416600482015260240161034d565b8173ffffffffffffffffffffffffffffffffffffffff168173ffffffffffffffffffffffffffffffffffffffff1614610c935783547fffffffffffffffffffffffff00000000000000000000000000000000000000001673ffffffffffffffffffffffffffffffffffffffff8381169182178655604051908316907f8be0079c531659141344cd1fd0a4f28419497f9722a3daafe3b4186f6b6457e090600090a35b50505050565b600033321480610ca95750601836105b15610cb357503390565b7fffffffffffffffffffffffffffffffffffffffffffffffffffffffffffffffec36013560601c7f000000000000000000000000000000000000000000000000000000000000000073ffffffffffffffffffffffffffffffffffffffff16331480610dcf57506040517f8929a8ca00000000000000000000000000000000000000000000000000000000815273ffffffffffffffffffffffffffffffffffffffff82811660048301523360248301527f00000000000000000000000000000000000000000000000000000000000000001690638929a8ca90604401602060405180830381865afa158015610dab573d6000803e3d6000fd5b505050506040513d601f19601f82011682018060405250810190610dcf91906110b5565b15610dd957919050565b3391505090565b600082610ded8584610df6565b14949350505050565b600081815b8451811015610e3157610e2782868381518110610e1a57610e1a611419565b6020026020010151610e39565b9150600101610dfb565b509392505050565b6000818310610e55576000828152602084905260409020610e64565b60008381526020839052604090205b9392505050565b600060208284031215610e7d57600080fd5b81357fffffffff0000000000000000000000000000000000000000000000000000000081168114610e6457600080fd5b600060208284031215610ebf57600080fd5b5035919050565b803573ffffffffffffffffffffffffffffffffffffffff81168114610eea57600080fd5b919050565b60008083601f840112610f0157600080fd5b50813567ffffffffffffffff811115610f1957600080fd5b602083019150836020828501011115610f3157600080fd5b9250929050565b600080600080600060808688031215610f5057600080fd5b610f5986610ec6565b9450610f6760208701610ec6565b935060408601359250606086013567ffffffffffffffff811115610f8a57600080fd5b610f9688828901610eef565b969995985093965092949392505050565b600060208284031215610fb957600080fd5b610e6482610ec6565b60008060008060608587031215610fd857600080fd5b610fe185610ec6565b9350602085013567ffffffffffffffff811115610ffd57600080fd5b61100987828801610eef565b9598909750949560400135949350505050565b60008151808452602080850194506020840160005b8381101561104d57815187529582019590820190600101611031565b509495945050505050565b73ffffffffffffffffffffffffffffffffffffffff84168152608060208201526000611087608083018561101c565b8281036040840152611099818561101c565b8381036060909401939093525050600081526020019392505050565b6000602082840312156110c757600080fd5b81518015158114610e6457600080fd5b818103818111156102e6577f4e487b7100000000000000000000000000000000000000000000000000000000600052601160045260246000fd5b7f4e487b7100000000000000000000000000000000000000000000000000000000600052604160045260246000fd5b604051601f82017fffffffffffffffffffffffffffffffffffffffffffffffffffffffffffffffe016810167ffffffffffffffff8111828210171561118757611187611111565b604052919050565b600067ffffffffffffffff8211156111a9576111a9611111565b5060051b60200190565b600082601f8301126111c457600080fd5b813560206111d96111d48361118f565b611140565b8083825260208201915060208460051b8701019350868411156111fb57600080fd5b602086015b848110156112175780358352918301918301611200565b509695505050505050565b600080600080600060a0868803121561123a57600080fd5b853594506020808701359450604087013567ffffffffffffffff8082111561126157600080fd5b818901915089601f83011261127557600080fd5b81356112836111d48261118f565b81815260059190911b8301840190848101908c8311156112a257600080fd5b938501935b828510156112c0578435825293850193908501906112a7565b9750505060608901359250808311156112d857600080fd5b6112e48a848b016111b3565b945060808901359250808311156112fa57600080fd5b5050611308888289016111b3565b9150509295509295909350565b8051600090602080840183831561104d57815187529582019590820190600101611031565b7fffffffffffffffffffffffffffffffffffffffff0000000000000000000000008660601b168152600061137a6113746014840188611315565b86611315565b938452505060208201526040019392505050565b73ffffffffffffffffffffffffffffffffffffffff8616815260a0602082015260006113bd60a083018761101c565b82810360408401526113cf818761101c565b60608401959095525050608001529392505050565b8381526060602082015260006113fd606083018561101c565b828103604084015261140f818561101c565b9695505050505050565b7f4e487b7100000000000000000000000000000000000000000000000000000000600052603260045260246000fdfea2646970667358221220b1b2767e8d44a05f221e6e66d7f0339aae457b98b484f00ed1999f5a9caf93ad64736f6c63430008160033",
  "linkReferences": {},
  "deployedLinkReferences": {}
}