{
  "_format": "hh-sol-artifact-1",
  "contractName": "ChaosKingdomResourcesClaim",
  "sourceName": "contracts/payment/ChaosKingdomResourcesClaim.sol",
  "abi": [
    {
      "inputs": [
        {
          "internalType": "contract IERC20",
          "name": "feeContract_",
          "type": "address"
        },
        {
          "internalType": "contract IERC1155Mintable",
          "name": "rewardContract_",
          "type": "address"
        },
        {
          "internalType": "contract IForwarderRegistry",
          "name": "forwarderRegistry",
          "type": "address"
        }
      ],
      "stateMutability": "nonpayable",
      "type": "constructor"
    },
    {
      "inputs": [
        {
          "internalType": "address",
          "name": "recipient",
          "type": "address"
        },
        {
          "internalType": "uint256[]",
          "name": "ids",
          "type": "uint256[]"
        },
        {
          "internalType": "uint256[]",
          "name": "values",
          "type": "uint256[]"
        },
        {
          "internalType": "uint256",
          "name": "fee",
          "type": "uint256"
        },
        {
          "internalType": "bytes32",
          "name": "epochId",
          "type": "bytes32"
        }
      ],
      "name": "AlreadyClaimed",
      "type": "error"
    },
    {
      "inputs": [
        {
          "internalType": "address",
          "name": "sender",
          "type": "address"
        },
        {
          "internalType": "address",
          "name": "expectedContract",
          "type": "address"
        }
      ],
      "name": "FeeContractMismatch",
      "type": "error"
    },
    {
      "inputs": [],
      "name": "IllegalInterfaceId",
      "type": "error"
    },
    {
      "inputs": [
        {
          "internalType": "address",
          "name": "newContract",
          "type": "address"
        }
      ],
      "name": "InvalidFeeContractAddress",
      "type": "error"
    },
    {
      "inputs": [
        {
          "internalType": "address",
          "name": "recipient",
          "type": "address"
        },
        {
          "internalType": "uint256[]",
          "name": "ids",
          "type": "uint256[]"
        },
        {
          "internalType": "uint256[]",
          "name": "values",
          "type": "uint256[]"
        },
        {
          "internalType": "uint256",
          "name": "fee",
          "type": "uint256"
        },
        {
          "internalType": "bytes32",
          "name": "epochId",
          "type": "bytes32"
        }
      ],
      "name": "InvalidProof",
      "type": "error"
    },
    {
      "inputs": [
        {
          "internalType": "bytes32",
          "name": "merkleRoot",
          "type": "bytes32"
        }
      ],
      "name": "MerkleRootAlreadyExists",
      "type": "error"
    },
    {
      "inputs": [
        {
          "internalType": "bytes32",
          "name": "merkleRoot",
          "type": "bytes32"
        }
      ],
      "name": "MerkleRootDoesNotExist",
      "type": "error"
    },
    {
      "inputs": [
        {
          "internalType": "address",
          "name": "account",
          "type": "address"
        }
      ],
      "name": "NotContractOwner",
      "type": "error"
    },
    {
      "anonymous": false,
      "inputs": [
        {
          "indexed": false,
          "internalType": "address",
          "name": "newContract",
          "type": "address"
        }
      ],
      "name": "FeeContractSet",
      "type": "event"
    },
    {
      "anonymous": false,
      "inputs": [
        {
          "indexed": false,
          "internalType": "bytes32",
          "name": "root",
          "type": "bytes32"
        }
      ],
      "name": "MerkleRootAdded",
      "type": "event"
    },
    {
      "anonymous": false,
      "inputs": [
        {
          "indexed": false,
          "internalType": "bytes32",
          "name": "root",
          "type": "bytes32"
        }
      ],
      "name": "MerkleRootDeprecated",
      "type": "event"
    },
    {
      "anonymous": false,
      "inputs": [
        {
          "indexed": true,
          "internalType": "address",
          "name": "previousOwner",
          "type": "address"
        },
        {
          "indexed": true,
          "internalType": "address",
          "name": "newOwner",
          "type": "address"
        }
      ],
      "name": "OwnershipTransferred",
      "type": "event"
    },
    {
      "anonymous": false,
      "inputs": [
        {
          "indexed": true,
          "internalType": "bytes32",
          "name": "root",
          "type": "bytes32"
        },
        {
          "indexed": false,
          "internalType": "bytes32",
          "name": "epochId",
          "type": "bytes32"
        },
        {
          "indexed": false,
          "internalType": "uint256",
          "name": "fee",
          "type": "uint256"
        },
        {
          "indexed": true,
          "internalType": "address",
          "name": "recipient",
          "type": "address"
        },
        {
          "indexed": false,
          "internalType": "uint256[]",
          "name": "ids",
          "type": "uint256[]"
        },
        {
          "indexed": false,
          "internalType": "uint256[]",
          "name": "values",
          "type": "uint256[]"
        }
      ],
      "name": "PayoutClaimed",
      "type": "event"
    },
    {
      "inputs": [],
      "name": "REWARD_CONTRACT",
      "outputs": [
        {
          "internalType": "contract IERC1155Mintable",
          "name": "",
          "type": "address"
        }
      ],
      "stateMutability": "view",
      "type": "function"
    },
    {
      "inputs": [
        {
          "internalType": "bytes32",
          "name": "merkleRoot",
          "type": "bytes32"
        }
      ],
      "name": "addMerkleRoot",
      "outputs": [],
      "stateMutability": "nonpayable",
      "type": "function"
    },
    {
      "inputs": [
        {
          "internalType": "bytes32",
          "name": "",
          "type": "bytes32"
        }
      ],
      "name": "claimed",
      "outputs": [
        {
          "internalType": "bool",
          "name": "",
          "type": "bool"
        }
      ],
      "stateMutability": "view",
      "type": "function"
    },
    {
      "inputs": [
        {
          "internalType": "bytes32",
          "name": "merkleRoot",
          "type": "bytes32"
        }
      ],
      "name": "deprecateMerkleRoot",
      "outputs": [],
      "stateMutability": "nonpayable",
      "type": "function"
    },
    {
      "inputs": [],
      "name": "feeContract",
      "outputs": [
        {
          "internalType": "contract IERC20",
          "name": "",
          "type": "address"
        }
      ],
      "stateMutability": "view",
      "type": "function"
    },
    {
      "inputs": [],
      "name": "forwarderRegistry",
      "outputs": [
        {
          "internalType": "contract IForwarderRegistry",
          "name": "",
          "type": "address"
        }
      ],
      "stateMutability": "view",
      "type": "function"
    },
    {
      "inputs": [
        {
          "internalType": "address",
          "name": "forwarder",
          "type": "address"
        }
      ],
      "name": "isTrustedForwarder",
      "outputs": [
        {
          "internalType": "bool",
          "name": "",
          "type": "bool"
        }
      ],
      "stateMutability": "view",
      "type": "function"
    },
    {
      "inputs": [
        {
          "internalType": "address",
          "name": "operator",
          "type": "address"
        },
        {
          "internalType": "address",
          "name": "from",
          "type": "address"
        },
        {
          "internalType": "uint256",
          "name": "value",
          "type": "uint256"
        },
        {
          "internalType": "bytes",
          "name": "data",
          "type": "bytes"
        }
      ],
      "name": "onERC20Received",
      "outputs": [
        {
          "internalType": "bytes4",
          "name": "magicValue",
          "type": "bytes4"
        }
      ],
      "stateMutability": "nonpayable",
      "type": "function"
    },
    {
      "inputs": [],
      "name": "owner",
      "outputs": [
        {
          "internalType": "address",
          "name": "",
          "type": "address"
        }
      ],
      "stateMutability": "view",
      "type": "function"
    },
    {
      "inputs": [
        {
          "internalType": "bytes32",
          "name": "",
          "type": "bytes32"
        }
      ],
      "name": "roots",
      "outputs": [
        {
          "internalType": "bool",
          "name": "",
          "type": "bool"
        }
      ],
      "stateMutability": "view",
      "type": "function"
    },
    {
      "inputs": [
        {
          "internalType": "address",
          "name": "newContract",
          "type": "address"
        }
      ],
      "name": "setFeeContract",
      "outputs": [],
      "stateMutability": "nonpayable",
      "type": "function"
    },
    {
      "inputs": [
        {
          "internalType": "bytes4",
          "name": "interfaceId",
          "type": "bytes4"
        }
      ],
      "name": "supportsInterface",
      "outputs": [
        {
          "internalType": "bool",
          "name": "",
          "type": "bool"
        }
      ],
      "stateMutability": "view",
      "type": "function"
    },
    {
      "inputs": [
        {
          "internalType": "address",
          "name": "newOwner",
          "type": "address"
        }
      ],
      "name": "transferOwnership",
      "outputs": [],
      "stateMutability": "nonpayable",
      "type": "function"
    }
  ],
  "bytecode": "0x60c06040523480156200001157600080fd5b50604051620015c5380380620015c58339810160408190526200003491620001ef565b8080336200004d8162000046620000a0565b90620000d6565b506200006e634fc3585960e01b60016200006662000149565b919062000179565b6001600160a01b03908116608052600280546001600160a01b0319169582169590951790945550501660a05262000265565b600080620000d060017fc9ed16f33ab3a66c84bfd83099ccb2a8845871e2e1c1928f63797152f0fd54cd62000243565b92915050565b6001600160a01b038116156200012d5781546001600160a01b0319166001600160a01b03821690811783556040516000907f8be0079c531659141344cd1fd0a4f28419497f9722a3daafe3b4186f6b6457e0908290a35b620001456307f5828d60e41b60016200006662000149565b5050565b600080620000d060017fca9d3e17f264b0f3984e2634e94adb37fa3e6a8103f06aeae6fa59e21c769f5e62000243565b600160e01b6001600160e01b0319831601620001a8576040516372c683bb60e01b815260040160405180910390fd5b6001600160e01b03199190911660009081526020929092526040909120805460ff1916911515919091179055565b6001600160a01b0381168114620001ec57600080fd5b50565b6000806000606084860312156200020557600080fd5b83516200021281620001d6565b60208501519093506200022581620001d6565b60408501519092506200023881620001d6565b809150509250925092565b81810381811115620000d057634e487b7160e01b600052601160045260246000fd5b60805160a05161131e620002a7600039600081816101a401526107fe0152600081816101530152818161022d01528181610c030152610c8b015261131e6000f3fe608060405234801561001057600080fd5b50600436106100df5760003560e01c806342dbe1681161008c5780638da5cb5b116100665780638da5cb5b1461026a578063ae6dead714610272578063cc3c0f0614610295578063f2fde38b146102b857600080fd5b806342dbe168146101c65780634fc35859146101d9578063572b6c051461021d57600080fd5b80633323c807116100bd5780633323c807146101775780633572aa8d1461018c5780633a5af3391461019f57600080fd5b806301ffc9a7146100e457806306e297121461010c5780632b4c9f1614610151575b600080fd5b6100f76100f2366004610d7c565b6102cb565b60405190151581526020015b60405180910390f35b60025461012c9073ffffffffffffffffffffffffffffffffffffffff1681565b60405173ffffffffffffffffffffffffffffffffffffffff9091168152602001610103565b7f000000000000000000000000000000000000000000000000000000000000000061012c565b61018a610185366004610dbe565b6102e5565b005b61018a61019a366004610dbe565b6103c3565b61012c7f000000000000000000000000000000000000000000000000000000000000000081565b61018a6101d4366004610e00565b61047c565b6101ec6101e7366004610e1b565b61055f565b6040517fffffffff000000000000000000000000000000000000000000000000000000009091168152602001610103565b6100f761022b366004610e00565b7f000000000000000000000000000000000000000000000000000000000000000073ffffffffffffffffffffffffffffffffffffffff90811691161490565b61012c61089c565b6100f7610280366004610dbe565b60006020819052908152604090205460ff1681565b6100f76102a3366004610dbe565b60016020526000908152604090205460ff1681565b61018a6102c6366004610e00565b6108c8565b60006102df826102d96108e6565b90610914565b92915050565b6102fe6102f06109ee565b6102f86109f8565b90610a26565b60008181526020819052604090205460ff161561034f576040517f5d35de37000000000000000000000000000000000000000000000000000000008152600481018290526024015b60405180910390fd5b6000818152602081905260409081902080547fffffffffffffffffffffffffffffffffffffffffffffffffffffffffffffff00166001179055517fbdd203dd78bf49cf79e4db0ecdf7d27adc380fb1f33beef2667a50db9d2a0e04906103b89083815260200190565b60405180910390a150565b6103ce6102f06109ee565b60008181526020819052604090205460ff16610419576040517fc9c3405a00000000000000000000000000000000000000000000000000000000815260048101829052602401610346565b6000818152602081815260409182902080547fffffffffffffffffffffffffffffffffffffffffffffffffffffffffffffff0016905590518281527f578eab65d47cffa57066b105301289ff86bfdc0adc2a701c3356d2a6eb6a612391016103b8565b6104876102f06109ee565b73ffffffffffffffffffffffffffffffffffffffff81166104ec576040517f2d9d9af200000000000000000000000000000000000000000000000000000000815273ffffffffffffffffffffffffffffffffffffffff82166004820152602401610346565b600280547fffffffffffffffffffffffff00000000000000000000000000000000000000001673ffffffffffffffffffffffffffffffffffffffff83169081179091556040519081527ffbadb20c894e457e9f0deb54afeb0b69be2843d7d04f5e5b2b4cccb6dd173067906020016103b8565b60025460009073ffffffffffffffffffffffffffffffffffffffff1633146105d5576002546040517f6c50e90500000000000000000000000000000000000000000000000000000000815233600482015273ffffffffffffffffffffffffffffffffffffffff9091166024820152604401610346565b836000808080806105e8888a018a610fc7565b6000858152602081905260409020549499509297509095509350915060ff16610640576040517fc9c3405a00000000000000000000000000000000000000000000000000000000815260048101869052602401610346565b60008b8383898860405160200161065b9594939291906110ed565b604080517fffffffffffffffffffffffffffffffffffffffffffffffffffffffffffffffe081840301815291815281516020928301206000818152600190935291205490915060ff16156106e5578b838389886040517ff048f37a00000000000000000000000000000000000000000000000000000000815260040161034695949392919061116e565b6106f0848783610a95565b610730578b838389886040517fdbf2ac7c00000000000000000000000000000000000000000000000000000000815260040161034695949392919061116e565b60008181526001602081905260409182902080547fffffffffffffffffffffffffffffffffffffffffffffffffffffffffffffff001690911790555173ffffffffffffffffffffffffffffffffffffffff8d169087907fbf561a0ae8123352abf33f8f113e6b265c2e7fe7ba9b4d450750454bcbb7233a906107b99089908c90899089906111c4565b60405180910390a36040517f0d6a5bbb00000000000000000000000000000000000000000000000000000000815273ffffffffffffffffffffffffffffffffffffffff7f00000000000000000000000000000000000000000000000000000000000000001690630d6a5bbb90610837908f9087908790600401611200565b600060405180830381600087803b15801561085157600080fd5b505af1158015610865573d6000803e3d6000fd5b507f4fc35859000000000000000000000000000000000000000000000000000000009a505050505050505050505095945050505050565b60006108c36108a96109f8565b5473ffffffffffffffffffffffffffffffffffffffff1690565b905090565b6108e36108d36109ee565b826108dc6109f8565b9190610aab565b50565b6000806102df60017fca9d3e17f264b0f3984e2634e94adb37fa3e6a8103f06aeae6fa59e21c769f5e61125d565b60007c01000000000000000000000000000000000000000000000000000000007fffffffff00000000000000000000000000000000000000000000000000000000831601610964575060006102df565b7ffe003659000000000000000000000000000000000000000000000000000000007fffffffff000000000000000000000000000000000000000000000000000000008316016109b5575060016102df565b507fffffffff00000000000000000000000000000000000000000000000000000000166000908152602091909152604090205460ff1690565b60006108c3610bc0565b6000806102df60017fc9ed16f33ab3a66c84bfd83099ccb2a8845871e2e1c1928f63797152f0fd54cd61125d565b815473ffffffffffffffffffffffffffffffffffffffff828116911614610a91576040517f2ef4875e00000000000000000000000000000000000000000000000000000000815273ffffffffffffffffffffffffffffffffffffffff82166004820152602401610346565b5050565b600082610aa28584610d07565b14949350505050565b825473ffffffffffffffffffffffffffffffffffffffff9081169083168114610b18576040517f2ef4875e00000000000000000000000000000000000000000000000000000000815273ffffffffffffffffffffffffffffffffffffffff84166004820152602401610346565b8173ffffffffffffffffffffffffffffffffffffffff168173ffffffffffffffffffffffffffffffffffffffff1614610bba5783547fffffffffffffffffffffffff00000000000000000000000000000000000000001673ffffffffffffffffffffffffffffffffffffffff8381169182178655604051908316907f8be0079c531659141344cd1fd0a4f28419497f9722a3daafe3b4186f6b6457e090600090a35b50505050565b600033321480610bd05750601836105b15610bda57503390565b7fffffffffffffffffffffffffffffffffffffffffffffffffffffffffffffffec36013560601c7f000000000000000000000000000000000000000000000000000000000000000073ffffffffffffffffffffffffffffffffffffffff16331480610cf657506040517f8929a8ca00000000000000000000000000000000000000000000000000000000815273ffffffffffffffffffffffffffffffffffffffff82811660048301523360248301527f00000000000000000000000000000000000000000000000000000000000000001690638929a8ca90604401602060405180830381865afa158015610cd2573d6000803e3d6000fd5b505050506040513d601f19601f82011682018060405250810190610cf69190611297565b15610d0057919050565b3391505090565b600081815b8451811015610d4257610d3882868381518110610d2b57610d2b6112b9565b6020026020010151610d4a565b9150600101610d0c565b509392505050565b6000818310610d66576000828152602084905260409020610d75565b60008381526020839052604090205b9392505050565b600060208284031215610d8e57600080fd5b81357fffffffff0000000000000000000000000000000000000000000000000000000081168114610d7557600080fd5b600060208284031215610dd057600080fd5b5035919050565b803573ffffffffffffffffffffffffffffffffffffffff81168114610dfb57600080fd5b919050565b600060208284031215610e1257600080fd5b610d7582610dd7565b600080600080600060808688031215610e3357600080fd5b610e3c86610dd7565b9450610e4a60208701610dd7565b935060408601359250606086013567ffffffffffffffff80821115610e6e57600080fd5b818801915088601f830112610e8257600080fd5b813581811115610e9157600080fd5b896020828501011115610ea357600080fd5b9699959850939650602001949392505050565b7f4e487b7100000000000000000000000000000000000000000000000000000000600052604160045260246000fd5b604051601f82017fffffffffffffffffffffffffffffffffffffffffffffffffffffffffffffffe016810167ffffffffffffffff81118282101715610f2c57610f2c610eb6565b604052919050565b600067ffffffffffffffff821115610f4e57610f4e610eb6565b5060051b60200190565b600082601f830112610f6957600080fd5b81356020610f7e610f7983610f34565b610ee5565b8083825260208201915060208460051b870101935086841115610fa057600080fd5b602086015b84811015610fbc5780358352918301918301610fa5565b509695505050505050565b600080600080600060a08688031215610fdf57600080fd5b853594506020808701359450604087013567ffffffffffffffff8082111561100657600080fd5b818901915089601f83011261101a57600080fd5b8135611028610f7982610f34565b81815260059190911b8301840190848101908c83111561104757600080fd5b938501935b828510156110655784358252938501939085019061104c565b97505050606089013592508083111561107d57600080fd5b6110898a848b01610f58565b9450608089013592508083111561109f57600080fd5b50506110ad88828901610f58565b9150509295509295909350565b60008151602080840160005b838110156110e2578151875295820195908201906001016110c6565b509495945050505050565b7fffffffffffffffffffffffffffffffffffffffff0000000000000000000000008660601b168152600061112d61112760148401886110ba565b866110ba565b938452505060208201526040019392505050565b8051808352602092830192600091908084018383156110e2578151875295820195908201906001016110c6565b73ffffffffffffffffffffffffffffffffffffffff8616815260a06020820152600061119d60a0830187611141565b82810360408401526111af8187611141565b60608401959095525050608001529392505050565b8481528360208201526080604082015260006111e36080830185611141565b82810360608401526111f58185611141565b979650505050505050565b73ffffffffffffffffffffffffffffffffffffffff8416815260806020820152600061122f6080830185611141565b82810360408401526112418185611141565b8381036060909401939093525050600081526020019392505050565b818103818111156102df577f4e487b7100000000000000000000000000000000000000000000000000000000600052601160045260246000fd5b6000602082840312156112a957600080fd5b81518015158114610d7557600080fd5b7f4e487b7100000000000000000000000000000000000000000000000000000000600052603260045260246000fdfea264697066735822122025e6ca9791d3d1361610fd80c816a48199078b7d2e781f334cdc1f6e5c10aab164736f6c63430008160033",
  "linkReferences": {},
  "deployedLinkReferences": {}
}