{
  "_format": "hh-sol-artifact-1",
  "contractName": "ChaosKingdomResourcesClaim",
  "sourceName": "contracts/payment/ChaosKingdomResourcesClaim.sol",
  "abi": [
    {
      "inputs": [
        {
          "internalType": "contract IERC20SafeTransfers",
          "name": "feeContract",
          "type": "address"
        },
        {
          "internalType": "contract IERC1155Mintable",
          "name": "rewardContract",
          "type": "address"
        },
        {
          "internalType": "address",
          "name": "_revenueWallet",
          "type": "address"
        }
      ],
      "stateMutability": "nonpayable",
      "type": "constructor"
    },
    {
      "inputs": [
        {
          "internalType": "address",
          "name": "recipient",
          "type": "address"
        },
        {
          "internalType": "uint256[]",
          "name": "ids",
          "type": "uint256[]"
        },
        {
          "internalType": "uint256[]",
          "name": "values",
          "type": "uint256[]"
        },
        {
          "internalType": "uint256",
          "name": "fee",
          "type": "uint256"
        },
        {
          "internalType": "bytes32",
          "name": "epochId",
          "type": "bytes32"
        }
      ],
      "name": "AlreadyClaimed",
      "type": "error"
    },
    {
      "inputs": [],
      "name": "IllegalInterfaceId",
      "type": "error"
    },
    {
      "inputs": [],
      "name": "InconsistentArrayLengths",
      "type": "error"
    },
    {
      "inputs": [
        {
          "internalType": "address",
          "name": "receivedContract",
          "type": "address"
        },
        {
          "internalType": "address",
          "name": "expectedContract",
          "type": "address"
        }
      ],
      "name": "InvalidFeeContract",
      "type": "error"
    },
    {
      "inputs": [
        {
          "internalType": "bytes32",
          "name": "merkleRoot",
          "type": "bytes32"
        }
      ],
      "name": "InvalidMerkleRoot",
      "type": "error"
    },
    {
      "inputs": [
        {
          "internalType": "address",
          "name": "recipient",
          "type": "address"
        },
        {
          "internalType": "uint256[]",
          "name": "ids",
          "type": "uint256[]"
        },
        {
          "internalType": "uint256[]",
          "name": "values",
          "type": "uint256[]"
        },
        {
          "internalType": "uint256",
          "name": "fee",
          "type": "uint256"
        },
        {
          "internalType": "bytes32",
          "name": "epochId",
          "type": "bytes32"
        }
      ],
      "name": "InvalidProof",
      "type": "error"
    },
    {
      "inputs": [
        {
          "internalType": "address",
          "name": "receivedContract",
          "type": "address"
        }
      ],
      "name": "InvalidRevenueWallet",
      "type": "error"
    },
    {
      "inputs": [
        {
          "internalType": "bytes32",
          "name": "merkleRoot",
          "type": "bytes32"
        }
      ],
      "name": "MerkleRootAlreadyExists",
      "type": "error"
    },
    {
      "inputs": [
        {
          "internalType": "address",
          "name": "account",
          "type": "address"
        }
      ],
      "name": "NotContractOwner",
      "type": "error"
    },
    {
      "anonymous": false,
      "inputs": [
        {
          "indexed": true,
          "internalType": "bytes32",
          "name": "root",
          "type": "bytes32"
        }
      ],
      "name": "MerkleRootAdded",
      "type": "event"
    },
    {
      "anonymous": false,
      "inputs": [
        {
          "indexed": true,
          "internalType": "bytes32",
          "name": "root",
          "type": "bytes32"
        }
      ],
      "name": "MerkleRootDeprecated",
      "type": "event"
    },
    {
      "anonymous": false,
      "inputs": [
        {
          "indexed": true,
          "internalType": "address",
          "name": "previousOwner",
          "type": "address"
        },
        {
          "indexed": true,
          "internalType": "address",
          "name": "newOwner",
          "type": "address"
        }
      ],
      "name": "OwnershipTransferred",
      "type": "event"
    },
    {
      "anonymous": false,
      "inputs": [
        {
          "indexed": true,
          "internalType": "bytes32",
          "name": "root",
          "type": "bytes32"
        },
        {
          "indexed": true,
          "internalType": "bytes32",
          "name": "epochId",
          "type": "bytes32"
        },
        {
          "indexed": false,
          "internalType": "uint256",
          "name": "fee",
          "type": "uint256"
        },
        {
          "indexed": true,
          "internalType": "address",
          "name": "recipient",
          "type": "address"
        },
        {
          "indexed": false,
          "internalType": "uint256[]",
          "name": "ids",
          "type": "uint256[]"
        },
        {
          "indexed": false,
          "internalType": "uint256[]",
          "name": "values",
          "type": "uint256[]"
        }
      ],
      "name": "PayoutClaimed",
      "type": "event"
    },
    {
      "anonymous": false,
      "inputs": [
        {
          "indexed": false,
          "internalType": "address",
          "name": "revenueWallet",
          "type": "address"
        }
      ],
      "name": "RevenueWalletUpdated",
      "type": "event"
    },
    {
      "inputs": [],
      "name": "FEE_CONTRACT",
      "outputs": [
        {
          "internalType": "contract IERC20SafeTransfers",
          "name": "",
          "type": "address"
        }
      ],
      "stateMutability": "view",
      "type": "function"
    },
    {
      "inputs": [],
      "name": "REWARD_CONTRACT",
      "outputs": [
        {
          "internalType": "contract IERC1155Mintable",
          "name": "",
          "type": "address"
        }
      ],
      "stateMutability": "view",
      "type": "function"
    },
    {
      "inputs": [
        {
          "internalType": "bytes32",
          "name": "merkleRoot",
          "type": "bytes32"
        }
      ],
      "name": "addMerkleRoot",
      "outputs": [],
      "stateMutability": "nonpayable",
      "type": "function"
    },
    {
      "inputs": [
        {
          "internalType": "bytes32",
          "name": "",
          "type": "bytes32"
        }
      ],
      "name": "claimed",
      "outputs": [
        {
          "internalType": "bool",
          "name": "",
          "type": "bool"
        }
      ],
      "stateMutability": "view",
      "type": "function"
    },
    {
      "inputs": [
        {
          "internalType": "bytes32",
          "name": "merkleRoot",
          "type": "bytes32"
        }
      ],
      "name": "deprecateMerkleRoot",
      "outputs": [],
      "stateMutability": "nonpayable",
      "type": "function"
    },
    {
      "inputs": [
        {
          "internalType": "address",
          "name": "operator",
          "type": "address"
        },
        {
          "internalType": "address",
          "name": "from",
          "type": "address"
        },
        {
          "internalType": "uint256",
          "name": "value",
          "type": "uint256"
        },
        {
          "internalType": "bytes",
          "name": "data",
          "type": "bytes"
        }
      ],
      "name": "onERC20Received",
      "outputs": [
        {
          "internalType": "bytes4",
          "name": "magicValue",
          "type": "bytes4"
        }
      ],
      "stateMutability": "nonpayable",
      "type": "function"
    },
    {
      "inputs": [],
      "name": "owner",
      "outputs": [
        {
          "internalType": "address",
          "name": "",
          "type": "address"
        }
      ],
      "stateMutability": "view",
      "type": "function"
    },
    {
      "inputs": [
        {
          "internalType": "address[]",
          "name": "accounts",
          "type": "address[]"
        },
        {
          "internalType": "contract IERC20[]",
          "name": "tokens",
          "type": "address[]"
        },
        {
          "internalType": "uint256[]",
          "name": "amounts",
          "type": "uint256[]"
        }
      ],
      "name": "recoverERC20s",
      "outputs": [],
      "stateMutability": "nonpayable",
      "type": "function"
    },
    {
      "inputs": [
        {
          "internalType": "address[]",
          "name": "accounts",
          "type": "address[]"
        },
        {
          "internalType": "contract IERC721[]",
          "name": "contracts",
          "type": "address[]"
        },
        {
          "internalType": "uint256[]",
          "name": "tokenIds",
          "type": "uint256[]"
        }
      ],
      "name": "recoverERC721s",
      "outputs": [],
      "stateMutability": "nonpayable",
      "type": "function"
    },
    {
      "inputs": [
        {
          "internalType": "address payable[]",
          "name": "accounts",
          "type": "address[]"
        },
        {
          "internalType": "uint256[]",
          "name": "amounts",
          "type": "uint256[]"
        }
      ],
      "name": "recoverETH",
      "outputs": [],
      "stateMutability": "nonpayable",
      "type": "function"
    },
    {
      "inputs": [],
      "name": "revenueWallet",
      "outputs": [
        {
          "internalType": "address",
          "name": "",
          "type": "address"
        }
      ],
      "stateMutability": "view",
      "type": "function"
    },
    {
      "inputs": [
        {
          "internalType": "bytes32",
          "name": "",
          "type": "bytes32"
        }
      ],
      "name": "roots",
      "outputs": [
        {
          "internalType": "bool",
          "name": "",
          "type": "bool"
        }
      ],
      "stateMutability": "view",
      "type": "function"
    },
    {
      "inputs": [
        {
          "internalType": "address",
          "name": "newRevenueWallet",
          "type": "address"
        }
      ],
      "name": "setRevenueWallet",
      "outputs": [],
      "stateMutability": "nonpayable",
      "type": "function"
    },
    {
      "inputs": [
        {
          "internalType": "bytes4",
          "name": "interfaceId",
          "type": "bytes4"
        }
      ],
      "name": "supportsInterface",
      "outputs": [
        {
          "internalType": "bool",
          "name": "",
          "type": "bool"
        }
      ],
      "stateMutability": "view",
      "type": "function"
    },
    {
      "inputs": [
        {
          "internalType": "address",
          "name": "newOwner",
          "type": "address"
        }
      ],
      "name": "transferOwnership",
      "outputs": [],
      "stateMutability": "nonpayable",
      "type": "function"
    }
  ],
  "bytecode": "0x60c06040523480156200001157600080fd5b5060405162001f5e38038062001f5e8339810160408190526200003491620001ea565b336200004b81620000446200009b565b90620000d1565b506200006c634fc3585960e01b60016200006462000144565b919062000174565b6001600160a01b0392831660a052908216608052600280546001600160a01b0319169190921617905562000260565b600080620000cb60017fc9ed16f33ab3a66c84bfd83099ccb2a8845871e2e1c1928f63797152f0fd54cd6200023e565b92915050565b6001600160a01b03811615620001285781546001600160a01b0319166001600160a01b03821690811783556040516000907f8be0079c531659141344cd1fd0a4f28419497f9722a3daafe3b4186f6b6457e0908290a35b620001406307f5828d60e41b60016200006462000144565b5050565b600080620000cb60017fca9d3e17f264b0f3984e2634e94adb37fa3e6a8103f06aeae6fa59e21c769f5e6200023e565b600160e01b6001600160e01b0319831601620001a3576040516372c683bb60e01b815260040160405180910390fd5b6001600160e01b03199190911660009081526020929092526040909120805460ff1916911515919091179055565b6001600160a01b0381168114620001e757600080fd5b50565b6000806000606084860312156200020057600080fd5b83516200020d81620001d1565b60208501519093506200022081620001d1565b60408501519092506200023381620001d1565b809150509250925092565b81810381811115620000cb57634e487b7160e01b600052601160045260246000fd5b60805160a051611cbc620002a26000396000818161012701528181610463015281816104e101526107fe01526000818161019b01526106a50152611cbc6000f3fe608060405234801561001057600080fd5b50600436106100f55760003560e01c806373c8a95811610097578063cc3c0f0611610066578063cc3c0f0614610272578063f2fde38b14610295578063f7ba94bd146102a8578063fb235f34146102bb57600080fd5b806373c8a958146102215780638da5cb5b14610234578063ae6dead71461023c578063c3666c361461025f57600080fd5b80633572aa8d116100d35780633572aa8d146101835780633a5af3391461019657806344478425146101bd5780634fc35859146101dd57600080fd5b806301ffc9a7146100fa5780631352acac146101225780633323c8071461016e575b600080fd5b61010d61010836600461153f565b6102ce565b60405190151581526020015b60405180910390f35b6101497f000000000000000000000000000000000000000000000000000000000000000081565b60405173ffffffffffffffffffffffffffffffffffffffff9091168152602001610119565b61018161017c366004611581565b6102e8565b005b610181610191366004611581565b6103ad565b6101497f000000000000000000000000000000000000000000000000000000000000000081565b6002546101499073ffffffffffffffffffffffffffffffffffffffff1681565b6101f06101eb3660046115bc565b61045f565b6040517fffffffff000000000000000000000000000000000000000000000000000000009091168152602001610119565b61018161022f3660046116a7565b61089f565b610149610993565b61010d61024a366004611581565b60006020819052908152604090205460ff1681565b61018161026d3660046116a7565b6109bf565b61010d610280366004611581565b60016020526000908152604090205460ff1681565b6101816102a3366004611741565b610b35565b6101816102b636600461175e565b610b4c565b6101816102c9366004611741565b610c09565b60006102e2826102dc610cf0565b90610d1e565b92915050565b6102fb335b6102f5610df8565b90610e26565b60008181526020819052604090205460ff161561034c576040517f5d35de37000000000000000000000000000000000000000000000000000000008152600481018290526024015b60405180910390fd5b60008181526020819052604080822080547fffffffffffffffffffffffffffffffffffffffffffffffffffffffffffffff001660011790555182917fbdd203dd78bf49cf79e4db0ecdf7d27adc380fb1f33beef2667a50db9d2a0e0491a250565b6103b6336102ed565b60008181526020819052604090205460ff16610401576040517f6d82574300000000000000000000000000000000000000000000000000000000815260048101829052602401610343565b60008181526020819052604080822080547fffffffffffffffffffffffffffffffffffffffffffffffffffffffffffffff001690555182917f578eab65d47cffa57066b105301289ff86bfdc0adc2a701c3356d2a6eb6a612391a250565b60007f000000000000000000000000000000000000000000000000000000000000000073ffffffffffffffffffffffffffffffffffffffff16331461050e576040517f01db090900000000000000000000000000000000000000000000000000000000815233600482015273ffffffffffffffffffffffffffffffffffffffff7f0000000000000000000000000000000000000000000000000000000000000000166024820152604401610343565b600080808080610520878901896118db565b6000858152602081905260409020549499509297509095509350915060ff16610578576040517f6d82574300000000000000000000000000000000000000000000000000000000815260048101869052602401610343565b60008a83838c88604051602001610593959493929190611a01565b604080517fffffffffffffffffffffffffffffffffffffffffffffffffffffffffffffffe081840301815291815281516020928301206000818152600190935291205490915060ff161561061d578a83838c886040517ff048f37a000000000000000000000000000000000000000000000000000000008152600401610343959493929190611a82565b610628848783610e95565b610668578a83838c886040517fdbf2ac7c000000000000000000000000000000000000000000000000000000008152600401610343959493929190611a82565b6040517f0d6a5bbb00000000000000000000000000000000000000000000000000000000815273ffffffffffffffffffffffffffffffffffffffff7f00000000000000000000000000000000000000000000000000000000000000001690630d6a5bbb906106de908e9087908790600401611ad8565b600060405180830381600087803b1580156106f857600080fd5b505af115801561070c573d6000803e3d6000fd5b50505060008281526001602081905260409182902080547fffffffffffffffffffffffffffffffffffffffffffffffffffffffffffffff001690911790555173ffffffffffffffffffffffffffffffffffffffff8d169150869088907fbf561a0ae8123352abf33f8f113e6b265c2e7fe7ba9b4d450750454bcbb7233a90610799908f9089908990611b35565b60405180910390a46002546040517feb79554900000000000000000000000000000000000000000000000000000000815273ffffffffffffffffffffffffffffffffffffffff9182166004820152602481018c905260606044820152600060648201527f00000000000000000000000000000000000000000000000000000000000000009091169063eb795549906084016020604051808303816000875af1158015610849573d6000803e3d6000fd5b505050506040513d601f19601f8201168201806040525081019061086d9190611b6a565b507f4fc35859000000000000000000000000000000000000000000000000000000009c9b505050505050505050505050565b6108a8336102ed565b8483811415806108b85750808214155b156108ef576040517f6582533600000000000000000000000000000000000000000000000000000000815260040160405180910390fd5b60005b818110156109895761098188888381811061090f5761090f611b8c565b90506020020160208101906109249190611741565b85858481811061093657610936611b8c565b9050602002013588888581811061094f5761094f611b8c565b90506020020160208101906109649190611741565b73ffffffffffffffffffffffffffffffffffffffff169190610eab565b6001016108f2565b5050505050505050565b60006109ba6109a0610df8565b5473ffffffffffffffffffffffffffffffffffffffff1690565b905090565b6109c8336102ed565b8483811415806109d85750808214155b15610a0f576040517f6582533600000000000000000000000000000000000000000000000000000000815260040160405180910390fd5b60005b8181101561098957858582818110610a2c57610a2c611b8c565b9050602002016020810190610a419190611741565b73ffffffffffffffffffffffffffffffffffffffff166323b872dd308a8a85818110610a6f57610a6f611b8c565b9050602002016020810190610a849190611741565b878786818110610a9657610a96611b8c565b6040517fffffffff0000000000000000000000000000000000000000000000000000000060e088901b16815273ffffffffffffffffffffffffffffffffffffffff958616600482015294909316602485015250602090910201356044820152606401600060405180830381600087803b158015610b1257600080fd5b505af1158015610b26573d6000803e3d6000fd5b50505050806001019050610a12565b610b493382610b42610df8565b9190610f3d565b50565b610b55336102ed565b82818114610b8f576040517f6582533600000000000000000000000000000000000000000000000000000000815260040160405180910390fd5b60005b81811015610c0157610bf9848483818110610baf57610baf611b8c565b90506020020135878784818110610bc857610bc8611b8c565b9050602002016020810190610bdd9190611741565b73ffffffffffffffffffffffffffffffffffffffff1690611052565b600101610b92565b505050505050565b610c12336102ed565b73ffffffffffffffffffffffffffffffffffffffff8116610c77576040517f679c4f4600000000000000000000000000000000000000000000000000000000815273ffffffffffffffffffffffffffffffffffffffff82166004820152602401610343565b600280547fffffffffffffffffffffffff00000000000000000000000000000000000000001673ffffffffffffffffffffffffffffffffffffffff83169081179091556040519081527facfd38a8c0e371d5f091a49bf6aafad89ed17a551f8b2f152420408a0d4b3e619060200160405180910390a150565b6000806102e260017fca9d3e17f264b0f3984e2634e94adb37fa3e6a8103f06aeae6fa59e21c769f5e611bbb565b60007c01000000000000000000000000000000000000000000000000000000007fffffffff00000000000000000000000000000000000000000000000000000000831601610d6e575060006102e2565b7ffe003659000000000000000000000000000000000000000000000000000000007fffffffff00000000000000000000000000000000000000000000000000000000831601610dbf575060016102e2565b507fffffffff00000000000000000000000000000000000000000000000000000000166000908152602091909152604090205460ff1690565b6000806102e260017fc9ed16f33ab3a66c84bfd83099ccb2a8845871e2e1c1928f63797152f0fd54cd611bbb565b815473ffffffffffffffffffffffffffffffffffffffff828116911614610e91576040517f2ef4875e00000000000000000000000000000000000000000000000000000000815273ffffffffffffffffffffffffffffffffffffffff82166004820152602401610343565b5050565b600082610ea285846111ac565b14949350505050565b6040805173ffffffffffffffffffffffffffffffffffffffff8416602482015260448082018490528251808303909101815260649091019091526020810180517bffffffffffffffffffffffffffffffffffffffffffffffffffffffff167fa9059cbb00000000000000000000000000000000000000000000000000000000179052610f389084906111ef565b505050565b825473ffffffffffffffffffffffffffffffffffffffff9081169083168114610faa576040517f2ef4875e00000000000000000000000000000000000000000000000000000000815273ffffffffffffffffffffffffffffffffffffffff84166004820152602401610343565b8173ffffffffffffffffffffffffffffffffffffffff168173ffffffffffffffffffffffffffffffffffffffff161461104c5783547fffffffffffffffffffffffff00000000000000000000000000000000000000001673ffffffffffffffffffffffffffffffffffffffff8381169182178655604051908316907f8be0079c531659141344cd1fd0a4f28419497f9722a3daafe3b4186f6b6457e090600090a35b50505050565b804710156110bc576040517f08c379a000000000000000000000000000000000000000000000000000000000815260206004820152601d60248201527f416464726573733a20696e73756666696369656e742062616c616e63650000006044820152606401610343565b60008273ffffffffffffffffffffffffffffffffffffffff168260405160006040518083038185875af1925050503d8060008114611116576040519150601f19603f3d011682016040523d82523d6000602084013e61111b565b606091505b5050905080610f38576040517f08c379a000000000000000000000000000000000000000000000000000000000815260206004820152603a60248201527f416464726573733a20756e61626c6520746f2073656e642076616c75652c207260448201527f6563697069656e74206d617920686176652072657665727465640000000000006064820152608401610343565b600081815b84518110156111e7576111dd828683815181106111d0576111d0611b8c565b60200260200101516112fe565b91506001016111b1565b509392505050565b6000611251826040518060400160405280602081526020017f5361666545524332303a206c6f772d6c6576656c2063616c6c206661696c65648152508573ffffffffffffffffffffffffffffffffffffffff166113309092919063ffffffff16565b90508051600014806112725750808060200190518101906112729190611b6a565b610f38576040517f08c379a000000000000000000000000000000000000000000000000000000000815260206004820152602a60248201527f5361666545524332303a204552433230206f7065726174696f6e20646964206e60448201527f6f742073756363656564000000000000000000000000000000000000000000006064820152608401610343565b600081831061131a576000828152602084905260409020611329565b60008381526020839052604090205b9392505050565b606061133f8484600085611347565b949350505050565b6060824710156113d9576040517f08c379a000000000000000000000000000000000000000000000000000000000815260206004820152602660248201527f416464726573733a20696e73756666696369656e742062616c616e636520666f60448201527f722063616c6c00000000000000000000000000000000000000000000000000006064820152608401610343565b6000808673ffffffffffffffffffffffffffffffffffffffff1685876040516114029190611c19565b60006040518083038185875af1925050503d806000811461143f576040519150601f19603f3d011682016040523d82523d6000602084013e611444565b606091505b509150915061145587838387611460565b979650505050505050565b606083156114f65782516000036114ef5773ffffffffffffffffffffffffffffffffffffffff85163b6114ef576040517f08c379a000000000000000000000000000000000000000000000000000000000815260206004820152601d60248201527f416464726573733a2063616c6c20746f206e6f6e2d636f6e74726163740000006044820152606401610343565b508161133f565b61133f838381511561150b5781518083602001fd5b806040517f08c379a00000000000000000000000000000000000000000000000000000000081526004016103439190611c35565b60006020828403121561155157600080fd5b81357fffffffff000000000000000000000000000000000000000000000000000000008116811461132957600080fd5b60006020828403121561159357600080fd5b5035919050565b73ffffffffffffffffffffffffffffffffffffffff81168114610b4957600080fd5b6000806000806000608086880312156115d457600080fd5b85356115df8161159a565b945060208601356115ef8161159a565b935060408601359250606086013567ffffffffffffffff8082111561161357600080fd5b818801915088601f83011261162757600080fd5b81358181111561163657600080fd5b89602082850101111561164857600080fd5b9699959850939650602001949392505050565b60008083601f84011261166d57600080fd5b50813567ffffffffffffffff81111561168557600080fd5b6020830191508360208260051b85010111156116a057600080fd5b9250929050565b600080600080600080606087890312156116c057600080fd5b863567ffffffffffffffff808211156116d857600080fd5b6116e48a838b0161165b565b909850965060208901359150808211156116fd57600080fd5b6117098a838b0161165b565b9096509450604089013591508082111561172257600080fd5b5061172f89828a0161165b565b979a9699509497509295939492505050565b60006020828403121561175357600080fd5b81356113298161159a565b6000806000806040858703121561177457600080fd5b843567ffffffffffffffff8082111561178c57600080fd5b6117988883890161165b565b909650945060208701359150808211156117b157600080fd5b506117be8782880161165b565b95989497509550505050565b7f4e487b7100000000000000000000000000000000000000000000000000000000600052604160045260246000fd5b604051601f82017fffffffffffffffffffffffffffffffffffffffffffffffffffffffffffffffe016810167ffffffffffffffff81118282101715611840576118406117ca565b604052919050565b600067ffffffffffffffff821115611862576118626117ca565b5060051b60200190565b600082601f83011261187d57600080fd5b8135602061189261188d83611848565b6117f9565b8083825260208201915060208460051b8701019350868411156118b457600080fd5b602086015b848110156118d057803583529183019183016118b9565b509695505050505050565b600080600080600060a086880312156118f357600080fd5b853594506020808701359450604087013567ffffffffffffffff8082111561191a57600080fd5b818901915089601f83011261192e57600080fd5b813561193c61188d82611848565b81815260059190911b8301840190848101908c83111561195b57600080fd5b938501935b8285101561197957843582529385019390850190611960565b97505050606089013592508083111561199157600080fd5b61199d8a848b0161186c565b945060808901359250808311156119b357600080fd5b50506119c18882890161186c565b9150509295509295909350565b60008151602080840160005b838110156119f6578151875295820195908201906001016119da565b509495945050505050565b7fffffffffffffffffffffffffffffffffffffffff0000000000000000000000008660601b1681526000611a41611a3b60148401886119ce565b866119ce565b938452505060208201526040019392505050565b8051808352602092830192600091908084018383156119f6578151875295820195908201906001016119da565b73ffffffffffffffffffffffffffffffffffffffff8616815260a060208201526000611ab160a0830187611a55565b8281036040840152611ac38187611a55565b60608401959095525050608001529392505050565b73ffffffffffffffffffffffffffffffffffffffff84168152608060208201526000611b076080830185611a55565b8281036040840152611b198185611a55565b8381036060909401939093525050600081526020019392505050565b838152606060208201526000611b4e6060830185611a55565b8281036040840152611b608185611a55565b9695505050505050565b600060208284031215611b7c57600080fd5b8151801515811461132957600080fd5b7f4e487b7100000000000000000000000000000000000000000000000000000000600052603260045260246000fd5b818103818111156102e2577f4e487b7100000000000000000000000000000000000000000000000000000000600052601160045260246000fd5b60005b83811015611c10578181015183820152602001611bf8565b50506000910152565b60008251611c2b818460208701611bf5565b9190910192915050565b6020815260008251806020840152611c54816040850160208701611bf5565b601f017fffffffffffffffffffffffffffffffffffffffffffffffffffffffffffffffe016919091016040019291505056fea2646970667358221220bd22e82ae59a0dc4d705c130d6c5daa90bbb9cae0c17d31dbeb0c7b91c01189564736f6c63430008160033",
  "linkReferences": {},
  "deployedLinkReferences": {}
}