{
  "_format": "hh-sol-artifact-1",
  "contractName": "ChaosKingdomResourcesClaim",
  "sourceName": "contracts/payment/ChaosKingdomResourcesClaim.sol",
  "abi": [
    {
      "inputs": [
        {
          "internalType": "contract IERC20",
          "name": "feeContract",
          "type": "address"
        },
        {
          "internalType": "contract IERC1155Mintable",
          "name": "rewardContract",
          "type": "address"
        },
        {
          "internalType": "contract IForwarderRegistry",
          "name": "forwarderRegistry",
          "type": "address"
        }
      ],
      "stateMutability": "nonpayable",
      "type": "constructor"
    },
    {
      "inputs": [
        {
          "internalType": "address",
          "name": "recipient",
          "type": "address"
        },
        {
          "internalType": "uint256[]",
          "name": "ids",
          "type": "uint256[]"
        },
        {
          "internalType": "uint256[]",
          "name": "values",
          "type": "uint256[]"
        },
        {
          "internalType": "uint256",
          "name": "fee",
          "type": "uint256"
        },
        {
          "internalType": "bytes32",
          "name": "epochId",
          "type": "bytes32"
        }
      ],
      "name": "AlreadyClaimed",
      "type": "error"
    },
    {
      "inputs": [
        {
          "internalType": "address",
          "name": "sender",
          "type": "address"
        },
        {
          "internalType": "address",
          "name": "expectedContract",
          "type": "address"
        }
      ],
      "name": "FeeContractMismatch",
      "type": "error"
    },
    {
      "inputs": [],
      "name": "IllegalInterfaceId",
      "type": "error"
    },
    {
      "inputs": [
        {
          "internalType": "address",
          "name": "recipient",
          "type": "address"
        },
        {
          "internalType": "uint256[]",
          "name": "ids",
          "type": "uint256[]"
        },
        {
          "internalType": "uint256[]",
          "name": "values",
          "type": "uint256[]"
        },
        {
          "internalType": "uint256",
          "name": "fee",
          "type": "uint256"
        },
        {
          "internalType": "bytes32",
          "name": "epochId",
          "type": "bytes32"
        }
      ],
      "name": "InvalidProof",
      "type": "error"
    },
    {
      "inputs": [
        {
          "internalType": "bytes32",
          "name": "merkleRoot",
          "type": "bytes32"
        }
      ],
      "name": "MerkleRootAlreadyExists",
      "type": "error"
    },
    {
      "inputs": [
        {
          "internalType": "bytes32",
          "name": "merkleRoot",
          "type": "bytes32"
        }
      ],
      "name": "MerkleRootDoesNotExist",
      "type": "error"
    },
    {
      "inputs": [
        {
          "internalType": "address",
          "name": "account",
          "type": "address"
        }
      ],
      "name": "NotContractOwner",
      "type": "error"
    },
    {
      "anonymous": false,
      "inputs": [
        {
          "indexed": false,
          "internalType": "bytes32",
          "name": "root",
          "type": "bytes32"
        }
      ],
      "name": "MerkleRootAdded",
      "type": "event"
    },
    {
      "anonymous": false,
      "inputs": [
        {
          "indexed": false,
          "internalType": "bytes32",
          "name": "root",
          "type": "bytes32"
        }
      ],
      "name": "MerkleRootDeprecated",
      "type": "event"
    },
    {
      "anonymous": false,
      "inputs": [
        {
          "indexed": true,
          "internalType": "address",
          "name": "previousOwner",
          "type": "address"
        },
        {
          "indexed": true,
          "internalType": "address",
          "name": "newOwner",
          "type": "address"
        }
      ],
      "name": "OwnershipTransferred",
      "type": "event"
    },
    {
      "anonymous": false,
      "inputs": [
        {
          "indexed": true,
          "internalType": "bytes32",
          "name": "root",
          "type": "bytes32"
        },
        {
          "indexed": false,
          "internalType": "bytes32",
          "name": "epochId",
          "type": "bytes32"
        },
        {
          "indexed": false,
          "internalType": "uint256",
          "name": "fee",
          "type": "uint256"
        },
        {
          "indexed": true,
          "internalType": "address",
          "name": "recipient",
          "type": "address"
        },
        {
          "indexed": false,
          "internalType": "uint256[]",
          "name": "ids",
          "type": "uint256[]"
        },
        {
          "indexed": false,
          "internalType": "uint256[]",
          "name": "values",
          "type": "uint256[]"
        }
      ],
      "name": "PayoutClaimed",
      "type": "event"
    },
    {
      "inputs": [],
      "name": "FEE_CONTRACT",
      "outputs": [
        {
          "internalType": "contract IERC20",
          "name": "",
          "type": "address"
        }
      ],
      "stateMutability": "view",
      "type": "function"
    },
    {
      "inputs": [],
      "name": "REWARD_CONTRACT",
      "outputs": [
        {
          "internalType": "contract IERC1155Mintable",
          "name": "",
          "type": "address"
        }
      ],
      "stateMutability": "view",
      "type": "function"
    },
    {
      "inputs": [
        {
          "internalType": "bytes32",
          "name": "merkleRoot",
          "type": "bytes32"
        }
      ],
      "name": "addMerkleRoot",
      "outputs": [],
      "stateMutability": "nonpayable",
      "type": "function"
    },
    {
      "inputs": [
        {
          "internalType": "address",
          "name": "recipient",
          "type": "address"
        },
        {
          "internalType": "bytes",
          "name": "claimData",
          "type": "bytes"
        },
        {
          "internalType": "uint256",
          "name": "fee",
          "type": "uint256"
        }
      ],
      "name": "claim",
      "outputs": [],
      "stateMutability": "nonpayable",
      "type": "function"
    },
    {
      "inputs": [
        {
          "internalType": "bytes32",
          "name": "",
          "type": "bytes32"
        }
      ],
      "name": "claimed",
      "outputs": [
        {
          "internalType": "bool",
          "name": "",
          "type": "bool"
        }
      ],
      "stateMutability": "view",
      "type": "function"
    },
    {
      "inputs": [
        {
          "internalType": "bytes32",
          "name": "merkleRoot",
          "type": "bytes32"
        }
      ],
      "name": "deprecateMerkleRoot",
      "outputs": [],
      "stateMutability": "nonpayable",
      "type": "function"
    },
    {
      "inputs": [],
      "name": "forwarderRegistry",
      "outputs": [
        {
          "internalType": "contract IForwarderRegistry",
          "name": "",
          "type": "address"
        }
      ],
      "stateMutability": "view",
      "type": "function"
    },
    {
      "inputs": [
        {
          "internalType": "address",
          "name": "forwarder",
          "type": "address"
        }
      ],
      "name": "isTrustedForwarder",
      "outputs": [
        {
          "internalType": "bool",
          "name": "",
          "type": "bool"
        }
      ],
      "stateMutability": "view",
      "type": "function"
    },
    {
      "inputs": [
        {
          "internalType": "address",
          "name": "operator",
          "type": "address"
        },
        {
          "internalType": "address",
          "name": "from",
          "type": "address"
        },
        {
          "internalType": "uint256",
          "name": "value",
          "type": "uint256"
        },
        {
          "internalType": "bytes",
          "name": "data",
          "type": "bytes"
        }
      ],
      "name": "onERC20Received",
      "outputs": [
        {
          "internalType": "bytes4",
          "name": "magicValue",
          "type": "bytes4"
        }
      ],
      "stateMutability": "nonpayable",
      "type": "function"
    },
    {
      "inputs": [],
      "name": "owner",
      "outputs": [
        {
          "internalType": "address",
          "name": "",
          "type": "address"
        }
      ],
      "stateMutability": "view",
      "type": "function"
    },
    {
      "inputs": [
        {
          "internalType": "bytes32",
          "name": "",
          "type": "bytes32"
        }
      ],
      "name": "roots",
      "outputs": [
        {
          "internalType": "bool",
          "name": "",
          "type": "bool"
        }
      ],
      "stateMutability": "view",
      "type": "function"
    },
    {
      "inputs": [
        {
          "internalType": "bytes4",
          "name": "interfaceId",
          "type": "bytes4"
        }
      ],
      "name": "supportsInterface",
      "outputs": [
        {
          "internalType": "bool",
          "name": "",
          "type": "bool"
        }
      ],
      "stateMutability": "view",
      "type": "function"
    },
    {
      "inputs": [
        {
          "internalType": "address",
          "name": "newOwner",
          "type": "address"
        }
      ],
      "name": "transferOwnership",
      "outputs": [],
      "stateMutability": "nonpayable",
      "type": "function"
    }
  ],
  "bytecode": "0x60e06040523480156200001157600080fd5b5060405162001758380380620017588339810160408190526200003491620001dd565b8080336200004d81620000466200008e565b90620000c4565b506200006e634fc3585960e01b60016200006662000137565b919062000167565b6001600160a01b0390811660805293841660c05250501660a05262000253565b600080620000be60017fc9ed16f33ab3a66c84bfd83099ccb2a8845871e2e1c1928f63797152f0fd54cd62000231565b92915050565b6001600160a01b038116156200011b5781546001600160a01b0319166001600160a01b03821690811783556040516000907f8be0079c531659141344cd1fd0a4f28419497f9722a3daafe3b4186f6b6457e0908290a35b620001336307f5828d60e41b60016200006662000137565b5050565b600080620000be60017fca9d3e17f264b0f3984e2634e94adb37fa3e6a8103f06aeae6fa59e21c769f5e62000231565b600160e01b6001600160e01b031983160162000196576040516372c683bb60e01b815260040160405180910390fd5b6001600160e01b03199190911660009081526020929092526040909120805460ff1916911515919091179055565b6001600160a01b0381168114620001da57600080fd5b50565b600080600060608486031215620001f357600080fd5b83516200020081620001c4565b60208501519093506200021381620001c4565b60408501519092506200022681620001c4565b809150509250925092565b81810381811115620000be57634e487b7160e01b600052601160045260246000fd5b60805160a05160c05161149d620002bb60003960008181610111015281816104870152818161050501526106840152600081816101ab01528181610584015261073101526000818161015a0152818161022101528181610cf40152610d7c015261149d6000f3fe608060405234801561001057600080fd5b50600436106100df5760003560e01c80634fc358591161008c5780638da5cb5b116100665780638da5cb5b14610271578063ae6dead714610279578063cc3c0f061461029c578063f2fde38b146102bf57600080fd5b80634fc35859146101cd578063572b6c05146102115780638bd8d0a91461025e57600080fd5b80633323c807116100bd5780633323c8071461017e5780633572aa8d146101935780633a5af339146101a657600080fd5b806301ffc9a7146100e45780631352acac1461010c5780632b4c9f1614610158575b600080fd5b6100f76100f2366004610e83565b6102d2565b60405190151581526020015b60405180910390f35b6101337f000000000000000000000000000000000000000000000000000000000000000081565b60405173ffffffffffffffffffffffffffffffffffffffff9091168152602001610103565b7f0000000000000000000000000000000000000000000000000000000000000000610133565b61019161018c366004610ec5565b6102ec565b005b6101916101a1366004610ec5565b6103ca565b6101337f000000000000000000000000000000000000000000000000000000000000000081565b6101e06101db366004610f50565b610483565b6040517fffffffff000000000000000000000000000000000000000000000000000000009091168152602001610103565b6100f761021f366004610fbf565b7f000000000000000000000000000000000000000000000000000000000000000073ffffffffffffffffffffffffffffffffffffffff90811691161490565b61019161026c366004610fda565b61061d565b6101336107a4565b6100f7610287366004610ec5565b60006020819052908152604090205460ff1681565b6100f76102aa366004610ec5565b60016020526000908152604090205460ff1681565b6101916102cd366004610fbf565b6107d0565b60006102e6826102e06107ee565b9061081c565b92915050565b6103056102f76108f6565b6102ff610900565b9061092e565b60008181526020819052604090205460ff1615610356576040517f5d35de37000000000000000000000000000000000000000000000000000000008152600481018290526024015b60405180910390fd5b6000818152602081905260409081902080547fffffffffffffffffffffffffffffffffffffffffffffffffffffffffffffff00166001179055517fbdd203dd78bf49cf79e4db0ecdf7d27adc380fb1f33beef2667a50db9d2a0e04906103bf9083815260200190565b60405180910390a150565b6103d56102f76108f6565b60008181526020819052604090205460ff16610420576040517fc9c3405a0000000000000000000000000000000000000000000000000000000081526004810182905260240161034d565b6000818152602081815260409182902080547fffffffffffffffffffffffffffffffffffffffffffffffffffffffffffffff0016905590518281527f578eab65d47cffa57066b105301289ff86bfdc0adc2a701c3356d2a6eb6a612391016103bf565b60007f000000000000000000000000000000000000000000000000000000000000000073ffffffffffffffffffffffffffffffffffffffff163314610532576040517f6c50e90500000000000000000000000000000000000000000000000000000000815233600482015273ffffffffffffffffffffffffffffffffffffffff7f000000000000000000000000000000000000000000000000000000000000000016602482015260440161034d565b836000806105428887878661099d565b6040517f0d6a5bbb000000000000000000000000000000000000000000000000000000008152919350915073ffffffffffffffffffffffffffffffffffffffff7f00000000000000000000000000000000000000000000000000000000000000001690630d6a5bbb906105bd908b9086908690600401611070565b600060405180830381600087803b1580156105d757600080fd5b505af11580156105eb573d6000803e3d6000fd5b507f4fc35859000000000000000000000000000000000000000000000000000000009c9b505050505050505050505050565b60008061062c8686868661099d565b6040517f23b872dd00000000000000000000000000000000000000000000000000000000815273ffffffffffffffffffffffffffffffffffffffff8981166004830152306024830152604482018790529294509092507f0000000000000000000000000000000000000000000000000000000000000000909116906323b872dd906064016020604051808303816000875af11580156106cf573d6000803e3d6000fd5b505050506040513d601f19601f820116820180604052508101906106f391906110cd565b506040517f0d6a5bbb00000000000000000000000000000000000000000000000000000000815273ffffffffffffffffffffffffffffffffffffffff7f00000000000000000000000000000000000000000000000000000000000000001690630d6a5bbb9061076a90899086908690600401611070565b600060405180830381600087803b15801561078457600080fd5b505af1158015610798573d6000803e3d6000fd5b50505050505050505050565b60006107cb6107b1610900565b5473ffffffffffffffffffffffffffffffffffffffff1690565b905090565b6107eb6107db6108f6565b826107e4610900565b9190610b9c565b50565b6000806102e660017fca9d3e17f264b0f3984e2634e94adb37fa3e6a8103f06aeae6fa59e21c769f5e6110ef565b60007c01000000000000000000000000000000000000000000000000000000007fffffffff0000000000000000000000000000000000000000000000000000000083160161086c575060006102e6565b7ffe003659000000000000000000000000000000000000000000000000000000007fffffffff000000000000000000000000000000000000000000000000000000008316016108bd575060016102e6565b507fffffffff00000000000000000000000000000000000000000000000000000000166000908152602091909152604090205460ff1690565b60006107cb610cb1565b6000806102e660017fc9ed16f33ab3a66c84bfd83099ccb2a8845871e2e1c1928f63797152f0fd54cd6110ef565b815473ffffffffffffffffffffffffffffffffffffffff828116911614610999576040517f2ef4875e00000000000000000000000000000000000000000000000000000000815273ffffffffffffffffffffffffffffffffffffffff8216600482015260240161034d565b5050565b6060806000808080806109b2898b018b61123a565b6000858152602081905260409020549499509297509095509350915060ff16610a0a576040517fc9c3405a0000000000000000000000000000000000000000000000000000000081526004810186905260240161034d565b60008b83838b88604051602001610a25959493929190611352565b604080517fffffffffffffffffffffffffffffffffffffffffffffffffffffffffffffffe081840301815291815281516020928301206000818152600190935291205490915060ff1615610aaf578b83838b886040517ff048f37a00000000000000000000000000000000000000000000000000000000815260040161034d9594939291906113a6565b610aba848783610df8565b610afa578b83838b886040517fdbf2ac7c00000000000000000000000000000000000000000000000000000000815260040161034d9594939291906113a6565b60008181526001602081905260409182902080547fffffffffffffffffffffffffffffffffffffffffffffffffffffffffffffff001690911790555173ffffffffffffffffffffffffffffffffffffffff8d169087907fbf561a0ae8123352abf33f8f113e6b265c2e7fe7ba9b4d450750454bcbb7233a90610b839089908e90899089906113fc565b60405180910390a350909a909950975050505050505050565b825473ffffffffffffffffffffffffffffffffffffffff9081169083168114610c09576040517f2ef4875e00000000000000000000000000000000000000000000000000000000815273ffffffffffffffffffffffffffffffffffffffff8416600482015260240161034d565b8173ffffffffffffffffffffffffffffffffffffffff168173ffffffffffffffffffffffffffffffffffffffff1614610cab5783547fffffffffffffffffffffffff00000000000000000000000000000000000000001673ffffffffffffffffffffffffffffffffffffffff8381169182178655604051908316907f8be0079c531659141344cd1fd0a4f28419497f9722a3daafe3b4186f6b6457e090600090a35b50505050565b600033321480610cc15750601836105b15610ccb57503390565b7fffffffffffffffffffffffffffffffffffffffffffffffffffffffffffffffec36013560601c7f000000000000000000000000000000000000000000000000000000000000000073ffffffffffffffffffffffffffffffffffffffff16331480610de757506040517f8929a8ca00000000000000000000000000000000000000000000000000000000815273ffffffffffffffffffffffffffffffffffffffff82811660048301523360248301527f00000000000000000000000000000000000000000000000000000000000000001690638929a8ca90604401602060405180830381865afa158015610dc3573d6000803e3d6000fd5b505050506040513d601f19601f82011682018060405250810190610de791906110cd565b15610df157919050565b3391505090565b600082610e058584610e0e565b14949350505050565b600081815b8451811015610e4957610e3f82868381518110610e3257610e32611438565b6020026020010151610e51565b9150600101610e13565b509392505050565b6000818310610e6d576000828152602084905260409020610e7c565b60008381526020839052604090205b9392505050565b600060208284031215610e9557600080fd5b81357fffffffff0000000000000000000000000000000000000000000000000000000081168114610e7c57600080fd5b600060208284031215610ed757600080fd5b5035919050565b803573ffffffffffffffffffffffffffffffffffffffff81168114610f0257600080fd5b919050565b60008083601f840112610f1957600080fd5b50813567ffffffffffffffff811115610f3157600080fd5b602083019150836020828501011115610f4957600080fd5b9250929050565b600080600080600060808688031215610f6857600080fd5b610f7186610ede565b9450610f7f60208701610ede565b935060408601359250606086013567ffffffffffffffff811115610fa257600080fd5b610fae88828901610f07565b969995985093965092949392505050565b600060208284031215610fd157600080fd5b610e7c82610ede565b60008060008060608587031215610ff057600080fd5b610ff985610ede565b9350602085013567ffffffffffffffff81111561101557600080fd5b61102187828801610f07565b9598909750949560400135949350505050565b60008151808452602080850194506020840160005b8381101561106557815187529582019590820190600101611049565b509495945050505050565b73ffffffffffffffffffffffffffffffffffffffff8416815260806020820152600061109f6080830185611034565b82810360408401526110b18185611034565b8381036060909401939093525050600081526020019392505050565b6000602082840312156110df57600080fd5b81518015158114610e7c57600080fd5b818103818111156102e6577f4e487b7100000000000000000000000000000000000000000000000000000000600052601160045260246000fd5b7f4e487b7100000000000000000000000000000000000000000000000000000000600052604160045260246000fd5b604051601f82017fffffffffffffffffffffffffffffffffffffffffffffffffffffffffffffffe016810167ffffffffffffffff8111828210171561119f5761119f611129565b604052919050565b600067ffffffffffffffff8211156111c1576111c1611129565b5060051b60200190565b600082601f8301126111dc57600080fd5b813560206111f16111ec836111a7565b611158565b8083825260208201915060208460051b87010193508684111561121357600080fd5b602086015b8481101561122f5780358352918301918301611218565b509695505050505050565b600080600080600060a0868803121561125257600080fd5b853594506020808701359450604087013567ffffffffffffffff8082111561127957600080fd5b818901915089601f83011261128d57600080fd5b813561129b6111ec826111a7565b81815260059190911b8301840190848101908c8311156112ba57600080fd5b938501935b828510156112d8578435825293850193908501906112bf565b9750505060608901359250808311156112f057600080fd5b6112fc8a848b016111cb565b9450608089013592508083111561131257600080fd5b5050611320888289016111cb565b9150509295509295909350565b8051600090602080840183831561106557815187529582019590820190600101611049565b7fffffffffffffffffffffffffffffffffffffffff0000000000000000000000008660601b168152600061139261138c601484018861132d565b8661132d565b938452505060208201526040019392505050565b73ffffffffffffffffffffffffffffffffffffffff8616815260a0602082015260006113d560a0830187611034565b82810360408401526113e78187611034565b60608401959095525050608001529392505050565b84815283602082015260806040820152600061141b6080830185611034565b828103606084015261142d8185611034565b979650505050505050565b7f4e487b7100000000000000000000000000000000000000000000000000000000600052603260045260246000fdfea2646970667358221220837b5d6700b8e477f84b5f6b9385e57d139bc1419bafdbe790082b9fda5c6c7464736f6c63430008160033",
  "linkReferences": {},
  "deployedLinkReferences": {}
}